:020000040800F2
:1000000000C40020C5010008A50E0008D10D00089D
:10001000A10E00087B070008911F000800000000E7
:100020000000000000000000000000004B16000867
:10003000D508000800000000491600089D160008B9
:10004000DF010008DF010008DF010008DF01000810
:10005000DF010008DF010008DF010008DF01000800
:10006000DF010008DF010008DF010008DF010008F0
:10007000DF010008DF010008DF010008DF010008E0
:10008000DF010008DF010008DF010008DF010008D0
:10009000DF010008DF010008DF010008D9080008BF
:1000A000DF010008051C0008E91B0008DF0100084B
:1000B000451C0008091D00088D1D0008DF0100080F
:1000C000DF010008DF010008DF010008DF01000890
:1000D000DF010008151F0008DF010008DF0100082C
:1000E000DF010008DF010008DF010008DF01000870
:1000F000DF010008DF010008DF010008DF01000860
:10010000DF010008DF010008F11D0008DF01000821
:10011000DF010008DF010008DF010008751E00088C
:10012000DF010008DF010008DF010008DF0100082F
:10013000DF010008DF010008DF010008DF0100081F
:10014000DF010008DF010008DF010008DF0100080F
:10015000DF010008DF0100084D080008DF0100088A
:10016000DF010008DF010008DF010008DF010008EF
:10017000DF010008DF01000831080008000000006E
:10018000DF010008DF010008DF010008DF010008CF
:10019000DF010008DF010008DF01000800000000A7
:1001A000DF010008DF010008DF010008DFF810D0E0
:1001B00000F096FA004800477D2D0008AFF300805C
:1001C00000C400200648804706480047FEE7FEE7D7
:1001D000FEE7FEE7FEE7FEE7FEE7FEE7FEE7FEE7F7
:1001E000A5160008AD010008D2B201E000F8012B0D
:1001F000491EFBD270470022F6E710B513460A46A7
:1002000004461946FFF7F0FF204610BD2DE9FE4FCA
:10021000804681EA0300C00F0C46009021F00041A7
:1002200023F00045B8EB0200A94105D24046214623
:1002300090461C460B46024623F00040104347D030
:10024000270DC7F30A00C3F30A510290401A019028
:1002500040286BDAC3F3130040F4801B00989246E9
:1002600020B10023D2EB030A63EB0B0B0198594634
:10027000C0F14002504600F0B5F906460D46504622
:100280005946019A00F0BDF910EB080061410024C5
:1002900087EA115284EAE7731A4340D0009A62B3A6
:1002A000019A012A4FEA075215DC001B61EB02019B
:1002B0004FF0004202EA0752CDE90042001C41F52E
:1002C000801132462B4600F0BDF903B0BDE8F08F37
:1002D00040462146F9E7001B61EB0201001C41F595
:1002E000801300185B412018A2F5001747EB0301AB
:1002F00040EAD570B6196D4111E06D084FEA360637
:1003000045EAC0754FEA0752001B61EB0201001C71
:1003100041F5801149084FEA300000195141324639
:100320002B4603B0BDE8F04F00F07DB900980122E4
:1003300040000023D0EB020263EBE07300982146FB
:100340004FEAE074B8EB000061EB0401E9E783F0E9
:1003500000435BE781F0004158E72DE9FE4F81EA59
:10036000030404F0004421F0004100944FF0000B1E
:1003700023F0004350EA01045ED052EA03045BD04C
:10038000C3F30A54C1F30A552C44A4F2F334019484
:10039000A0FB0254C1F3130141F48011C3F3130312
:1003A00043F4801301FB024400FB034E840A970AC6
:1003B00044EA815447EA8357A4FB076802958D0AF3
:1003C00005FB07854FEA932C04FB0C542705029D7F
:1003D0004FEA065847EA1637B5EB08056EEB070CEF
:1003E000870E920E47EA811742EA8312A7FB0201A9
:1003F000B6EB0B0164EB00042B0D43EA0C335E18E3
:1004000044EB1C50DA465146E7FB0201C5F31304E6
:100410004FEA0B3343EA14534FEA0432019C43EA98
:100420000603A4F10C040294009CCDE900B400F092
:1004300009F903B0BDE8F08F00200146F9E72DE986
:10044000F04D81EA030404F0004B21F0004514460E
:100450004FF0000A23F0004150EA050220D054EA90
:1004600001021DD0C5F30A570246C5F31303C1F3B9
:100470001300C1F30A5640F4801543F48013A7EB30
:100480000608101BD64608F2FD3873EB050002D3B0
:1004900008F1010801E092185B41B8F1000F03DA9E
:1004A00000200146BDE8F08D00204FF48011064683
:1004B00084460EE0171B73EB050705D3121B63EB95
:1004C000050306434CEA010C49084FEA3000921834
:1004D0005B4150EA0107EDD152EA030012D082EAF3
:1004E000040083EA0501084305D0101BAB4106D286
:1004F0000122002306E000224FF0004302E06FF0EB
:10050000010253101AEB06004CEB085110EB0A00E5
:1005100041EB0B01BDE8F04D00F085B80EB5C10F01
:1005200080EAE0700844CA07002140F233438DE8B6
:100530000E000A460B4600F085F803B000BD0EB56C
:1005400040F2334102910021CDE900110A460B46E9
:1005500000F078F803B000BD30B5041E71F100045E
:1005600004DB4FF00044404264EB0101141E73F1C0
:10057000000405DB1C464FF00043524263EB0403CA
:100580008B4208BF824230BD30B5041E71F10004B9
:1005900004DB4FF00044404264EB0101141E73F190
:1005A000000405DB1C464FF00043524263EB04039A
:1005B000994208BF904230BD30B50B46014600203D
:1005C0002022012409E021FA02F59D4205D303FA15
:1005D00002F5491B04FA02F52844151EA2F1010296
:1005E000F1DC30BD202A04DB203A00FA02F10020C1
:1005F00070479140C2F1200320FA03F31943904061
:100600007047202A06DBCB17203A41FA02F043EA72
:10061000E07306E041FA02F3D040C2F120029140BB
:1006200008431946704710B5141E73F1000408DA28
:10063000401C41F1000192185B411A4301D120F0A6
:10064000010010BD2DE9F04D92469B4611B1B1FA63
:1006500081F202E0B0FA80F220329046FFF7C2FF4A
:1006600004460F4640EA0A0041EA0B0153465A4647
:10067000084313D0114653EA010019D0C8F14002D3
:10068000504600F03FF805460E4650465946424651
:10069000FFF7A8FF084305D0012004E020463946B3
:1006A000BDE8F08D0020054346EAE0762C43374351
:1006B0000A986305E40AA0EB08000022FD0A44EA58
:1006C00047540A3002D500200146E9E70105101918
:1006D0006941DDE9084500196941BDE8F04DA2E72F
:1006E000064C074D06E0E06840F0010394E807007F
:1006F00098471034AC42F6D3FFF75CFD3045000854
:1007000050450008202A04DB203A21FA02F000219B
:10071000704721FA02F3D040C2F120029140084311
:100720001946704770B58C1810F8015B15F0070377
:1007300001D110F8013B2A1106D110F8012B03E07A
:1007400010F8016B01F8016B5B1EF9D12B0705D482
:100750000023521E0DD401F8013BFAE710F8013BCB
:10076000CB1A921C03E013F8015B01F8015B521EE7
:10077000F9D5A142D8D3002070BD00BFFEE710B567
:1007800002F0ECFC10BD000038B5044645F6200030
:1007900000231A4604490090044802F061F82046FC
:1007A00000F09CFC38BD000058670020380F002086
:1007B00070B50546082D1FDA2946002000F0EEFB33
:1007C000002406E000224021782002F069FA601C33
:1007D000C4B2802CF6DB681CC1B2002000F0DEFB46
:1007E000002406E000224021782002F059FA601C23
:1007F000C4B2802CF6DB19E0082D17D100250026A5
:1008000012E02946002000F0C9FB002406E0002287
:100810004021782002F044FA601CC4B2802CF6DB40
:10082000681CC5B2701CC6B2082EEADB70BD0000A1
:1008300010B5012001F0C0FC012804D101F0B4FC86
:1008400001200149087010BD700E002010B5102263
:1008500007211E4801F035FE98B101201C4908709F
:10086000022002F07FFA20220721184801F00AFE38
:1008700010220721154801F0E6FD0721134801F079
:100880005DFD01220721114801F01BFE10B102207D
:1008900002F068FA042207210C4801F012FE10B1A0
:1008A000022002F05FFA08220721084801F009FE41
:1008B00010B1022002F056FA10220721034801F07D
:1008C00000FE10B1022002F04DFA10BD006402409B
:1008D000700E00207047000010B54FF4007001F05A
:1008E000ADFF01280FD1400201F0A2FF002002F06D
:1008F00039FA4FF400520721144801F091FF072103
:10090000124801F02BFD4FF4807001F097FF012891
:1009100002D1000201F08CFF802001F08FFF01283E
:1009200002D1802001F084FF402001F087FF0128E0
:1009300002D1402001F07CFF202001F07FFF012840
:1009400002D1202001F074FF10BD000000640240BD
:1009500070B586B006460D46632E01D1002400E036
:100960003446002C7DD1002DFCD141F20E1002F056
:10097000A9FDFE4931F8140002F0A4FDFC4951F82C
:100980002430FC4951F824000122022102F02BF806
:10099000F74B53F82420F84B53F82410F54B53F839
:1009A000240001F0DBFFF54951F82430F14951F8FA
:1009B00024000022114602F016F8F14931F8140023
:1009C00002F080FD4FF0807002F0B2FDED4951F869
:1009D000240003F027F9C720ADF808000020ADF887
:1009E0000A00ADF80C0041F2873004900020ADF809
:1009F0000E008DF81400E34951F8240002A903F019
:100A0000D9F90220ADF800000120ADF80200002065
:100A1000ADF80400ADF80600DB4A32F8242091B2AC
:100A2000D84A52F824006A4603F010FAD54951F822
:100A3000240002F045FFD54A52F82410D14A52F85A
:100A4000240003F0AAFACF4951F82400012103F051
:100A5000A4FACC4951F82400012103F09AFACB4AB8
:100A600000E013E052F82410C64A52F8240003F0C4
:100A700090FAC74911F824000022114602F0C6FB83
:100A8000C04951F8240003F08FF96DE0002C6BD1C0
:100A9000012D69D1B54931F8140002F013FDB449B4
:100AA00051F82430B34951F824000122022101F009
:100AB0009AFFB24951F82430AE4951F8240001227E
:100AC000022101F090FFAA4B53F82420AA4B53F8BF
:100AD0002410A84B53F8240001F040FFA74B53F813
:100AE0002420A54B53F82410A24B53F8240001F006
:100AF00035FFA34931F8140002F0E4FC280602F0A7
:100B000017FDA04951F8240003F08CF80920ADF836
:100B100008000020ADF80A00ADF80C0041F2883062
:100B200004900020ADF80E008DF81400954951F89E
:100B3000240002A903F03EF9924951F8240002F082
:100B4000BFFE904951F8240000231A46032103F008
:100B5000F5FA8C4951F8240003F026F941F2873167
:100B60008C4803F029FA00BF632E00D10124012C28
:100B70007ED1002DFCD141F20E1002F0A3FC7B4986
:100B800031F8140002F09EFC794951F8243079497B
:100B900051F824000122022101F025FF744B53F883
:100BA0002420754B53F82410724B53F8240001F0A5
:100BB000D5FE724951F824306E4951F824000022C4
:100BC000114601F010FF6E4931F8140002F07AFC72
:100BD000200602F0ADFC6B4951F8240003F022F826
:100BE000C720ADF808000020ADF80A00ADF80C00F1
:100BF00041F2873004900020ADF80E008DF814000B
:100C0000604951F8240002A903F0D4F80220ADF89D
:100C100000000120ADF802000020ADF80400ADF89E
:100C20000600594A32F8242091B2564A52F824005C
:100C30006A4603F00BF9534951F8240002F040FED4
:100C4000524A52F824104F4A52F8240003F0A5F9F2
:100C50004C4951F82400012103F09FF9494951F80A
:100C60002400012103F095F9484A52F8241000E0CD
:100C700011E0444A52F8240003F08BF9444911F87A
:100C800024000022114602F0C1FA3E4951F8240026
:100C900003F08AF885E0012C7ED1012D7CD1334907
:100CA00031F8140002F00EFC314951F8243031497A
:100CB00051F824000122022101F095FE2F4951F83C
:100CC00024302C4951F824000122022101F08BFE2E
:100CD000274B53F82420284B53F82410254B53F866
:100CE000240001F03BFE254B53F82420224B53F8FF
:100CF0002410204B53F8240001F030FE204931F835
:100D0000140002F0DFFB200602F012FC1D4951F82E
:100D1000240002F087FF0920ADF808000020ADF89C
:100D20000A00ADF80C0041F2883004900020ADF8C4
:100D30000E008DF81400134951F8240002A903F0A5
:100D400039F8104951F8240002F0BAFD0D4951F864
:100D5000240000231A46032103F0F0F9094951F851
:100D6000240003F021F841F2873116E068000020EA
:100D700058000020500000206C000020600000207F
:100D80007C000020740000208000002088000020EB
:100D9000980000200008004003E0034803F00CF92D
:100DA00000BF06B070BD000000080040014619B940
:100DB0000548008882B204E0012902D10348008876
:100DC00082B210B2704700004C0000204E0000209C
:100DD00000BFFEE710B50446632C0FD00D4931F873
:100DE000140002F06FFB0C4951F824300B4951F804
:100DF00024000122002101F0E8FD0AE040F6034052
:100E000002F060FB4FF47C5301220021044801F002
:100E1000DCFD10BD08020020F0010020D8010020F8
:100E2000000C02401CB50446632C1CD0184931F854
:100E3000140002F047FB174850F824000221CDE9C6
:100E40000010154951F8240000231A46012101F031
:100E5000F1FD104A52F824100F4A52F824000022E3
:100E600001F01FFE12E040F6034002F02BFB0F20C2
:100E7000022100231A46CDE900100121074801F0A4
:100E8000D9FD00220F21054801F00BFE1CBD00001A
:100E9000740200206402002054020020000C024072
:100EA00000BFFEE77047000010B5002807DA0A0708
:100EB000140E054A00F00F031B1FD45403E00A0769
:100EC000130E024A135410BD18ED00E000E400E0D8
:100ED00010B50021AE2000F0F7F80021084600F020
:100EE000F3F80021102000F0EFF80021402000F07E
:100EF000EBF80021B02000F0E7F80021812000F09D
:100F0000E3F80021FF2000F0DFF80021A12000F02D
:100F1000DBF80021A62000F0D7F80021A82000F07F
:100F2000D3F800213F2000F0CFF80021C82000F0C6
:100F3000CBF80021D32000F0C7F80021084600F0CC
:100F4000C3F80021D52000F0BFF80021802000F078
:100F5000BBF80021D92000F0B7F80021F12000F003
:100F6000B3F80021DA2000F0AFF80021122000F0E1
:100F7000ABF80021DB2000F0A7F80021302000F0C2
:100F8000A3F800218D2000F09FF80021142000F02C
:100F90009BF80021AF2000F097F810BD70B5044613
:100FA0000D4605F1B000002100F08EF8102141EA55
:100FB0001410002100F088F804F00F00002100F068
:100FC00083F870BD2DE9F04707460E4690469946D6
:100FD0004FF0000A0024A8F1200000F0FF0A174893
:100FE00000EB0A157F2F02DD0027B01CC6B2B9F155
:100FF000100F20D131463846FFF7D0FF002407E01C
:101000002A784021782001F04BFE6D1C601CC4B290
:10101000082CF5DB701CC1B23846FFF7BFFF002477
:1010200007E02A784021782001F03AFE6D1C601C10
:10103000C4B2082CF5DBBDE8F0870000FC020020FC
:101040002DE9FF5F074691461E460E9D4FF0000AB0
:10105000002435E0301B401EC1B20A2002F042F9E4
:10106000B9FBF0F00A21B0FBF1F201FB1208BAF172
:10107000000F14D1701EA04211DDB8F1000F0CD189
:10108000AB4605EBDB71491001FB0471C8B22B467E
:1010900020220199FFF796FF10E04FF0010AAB46BE
:1010A00005EBDB71491001FB0471C8B208F1300196
:1010B000CAB22B460199FFF785FF00BF601CC4B27E
:1010C000B442C7DBBDE8FF9F70B504460D46E2B2EF
:1010D000E9B2782001F0E4FD70BD00002DE9F04197
:1010E0000746002400250026A04641460020FFF7C1
:1010F00055FF00BF85E0002576E000266000C0EBCC
:10110000001101EB4010414901EB8000405DB84205
:1011100001DB46F00106601C4000C0EB001101EB52
:1011200040103A4901EB8000405DB84201DB46F0D7
:101130000206A01C4000C0EB001101EB4010334937
:1011400001EB8000405DB84201DB46F00406E01C84
:101150004000C0EB001101EB40102C4901EB800076
:10116000405DB84201DB46F00806201D4000C0EBA0
:10117000001101EB4010254901EB8000405DB842B1
:1011800001DB46F01006601D4000C0EB001101EBD2
:1011900040101E4901EB8000405DB84201DB46F083
:1011A0002006A01D4000C0EB001101EB40101749C4
:1011B00001EB8000405DB84201DB46F04006E01DD7
:1011C0004000C0EB001101EB4010104901EB800022
:1011D000405DB84201DB46F080063246402178206F
:1011E00001F05EFDA81CC5B2BC2D86DB08F1010034
:1011F00000F0FF0841460020FFF7D0FE04F1080090
:10120000C4B2382CFFF677AFBDE8F08158670020F4
:101210002DE9F04F2DED108BC9B04FF4807108A867
:10122000FEF7E9FF4FF00009CA46CB4600200790C1
:10123000069005900490002704E0002008A9C855F6
:10124000781C87B2FF2FF8DD002722E04FF000085E
:101250001AE0C7EB071000EB4710774901EB80005D
:1012600010F8080008A9085C401CC7EB071101EB47
:101270004711714A02EB810111F8081008AA505475
:1012800008F101001FFA80F8B8F1BC0FE1DB781C0F
:1012900087B2782FDADB002501E0681C05B2FF2D4C
:1012A00003DC08A8405D0028F7D0FF2601E0701E8F
:1012B00006B2AE4203DD08A8405D0028F7D0AE427A
:1012C00005D1F0B249B0BDEC108BBDE8F08F681CC1
:1012D000B04201D1E8B2F5E72C4604E008A8005D71
:1012E0008144601C04B2B442F8DD002007902C4613
:1012F00007E008A8015D079801FB04000790601C47
:1013000004B2B442F5DD9FED4D8B2C468EE008A86B
:10131000005D8244A9EB0A0005904846FFF70FF9EB
:1013200041EC1E0B5046FFF70AF941EC1F0B53EC42
:101330001E2BFFF784F841EC1C0B4846FFF7FFF823
:1013400041EC1E0B0598FFF7E9F841EC1F0B53EC3D
:101350001E2BFFF774F841EC1D0B08A8005D00FB85
:1013600004BB0798A0EB0B0006905046FFF7E7F888
:1013700041EC1E0B5846FFF7E2F841EC1F0B53EC13
:101380001E2BFFF75CF841EC1A0B0598FFF7C6F827
:1013900041EC1E0B0698FFF7C1F841EC1F0B53EC14
:1013A0001E2BFFF74CF841EC1B0B53EC1B2B51ECA5
:1013B0001A0BFEF7CCFF53EC1B2BCDE9020151ECCD
:1013C0001A0BFEF7C4FF41EC1E0B53EC1D2B51EC26
:1013D0001C0BFEF7C2FF41EC1F0B53EC1E2BFEF75C
:1013E000BCFFCDE900019DED020B53EC102B9DEDF0
:1013F000000B51EC100BFEF7B0FF41EC190B53EC56
:10140000182B51EC190BFFF7BFF805D2B0EE498A43
:10141000F0EE698AE0B2049053EC182B51EC190BF2
:10142000FFF79AF800D204E0601C04B2B442FFF661
:101430006EAF00BF049845E7380F002000000000A1
:101440000000F0BF30B589B005460C464FF440604F
:1014500002F038F840F6044002F034F84FF47063BC
:1014600001220221634801F0BEFA4FF460630222B8
:101470000021604801F0F4FA4FF4007201215D4848
:1014800001F06CFA4FF4006201215A4801F066FA4B
:101490004FF480720121574801F060FA4FF48062E6
:1014A0000121544801F05AFA4FF4885002F00AF82A
:1014B0000020ADF81C00504802F0B4FB681E80B25A
:1014C000ADF808000020ADF80A00ADF80C00601E71
:1014D00004900020ADF80E008DF8140002A94648D3
:1014E00002F068FC0020ADF81C000120ADF81800E7
:1014F0000020ADF81E00ADF81A00ADF82000ADF8E0
:10150000220006AA00213C4802F022FA00221146DD
:10151000394802F040FB60220021374802F00EFB00
:1015200000221146344802F049FB06AA0121324844
:1015300002F00EFA00220121880702F02CFB602243
:1015400001212D4802F0FAFA002201212A4802F076
:1015500035FB06AA0221284802F0FAF900220221EE
:10156000254802F018FB60220221234802F0E6FA27
:1015700000220221204802F021FB06AA03211E4876
:1015800002F0E6F9002203211B4802F004FB60226E
:101590000321194802F0D2FA00220321164802F072
:1015A0000DFB0121144802F0BDFD134802F088F93B
:1015B000114802F0F9FB0420022100231A46CDE96C
:1015C00000100C4801F036FA04220321094801F00A
:1015D000C5F94FF4AF6044F61F61C7230022CDE97F
:1015E0000010064941F2101001F087FE0448048003
:1015F00009B030BD00000240000001400040014041
:101600006C0E00202DE9F04104460D460C48008880
:1016100068434FF47A7190FBF1F087B204B9002669
:10162000012C00D10126022C00D10326032C00D16D
:1016300002263A463146034802F0ADFABDE8F08191
:101640006C0E0020000001407047704710B5044642
:10165000632C0FD00D4931F8140001F033FF0C4911
:1016600051F824300B4951F824000122002101F0E7
:10167000ACF909E040F6064001F024FF3C230122CA
:101680000021054801F0A1F910BD0000440200202E
:101690002C020020140200200018024010B500F0B7
:1016A00041FE10BD08B52948006840F47000274984
:1016B00008602748006840F0010025490860244878
:1016C0000830006840F0800021490831086000209F
:1016D000009002E00098401C00904CF250310098BD
:1016E0008842F7D31A480830006840F09000184943
:1016F000083108600020009002E00098401C009033
:101700004CF2503100988842F7D30020104908313C
:10171000086000BF0E480830006800200028F9D19A
:101720000B4800680B490840094908600A48091D30
:101730000860081F006820F48020091F086000204E
:1017400003490C31086002F08FF808BD88ED00E015
:1017500000380240FFFFF6FE1030002410B52A20AA
:1017600000F05EF8002000F02FF8002000F02CF8C8
:10177000002000F029F8A82000F026F82B2000F027
:101780004FF8002000F020F8002000F01DF80020A5
:1017900000F01AF8B32000F017F82C2000F040F801
:1017A00010BD70B50646FFF7D9FF002408E00025FC
:1017B00003E0304600F062F86D1C842DF9D3641C00
:1017C000A22CF4D370BD000070B504460122910331
:1017D000124801F066F900251DE000224FF4005187
:1017E0000E4801F05EF904F0800028B10122D10317
:1017F0000A4801F056F905E000224FF4004107487D
:1018000001F04FF901225103044801F04AF9600642
:10181000040E681CC5B2082DDFDB70BD0004024059
:1018200070B5044600224FF48041134801F039F9A5
:1018300000251DE000224FF400510F4801F031F95E
:1018400004F0800028B10122D1030B4801F029F9EE
:1018500005E000224FF40041074801F022F901227F
:101860005103054801F01DF96006040E681CC5B25D
:10187000082DDFDB70BD00000004024070B5044697
:1018800001229103134801F00CF900251FE000220A
:101890004FF400510F4801F004F904F4004028B15E
:1018A0000122D1030B4801F0FCF805E000224FF4BF
:1018B0000041084801F0F5F801225103054801F004
:1018C000F0F84FF6FF7000EA4404681CC5B2102D12
:1018D000DDDB70BD0004024010B5044600224FF469
:1018E0000041744801F0DDF8322000F011FD0122C2
:1018F000D103704801F0D5F8322000F009FD112025
:10190000FFF78EFF0A2000F003FD3A20FFF788FF63
:101910005520FFF759FF2620FFF782FF0420FFF72D
:1019200053FFF220FFF77CFF0120FFF74DFFE0207F
:10193000FFF776FF3F20FFF747FF2520FFF744FF23
:101940001C20FFF741FF1E20FFF73EFF2020FFF77E
:101950003BFF1220FFF738FF2A20FFF735FF9020CA
:10196000FFF732FF2420FFF72FFF1120FFF72CFF96
:101970000020FFF729FF0020FFF726FF0020FFF7D8
:1019800023FF0020FFF720FF0020FFF71DFFE120CD
:10199000FFF746FF2020FFF717FF2020FFF714FF77
:1019A0002020FFF711FF2020FFF70EFF0520FFF793
:1019B0000BFF0020FFF708FF1520FFF705FFA7200A
:1019C000FFF702FF3D20FFF7FFFE1820FFF7FCFEA8
:1019D0002520FFF7F9FE2A20FFF7F6FE2B20FFF760
:1019E000F3FE2B20FFF7F0FE3A20FFF7EDFEB120CB
:1019F000FFF716FF0020FFF7E7FE0020FFF7E4FEE9
:101A0000B420FFF70DFF0720FFF7DEFEC020FFF731
:101A100007FF0A20FFF7D8FE0220FFF7D5FEC120FE
:101A2000FFF7FEFE0220FFF7CFFEC520FFF7F8FE0E
:101A30004F20FFF7C9FE5A20FFF7C6FEC720FFF769
:101A4000EFFE4020FFF7C0FE2A20FFF7E9FE00204E
:101A5000FFF7BAFE0020FFF7B7FE0020FFF7B4FE45
:101A6000A820FFF7B1FE2B20FFF7DAFE0020FFF7DA
:101A7000ABFE0020FFF7A8FE0020FFF7A5FEB32075
:101A8000FFF7A2FE3620FFF7CBFE1CB1C020FFF708
:101A90009BFE02E0A020FFF797FEB720FFF7C0FEF5
:101AA0000020FFF791FE2920FFF7BAFE2C20FFF758
:101AB000B7FE10BD000C02401CB540F6034001F01B
:101AC00001FD4FF40040022100231A46CDE9001029
:101AD0000121424800F0AEFF00224FF400413F4890
:101AE00000F0DFFF40F6014001F0ECFC4FF48040D5
:101AF000022100231A46CDE900100121384800F0E8
:101B000099FF00224FF48041354800F0CAFF40F6AB
:101B1000014001F0D7FC4FF40050022100230122C4
:101B2000CDE900102E4800F085FF4FF4005205214A
:101B30002B4800F013FF00224FF40051284800F01A
:101B4000B0FF4FF4005301220221254800F04BFF63
:101B500040F6014001F0B6FC4FF4004002210023A2
:101B60001A46CDE9001001211D4800F063FF002254
:101B70004FF400411A4800F094FF40F6014001F094
:101B8000A1FC4FF40050022100231A46CDE90010B9
:101B90000121134800F04EFF00224FF4005110487D
:101BA00000F07FFF40F6014001F08CFC4FF48050C4
:101BB000022100231A46CDE900100121084800F057
:101BC00039FF00224FF48051054800F06AFF41F2CE
:101BD0000E01044801F0FAFC1CBD0000000C02409C
:101BE000000402400038004010B50121044802F012
:101BF000D7F918B10121024802F0CFF910BD000059
:101C00000048014010B501210B4802F0C9F988B124
:101C10000121094802F0C1F90120FFF7C7F807497F
:101C200088800020FFF7C2F80549888001F044F958
:101C300001F0C4F810BD00000044014078BF00204E
:101C400094BF002010B50221480702F0A9F901282D
:101C500047D10221800702F0A0F9012001F082F8AB
:101C60002048008858B900214FF0804001F02DFE37
:101C7000401C1D49088001201A49088031E019489C
:101C8000008801282DD10021800701F01EFE401C94
:101C9000164908800846008813490988884207DDEC
:101CA0001248008810490988401A1149086009E063
:101CB0000D4800884FF6FF71081A0C49098808443E
:101CC0000B4908600A4800680A49B1FBF0F00A496C
:101CD00008800846018809A000F05CF9002001494D
:101CE000088010BD14000020100000201200002009
:101CF0001800002040420F001C0000206672652082
:101D000069732025640A000010B51A4A11681A4A3E
:101D1000106802F045F958B1164A1168164A106861
:101D200002F03BF915480088401C144908801FE068
:101D300011490868012102F033F9C8B10E49086859
:101D4000012102F02AF90D48008800B20C490880F0
:101D500000200A4908800B4A11680B4A106800F0FD
:101D60002CFE28B106480088404200B20449088091
:101D700010BD0000900000207400002044000020EE
:101D80004C000020600000205000002010B5012110
:101D9000124802F005F9F8B10121104802F0FDF8EF
:101DA0000F4801F038FFA0F51C50103800B20D4963
:101DB000088042F210710A4801F031FF0A4801F030
:101DC0002AFF42F21071081A00B20849088042F254
:101DD0001071054801F023FF10BD0000000800400D
:101DE000000400404C000020000C00404E00002089
:101DF00010B51A4A51681A4A506802F0D1F858B121
:101E0000164A5168164A506802F0C7F8154800880B
:101E1000401C1449088020E011494868012102F063
:101E2000BFF8D0B10E494868012102F0B6F80D485C
:101E30000088404200B20C4908800020094908800F
:101E40000A4A51680A4A506800F0B7FD28B10648AE
:101E50000088404200B20449088010BD9000002074
:101E600074000020460000204E000020600000208A
:101E70005000002010B50121064802F091F840B151
:101E80000121044802F089F803480088401C0249F7
:101E9000088010BD001400400000002070B504460A
:101EA0000D461449085D0022114601F0AFF9124BAE
:101EB00033F81420114B53F82410114B53F824001D
:101EC00002F0ACF90C4B33F814200E4B53F82410ED
:101ED0000B4B53F8240002F08BF90B4A52F82410F4
:101EE0000A4A32F814002A4602F053F908480470EE
:101EF00070BD0000EC0E0020DC0E0020CC0E002097
:101F0000C40E0020D40E0020E40E0020E00E0020BD
:101F1000EE0E002010B51949194802F0BCFA60B362
:101F20000521174802F08EFA38B31449144802F01C
:101F3000A5FA0521124802F078FA114802F0F8F9E2
:101F40001049114A127888540F480078401C0E49F5
:101F5000087008460078012805D10A480078A528AD
:101F600001D00020087008480078032805D100201F
:101F70000549087001200549087010BD05030500DA
:101F800000100140780E00207B0E00207C0E002007
:101F900000BFFEE70FB4054B10B503A9044A029831
:101FA00000F018F810BC5DF814FB0000852800084C
:101FB000340F002002E008C8121F08C1002AFAD11D
:101FC00070477047002001E001C1121F002AFBD1B9
:101FD000704700002DE9FF4F89B09B46044600255D
:101FE00006E025280BD05A460B999047641C6D1CBF
:101FF00020780028F5D10DB02846BDE8F08F0027E5
:10200000B8460122474900E0074314F8013F203B4E
:1020100002FA03F00842F7D120782E2819D114F8DB
:10202000010F47F004072A280ED06FF02F02207806
:10203000A0F1300109290CD808EB880102EB41011D
:1020400000EB0108641CF2E70A98641C50F8048B4A
:102050000A9020780028CED0642808D0692806D0BD
:1020600075281ED05A460B9990476D1C58E00A9966
:102070004FF00A0901C90A91002802DA40422D21D5
:1020800002E0390504D52B218DF82010012103E051
:10209000F90704D02021F7E78A4608AE0DE00021B9
:1020A000FAE70A994FF00A0901C90A91F7E7494688
:1020B000FEF782FA303106F8011D0028F7D1ADEBAA
:1020C000060000F12009780701D44FF00108C84547
:1020D00002DDA8EB090000E000208046002706E0B2
:1020E00008A85A46C05D0B9990476D1C7F1C574548
:1020F000F6DB04E030205A460B9990476D1CB8F18E
:102100000001A8F10108F5DC05E016F8010B5A46BC
:102110000B9990476D1CB9F10001A9F10109F4DC9C
:10212000641C65E7092801000348006840F00100CD
:1021300001490860704700000000055010B54FF4D9
:10214000A06001F0E3F94FF4A06001F0CDF910BDFB
:102150000348006840F4804001490860704700006F
:102160000000055000210B4A126844F201039A4313
:10217000084B1A6002681143426811438268114398
:10218000C268114302691143426911431A46116042
:1021900070470000000005500249C9680143014A28
:1021A000D160704700000550024949690143014A66
:1021B000516170470000055001460448006908401D
:1021C00008B9002070470120FCE70000000005501E
:1021D00030B589B005460C4640F6164001F072F95C
:1021E0000721134800F0DDF8124800900295002006
:1021F0000690079401200190002003904FF4805036
:10220000049040010890002005906A460721084884
:1022100000F05AFA01220721054800F0AFF8072123
:10222000034800F09BF8FFF77FFF09B030BD0000C6
:10223000006402402800055000B587B04FF44060AC
:1022400001F040F940F6014001F03CF940F602404F
:1022500001F038F950220D212A4800F07FFB4FF49D
:1022600070720D21284800F079FB4FF43C620D217B
:10227000264800F073FB4FF4506001F023F950231F
:10228000012202211F4800F0AEFB4FF470730122BF
:1022900002211D4800F0A7FB4FF43C6301220221FC
:1022A0001A4800F0A0FB502303220021154800F03B
:1022B000D7FB4FF4707303220021134800F0D0FBCA
:1022C0004FF43C6303220021104800F0C9FBFFF7E4
:1022D00035FF002001902020029000200390049000
:1022E0000590069001A8FFF73DFF0120FFF754FF7E
:1022F000FFF72EFF022201214E2000F087FF07B0DA
:1023000000BD00000000024000040240000802403E
:102310000349086000BF024909680029FBD17047E2
:102320000C0000200448006820B103480068401EEB
:1023300001490860704700000C00002010B501EB57
:102340004102D30000F11002D25822F0010301EB48
:102350004102D40000F11002135110BD10B501EB81
:102360004102D30000F11002D25842F0010301EB08
:102370004102D40000F11002135110BD30B51346D4
:1023800001EB4104E50000F11004625922F06062A3
:1023900042EA436201EB4104E50000F1100462519E
:1023A00030BD10B501EB4102D30000F11002D2584C
:1023B00022F0010301EB4102D40000F1100213519D
:1023C000002301EB4102D40000F11002135101EB94
:1023D0004102D40000F11402135101EB4102D40078
:1023E00000F11802135101EB4102D40000F11C026C
:1023F000135101EB4102D40000F12002135101EB13
:102400004102D40000F12402135104290CDA01EB3B
:1024100041025300C1F3400203EB82033D229A4084
:1024200083681A4382600DE00A1FD1B201EB4102BA
:102430005300C1F3400203EB82033D229A40C3687C
:102440001A43C26010BD30B5802A0DD001EB4103A4
:10245000DC0000F110031B59934301EB4104E5003C
:1024600000F1100463510CE001EB4103DC0000F1CA
:1024700024031B59934301EB4104E50000F12404BC
:10248000635130BD10B504290CDA01EB41035C0047
:10249000C1F3400304EB830302FA03F3846823438C
:1024A00083600DE00B1FD9B201EB41035C00C1F367
:1024B000400304EB830302FA03F3C4682343C360BD
:1024C00010BDF0B50346002500260C46042979DA34
:1024D000082A34D004DC012A07D0042A70D119E07C
:1024E000102A41D0202A6BD153E001EB4100470074
:1024F000C1F3400007EB800702FA07F01F6800EA0B
:10250000070601EB4100C70003F12400C05900F0A9
:10251000800556E001EB41004700C1F3400007EBA6
:10252000800702FA07F01F6800EA070601EB410086
:10253000C70003F11000C05900F0020541E001EBB3
:1025400041004700C1F3400007EB800702FA07F0A3
:102550001F6800EA070601EB4100C70003F1100005
:10256000C05900F004052CE001EB41004700C1F325
:10257000400007EB800702FA07F01F6800EA070631
:1025800001EB4100C70003F11000C05900F008053D
:1025900017E001EB41004700C1F3400007EB800763
:1025A00002FA07F01F6800EA070601EB4100C700C6
:1025B00003F11000C05900F0100502E002E0FFE74F
:1025C00000BF7AE0201FC4B2082A34D004DC012AFC
:1025D00007D0042A6FD119E0102A41D0202A6AD1ED
:1025E00053E004EB44004700C4F3400007EB8007CE
:1025F00002FA07F05F6800EA070601EB4100C70036
:1026000003F12400C05900F0800555E004EB4400BC
:102610004700C4F3400007EB800702FA07F05F6849
:1026200000EA070601EB4100C70003F11000C059A2
:1026300000F0020540E004EB44004700C4F3400012
:1026400007EB800702FA07F05F6800EA070601EB74
:102650004100C70003F11000C05900F004052BE051
:1026600004EB44004700C4F3400007EB800702FA84
:1026700007F05F6800EA070601EB4100C70003F1BD
:102680001000C05900F0080516E004EB44004700B4
:10269000C4F3400007EB800702FA07F05F6800EA26
:1026A000070601EB4100C70003F11000C05900F01C
:1026B000100501E0FFE700BF00BF16B10DB101201A
:1026C000F0BD0020FCE7000070B501EB4104E5001F
:1026D00000F12404645924F0040501EB4104E600F0
:1026E00000F12404A55101EB4104E60000F11804B7
:1026F0001568A55101EB4104E60000F11C04956842
:10270000A55101EB4104E60000F11404D569A5517F
:1027100001EB4104E50000F1100463593F4C2340F4
:10272000146944EA8404156A2C4395692C432343B5
:1027300001EB4104E50000F110046351546874B9E1
:1027400001EB4104E50000F11004645944F4007504
:1027500001EB4104E60000F11004A5511FE05468AC
:10276000012C0ED101EB4104E50000F11004645985
:1027700024F4007501EB4104E60000F11004A551BA
:102780000DE001EB4104E50000F11004645944F44C
:10279000004501EB4104E60000F11004A551D468A6
:1027A00074B901EB4104E50000F11004645944F4EC
:1027B000806501EB4104E60000F11004A5510DE035
:1027C00001EB4104E50000F11004645924F4806534
:1027D00001EB4104E60000F11004A551546974B9FD
:1027E00001EB4104E50000F11004645944F48075E4
:1027F00001EB4104E60000F11004A5510DE001EBEE
:102800004104E50000F11004645924F4807501EBE3
:102810004104E60000F11004A55170BD3F87FCFFA4
:1028200010B501EB4103DC0000F114031A5110BD97
:102830000149086070470000143C01400146074808
:10284000006800EA010205481438006800EA010344
:1028500012B10BB1012070470020FCE7143C01408D
:10286000F0B5059C1719BDB21F19BEB207E02F1BAA
:10287000C75DA6EB040C01F80C70671EBCB2002CFF
:10288000F5D1F0BD70B504460D46E1B2094A0A4BD8
:102890001B7852F8230001F050FD00BF0549064A9D
:1028A000127851F82200072101F0CCFD0028F5D064
:1028B000204670BDE40E0020EE0E0020F8B507465D
:1028C0000D46002434E0A5208DF80000F1208DF89D
:1028D000010035F8240086B230128DF80200F0B203
:1028E0008DF8030004226946384601F06CFC12A002
:1028F000FFF750FB00BF114800780028FBD00020F4
:102900000E4908700EA0FFF745FB0E4880780D4970
:10291000497840EA012000B205EB8401488005EBCC
:102920008400B0F9021008A0FFF734FB601C84B2E9
:10293000082CC8DBF8BD0000310A00007C0E002026
:10294000320A0000780E0020627566665B695D5B86
:10295000315D203D2025640A00000000F0B50346EB
:102960001C6A5D6A00200DE00126864016403EB1DB
:1029700087000F26BE40B443860001FA06F63443B2
:10298000461CB0B20828EFD3082011E0012686408B
:1029900016405EB1A0F10806B7000F26BE40B54351
:1029A000A0F10806B60001FA06F63543461CB0B29F
:1029B0001028EBD31C625D62F0BD0246106908402E
:1029C00008B1012070470020FCE72DE9F0410446E2
:1029D0000D4616461F463B4632462946204600F025
:1029E00002F8BDE8F081F0B504460D4616462168B0
:1029F000E268002019E0012787401F409FB14FEA9D
:102A0000400C032707FA0CF7B943470005FA07F70C
:102A100039434FEA400C032707FA0CF7BA43470043
:102A200006FA07F73A43471CB8B21028E3D32160EF
:102A3000E260F0BD2DE9F04705460E4617461C46FC
:102A4000DDE908894B463A4631462846FFF7CBFF79
:102A50004B4642462146284600F002F8BDE8F08782
:102A6000F0B50C461546012C03D146681E4346605E
:102A700002E046689E434660826800210DE0012620
:102A80008E401E403EB14F000326BE40B2434E0072
:102A900005FA06F632434E1CB1B21029EFD382601C
:102AA000F0BD0AB1816100E081627047012904D163
:102AB000026842F48062026003E0026822F48062ED
:102AC000026070472DE9F05F04460E4693460220EF
:102AD00000F066FC07462E48B7FBF0F8B8F1320F5D
:102AE00001D34FF03208D4F804A02AF03F0A4AEA92
:102AF000080AC4F804A02748864218D82448B7FB1F
:102B0000F0F000F10109B9F1320F02D33220206256
:102B100001E0C4F820907000B7FBF0F5042D00D25E
:102B20000425E069C5F30B010843E0612EE01A4873
:102B300086422BD84FF4967008FB00F04FF47A7160
:102B4000B0FBF1F0401C2062BBF1000F08D106EB96
:102B50004600B7FBF0F5E06920F48040E06109E051
:102B600006EBC60000EB0610B7FBF0F5E06940F499
:102B70008040E061C5F30B0008B945F00105E0694C
:102B800040F40040E061E0692843E061BDE8F09F67
:102B900040420F00A0860100801A06007CB5044662
:102BA0000D4640F6054000F08DFC02200090012308
:102BB0001A46014601901648FFF73CFF012002210A
:102BC00003460246CDE900101148FFF733FF022209
:102BD00004210F48FFF7C2FE012204210C48FFF731
:102BE000BDFE41F2160000F06DFC002221460948AE
:102BF000FFF768FF2B4600221146064800F041F817
:102C0000044800F00CF801210248FFF74FFF7CBD9B
:102C10000014024000580040CAB2026170470168C7
:102C200041F001010160704710B540F2015291423C
:102C300002D1426982690AE000EB9112126801F048
:102C40001F040123A3409A4300EB91131A6010BDA7
:102C500010B5024602EB9110006801F01F04012339
:102C6000A340184008B1012010BD0020FCE712F17C
:102C7000020F02D121F0010101E041F001010161E7
:102C8000704730B50C460021016821F00201214354
:102C90000160C3F3090342EA0305856030BD00000B
:102CA00070B504460E46154600BF40F20161274844
:102CB000FFF7CEFF0028F8D1244800F049F800BF04
:102CC0004FF4A0612148FFF7C3FF0028F8D06FF050
:102CD000010221461D48FFF7CAFF00BF40F2015123
:102CE0001A48FFF7B5FF0028F8D040F20151174805
:102CF000FFF79AFF00BF40F207511448FFF7A8FF03
:102D00000028F8D031461148FFF786FF00BF40F297
:102D100002510E48FFF79CFF0028F8D029460B48C7
:102D2000FFF77AFF00BF40F202510848FFF790FF1B
:102D30000028F8D0054800F010F800BF03480068EC
:102D400000F400700028F9D170BD00000058004068
:102D5000016841F4807101607047016841F40071BD
:102D600001607047034951F82010034A52F82020AF
:102D7000D1627047300000202400002008B500F028
:102D8000BDFC0A210B4801F017F98C2411E0FEF775
:102D90003FFA0446102008230090074802880021CB
:102DA0000846FEF74DF92046FDF7EEFC00200249EB
:102DB0000880ECE700140040000000202DE9F041FD
:102DC000394890ED060AB5EEC00AF1EE10FA11D2BC
:102DD000D0ED060A3548007800EE100AB8EE401A29
:102DE0009FED330A01EE600ABDEEC00A10EE104AF4
:102DF000012607E000262C4890ED060ABDEEC00A29
:102E000010EE104AB4F5FA7F01DD4FF4FA74294848
:102E100090ED060AB5EEC00AF1EE10FA11D2D0ED2F
:102E2000060A2248007800EE100AB8EE401A9FED1C
:102E3000200A01EE600ABDEEC00A10EE105A01270A
:102E400007E01C4890ED060ABDEEC00A10EE105ACD
:102E50000027B5F5FA7F01DD4FF4FA7546B9A1B246
:102E60000020FEF7CFFB00210120FEF7CBFB07E09F
:102E700000210846FEF7C6FBA1B20120FEF7C2FB07
:102E800047B9A9B20220FEF7BDFB00210320FEF7DF
:102E9000B9FB07E000210220FEF7B4FBA9B2032032
:102EA000FEF7B0FBBDE8F08178BF0020020F0020E4
:102EB0000000000094BF00203EB5904D38CD8DE855
:102EC00038000021002200200DE08D4C431C34F816
:102ED000133024F810308B4C431C34F8133024F892
:102EE0001030431CD8B20228EFDB874B9B88844C00
:102EF000A380864B9B88834CA38000202FE0804BCF
:102F000033F9103000EE103AF8EEC00A6B4603EBCE
:102F1000800393ED001A00EE101AB8EEC00A00EE1E
:102F2000810ABDEEC00A10EE103A19B2754B33F9A2
:102F3000103000EE103AF8EEC00A6B4603EB800347
:102F400093ED001A00EE102AB8EEC00A00EE810AD6
:102F5000BDEEC00A10EE103A1AB2431CD8B20328D4
:102F6000CDDB6B4B19806B4B1A80674BD3ED000A9E
:102F7000674BB3F9003000EE103AB8EEC00A30EEFD
:102F8000C00ABDEEC00A644B83ED000A5F4BD3ED6F
:102F9000000A604BB3F9003000EE103AB8EEC00AF8
:102FA00030EEC00ABDEEC00A5C4B83ED000A5A4BFE
:102FB0001B685B4C24681B1B00EE103AB8EEC00A7D
:102FC000514B83ED020A544B93ED000AB8EEC00A50
:102FD0004D4B83ED030A504B1B68514C246802256E
:102FE00005FB14334F4C2468234400EE103AB8EE2E
:102FF000C00A454B83ED040A484B1B684A4C2468C1
:103000001B1B00EE103AB8EEC00A404B83ED020ADB
:10301000424B93ED000AB8EEC00A3C4B83ED030A25
:103020003E4B1B68404C246805FB14333F4C24681E
:10303000234400EE103AB8EEC00A344B83ED040A84
:103040003B4B93ED000A304BD3ED020A20EE200AF1
:10305000374BD3ED010A2C4B93ED031A00EE810A96
:10306000334BD3ED020A284B93ED041A00EE810A8C
:1030700083ED050A93ED060AD3ED050A30EE200A2A
:10308000BDEEC00AB8EEC00A83ED060A284B93EDE8
:10309000000A1E4BD3ED020A20EE200A244BD3ED8A
:1030A000010A1A4B93ED031A00EE810A204BD3ED6F
:1030B000020A164B93ED041A00EE810A83ED050A0D
:1030C00093ED060AD3ED050A30EE200ABDEEC00AE4
:1030D000B8EEC00A83ED060A114B1B68114C236041
:1030E0000D4B1B680E4C23600F4B1B680F4C23606D
:1030F0000A4B1B680C4C23603EBD000024450008B1
:10310000100F0020160F002078BF002094BF002071
:10311000040F0020060F00201C0F0020280F0020A5
:10312000200F0020240F00202C0F0020300F002043
:10313000D8BF0020B1EE040A054880ED000A9FEDDB
:10314000050A80ED010A9FED040A80ED020A70472E
:10315000D8BF0020CDCCCC3D0000000010B52248E7
:103160002249086000221146252000F04FF84FF454
:1031700040624FF400411E4801F050F840F6014211
:1031800008211C4801F034F84FF416521A4941F254
:10319000041000F0FEFF40F20531174801F061F91C
:1031A000C820FFF7B5F800201449087014491248E8
:1031B000FFF784FB00201149087012490E4800F007
:1031C000C9F900200D4908700D490B48FFF776FB3F
:1031D0000DA0FEF7DFFEFFF72FF841F2086103486C
:1031E0000068FEF7F5FF10BD380F0020740E0020B8
:1031F0000000024000040240001001407C0E00204C
:10320000A20E00207E0E0020330A00002DE9F041BE
:1032100003460D46164600240027A0462A480068AB
:1032200000F4E060B0F5E06F03D100BF4FF0040898
:1032300030E02548006800F4E060B0F5C06F03D1CD
:1032400001274FF0030825E01F48006800F4E06004
:10325000B0F5A06F02D10227B8461BE01A480068FB
:1032600000F4E060B0F5806F03D103274FF0010850
:1032700010E01548006800F4E060B0F5407F03D12D
:1032800004274FF0000805E04FF4A06000F020F89C
:103290000227B846C7F1040005FA00F4C8F104019A
:1032A0000F20C8403040044324010848C45403F0B0
:1032B0001F01012088405911890001F1E021C1F866
:1032C0000001BDE8F08100000CED00E000E400E04A
:1032D00002490143024A1160704700000000FA05EC
:1032E0000CED00E010B50246012000E050430B1E3B
:1032F000A1F10104E1B2F9D110BD2DE9F04387B08D
:1033000007460C4615461E46DDE90E98384600F085
:10331000D9F80020ADF81400204600F083FCADF889
:1033200000600020ADF80200ADF80400CDF8089070
:10333000ADF806008DF80C006946204600F03AFD15
:103340000020ADF814000120ADF810000020ADF809
:103350001600ADF81200ADF81800ADF81A0004AA76
:103360002946204600F0F4FA42462946204600F05D
:1033700012FC60222946204600F0E0FB002229468C
:10338000204600F01BFC0121204600F0CBFE204629
:1033900000F096FA204600F007FD07B0BDE8F08384
:1033A0002DE9F04F8CB0064600200A903EA090E830
:1033B000004CC068CDE905BECDF810A007900FF213
:1033C000EC0ADAE9000ACDE9020A0FF2E00ADAE9CA
:1033D000000ACDE9000A38480068C0F381000B906C
:1033E0000B9820B1012804D0022828D103E03349EA
:1033F00027E0334925E03048001F006800F03F0710
:103400002D48001F0068C0F3881C2B48001F00686F
:10341000C0F30140401C4FEA40092748001F0068E4
:1034200000F48008B8F5800F01D1254B00E0234B54
:10343000B3FBF7F000FB0CF0B0FBF9F101E01F4922
:1034400000BF00BF1C480068C0F3031404A8055D5A
:1034500021FA05F218480068C0F3822402A8055D2D
:1034600022FA05F0099014480068C0F342341DF8B0
:10347000045022FA05F0089036B1012E06D0022E33
:1034800006D0032E0AD106E00A9108E00A9206E06F
:1034900009980A9003E008980A9000E000BF00BF76
:1034A0000A980CB0BDE8F08F00000000000000009A
:1034B0000102030406070809083802400024F4004A
:1034C00040787D01074A02EB9011D1F8001800F016
:1034D0001F0301229A401143024B03EB9012C2F8E2
:1034E0000018704700300240074A02EB9011D1F8F3
:1034F000001800F01F0301229A409143024B03EB96
:103500009012C2F80018704700300240074A02EBE0
:103510009011D1F8001800F01F0301229A401143C6
:10352000024B03EB9012C2F80018704700300240C3
:103530006FF08071884205D1054909680140044A4D
:10354000116004E0024909680143014A11607047B3
:103550008C380240F8B507460D460020194908701E
:1035600000241AE0A5208DF8000015F824008DF83D
:10357000010005EB8400408886B230128DF802000D
:10358000F0B28DF8030004226946384600F01BFEB5
:103590000220FEF7BDFE601C84B2092CE2DB00BFF6
:1035A000084800780028FBD000200649087000BFBA
:1035B00005484078FF28FBD103488078FF28F7D1E1
:1035C000F8BD00007C0E0020780E002030B587B0DA
:1035D00005460C462046FFF775FF284600F01EF80A
:1035E000002001904FF4827000900020029005901E
:1035F0004FF4007003901820069000200490694654
:10360000284600F061F8284600F002F807B030BD07
:10361000016841F0400101607047000010B50446A8
:103620002749601A8C422CD009DC26482044B0B1CE
:10363000B0F5806F1CD0B0F5784F3DD106E0B0F505
:10364000E05F27D0B0F5005F36D12CE040F60C10DB
:10365000FFF75CFF40F60C10FFF746FF2DE040F649
:103660000E00FFF753FF40F60E00FFF73DFF24E08A
:1036700040F60F00FFF74AFF40F60F00FFF734FF58
:103680001BE040F60D10FFF741FF40F60D10FFF76D
:103690002BFF12E040F61410FFF738FF40F614102D
:1036A000FFF722FF09E040F61510FFF72FFF40F665
:1036B0001510FFF719FF00E000BF00BF10BD0000AC
:1036C0000034014000C8FFBF02460020106800F42B
:1036D00041500B6818434B6818438B681843CB68FC
:1036E00018430B6918434B6918438B6918431060E2
:1036F000D36923F40063D3617047000010B500F074
:10370000B7F86320FDF78EFB6320FDF763FB002114
:103710001548FFF743FAFDF7DBFBC820FEF7F8FD7D
:103720000820FDF745F86320FDF790FF4FF4E131E5
:103730000120FEF7B3FBFEF7BFF90020FEF7CCF83F
:103740004FF6FF70FEF72DF8FDF719F800F0D0FEE8
:1037500040F20F112920FDF775FE01216320FDF7CE
:10376000F7F8FFF7E7FC10BD801A060000200021E3
:103770003A4A126842F48032384B1A6000BF401C4B
:10378000364A126802F4003119B94FF6FF729042BE
:10379000F5D1324A126802F400320AB900BFFEE7DE
:1037A0002E4A4032126842F080522C4B40331A604D
:1037B0002B4A126842F44042294B1A60274A0832C9
:1037C0001268264B08331A601A46126842F4004207
:1037D0001A601A46126842F4A0521A60214A1B1F4E
:1037E0001A601A1F126842F080721B1F1A6000BF15
:1037F0001A4A126802F00072002AF9D0184A1268B8
:1038000042F48032164B1A6000BF154A526802F427
:103810008032002AF9D0124A126842F40032104B6A
:103820001A6000BF0E4A526802F40032002AF9D032
:103830000A4A0832126822F00302084B08331A6061
:103840001A46126842F002021A6000BF034A0832A8
:10385000126802F00802002AF8D0704700380240CF
:10386000007000401964400910B5FFF77FFF10BDDC
:1038700010B5124800684FF47A71B0FBF1F4601E85
:10388000B0F1807F01D301200FE0601E4FF0E021F6
:1038900048610F214FF0FF30FDF706FB00204FF08D
:1038A000E021886107200861002008B100BFFEE721
:1038B0000021481EFDF7F8FA10BD0000200000208E
:1038C000016841F08001016070470246002031B17B
:1038D000012906D0022906D0032908D105E0506B42
:1038E00006E0906B04E0D06B02E0106C00E000BFDB
:1038F00000BF704731B101290CD0022913D0032930
:1039000022D118E0836923F00C0383618369134398
:1039100083611AE0836923F440638361836943EA26
:103920000223836111E0C36923F00C03C361C369FF
:103930001343C36109E0C36923F44063C361C369EE
:1039400043EA0223C36100E000BF00BF70470000EC
:1039500010B531B101293FD002297DD003297CD196
:10396000BFE0036A23F001030362836923F00303CA
:103970008361036A148823430362036A23F002030A
:103980000362036A9488234303626A4B984202D01D
:10399000694B98421FD1036A23F004030362036A50
:1039A000548823430362036A23F008030362036A13
:1039B000D48823430362436823F4807343604368DD
:1039C000148923434360436823F4007343604368CE
:1039D000548923434360ABE0036A23F0100303627E
:1039E000836923F440738361036A148843EA0413F0
:1039F0000362036A23F020030362036A948843EAA4
:103A0000041303624B4B984202D04B4B984226D191
:103A1000036A23F040030362036A548843EA0413F1
:103A20000362036A23F080030362036AD48843EAD3
:103A300004130362436823F480634360436814897A
:103A400043EA84034360436823F4006343604368AC
:103A5000548943EA840301E002E068E0436067E0E0
:103A6000036A23F480730362C36923F00303C36111
:103A7000036A148843EA04230362036A23F400738D
:103A80000362036A948843EA04230362294B984241
:103A900002D0294B984223D1036A23F48063036246
:103AA000036A548843EA04230362036A23F400632D
:103AB0000362036AD48843EA04230362436823F45D
:103AC000805343604368148943EA041343604368A6
:103AD00023F4005343604368548943EA041343606A
:103AE00026E0036A23F480530362C36923F440731E
:103AF000C361036A148843EA04330362036A23F44C
:103B000000530362036A948843EA04330362094B57
:103B1000984202D0084B984208D1436823F480436E
:103B200043604368148943EA8413436000E000BFA4
:103B300000BF10BD000001400004014031B1012967
:103B40000CD0022913D0032922D118E0836923F075
:103B5000700383618369134383611AE0836923F4EB
:103B6000E0438361836943EA0223836111E0C3690F
:103B700023F07003C361C3691343C36109E0C369E0
:103B800023F4E043C361C36943EA0223C36100E055
:103B900000BF00BF704731B1012906D0022906D00D
:103BA000032908D105E0426306E0826304E0C263B2
:103BB00002E0026400E000BF00BF704731B101299C
:103BC0000CD0022913D0032922D118E0836923F0F5
:103BD000080383618369134383611AE0836923F4D3
:103BE00000638361836943EA0223836111E0C3694F
:103BF00023F00803C361C3691343C36109E0C369C8
:103C000023F40063C361C36943EA0223C36100E094
:103C100000BF00BF704701460020486A70474162FC
:103C20007047000010B504465C49601A8C426FD0A2
:103C300019DC5B49A4EB01008C424ED009DCB4F1E5
:103C4000804F2ED057482044A0B3B0F5806F72D17A
:103C50003AE0B0F5806F49D0B0F5006F4FD0B0F5C5
:103C6000406FF4D17BE0B0F5923F5BD009DCB0F55A
:103C7000806F73D0B0F5644F0AD0B0F5684F5AD159
:103C800047E0B0F5943F57D0B0F5963F53D15CE094
:103C90004FF41060FFF73AFC4FF41060FFF724FC7C
:103CA00079E04FF40060FFF731FC4FF40060FFF75C
:103CB0001BFC70E0FFE740F60100FFF727FC40F631
:103CC0000100FFF711FC66E040F60200FFF71EFC62
:103CD00040F60200FFF708FC5DE040F60300FFF746
:103CE00015FC40F60300FFF7FFFB54E040F604002C
:103CF000FFF70CFC40F60400FFF7F6FB4BE040F644
:103D00000500FFF703FC40F60500FFF7EDFB42E07E
:103D10002EE040F60110FFF7F9FB40F60110FFF727
:103D2000E3FB38E04FF41160FFF7F0FB4FF4116054
:103D3000FFF7DAFB2FE02DE040F61110FFF7E6FB6E
:103D400040F61110FFF7D0FB25E040F61210FFF708
:103D5000DDFB40F61210FFF7C7FB1CE011E040F658
:103D60000600FFF7D3FB40F60600FFF7BDFB12E0AD
:103D700040F60700FFF7CAFB40F60700FFF7B4FB69
:103D800009E040F60800FFF7C1FB40F60800FFF726
:103D9000ABFB00E000BF00BF10BD0000001C0040F6
:103DA000000C004000FCFFBF016841F00101016010
:103DB000704700000A8882621D4A90420ED0B0F11E
:103DC000804F0BD01B4A904208D01B4A904205D02E
:103DD0001A4A904202D01A4A90420BD1026822F04D
:103DE0007002026002684B881A43026002688B8886
:103DF0001A4302608A68C262124A90420AD0124A8A
:103E0000904207D0026822F4407202600268CB88B8
:103E10001A430260064A904202D0094A904201D1F8
:103E20000A7B0263426942F001024261704700006E
:103E3000000001400004004000080040000C004069
:103E400000040140001000400014004070B504461A
:103E50000E46154636B1012E26D0022E48D0032E2E
:103E60007DD168E0206A20F001002062206A20F005
:103E70000A002062206A298808432062A06920F095
:103E80000300A061A06969880843A061A06920F0CF
:103E9000F000A061A069E98840EA0110A061206AF1
:103EA00040F0010020626DE0206A20F010002062E6
:103EB000206A20F0A0002062206A298840EA0110D0
:103EC0002062A06920F44070A061A069698840EA7E
:103ED0000120A061A06920F47040A061A069E98878
:103EE00040EA0130A061206A40F01000206249E001
:103EF000206A20F480702062206A20F42060206212
:103F0000206A298840EA01202062E06920F003004D
:103F1000E061E06969880843E061E06920F0F00051
:103F2000E061E069E98840EA0110E061206A40F45C
:103F30008070206226E0206A20F480502062206A8F
:103F400020F400502062206A298840EA0130206273
:103F5000E06920F44070E061E069698800E010E009
:103F600040EA0120E061E06920F47040E061E0692E
:103F7000E98840EA0130E061206A40F48050206224
:103F800000E000BF00BFAA8831462046FFF7B2FC20
:103F900070BDC2680A43C2607047CA43026170477D
:103FA0000246D06800EA01031069084010B10BB165
:103FB000012070470020FCE77FB504460D46B4F1B0
:103FC000804F09D1002211461C20FFF71FF94FF442
:103FD0008050FFF777FA69E04948844209D100220E
:103FE00011461D20FFF712F941F20100FFF76AFAAE
:103FF0005CE04448844209D1002211461E20FFF7AC
:1040000005F941F20200FFF75DFA4FE03E488442B5
:1040100009D1002211463220FFF7F8F841F20300DF
:10402000FFF750FA42E03948844204D141F20400DB
:10403000FFF748FA3AE03648844209D10022114697
:104040003720FFF7E3F841F20500FFF73BFA2DE0D8
:104050003048844204D141F20110FFF733FA25E0E1
:104060002D48844209D1002211461820FFF7CEF8CE
:1040700041F21010FFF726FA18E02848844209D1CF
:10408000002211461920FFF7C1F841F21110FFF785
:1040900019FA0BE02248844208D1012211461A2065
:1040A000FFF7B4F841F21210FFF70CFA4FF08070EE
:1040B000FFF73EFA2046FFF7B5FD684600F05EF8D0
:1040C000C720ADF800000020ADF80200ADF80400F4
:1040D000681E02900020ADF806008DF80C006946BD
:1040E0002046FFF767FE01212046FFF756FF01211A
:1040F0002046FFF74EFF2046FFF756FE7FBD00002B
:104100000004004000080040000C00400010004087
:104110000014004000040140004001400044014000
:1041200000480140012904D1426C42F4004242643B
:1041300003E0426C22F400424264704730B5846868
:1041400024F00704846084680C438460846940F22E
:104150000335AC438461846940F201152C438461CA
:10416000046A24F00A040462046A24F0A0040462CD
:10417000046A42EA03152C43046230BD0021018029
:10418000418081804FF6FF7181600021C180017301
:10419000704770B506460C4615463046FFF792F953
:1041A000204600F0CFF82946204600F04DF80421C3
:1041B000204600F08CF90821204600F090F92046B6
:1041C00000F02EF970BD70B506460C4615460CE0A1
:1041D00014F8011B304600F0B0F800BF072130464C
:1041E00000F030F90028F9D06D1E002DF0D170BD1F
:1041F0007CB506460C4615462846FFF763F922466D
:1042000007213046FEF7AAFB0220002301220146C7
:10421000CDE900043046FEF70DFC7CBD7CB50646BA
:104220000C4615462846FFF74DF922460721304631
:10423000FEF794FB0220002301220146CDE9000491
:104240003046FEF7F7FB7CBD2DE9F04704460D46EE
:104250000027B846B94600263349601A8C4235D04B
:104260000CDC32482044E8B1B0F5806F1FD0B0F5C7
:10427000006F21D0B0F5406F32D122E0B0F5806FF1
:1042800029D0B0F5184F03D0B0F51C4F28D104E069
:104290000320FFF785F8074623E00320FFF780F8A7
:1042A00007461EE00220FFF77BF8074619E00220D0
:1042B000FFF776F8074614E00220FFF771F807468B
:1042C0000FE00220FFF76CF807460AE00220FFF734
:1042D00067F8074605E00220FFF762F8074600E0AE
:1042E00000BF00BFE06800F4004070B1780000EB50
:1042F0005500B0FBF5F64FF6F07006EA0008C6F37D
:10430000420948EA0900A0600CE007EB5500B0FB49
:10431000F5F64FF6F07006EA000806F00F0948EAD5
:104320000900A060BDE8F0870078004000BCFFBF36
:1043300001464868C0F308007047C1F308024260B4
:104340007047000010B504463349601A8C424DD0C6
:104350000CDC32482044E0B1B0F5806F22D0B0F5DB
:10436000006F31D0B0F5406F52D136E0B0F5806FBC
:1043700045D0B0F5184F03D0B0F51C4F48D11AE026
:1043800040F60410FFF7C2F840F60410FFF7ACF84F
:104390003FE040F61100FFF7B9F840F61100FFF7D3
:1043A000A3F836E040F61200FFF7B0F840F612002E
:1043B000FFF79AF82DE040F60510FFF7A7F840F652
:1043C0000510FFF791F824E040F61300FFF79EF880
:1043D00040F61300FFF788F81BE040F61400FFF7E3
:1043E00095F840F61400FFF77FF812E040F61E0043
:1043F000FFF78CF840F61E00FFF776F809E040F66C
:104400001F00FFF783F840F61F00FFF76DF800E08C
:1044100000BF00BF10BD00000078004000BCFFBF1F
:10442000C16841F40051C160704710B500EB9112B2
:10443000126801F01F040123A3409A4300EB91137B
:104440001A6010BD10B5024602EB9110006801F031
:104450001F040123A340184008B1012010BD002013
:10446000FCE710B500EB9112126801F01F04012364
:10447000A3401A4300EB91131A6010BD10B500EB76
:1044800091521268C1F304440123A3409A4300EB04
:1044900091531A6010BD70B5024600230024C1F389
:1044A0008910105801F01F060125B54000EA0503E8
:1044B00002EB91500068C1F304460125B54000EAC3
:1044C000050414B10BB1012070BD0020FCE70A46C1
:1044D0000021C16821F004011143C16070470A4600
:1044E0000021C16821F008011143C160704700003C
:1044F00000200649087006490870064908700649F8
:10450000087006490870064908707047A00000202E
:10451000A1000020A2000020A3000020A400002091
:10452000A5000020CDCCCC3D9A99993E9A99193F8F
:104530005045000800000020380F00002407000844
:10454000404C0008380F0020C8B40000C41F000809
:10455000A10315780514C2EB0B6C0C024004320465
:10456000320132022B030C02F11A0428115C0240C2
:1045700020245A10301B010C3E5914111204194CFE
:10458000113E40011003101C3913C904321DB23210
:104590003214F20A23881372643A6C592132C832F9
:1045A00082291802F9031378050C130C0240043217
:1045B00002321032043208320122208B030C021125
:1045C0001A1828A904711927393B2937293F814B2B
:1045D000060C0241294FE974291429776973696827
:1045E000380F404020205048444344485020204049
:1045F000674BFE420162FE15FE2222FE2CFE8282E5
:1046000003211780601F42827F2B3F4001134170BE
:104610001380701809FF2010084848FF48011A0845
:1046200020380E18070830020202FF020212221E72
:104630002013100828087C54565554547C401920E7
:104640001F10414949497F0402144172F843333035
:104650001C100C0603912C40C07803112C043F045D
:1046600003212D7088FC0829261820FF211E14F034
:1046700008F033E0184D211C031E11338870000C24
:10468000101E2123241927211010160E45E01804AE
:104690000225071820403D020418E0692C20180765
:1046A00007174080F08040403F0202010F010228BE
:1046B00042F01D0101011F04912B80B066B1191D4C
:1046C0002901913A30CE492C146018043C60180638
:1046D0001D1EE010080810721F0F102020100FF090
:1046E0005310F83620203F20203C700808C21E30AE
:1046F00028242221441E3008888848082E182020AB
:104700002011CC3BC0203227070424243F241AF870
:10471000202308084B19212036E0108888184B0FF9
:1047200011101E380808C8382021523F1A702E294F
:10473000608F1C222121221C90111D3122221190F8
:104740001961CAC0C26A80C659081C40201050179F
:104750000102040810204A4001114A0401211915E0
:104760002A403219251B0402F21B7048D13AF0503E
:104770001A360F1EC030C828E870280807182724EA
:1047800023140B6F2A387E280D203C230202273881
:104790002008F888889F4B203FF01BC0303F1B0843
:1047A0003830191019781B08F80F194039201B10E0
:1047B0000F103E8888E8081010AC23201810112A2A
:1047C000035E2940223829402C221E024019A418D9
:1047D00009F808203F21010121252A0852298129B1
:1047E000424149112EC08080807F0E2FF888C0285A
:1047F0001808501C0126382F2940292F29801B20FA
:10480000301012F81AF81413203F190229204B30E7
:10481000C0601A2074123F4BE010B06B0F10B0292B
:10482000D01AF0301980220179203F182424385002
:104830004FC04C888870C0140C30204B7088C11752
:1048400038202121221C3A189F4A188239A049D0C9
:10485000112A1F90121F240878881BC838151C07BE
:10486000380E60191A1AF8201114033C0714073C7B
:10487000034814081868808068180820302C030347
:104880002C30200838C82F5950298F29102F203854
:1048900026212020681145FE020202257F4040406B
:1048A0001A0CE0611C0106380B191D42FE191D523D
:1048B0007F1A04120211045A80011930D91D3916C9
:1048C00021180819242222223F20AB390F115F3F03
:1048D000112020110E21311A0E104B2011104B887F
:1048E000F8102A10B359401A1F3F2B22130F16F04D
:1048F000888888181A20D029D1497A21176B949476
:104900009493603960190F4C203F21F3548098989C
:10491000793059121AC02719D1193039311F203F67
:1049200024022D30212A0812893069D7294B290306
:10493000190BC96079A019BF2B201FDD390F9C808E
:10494000FFA1E0191229D03BA0FF0C3950194112E8
:10495000208A01C01B3324012A190F3AE041395241
:10496000290F392349603C103F202C29053F010EB7
:104970003008060170291038080F300C030C300F76
:104980002C49A14E312E0E31200C29621D818E70D2
:10499000183059D1215721302C22213055807C02EA
:1049A00002443F404072FF39083C02027C8F544071
:1049B000403F0008330601010202040418168080FB
:1049C000C060203098588C0C0406060202A35333B2
:1049D000514101013812210313DB1A2A0604040C89
:1049E000081810306040C070014C1808C060301CBE
:1049F000060301FE280E079642252412100804041F
:104A00000402027D29011B0203D1300904081010A1
:104A1000244686930808440103060C1870E08718A2
:104A20000F80F01C0701020E620E1BC1100C0283E6
:104A3000011F000F4101020C10F2180C160C0803A4
:104A40000E78E04DF8FFC9C801AFCFC8C8FEF9FB2A
:104A5000022AFB04490799023BFEF82C4934024024
:104A6000FF5D1FFFEABF02ADFFAAD387025CFFD341
:104A7000D303B9177BD387320441BFEA7F08111EE5
:104A8000010F3DE18101054911C107093141810152
:104A900001000F468161110D830181150901C1716A
:104AA0001F07100903070C3870E2C385180D284052
:104AB00011420404081030202040014A8001290BD3
:104AC000100C20209090C84C44A25110180009509E
:104AD00084C06030180E0301082833010306040C5B
:104AE000081810302260644540C0C0C2C080848075
:104AF000808CC2C0C8404060602032301118080C61
:104B00000602790E1080E0F8FCFC160E17C0C0E01B
:104B1000E060341901C911980AF0F8F878E0F0F86B
:104B20007C6034CC80E0E02611480CF0F0E0C0F866
:104B30003870F0FCBE1865180FE0783C1F07C7E717
:104B4000E77F3E3C78F0E00144C0C0C017C0FFFFE3
:104B500058D8FF20081CFCDE733F1E066A404948F7
:104B60000B040ECEFF7F3F3F8F87818215203010D0
:104B700010500F080F030777F7E6E7170F07030337
:104B800003700B38387CFC7F7FFF8F060219593089
:104B9000146020331F1F38FFE78703171F1E1E0CEA
:104BA0000E0F030147187C7C647C7C2A010141259F
:104BB000087F3F0723060F180C0F0F0808080C1C6E
:104BC0001C1C0F0E111C060E066139271B01010962
:104BD000A170093838646F7F0138383D08180C0E11
:104BE0001F900801070E0C1C18081809047464674C
:104BF0003F3F0F0ED301122931120212FA12031293
:104C000096120412BC120512782929198C11120867
:104C10009A20242129E632043205892449641302AA
:104C2000401A0C04191F393419172A403A10080C7D
:104C3000030C121011101A480F1244044A40272680
:04000005080001AD41
:00000001FF
