:020000040800F2
:1000000058040020C50100089902000813020008E6
:10001000950200080D02000801040008000000001D
:10002000000000000000000000000000C7020008FF
:100030001102000800000000C5020008C902000803
:10004000DF010008DF010008DF010008DF01000810
:10005000DF010008DF010008DF010008DF01000800
:10006000DF010008DF010008DF010008DF010008F0
:10007000DF010008DF010008DF010008DF010008E0
:10008000DF010008DF010008DF010008DF010008D0
:10009000DF010008DF010008DF010008DF010008C0
:1000A000DF010008DF010008DF010008DF010008B0
:1000B000DF010008DF010008DF010008DF010008A0
:1000C000DF010008DF010008DF010008DF01000890
:1000D000DF010008DF010008DF010008DF01000880
:1000E000DF010008DF010008DF010008DF01000870
:1000F000DF010008DF010008DF010008DF01000860
:10010000DF010008DF010008DF010008DF0100084F
:10011000DF010008DF010008DF010008DF0100083F
:10012000DF010008DF010008DF010008DF0100082F
:10013000DF010008DF010008DF010008DF0100081F
:10014000DF010008DF010008DF010008DF0100080F
:10015000DF010008DF010008DF010008DF010008FF
:10016000DF010008DF010008DF010008DF010008EF
:10017000DF010008DF010008DF01000800000000C7
:10018000DF010008DF010008DF010008DF010008CF
:10019000DF010008DF010008DF01000800000000A7
:1001A000DF010008DF010008DF010008DFF810D0E0
:1001B00000F01AF800480047DD050008AFF30080A2
:1001C000580400200648804706480047FEE7FEE73F
:1001D000FEE7FEE7FEE7FEE7FEE7FEE7FEE7FEE7F7
:1001E000D1020008AD010008064C074D06E0E068AA
:1001F00040F0010394E8070098471034AC42F6D36E
:10020000FFF7D8FF800C0008A00C000800BFFEE735
:10021000704700BFFEE700001CB50446632C1CD0ED
:10022000184931F8140000F0FBFA174850F8240080
:100230000221CDE90010154951F8240000231A4687
:10024000012100F08FF9104A52F824100F4A52F899
:100250002400002200F0BDF912E040F6034000F057
:10026000DFFA0720022100231A46CDE90010012100
:10027000074800F077F900220721054800F0A9F9A6
:100280001CBD0000200000201400002008000020F9
:10029000000C024000BFFEE77047000010B50028C8
:1002A00007DA0A07140E054A00F00F031B1FD45487
:1002B00003E00A07130E024A135410BD18ED00E0C4
:1002C00000E400E07047704710B500F0CDF810BDB5
:1002D00008B52948006840F470002749086027489D
:1002E000006840F001002549086024480830006893
:1002F00040F080002149083108600020009002E0B1
:100300000098401C00904CF2503100988842F7D37E
:100310001A480830006840F0900018490831086019
:100320000020009002E00098401C00904CF25031F8
:1003300000988842F7D3002010490831086000BFB8
:100340000E480830006800200028F9D10B480068EA
:100350000B490840094908600A48091D0860081F40
:10036000006820F48020091F0860002003490C3138
:10037000086000F009FB08BD88ED00E0003802408D
:10038000FFFFF6FE1030002470B504460D461449F8
:10039000085D0022114600F045F9124B33F8142095
:1003A000114B53F82410114B53F8240000F048FB74
:1003B0000C4B33F814200E4B53F824100B4B53F80E
:1003C000240000F027FB0B4A52F824100A4A32F8A6
:1003D00014002A4600F004FB0848047070BD0000B9
:1003E00050000020400000203000002028000020A5
:1003F0003800002048000020440000205200002067
:1004000000BFFEE7014A024900F013B8810400086A
:100410005400002002E008C8121F08C1002AFAD1C7
:1004200070477047002001E001C1121F002AFBD174
:1004300070472DE9F04116460F460446002503E0BB
:100440003946B047641C6D1C20780028F8D1284636
:10045000BDE8F0810349086000BF0249096800292E
:10046000FBD17047000000200448006820B1034819
:100470000068401E0149086070470000000000202D
:1004800070B504460D46E1B2094A0A4B1B7852F892
:10049000230000F05FFB00BF0549064A127851F8BF
:1004A0002200072100F0CDFB0028F5D0204670BDCA
:1004B0004800002052000020F0B503461C6A5D6A27
:1004C00000200DE00126864016403EB187000F2631
:1004D000BE40B443860001FA06F63443461CB0B26F
:1004E0000828EFD3082011E00126864016405EB1AF
:1004F000A0F10806B7000F26BE40B543A0F10806DC
:10050000B60001FA06F63543461CB0B21028EBD30C
:100510001C625D62F0BDF0B504460D4616462168CA
:10052000E268002019E0012787401F409FB14FEA91
:10053000400C032707FA0CF7B943470005FA07F701
:1005400039434FEA400C032707FA0CF7BA43470038
:1005500006FA07F73A43471CB8B21028E3D32160E4
:10056000E260F0BD2DE9F04705460E4617461C46F1
:10057000DDE908894B463A4631462846FFF7CBFF6E
:100580004B4642462146284600F002F8BDE8F08777
:10059000F0B50C461546012C03D146681E43466053
:1005A00002E046689E434660826800210DE0012615
:1005B0008E401E403EB14F000326BE40B2434E0067
:1005C00005FA06F632434E1CB1B21029EFD3826011
:1005D000F0BD0AB1816100E08162704700F0D8F996
:1005E0006320FFF719FE4FF4E1310120FFF7CCFE45
:1005F00006E004A0FFF706FF4FF47A70FFF72AFF2A
:10060000F7E7000061207573617274207472616E87
:10061000736D69742074657374206578616D706C96
:1006200065210A002DE9F04103460D4616460024D7
:100630000027A0462A48006800F4E060B0F5E06FAB
:1006400003D100BF4FF0040830E02548006800F4F3
:10065000E060B0F5C06F03D101274FF0030825E03B
:100660001F48006800F4E060B0F5A06F02D10227D7
:10067000B8461BE01A48006800F4E060B0F5806FEF
:1006800003D103274FF0010810E01548006800F47B
:10069000E060B0F5407F03D104274FF0000805E08B
:1006A0004FF4A06000F020F80227B846C7F104001C
:1006B00005FA00F4C8F104010F20C840304004439B
:1006C00024010848C45403F01F0101208840591137
:1006D000890001F1E021C1F80001BDE8F0810000CE
:1006E0000CED00E000E400E002490143024A116021
:1006F000704700000000FA050CED00E02DE9F04F16
:100700008CB0064600200A903EA090E8004CC068DD
:10071000CDE905BECDF810A007900FF2EC0ADAE99A
:10072000000ACDE9020A0FF2E00ADAE9000ACDE98F
:10073000000A38480068C0F381000B900B9820B184
:10074000012804D0022828D103E0334927E03349A7
:1007500025E03048001F006800F03F072D48001FCB
:100760000068C0F3881C2B48001F0068C0F30140DC
:10077000401C4FEA40092748001F006800F4800829
:10078000B8F5800F01D1254B00E0234BB3FBF7F008
:1007900000FB0CF0B0FBF9F101E01F4900BF00BF06
:1007A0001C480068C0F3031404A8055D21FA05F293
:1007B00018480068C0F3822402A8055D22FA05F0FB
:1007C000099014480068C0F342341DF8045022FA1E
:1007D00005F0089036B1012E06D0022E06D0032E69
:1007E0000AD106E00A9108E00A9206E009980A9008
:1007F00003E008980A9000E000BF00BF0A980CB020
:10080000BDE8F08F000000000000000001020304BA
:1008100006070809083802400024F40040787D01EA
:10082000074A02EB9011D1F8001800F01F030122D3
:100830009A401143024B03EB9012C2F80018704724
:1008400000300240074A02EB9011D1F8001800F086
:100850001F0301229A409143024B03EB9012C2F80E
:100860000018704700300240074A02EB9011D1F89F
:10087000001800F01F0301229A401143024B03EBC2
:100880009012C2F80018704700300240002000218A
:100890003A4A126842F48032384B1A6000BF401C5A
:1008A000364A126802F4003119B94FF6FF729042CD
:1008B000F5D1324A126802F400320AB900BFFEE7ED
:1008C0002E4A4032126842F080522C4B40331A605C
:1008D0002B4A126842F44042294B1A60274A0832D8
:1008E0001268264B08331A601A46126842F4004216
:1008F0001A601A46126842F4A0521A60214A1B1F5D
:100900001A601A1F126842F080721B1F1A6000BF23
:100910001A4A126802F00072002AF9D0184A1268C6
:1009200042F48032164B1A6000BF154A526802F436
:100930008032002AF9D0124A126842F40032104B79
:100940001A6000BF0E4A526802F40032002AF9D041
:100950000A4A0832126822F00302084B08331A6070
:100960001A46126842F002021A6000BF034A0832B7
:10097000126802F00802002AF8D0704700380240DE
:10098000007000401964400910B5FFF77FFF10BDEB
:1009900010B5124800684FF47A71B0FBF1F4601E94
:1009A000B0F1807F01D301200FE0601E4FF0E02105
:1009B00048610F214FF0FF30FFF770FC00204FF02F
:1009C000E021886107200861002008B100BFFEE730
:1009D0000021481EFFF762FC10BD0000040000204B
:1009E00070B506460C4615463046FFF719FF2046FF
:1009F00000F0B4F82946204600F038F804212046DB
:100A000000F02EF90821204600F032F9204600F0CF
:100A100013F970BD7CB506460C4615462846FFF70F
:100A2000FFFE224607213046FFF746FD0220002345
:100A300001220146CDE900043046FFF793FD7CBD5D
:100A40007CB506460C4615462846FFF7E9FE2246C9
:100A500007213046FFF730FD022000230122014626
:100A6000CDE900043046FFF77DFD7CBD2DE9F04760
:100A700004460D460027B846B94600263349601A99
:100A80008C4235D00CDC32482044E8B1B0F5806FA0
:100A90001FD0B0F5006F21D0B0F5406F32D122E009
:100AA000B0F5806F29D0B0F5184F03D0B0F51C4FCA
:100AB00028D104E00320FFF721FE074623E00320AE
:100AC000FFF71CFE07461EE00220FFF717FE074651
:100AD00019E00220FFF712FE074614E00220FFF79C
:100AE0000DFE07460FE00220FFF708FE07460AE06A
:100AF0000220FFF703FE074605E00220FFF7FEFD98
:100B0000074600E000BF00BFE06800F4004070B19D
:100B1000780000EB5500B0FBF5F64FF6F07006EAF2
:100B20000008C6F3420948EA0900A0600CE007EBA0
:100B30005500B0FBF5F64FF6F07006EA000806F037
:100B40000F0948EA0900A060BDE8F087007800407E
:100B500000BCFFBFC1F308024260704710B50446F5
:100B60003349601A8C424DD00CDC32482044E0B14D
:100B7000B0F5806F22D0B0F5006F31D0B0F5406F86
:100B800052D136E0B0F5806F45D0B0F5184F03D0A4
:100B9000B0F51C4F48D11AE040F60410FFF764FE90
:100BA00040F60410FFF74EFE3FE040F61100FFF75D
:100BB0005BFE40F61100FFF745FE36E040F61200FE
:100BC000FFF752FE40F61200FFF73CFE2DE040F624
:100BD0000510FFF749FE40F60510FFF733FE24E04D
:100BE00040F61300FFF740FE40F61300FFF72AFE21
:100BF0001BE040F61400FFF737FE40F61400FFF745
:100C000021FE12E040F61E00FFF72EFE40F61E0009
:100C1000FFF718FE09E040F61F00FFF725FE40F63B
:100C20001F00FFF70FFE00E000BF00BF10BD000077
:100C30000078004000BCFFBFC16841F40051C160B2
:100C4000704710B5024602EB9110006801F01F04D6
:100C50000123A340184008B1012010BD0020FCE78B
:100C60000A460021C16821F004011143C1607047A8
:100C70000A460021C16821F008011143C160704794
:100C8000A00C000800000020580000001404000818
:100C9000F80C00085800002000040000240400089C
:100CA0000000000000C2EB0B000C0240000C0240F0
:100CB000000C0240040000000100000002000000DF
:100CC000030C030C030C000000040240000C024063
:100CD00000040000200000000008000040000000A8
:100CE000010C030C12101110004800400044004099
:080CF0002726000000000000AF
:04000005080001AD41
:00000001FF
