:020000040800F2
:1000000098640020C5010008650300085D0300082E
:100010006103000839020008B9050008000000006B
:100020000000000000000000000000009303000832
:10003000E102000800000000910300089503000899
:10004000DF010008DF010008DF010008DF01000810
:10005000DF010008DF010008DF010008DF01000800
:10006000DF010008DF010008DF010008DF010008F0
:10007000DF010008DF010008DF010008DF010008E0
:10008000DF010008DF010008DF010008DF010008D0
:10009000DF010008DF010008DF010008E5020008B9
:1000A000DF010008DF010008DF010008DF010008B0
:1000B0005504000819050008DF010008DF010008E9
:1000C000DF010008DF010008DF010008DF01000890
:1000D000DF0100083D050008DF010008DF0100081E
:1000E000DF010008DF010008DF010008DF01000870
:1000F000DF010008DF010008DF010008DF01000860
:10010000DF010008DF010008DF010008DF0100084F
:10011000DF010008DF010008DF010008DF0100083F
:10012000DF010008DF010008DF010008DF0100082F
:10013000DF010008DF010008DF010008DF0100081F
:10014000DF010008DF010008DF010008DF0100080F
:10015000DF010008DF01000859020008DF01000884
:10016000DF010008DF010008DF010008DF010008EF
:10017000DF010008DF0100083D0200080000000068
:10018000DF010008DF010008DF010008DF010008CF
:10019000DF010008DF010008DF01000800000000A7
:1001A000DF010008DF010008DF010008DFF810D0E0
:1001B00000F030F800480047ED100008AFF3008071
:1001C000986400200648804706480047FEE7FEE79F
:1001D000FEE7FEE7FEE7FEE7FEE7FEE7FEE7FEE7F7
:1001E0009D030008AD01000830B50B460146002014
:1001F0002022012409E021FA02F59D4205D303FAE9
:1002000002F5491B04FA02F52844151EA2F1010269
:10021000F1DC30BD064C074D06E0E06840F001031C
:1002200094E8070098471034AC42F6D3FFF7C2FFBA
:10023000841A0008A41A000800BFFEE710B50120C8
:1002400000F0CEFA012804D100F0C2FA01200149E1
:10025000087010BD1800002010B5102207211E489C
:1002600000F043FC98B101201C490870022000F006
:1002700031FF20220721184800F018FC1022072126
:10028000154800F0F4FB0721134800F06BFB012236
:100290000721114800F029FC10B1022000F01AFFDC
:1002A000042207210C4800F020FC10B1022000F0CD
:1002B00011FF08220721084800F017FC10B10220A6
:1002C00000F008FF10220721034800F00EFC10B1D7
:1002D000022000F0FFFE10BD006402401800002064
:1002E0007047000010B54FF4007000F0BBFD01280E
:1002F0000FD1400200F0B0FD002000F0EBFE4FF403
:1003000000520721144800F09FFD0721124800F019
:1003100039FB4FF4807000F0A5FD012802D10002E6
:1003200000F09AFD802000F09DFD012802D1802080
:1003300000F092FD402000F095FD012802D1402000
:1003400000F08AFD202000F08DFD012802D1202040
:1003500000F082FD10BD00000064024000BFFEE717
:1003600000BFFEE77047000010B5002807DA0A0753
:10037000140E054A00F00F031B1FD45403E00A07B4
:10038000130E024A135410BD18ED00E000E400E023
:100390007047704710B500F0D9FA10BD08B529486C
:1003A000006840F47000274908602748006840F062
:1003B00001002549086024480830006840F08000AA
:1003C0002149083108600020009002E00098401C9C
:1003D00000904CF2503100988842F7D31A48083008
:1003E000006840F090001849083108600020009033
:1003F00002E00098401C00904CF250310098884276
:10040000F7D3002010490831086000BF0E480830BB
:10041000006800200028F9D10B4800680B4908400B
:10042000094908600A48091D0860081F006820F48F
:100430008020091F0860002003490C31086001F08A
:1004400021F908BD88ED00E000380240FFFFF6FE0C
:100450001030002410B50221480701F057F9012897
:1004600047D10221800701F04EF9012000F032FE51
:100470002048008858B900214FF0804001F02EF943
:10048000401C1D49088001201A49088031E01948A4
:10049000008801282DD10021800701F01FF9401CA0
:1004A000164908800846008813490988884207DDF4
:1004B0001248008810490988401A1149086009E06B
:1004C0000D4800884FF6FF71081A0C490988084446
:1004D0000B4908600A4800680A49B1FBF0F00A4974
:1004E00008800846018809A000F068F8002001494A
:1004F000088010BD0C000020080000200A00002029
:100500001000002040420F00140000206672652099
:1005100069732025640A000010B50121054801F027
:10052000F5F830B10121034801F0EDF8002002494F
:10053000088010BD000400400000002010B51949DB
:10054000194801F072FA60B30521174801F044FA26
:1005500038B31449144801F05BFA0521124801F040
:100560002EFA114801F0AEF91049114A1278885458
:100570000F480078401C0E49087008460078012892
:1005800005D10A480078A52801D000200870084845
:100590000078032805D1002005490870012005498D
:1005A000087010BD05030500001001402000002068
:1005B000230000202400002000BFFEE70FB4054BFD
:1005C00010B503A9044A029800F018F810BC5DF8B1
:1005D00014FB0000890E00089000002002E008C80B
:1005E000121F08C1002AFAD170477047002001E0AD
:1005F00001C1121F002AFBD1704700002DE9FF4FF7
:1006000089B09B460446002506E025280BD05A46B3
:100610000B999047641C6D1C20780028F5D10DB013
:100620002846BDE8F08F0027B8460122474900E080
:10063000074314F8013F203B02FA03F00842F7D1C8
:1006400020782E2819D114F8010F47F004072A2822
:100650000ED06FF02F022078A0F1300109290CD8BC
:1006600008EB880102EB410100EB0108641CF2E792
:100670000A98641C50F8048B0A9020780028CED089
:10068000642808D0692806D075281ED05A460B99D0
:1006900090476D1C58E00A994FF00A0901C90A9168
:1006A000002802DA40422D2102E0390504D52B2131
:1006B0008DF82010012103E0F90704D02021F7E78D
:1006C0008A4608AE0DE00021FAE70A994FF00A09C0
:1006D00001C90A91F7E74946FFF786FD303106F870
:1006E000011D0028F7D1ADEB060000F120097807C5
:1006F00001D44FF00108C84502DDA8EB090000E075
:1007000000208046002706E008A85A46C05D0B99E5
:1007100090476D1C7F1C5745F6DB04E030205A469D
:100720000B9990476D1CB8F10001A8F10108F5DCA8
:1007300005E016F8010B5A460B9990476D1CB9F16C
:100740000001A9F10109F4DC641C65E70928010036
:100750000348006840F0010001490860704700004C
:100760000000055010B54FF4A06000F0BFFE4FF43C
:10077000A06000F0A9FE10BD0348006840F480406E
:1007800001490860704700000000055000210B4A35
:10079000126844F201039A43084B1A60026811433D
:1007A0004268114382681143C268114302691143D0
:1007B000426911431A46116070470000000005505D
:1007C0000249C9680143014AD160704700000550E1
:1007D000024949690143014A5161704700000550CF
:1007E000014604480069084008B90020704701200C
:1007F000FCE700000000055030B589B005460C4606
:1008000040F6164000F04EFE0721134800F0DDF8D8
:100810001248009002950020069007940120019054
:10082000002003904FF48050049040010890002075
:1008300005906A460721084800F05AFA012207216C
:10084000054800F0AFF80721034800F09BF8FFF7D8
:100850007FFF09B030BD0000006402402800055051
:1008600000B587B04FF4406000F01CFE40F6014038
:1008700000F018FE40F6024000F014FE50220D2158
:100880002A4800F063FB4FF470720D21284800F0F5
:100890005DFB4FF43C620D21264800F057FB4FF4FE
:1008A000506000F0FFFD5023012202211F4800F09C
:1008B0007CFB4FF47073012202211D4800F075FB90
:1008C0004FF43C63012202211A4800F06EFB5023D2
:1008D00003220021154800F0A5FB4FF4707303229A
:1008E0000021134800F09EFB4FF43C6303220021DB
:1008F000104800F097FBFFF735FF00200190202003
:1009000002900020039004900590069001A8FFF744
:100910003DFF0120FFF754FFFFF72EFF02220121C8
:100920004E2000F0C1FC07B000BD000000000240F6
:1009300000040240000802400349086000BF024969
:1009400009680029FBD170470400002004480068B2
:1009500020B103480068401E01490860704700004C
:100960000400002010B501EB4102D30000F1100299
:10097000D25822F0010301EB4102D40000F1100231
:10098000135110BD10B501EB4102D30000F110026C
:10099000D25842F0010301EB4102D40000F11002F1
:1009A000135110BD30B5134601EB4104E50000F1D1
:1009B0001004625922F0606242EA436201EB410492
:1009C000E50000F11004625130BD10B501EB4102A9
:1009D000D30000F11002D25822F0010301EB4102D2
:1009E000D40000F110021351002301EB4102D400A6
:1009F00000F11002135101EB4102D40000F1140286
:100A0000135101EB4102D40000F11802135101EB24
:100A10004102D40000F11C02135101EB4102D40049
:100A200000F12002135101EB4102D40000F1240235
:100A3000135104290CDA01EB41025300C1F34002C7
:100A400003EB82033D229A4083681A4382600DE0E3
:100A50000A1FD1B201EB41025300C1F3400203EB84
:100A600082033D229A40C3681A43C26010BD30B56C
:100A7000802A0DD001EB4103DC0000F110031B596B
:100A8000934301EB4104E50000F1100463510CE0D5
:100A900001EB4103DC0000F124031B59934301EBFC
:100AA0004104E50000F12404635130BD10B5042970
:100AB0000CDA01EB41035C00C1F3400304EB830358
:100AC00002FA03F38468234383600DE00B1FD9B25D
:100AD00001EB41035C00C1F3400304EB830302FA22
:100AE00003F3C4682343C36010BDF0B5034600257B
:100AF00000260C46042979DA082A34D004DC012ABD
:100B000007D0042A70D119E0102A41D0202A6BD1D5
:100B100053E001EB41004700C1F3400007EB8007C1
:100B200002FA07F01F6800EA070601EB4100C70060
:100B300003F12400C05900F0800556E001EB4100AC
:100B40004700C1F3400007EB800702FA07F01F6877
:100B500000EA070601EB4100C70003F11000C0598D
:100B600000F0020541E001EB41004700C1F3400005
:100B700007EB800702FA07F01F6800EA070601EB9F
:100B80004100C70003F11000C05900F004052CE03B
:100B900001EB41004700C1F3400007EB800702FA78
:100BA00007F01F6800EA070601EB4100C70003F1E8
:100BB0001000C05900F0080517E001EB41004700A4
:100BC000C1F3400007EB800702FA07F01F6800EA54
:100BD000070601EB4100C70003F11000C05900F007
:100BE000100502E002E0FFE700BF7AE0201FC4B278
:100BF000082A34D004DC012A07D0042A6FD119E076
:100C0000102A41D0202A6AD153E004EB4400470067
:100C1000C4F3400007EB800702FA07F05F6800EAC0
:100C2000070601EB4100C70003F12400C05900F0A2
:100C3000800555E004EB44004700C4F3400007EB97
:100C4000800702FA07F05F6800EA070601EB41003F
:100C5000C70003F11000C05900F0020540E004EBAA
:100C600044004700C4F3400007EB800702FA07F096
:100C70005F6800EA070601EB4100C70003F11000BE
:100C8000C05900F004052BE004EB44004700C4F316
:100C9000400007EB800702FA07F05F6800EA0706EA
:100CA00001EB4100C70003F11000C05900F0080536
:100CB00016E004EB44004700C4F3400007EB800754
:100CC00002FA07F05F6800EA070601EB4100C7007F
:100CD00003F11000C05900F0100501E0FFE700BF6C
:100CE00000BF16B10DB10120F0BD0020FCE70000EF
:100CF00070B501EB4104E50000F12404645924F0CF
:100D0000040501EB4104E60000F12404A55101EBC8
:100D10004104E60000F118041568A55101EB4104F7
:100D2000E60000F11C049568A55101EB4104E600C2
:100D300000F11404D569A55101EB4104E50000F16F
:100D4000100463593F4C2340146944EA8404156A33
:100D50002C4395692C43234301EB4104E50000F14A
:100D600010046351546874B901EB4104E50000F1CB
:100D70001004645944F4007501EB4104E60000F1ED
:100D80001004A5511FE05468012C0ED101EB410461
:100D9000E50000F11004645924F4007501EB4104EE
:100DA000E60000F11004A5510DE001EB4104E5005F
:100DB00000F11004645944F4004501EB4104E600DD
:100DC00000F11004A551D46874B901EB4104E500A9
:100DD00000F11004645944F4806501EB4104E6001D
:100DE00000F11004A5510DE001EB4104E50000F114
:100DF0001004645924F4806501EB4104E60000F11D
:100E00001004A551546974B901EB4104E50000F1E7
:100E10001004645944F4807501EB4104E60000F1CC
:100E20001004A5510DE001EB4104E50000F11004B0
:100E3000645924F4807501EB4104E60000F11004CC
:100E4000A55170BD3F87FCFF10B501EB4103DC00ED
:100E500000F114031A5110BD0149086070470000E9
:100E6000143C014001460748006800EA01020548B9
:100E70001438006800EA010312B10BB10120704779
:100E80000020FCE7143C014070B504460D46E1B279
:100E9000054800F01CFD00BF0721034800F09CFD41
:100EA0000028F9D0204670BD00480040F8B507463C
:100EB0000D46002434E0A5208DF80000F1208DF8C7
:100EC000010035F8240086B230128DF80200F0B22D
:100ED0008DF8030004226946384600F03DFC12A05C
:100EE000FFF76CFB00BF114800780028FBD0002002
:100EF0000E4908700EA0FFF761FB0E4880780D497F
:100F0000497840EA012000B205EB8401488005EBF6
:100F10008400B0F9021008A0FFF750FB601C84B2F7
:100F2000082CC8DBF8BD0000310A000024000020B6
:100F3000320A000020000020627566665B695D5B16
:100F4000315D203D2025640A00000000F0B5034615
:100F50001C6A5D6A00200DE00126864016403EB105
:100F600087000F26BE40B443860001FA06F63443DC
:100F7000461CB0B20828EFD3082011E001268640B5
:100F800016405EB1A0F10806B7000F26BE40B5437B
:100F9000A0F10806B60001FA06F63543461CB0B2C9
:100FA0001028EBD31C625D62F0BDF0B504460D461F
:100FB00016462168E268002019E0012787401F409B
:100FC0009FB14FEA400C032707FA0CF7B9434700DB
:100FD00005FA07F739434FEA400C032707FA0CF7E5
:100FE000BA43470006FA07F73A43471CB8B210283D
:100FF000E3D32160E260F0BD2DE9F04705460E46DF
:1010000017461C46DDE908894B463A4631462846D4
:10101000FFF7CBFF4B4642462146284600F002F838
:10102000BDE8F087F0B50C461546012C03D14668A3
:101030001E43466002E046689E4346608268002187
:101040000DE001268E401E403EB14F000326BE40FB
:10105000B2434E0005FA06F632434E1CB1B21029D7
:10106000EFD38260F0BD000010B50446104931F89E
:10107000140000F017FA0F4951F824300E4951F8C6
:10108000240000220121FFF790FF0A4951F8243083
:10109000094951F8240002220021FFF7C3FF054847
:1010A00050F82400044951F82410886210BD000053
:1010B000880000207C00002070000020034951F8C7
:1010C0002010034A52F82020916270477C000020D3
:1010D00070000020034951F82010034A52F82020E4
:1010E000D16270477C0000207000002000F0CEFA32
:1010F0000020FFF7B9FF0120FFF7B6FF0220FFF73E
:10110000B3FF0020FFF7DAFF40F601424FF48061A1
:10111000114800F04CFB40F601424FF400610E48CC
:1011200000F02FFB4FF4E1320C4941F2120000F0C5
:10113000F9FA0BA0FFF742FA00F024F84FF47A70A6
:10114000FFF7FAFB07E00E48007820B100F072F8D4
:1011500000200B490870F6E70004024000480040F8
:1011600061207573617274207472616E736D69743D
:101170002074657374206578616D706C6521000062
:101180001800002010B522482249086000221146AC
:10119000252000F089F84FF440624FF400411E48CA
:1011A00000F005FB40F6014208211C4800F0E9FA76
:1011B0004FF416521A4941F2041000F0B3FA40F20B
:1011C0000531174800F017FCC820FFF7B5FB0020D9
:1011D0001449087014491248FFF768FE00201149AD
:1011E000087012490E4800F093F900200D4908706C
:1011F0000D490B48FFF75AFE0DA0FFF7DFF9FFF787
:101200002FFB4FF4006103480068FFF7F5FA10BDAB
:10121000940000201C000020000002400004024056
:1012200000100140240000204A0000202600002079
:10123000330A000010B50121194800F048FB00BF37
:101240000721174800F0C8FB0028F9D06FF0010112
:10125000134800F03CFB00BF0721114800F0BCFB25
:101260000028F9D04FF400520E490D4800F074FAEE
:101270006FF001010A4800F02AFB00BF072108486F
:1012800000F0AAFB0028F9D00121054800F01FFB5F
:1012900000BF0721024800F09FFB0028F9D010BDD5
:1012A00000480040940000202DE9F04103460D461F
:1012B000164600240027A0462A48006800F4E06093
:1012C000B0F5E06F03D100BF4FF0040830E02548CF
:1012D000006800F4E060B0F5C06F03D101274FF063
:1012E000030825E01F48006800F4E060B0F5A06F37
:1012F00002D10227B8461BE01A48006800F4E060FB
:10130000B0F5806F03D103274FF0010810E01548B6
:10131000006800F4E060B0F5407F03D104274FF08F
:10132000000805E04FF4A06000F020F80227B8465E
:10133000C7F1040005FA00F4C8F104010F20C84009
:101340003040044324010848C45403F01F01012025
:1013500088405911890001F1E021C1F80001BDE880
:10136000F08100000CED00E000E400E002490143E0
:10137000024A1160704700000000FA050CED00E021
:101380002DE9F04F8CB0064600200A903EA090E870
:10139000004CC068CDE905BECDF810A007900FF253
:1013A000EC0ADAE9000ACDE9020A0FF2E00ADAE90A
:1013B000000ACDE9000A38480068C0F381000B90AC
:1013C0000B9820B1012804D0022828D103E033492A
:1013D00027E0334925E03048001F006800F03F0750
:1013E0002D48001F0068C0F3881C2B48001F0068B0
:1013F000C0F30140401C4FEA40092748001F006825
:1014000000F48008B8F5800F01D1254B00E0234B94
:10141000B3FBF7F000FB0CF0B0FBF9F101E01F4962
:1014200000BF00BF1C480068C0F3031404A8055D9A
:1014300021FA05F218480068C0F3822402A8055D6D
:1014400022FA05F0099014480068C0F342341DF8F0
:10145000045022FA05F0089036B1012E06D0022E73
:1014600006D0032E0AD106E00A9108E00A9206E0AF
:1014700009980A9003E008980A9000E000BF00BFB6
:101480000A980CB0BDE8F08F0000000000000000DA
:101490000102030406070809083802400024F4008A
:1014A00040787D01074A02EB9011D1F8001800F056
:1014B0001F0301229A401143024B03EB9012C2F822
:1014C0000018704700300240074A02EB9011D1F833
:1014D000001800F01F0301229A409143024B03EBD6
:1014E0009012C2F80018704700300240074A02EB21
:1014F0009011D1F8001800F01F0301229A40114307
:10150000024B03EB9012C2F8001870470030024003
:10151000F8B507460D4600201949087000241AE066
:10152000A5208DF8000015F824008DF8010005EBCA
:101530008400408886B230128DF80200F0B28DF837
:10154000030004226946384600F006F90220FFF73E
:10155000F3F9601C84B2092CE2DB00BF0848007874
:101560000028FBD000200649087000BF05484078DD
:10157000FF28FBD103488078FF28F7D1F8BD000091
:101580002400002020000020002000213A4A126898
:1015900042F48032384B1A6000BF401C364A126851
:1015A00002F4003119B94FF6FF729042F5D1324A78
:1015B000126802F400320AB900BFFEE72E4A403238
:1015C000126842F080522C4B40331A602B4A12684A
:1015D00042F44042294B1A60274A08321268264BCF
:1015E00008331A601A46126842F400421A601A461A
:1015F000126842F4A0521A60214A1B1F1A601A1F77
:10160000126842F080721B1F1A6000BF1A4A1268EB
:1016100002F00072002AF9D0184A126842F48032AF
:10162000164B1A6000BF154A526802F48032002A35
:10163000F9D0124A126842F40032104B1A6000BF0F
:101640000E4A526802F40032002AF9D00A4A0832DF
:10165000126822F00302084B08331A601A46126817
:1016600042F002021A6000BF034A0832126802F018
:101670000802002AF8D0704700380240007000408D
:101680001964400910B5FFF77FFF10BD10B512486F
:1016900000684FF47A71B0FBF1F4601EB0F1807F06
:1016A00001D301200FE0601E4FF0E02148610F21BF
:1016B0004FF0FF30FEF758FE00204FF0E021886128
:1016C00007200861002008B100BFFEE70021481E86
:1016D000FEF74AFE10BD00006C000020024600200C
:1016E00031B1012906D0022906D0032908D105E02D
:1016F000506B06E0906B04E0D06B02E0106C00E0F1
:1017000000BF00BF7047CA43026170470246D068FD
:1017100000EA01031069084010B10BB101207047C5
:101720000020FCE770B506460C4615463046FFF72C
:10173000B9FE204600F0D0F82946204600F04EF8C9
:101740000421204600F08DF90821204600F091F98F
:10175000204600F02FF970BD70B506460C461546C0
:101760000CE014F8011B304600F0B1F800BF07216F
:10177000304600F031F90028F9D06D1E002DF0D16F
:1017800070BD7CB506460C4615462846FFF78AFE16
:10179000224607213046FFF7D9FB02200023012211
:1017A0000146CDE900043046FFF726FC7CBD7CB540
:1017B00006460C4615462846FFF774FE22460721CA
:1017C0003046FFF7C3FB0220002301220146CDE98A
:1017D00000043046FFF710FC7CBD00002DE9F04707
:1017E00004460D460027B846B94600263349601A1C
:1017F0008C4235D00CDC32482044E8B1B0F5806F23
:101800001FD0B0F5006F21D0B0F5406F32D122E08B
:10181000B0F5806F29D0B0F5184F03D0B0F51C4F4C
:1018200028D104E00320FFF7ABFD074623E00320A7
:10183000FFF7A6FD07461EE00220FFF7A1FD0746C1
:1018400019E00220FFF79CFD074614E00220FFF795
:1018500097FD07460FE00220FFF792FD07460AE0DA
:101860000220FFF78DFD074605E00220FFF788FD07
:10187000074600E000BF00BFE06800F4004070B120
:10188000780000EB5500B0FBF5F64FF6F07006EA75
:101890000008C6F3420948EA0900A0600CE007EB23
:1018A0005500B0FBF5F64FF6F07006EA000806F0BA
:1018B0000F0948EA0900A060BDE8F0870078004001
:1018C00000BCFFBF01464868C0F308007047C1F381
:1018D000080242607047000010B504463349601AA0
:1018E0008C424DD00CDC32482044E0B1B0F5806F22
:1018F00022D0B0F5006F31D0B0F5406F52D136E054
:10190000B0F5806F45D0B0F5184F03D0B0F51C4F3F
:1019100048D11AE040F60410FFF7E8FD40F6041045
:10192000FFF7D2FD3FE040F61100FFF7DFFD40F684
:101930001100FFF7C9FD36E040F61200FFF7D6FDB3
:1019400040F61200FFF7C0FD2DE040F60510FFF74E
:10195000CDFD40F60510FFF7B7FD24E040F613007B
:10196000FFF7C4FD40F61300FFF7AEFD1BE040F6A5
:101970001400FFF7BBFD40F61400FFF7A5FD12E0D1
:1019800040F61E00FFF7B2FD40F61E00FFF79CFD7B
:1019900009E040F61F00FFF7A9FD40F61F00FFF722
:1019A00093FD00E000BF00BF10BD000000780040C4
:1019B00000BCFFBFC16841F40051C160704710B561
:1019C00000EB9112126801F01F040123A3409A4317
:1019D00000EB91131A6010BD10B5024602EB911096
:1019E000006801F01F040123A340184008B1012042
:1019F00010BD0020FCE710B500EB9112126801F059
:101A00001F040123A3401A4300EB91131A6010BD79
:101A100010B500EB91521268C1F304440123A340B6
:101A20009A4300EB91531A6010BD70B50246002333
:101A30000024C1F38910105801F01F060125B5409C
:101A400000EA050302EB91500068C1F3044601254A
:101A5000B54000EA050414B10BB1012070BD0020AF
:101A6000FCE70A460021C16821F004011143C1606E
:101A700070470A460021C16821F008011143C16086
:101A800070470000A41A0008000000209400000025
:101A9000DC050008381B00089400002004640000E6
:101AA000EC0500080000000000000000000000003D
:101AB0000000000000000000000000000000000026
:101AC0000000000000000000000001000000020013
:101AD000FA000300960004008000050040000600A4
:101AE00000000700000008002000000000000100C6
:101AF00000000200000003000000040000000500D8
:101B000000000600000007000000080000000000C0
:101B100000C2EB0B000C0240000C0240000C024023
:101B2000040000000100000002000000030C030C90
:081B3000030C0000000000009E
:04000005080001AD41
:00000001FF
