:020000040800F2
:1000000010C70020C501000825160008511400087B
:10001000211600087B0700083D2B000800000000A7
:10002000000000000000000000000000FF200008A9
:10003000ED0A000800000000FD20000885210008EE
:10004000DF010008DF010008DF010008DF01000810
:10005000DF010008DF010008DF010008DF01000800
:10006000DF010008DF010008DF010008DF010008F0
:10007000DF010008DF010008DF010008DF010008E0
:10008000DF010008DF010008DF010008DF010008D0
:10009000DF010008DF010008DF010008F10A0008A5
:1000A000DF0100083D27000821270008DF010008C4
:1000B0007D27000841280008C5280008DF01000846
:1000C000DF010008DF010008DF010008DF01000890
:1000D000DF010008C12A0008DF010008DF01000875
:1000E000DF010008DF010008DF010008DF01000870
:1000F000DF010008DF010008DF010008DF01000860
:10010000DF010008DF01000829290008DF010008DD
:10011000DF010008DF010008DF010008AD29000849
:10012000DF010008DF010008DF010008DF0100082F
:10013000DF010008DF010008DF010008DF0100081F
:10014000DF010008DF010008DF010008DF0100080F
:10015000DF010008DF010008E5080008DF010008F2
:10016000DF010008DF010008DF010008DF010008EF
:10017000DF010008DF010008C908000800000000D6
:10018000DF010008DF010008DF010008DF010008CF
:10019000DF010008DF010008DF01000800000000A7
:1001A000DF010008DF010008DF010008DFF810D0E0
:1001B00000F096FA00480047214B0008AFF300809A
:1001C00010C700200648804706480047FEE7FEE7C4
:1001D000FEE7FEE7FEE7FEE7FEE7FEE7FEE7FEE7F7
:1001E0008D210008AD010008D2B201E000F8012B1A
:1001F000491EFBD270470022F6E710B513460A46A7
:1002000004461946FFF7F0FF204610BD2DE9FE4FCA
:10021000804681EA0300C00F0C46009021F00041A7
:1002200023F00045B8EB0200A94105D24046214623
:1002300090461C460B46024623F00040104347D030
:10024000270DC7F30A00C3F30A510290401A019028
:1002500040286BDAC3F3130040F4801B00989246E9
:1002600020B10023D2EB030A63EB0B0B0198594634
:10027000C0F14002504600F0B5F906460D46504622
:100280005946019A00F0BDF910EB080061410024C5
:1002900087EA115284EAE7731A4340D0009A62B3A6
:1002A000019A012A4FEA075215DC001B61EB02019B
:1002B0004FF0004202EA0752CDE90042001C41F52E
:1002C000801132462B4600F0BDF903B0BDE8F08F37
:1002D00040462146F9E7001B61EB0201001C41F595
:1002E000801300185B412018A2F5001747EB0301AB
:1002F00040EAD570B6196D4111E06D084FEA360637
:1003000045EAC0754FEA0752001B61EB0201001C71
:1003100041F5801149084FEA300000195141324639
:100320002B4603B0BDE8F04F00F07DB900980122E4
:1003300040000023D0EB020263EBE07300982146FB
:100340004FEAE074B8EB000061EB0401E9E783F0E9
:1003500000435BE781F0004158E72DE9FE4F81EA59
:10036000030404F0004421F0004100944FF0000B1E
:1003700023F0004350EA01045ED052EA03045BD04C
:10038000C3F30A54C1F30A552C44A4F2F334019484
:10039000A0FB0254C1F3130141F48011C3F3130312
:1003A00043F4801301FB024400FB034E840A970AC6
:1003B00044EA815447EA8357A4FB076802958D0AF3
:1003C00005FB07854FEA932C04FB0C542705029D7F
:1003D0004FEA065847EA1637B5EB08056EEB070CEF
:1003E000870E920E47EA811742EA8312A7FB0201A9
:1003F000B6EB0B0164EB00042B0D43EA0C335E18E3
:1004000044EB1C50DA465146E7FB0201C5F31304E6
:100410004FEA0B3343EA14534FEA0432019C43EA98
:100420000603A4F10C040294009CCDE900B400F092
:1004300009F903B0BDE8F08F00200146F9E72DE986
:10044000F04D81EA030404F0004B21F0004514460E
:100450004FF0000A23F0004150EA050220D054EA90
:1004600001021DD0C5F30A570246C5F31303C1F3B9
:100470001300C1F30A5640F4801543F48013A7EB30
:100480000608101BD64608F2FD3873EB050002D3B0
:1004900008F1010801E092185B41B8F1000F03DA9E
:1004A00000200146BDE8F08D00204FF48011064683
:1004B00084460EE0171B73EB050705D3121B63EB95
:1004C000050306434CEA010C49084FEA3000921834
:1004D0005B4150EA0107EDD152EA030012D082EAF3
:1004E000040083EA0501084305D0101BAB4106D286
:1004F0000122002306E000224FF0004302E06FF0EB
:10050000010253101AEB06004CEB085110EB0A00E5
:1005100041EB0B01BDE8F04D00F085B80EB5C10F01
:1005200080EAE0700844CA07002140F233438DE8B6
:100530000E000A460B4600F085F803B000BD0EB56C
:1005400040F2334102910021CDE900110A460B46E9
:1005500000F078F803B000BD30B5041E71F100045E
:1005600004DB4FF00044404264EB0101141E73F1C0
:10057000000405DB1C464FF00043524263EB0403CA
:100580008B4208BF824230BD30B5041E71F10004B9
:1005900004DB4FF00044404264EB0101141E73F190
:1005A000000405DB1C464FF00043524263EB04039A
:1005B000994208BF904230BD30B50B46014600203D
:1005C0002022012409E021FA02F59D4205D303FA15
:1005D00002F5491B04FA02F52844151EA2F1010296
:1005E000F1DC30BD202A04DB203A00FA02F10020C1
:1005F00070479140C2F1200320FA03F31943904061
:100600007047202A06DBCB17203A41FA02F043EA72
:10061000E07306E041FA02F3D040C2F120029140BB
:1006200008431946704710B5141E73F1000408DA28
:10063000401C41F1000192185B411A4301D120F0A6
:10064000010010BD2DE9F04D92469B4611B1B1FA63
:1006500081F202E0B0FA80F220329046FFF7C2FF4A
:1006600004460F4640EA0A0041EA0B0153465A4647
:10067000084313D0114653EA010019D0C8F14002D3
:10068000504600F03FF805460E4650465946424651
:10069000FFF7A8FF084305D0012004E020463946B3
:1006A000BDE8F08D0020054346EAE0762C43374351
:1006B0000A986305E40AA0EB08000022FD0A44EA58
:1006C00047540A3002D500200146E9E70105101918
:1006D0006941DDE9084500196941BDE8F04DA2E72F
:1006E000064C074D06E0E06840F0010394E807007F
:1006F00098471034AC42F6D3FFF75CFD287500082C
:1007000048750008202A04DB203A21FA02F0002173
:10071000704721FA02F3D040C2F120029140084311
:100720001946704770B58C1810F8015B15F0070377
:1007300001D110F8013B2A1106D110F8012B03E07A
:1007400010F8016B01F8016B5B1EF9D12B0705D482
:100750000023521E0DD401F8013BFAE710F8013BCB
:10076000CB1A921C03E013F8015B01F8015B521EE7
:10077000F9D5A142D8D3002070BD00BFFEE710B567
:1007800004F06AFC10BD000038B5044645F62000B0
:1007900000231A4604490090044803F022FE204634
:1007A00001F0F6F938BD0000686A00204812002008
:1007B00070B5002678235D220021084601F077FD00
:1007C000002526E0002421E000BFC5EB051000EB6A
:1007D0004510114901EB8000005DC010C602C5EB59
:1007E000051000EB451001EB8000005D801046EA2B
:1007F0004016C5EB051000EB451001EB8000005DD5
:1008000046EAE006304601F0D5FDA41CBC2CDBD343
:100810006D1C782DD6D370BD4812002010B5012074
:1008200002F034F9FE2002F031F945F620010548C6
:1008300002F00CF9FE2002F029F9012002F026F95D
:1008400010BD00004812002070B50546082D1FDAC3
:100850002946002001F03BF8002406E00022402158
:10086000782004F0EFF8601CC4B2802CF6DB681C22
:10087000C1B2002001F02BF8002406E00022402144
:10088000782004F0DFF8601CC4B2802CF6DB19E09D
:10089000082D17D10025002612E02946002001F07E
:1008A00016F8002406E000224021782004F0CAF85F
:1008B000601CC4B2802CF6DB681CC5B2701CC6B2CA
:1008C000082EEADB70BD000010B5012002F048FEE2
:1008D000012804D102F03CFE01200149087010BD3E
:1008E000E80E002010B5102207211E4803F053FA2D
:1008F00098B101201C490870022004F005F920225B
:100900000721184803F028FA10220721154803F0A0
:1009100004FA0721134803F07BF90122072111484B
:1009200003F039FA10B1022004F0EEF80422072196
:100930000C4803F030FA10B1022004F0E5F8082268
:100940000721084803F027FA10B1022004F0DCF870
:1009500010220721034803F01EFA10B1022004F010
:10096000D3F810BD00640240E80E002010B5024626
:100970000020092A36D2DFE802F0352F29231D177F
:10098000110B050011F8014B0A2300FB034000BFC7
:1009900011F8014B0A2300FB034000BF11F8014B83
:1009A0000A2300FB034000BF11F8014B0A2300FBA0
:1009B000034000BF11F8014B0A2300FB034000BFB6
:1009C00011F8014B0A2300FB034000BF11F8014B53
:1009D0000A2300FB034000BF11F8014B0A2300FB70
:1009E000034000BF00BF10BD70B5092975D2DFE814
:1009F00001F074695B4D3E2F21130500384CB0FBAC
:100A0000F4F40A25B4FBF5F605FB1644302505FB86
:100A1000034402F8014B00BF324CB0FBF4F40A254A
:100A2000B4FBF5F605FB1644302505FB034402F83C
:100A3000014B00BF2C4CB0FBF4F40A25B4FBF5F6D7
:100A400005FB1644302505FB034402F8014B00BFAB
:100A500042F21074B0FBF4F40A25B4FBF5F605FB82
:100A60001644302505FB034402F8014B00BF4FF448
:100A70007A74B0FBF4F40A25B4FBF5F605FB1644D2
:100A8000302505FB034402F8014B00BF6424B0FB92
:100A9000F4F40A25B4FBF5F605FB1644302505FBF6
:100AA000034402F8014B00BF0A24B0FBF4F40A250A
:100AB000B4FBF5F605FB1644302505FB034402F8AC
:100AC000014B00BF0A24B0FBF4F504FB15043025EC
:100AD00005FB034402F8014B00BF00BF70BD0000DE
:100AE0008096980040420F00A086010070470000E9
:100AF00010B54FF4007003F00BFB01280FD140023A
:100B000003F000FB002003F0FFFF4FF40052072129
:100B1000144803F0EFFA0721124803F089F84FF464
:100B2000807003F0F5FA012802D1000203F0EAFA1E
:100B3000802003F0EDFA012802D1802003F0E2FAD0
:100B4000402003F0E5FA012802D1402003F0DAFA50
:100B5000202003F0DDFA012802D1202003F0D2FA90
:100B600010BD00000064024070B586B006460D4618
:100B7000632E01D1002400E03446002C7ED1002DEC
:100B8000FCD141F20E1004F02BFDFD4931F81400A8
:100B900004F026FDFB4951F82430FB4951F82400AC
:100BA0000122022103F0F1FDF64B53F82420F74B0C
:100BB00053F82410F44B53F8240003F099FDF44942
:100BC00051F82430F04951F824000022114603F076
:100BD000DCFDF04931F8140004F002FD4FF08070A4
:100BE00004F034FDEC4951F8240006F0D3F8C72096
:100BF000ADF808000020ADF80A001020ADF80C0098
:100C000041F2873004900020ADF80E008DF81400FA
:100C1000E14951F8240002A906F084F90220ADF858
:100C200000000120ADF802000020ADF80400ADF88E
:100C30000600DA4A32F8242091B2D74A52F824004A
:100C40006A4606F0BBF9D44951F8240005F0F0FEDD
:100C5000D34A52F82410D04A52F8240006F055FA2C
:100C6000CD4951F82400012106F04FFACA4951F844
:100C70002400012106F045FAC94A00E013E052F8C9
:100C80002410C54A52F8240006F03BFAC54911F871
:100C900024000022114604F037FABF4951F824001D
:100CA00006F03AF969E0002C67D1012D65D1B4490D
:100CB00031F8140004F094FCB24951F82430B249E0
:100CC00051F824000122022103F05FFDB04951F8E0
:100CD0002430AD4951F824000122022103F055FDD2
:100CE000A84B53F82420A94B53F82410A64B53F8D3
:100CF000240003F0FDFCA64B53F82420A34B53F82B
:100D00002410A14B53F8240003F0F2FCA14931F860
:100D1000140004F065FC280604F098FC9E4951F884
:100D2000240006F037F80920ADF808000020ADF8DF
:100D30000A001020ADF80C004CF250300490002056
:100D4000ADF80E008DF81400934951F8240002A963
:100D500006F0E8F8904951F8240005F069FE8E4944
:100D600051F8240002231A46032106F0E9F98A49C2
:100D700051F8240006F0D0F800BF632E00D1012402
:100D8000012C7CD1002DFCD141F20E1004F028FC86
:100D90007B4931F8140004F023FC7A4951F82430DF
:100DA000794951F824000122022103F0EEFC754B31
:100DB00053F82420754B53F82410734B53F8240038
:100DC00003F096FC724951F824306F4951F8240021
:100DD0000022114603F0D9FC6E4931F8140004F0EA
:100DE000FFFB200604F032FC6B4951F8240005F0AB
:100DF000D1FFC720ADF808000020ADF80A00ADF81B
:100E00000C0041F2873004900020ADF80E008DF800
:100E10001400614951F8240002A906F083F8022069
:100E2000ADF800000120ADF802000020ADF804008C
:100E3000ADF80600594A32F8242091B2564A52F8C9
:100E400024006A4606F0BAF8534951F8240005F028
:100E5000EFFD534A52F824104F4A52F8240006F08E
:100E600054F94D4951F82400012106F04EF94A4940
:100E700051F82400012106F044F9494A00E013E04A
:100E800052F82410444A52F8240006F03AF9454931
:100E900011F824000022114604F036F93E4951F8B9
:100EA000240006F039F868E0012C66D1012D64D1E8
:100EB000334931F8140004F093FB324951F82430DF
:100EC000314951F824000122022103F05EFC30492F
:100ED00051F824302C4951F824000122022103F05A
:100EE00054FC284B53F82420284B53F82410264B4D
:100EF00053F8240003F0FCFB254B53F82420234B2C
:100F000053F82410204B53F8240003F0F1FB21493F
:100F100031F8140004F064FB200604F097FB1E492E
:100F200051F8240005F036FF0920ADF80800002034
:100F3000ADF80A00ADF80C004CF2503004900020DF
:100F4000ADF80E008DF81400134951F8240002A9E1
:100F500005F0E8FF104951F8240005F069FD0E493D
:100F600051F8240000231A46032106F0E9F80A4943
:100F700051F8240005F0D0FF00BF06B070BD00009E
:100F8000E0000020D0000020C8000020E400002085
:100F9000D8000020F4000020EC000020F800002021
:100FA0000001002010010020014619B90548008801
:100FB00082B204E0012902D10348008882B210B253
:100FC00070470000C4000020C600002008B501F0F2
:100FD000A9FEEE480068EE490860EE480068EE4958
:100FE0000860EE480068EE490860EE480068EE4987
:100FF0000860EE480068EE490860EE480068EE4977
:101000000860EE480068EE490860EE480068EE4966
:101010000860EE480068EE490860EE480068EE4956
:101020000860EE480068EE490860EE480068EE4946
:101030000860EE480068EE490860EE480068EE4936
:101040000860EE480068EE490860EE480068EE4926
:101050000860EE480068EE490860EE480068EE4916
:1010600008608EE1ED48007802F03CFB012000F0C2
:1010700029FA01281ED154222C21062001F02AFE33
:10108000E7A301222C21062004F08FF9322002F080
:1010900013FB0820FFF7D8FBE0480078052803D1B0
:1010A0000020DE4908706CE1DC480078401CDB4918
:1010B000087066E1012000F005FA04281DD15422D1
:1010C0002C21062001F006FED5A301222C210620AA
:1010D00004F06BF9322002F0EFFA0820FFF7B4FBBE
:1010E000CE48007818B90520CC49087049E1CB48B2
:1010F0000078401EC949087043E1012000F0E2F980
:1011000005286FD112220021062001F0E3FDC6A3BD
:1011100001220021062004F048F9322002F0CCFA26
:101120000120C249087080220021062001F0D2FD72
:101130001023BDA20621002000F004FD1023BCA254
:101140000621602000F0FEFC0123BB480278BB486A
:101150000178B248007804F0C7FCE1E062E0B848EA
:10116000007801280BD10020B54908700123B2484E
:101170000278B2480178A948007804F0B5FC012053
:1011800000F0A0F901280BD10023AB480278AB484E
:101190000178A248007804F0A7FC05F07BF832E063
:1011A000012000F08FF904280BD10023A248027817
:1011B000A24801789948007804F096FC04F07CFE7F
:1011C00021E0012000F07EF902280CD100239A488A
:1011D00002789A4801789148007804F085FC04F080
:1011E00009FF10E0A0E0012000F06CF903280AD10B
:1011F000002391480278914801788848007804F0EB
:1012000073FC05F031F8012000F05CF9052802D1EB
:1012100004F068FE06E0012000F054F9062801D130
:1012200004F0FCFE81480078012898D07B480078C3
:10123000012811D183A300222821104604F0B5F81B
:1012400080A300222821022004F0AFF87DA3002211
:101250002821042004F0A9F85EE0794800780128EC
:1012600014D1754801787548007804F001FA00201F
:101270007349087001200090734803786E48027823
:101280006E4801786548007803F0B6FF012000F051
:1012900019F9012802D105F059F92EE0012000F0DA
:1012A00011F9042802D105F009F826E0012000F028
:1012B00009F902280ED100200090634803785E48A7
:1012C00002785E4801785548007803F095FF05F0F4
:1012D0007DF812E0012000F0F5F803280DD1002080
:1012E00000905948037854480278544801784B4894
:1012F000007803F081FF05F0FFF8012000F0E2F82C
:10130000052802D105F01AF806E0012000F0DAF80D
:10131000062801D105F086F84448007802289CD0C0
:101320004248007868B319E7012000F0CBF806289E
:1013300010D17022582101F0CDFC44A30122582184
:10134000062004F032F8322002F0B6F90820FFF748
:101350007BFA17E0012000F0B5F8072811D17022C0
:101360005821062001F0B6FC38A30122582106209E
:1013700004F01BF8322002F09FF90820FFF764FA0E
:1013800000E06FE600BF01F0CDFC08BD3401002095
:101390007401002038010020780100203C01002069
:1013A0007C01002040010020800100204401002039
:1013B0008401002048010020880100200400002052
:1013C0008C01002020010020900100202401002039
:1013D0009401002028010020980100202C01002009
:1013E0009C01002030010020A00100204C010020C1
:1013F000A401002050010020A80100205401002079
:10140000AC01002058010020B00100205C01002048
:10141000B401002060010020B80100201901002063
:101420005368696674000000536574001801002059
:1014300045786974000000001B0100201A0100209B
:101440001D0100202E0000001C01002052756E00BE
:1014500000BFFEE710B50446044A52F82410044ABF
:1014600052F8240003F073F910BD00006802002058
:101470005002002010B50446632C0FD00D4931F8FE
:10148000140004F0ADF80C4951F824300B4951F820
:1014900024000122002103F06AF90AE040F603402B
:1014A00004F09EF84FF47C5301220021044803F01D
:1014B0005EF910BD8002002068020020500200206A
:1014C000000C024010B50446012C01D134490870CB
:1014D00033480078002840D00020FFF7BBFF98B1C8
:1014E0000120FFF7B7FF78B10220FFF7B3FF58B133
:1014F0000320FFF7AFFF38B10420FFF7ABFF18B1AF
:101500000520FFF7A7FF40BB142002F0D5F800200C
:1015100023490870FFF79EFF08B9012010BD022083
:10152000FFF798FF08B90220F8E70320FFF792FFC2
:1015300008B90320F2E70120FFF78CFF08B9042067
:10154000ECE70420FFF786FF08B90520E6E7052051
:10155000FFF780FF08B90620E0E70020FFF77AFFD9
:10156000012818D00120FFF775FF012813D00220B1
:10157000FFF770FF01280ED00320FFF76BFF012853
:1015800009D00420FFF766FF012804D00520FFF7EB
:1015900061FF012802D10120014908700020BDE748
:1015A000C80200201CB50446632C1CD0184931F831
:1015B000140004F015F8174850F824000221CDE972
:1015C0000010154951F8240000231A46012103F0A8
:1015D00003F9104A52F824100F4A52F8240000224E
:1015E00003F031F912E040F6034003F0F9FF0F2059
:1015F000022100231A46CDE900100121074803F01B
:10160000EBF800220F21054803F01DF91CBD000076
:10161000EC020020DC020020CC020020000C024082
:1016200000BFFEE77047000010B5002807DA0A0780
:10163000140E054A00F00F031B1FD45403E00A07E1
:10164000130E024A135410BD18ED00E000E400E050
:1016500010B50021AE2000F092FA0021084600F0FB
:101660008EFA0021102000F08AFA0021402000F0BC
:1016700086FA0021B02000F082FA0021812000F0DB
:101680007EFA0021FF2000F07AFA0021A12000F06C
:1016900076FA0021A62000F072FA0021A82000F0BE
:1016A0006EFA00213F2000F06AFA0021C82000F005
:1016B00066FA0021D32000F062FA0021084600F00B
:1016C0005EFA0021D52000F05AFA0021802000F0B7
:1016D00056FA0021D92000F052FA0021F12000F042
:1016E0004EFA0021DA2000F04AFA0021122000F020
:1016F00046FA0021DB2000F042FA0021302000F001
:101700003EFA00218D2000F03AFA0021142000F06A
:1017100036FA0021AF2000F032FA10BD10B50820D3
:10172000FFF792F80721002000F0AAF9012001F04C
:10173000C3FF0621002000F0A3F9012001F0BCFF47
:101740000521002000F09CF9012001F0B5FF0421E3
:10175000002000F095F9012001F0AEFF03210020E8
:1017600000F08EF9012001F0A7FF0221002000F017
:1017700087F9012001F0A0FF0121002000F080F98D
:10178000012001F099FF0021084600F079F94FF49B
:10179000967001F091FF0020FFF756F8002101201C
:1017A00000F06EF9012001F087FF0120FFF74CF8EF
:1017B0000021022000F064F9012001F07DFF0220E9
:1017C000FFF742F80021032000F05AF9012001F050
:1017D00073FF0320FFF738F80021042000F050F9D0
:1017E000012001F069FF0420FFF72EF800210520F9
:1017F00000F046F9012001F05FFF0520FFF724F813
:101800000021062000F03CF9012001F055FF0620E0
:10181000FFF71AF80021072000F032F90820FFF73F
:1018200013F80221002000F05FF9012001F044FFCD
:101830000121002000F058F9012001F03DFF0021B6
:10184000084600F051F9012001F036FF0020FEF7B4
:10185000FBFF0021012000F047F9012001F02CFFDF
:101860000120FEF7F1FF0021022000F03DF94FF4C6
:10187000967001F021FF0220FEF7E6FF0021032011
:1018800000F032F9012001F017FF0320FEF7DCFF22
:101890000021042000F028F9012001F00DFF0420B0
:1018A000FEF7D2FF0021052000F01EF9012001F013
:1018B00003FF0520FEF7C8FF0021062000F014F901
:1018C000012001F0F9FE0620FEF7BEFF10BD70B545
:1018D00004460D4605F1B000002100F050F910213A
:1018E00041EA1410002100F04AF904F00F00002131
:1018F00000F045F970BD00002DE9F04707460E469F
:10190000904699464FF0000A0024A8F1200000F00C
:10191000FF0A174800EB0A157F2F02DD0027B01CD5
:10192000C6B2B9F1100F20D131463846FFF7CFFFCC
:10193000002407E02A784021782003F083F86D1C0A
:10194000601CC4B2082CF5DB701CC1B23846FFF72E
:10195000BEFF002407E02A784021782003F072F8C7
:101960006D1C601CC4B2082CF5DBBDE8F0870000DC
:10197000740300202DE9F04704460F46904699462F
:101980004FF0000A0025A8F1200000F0FF0A1948D6
:1019900000EB0A167F2F02DD0027A01CC4B2B9F1AC
:1019A000100F24D121463846FFF791FF002509E0AA
:1019B0003078C043C2B24021782003F043F8761C4F
:1019C000681CC5B2082DF3DB601CC1B23846FFF7B6
:1019D0007EFF002509E03078C043C2B24021782064
:1019E00003F030F8761C681CC5B2082DF3DBBDE8A7
:1019F000F0870000740300202DE9FF5F0746914641
:101A00001E460E9D4FF0000A002435E0301B401E9C
:101A1000C1B20A2003F0E4FBB9FBF0F00A21B0FBED
:101A2000F1F201FB1208BAF1000F14D1701EA042AE
:101A300011DDB8F1000F0CD1AB4605EBDB7149109D
:101A400001FB0471C8B22B4620220199FFF754FF15
:101A500010E04FF0010AAB4605EBDB71491001FBCA
:101A60000471C8B208F13001CAB22B460199FFF7E0
:101A700043FF00BF601CC4B2B442C7DBBDE8FF9F98
:101A80002DE9F04106460D46002423E0A019C1B21D
:101A90000020FFF71CFF002718E04FF0000810E0BF
:101AA00007EBC40000EBC5000E4901EB001010F875
:101AB00008204021782002F0C5FF08F1010000F065
:101AC000FF08B8F1100FEBDB781CC7B2082FE4DB7E
:101AD000601CC4B2C6F10800401BA042D6DCBDE8C1
:101AE000F0810000640900202DE9F04180460D4698
:101AF00000241FE004EB0800C1B20020FFF7E7FE5E
:101B0000002613E000270DE006EBC40000EBC50043
:101B10000B4901EB0010C25D4021782002F092FFDA
:101B2000781CC7B2102FEFDB701CC6B2082EE9DBA1
:101B3000601CC4B2C5F10300A042DBDCBDE8F0814B
:101B4000640D00202DE9F04104460F4615469846E5
:101B500000260FE0AA5D434639462046FFF7CCFE3B
:101B600004F10800C4B2782C02DD0024B81CC7B20E
:101B7000701CC6B2A85D0028ECD1BDE8F08170B53C
:101B800004460D46E2B2E9B2782002F05BFF70BD78
:101B90002DE9F0410746002400250026A0464146D5
:101BA0000020FFF794FE00BF85E0002576E00026C8
:101BB0006000C0EB001101EB4010414901EB8000D7
:101BC000405DB84201DB46F00106601C4000C0EBFE
:101BD000001101EB40103A4901EB8000405DB84232
:101BE00001DB46F00206A01C4000C0EB001101EB37
:101BF0004010334901EB8000405DB84201DB46F004
:101C00000406E01C4000C0EB001101EB40102C4921
:101C100001EB8000405DB84201DB46F00806201D64
:101C20004000C0EB001101EB4010254901EB8000A2
:101C3000405DB84201DB46F01006601D4000C0EB7D
:101C4000001101EB40101E4901EB8000405DB842DD
:101C500001DB46F02006A01D4000C0EB001101EBA7
:101C60004010174901EB8000405DB84201DB46F0AF
:101C70004006E01D4000C0EB001101EB4010104990
:101C800001EB8000405DB84201DB46F08006324641
:101C90004021782002F0D6FEA81CC5B2BC2D86DB00
:101CA00008F1010000F0FF0841460020FFF70FFE99
:101CB00004F10800C4B2382CFFF677AFBDE8F0811C
:101CC000686A00202DE9F04F2DED108BC9B04FF45C
:101CD000807108A8FEF78FFA4FF00009CA46CB467C
:101CE00000200790069005900490002704E0002053
:101CF00008A9C855781C87B2FF2FF8DD002722E01D
:101D00004FF000081AE0C7EB071000EB47107749C7
:101D100001EB800010F8080008A9085C401CC7EB24
:101D2000071101EB4711714A02EB810111F808100C
:101D300008AA505408F101001FFA80F8B8F1BC0F4E
:101D4000E1DB781C87B2782FDADB002501E0681C24
:101D500005B2FF2D03DC08A8405D0028F7D0FF2660
:101D600001E0701E06B2AE4203DD08A8405D002807
:101D7000F7D0AE4205D1F0B249B0BDEC108BBDE852
:101D8000F08F681CB04201D1E8B2F5E72C4604E0C0
:101D900008A8005D8144601C04B2B442F8DD002054
:101DA00007902C4607E008A8015D079801FB040096
:101DB0000790601C04B2B442F5DD9FED4D8B2C46BC
:101DC0008EE008A8005D8244A9EB0A000590484611
:101DD000FEF7B5FB41EC1E0B5046FEF7B0FB41ECA5
:101DE0001F0B53EC1E2BFEF72AFB41EC1C0B484645
:101DF000FEF7A5FB41EC1E0B0598FEF78FFB41ECAF
:101E00001F0B53EC1E2BFEF71AFB41EC1D0B08A811
:101E1000005D00FB04BB0798A0EB0B00069050464A
:101E2000FEF78DFB41EC1E0B5846FEF788FB41EC9C
:101E30001F0B53EC1E2BFEF702FB41EC1A0B05980F
:101E4000FEF76CFB41EC1E0B0698FEF767FB41ECBE
:101E50001F0B53EC1E2BFEF7F2FA41EC1B0B53EC5D
:101E60001B2B51EC1A0BFEF772FA53EC1B2BCDE92E
:101E7000020151EC1A0BFEF76AFA41EC1E0B53EC0F
:101E80001D2B51EC1C0BFEF768FA41EC1F0B53ECB9
:101E90001E2BFEF762FACDE900019DED020B53EC1B
:101EA000102B9DED000B51EC100BFEF756FA41EC98
:101EB000190B53EC182B51EC190BFEF765FB05D2EF
:101EC000B0EE498AF0EE698AE0B2049053EC182B28
:101ED00051EC190BFEF740FB00D204E0601C04B289
:101EE000B442FFF66EAF00BF049845E748120020E9
:101EF000000000000000F0BF30B589B005460C4678
:101F00004FF4406003F06CFB40F6044003F068FBC4
:101F10004FF4706301220221634802F036FC4FF453
:101F2000606302220021604802F06CFC4FF40072F2
:101F300001215D4802F0DCFB4FF4006201215A48A8
:101F400002F0D6FB4FF480720121574802F0D0FB1B
:101F50004FF480620121544802F0CAFB4FF48850CC
:101F600003F03EFB0020ADF81C00504804F012FFC7
:101F7000681E80B2ADF808000020ADF80A00ADF888
:101F80000C00601E04900020ADF80E008DF81400C7
:101F900002A9464804F0C6FF0020ADF81C0001204D
:101FA000ADF818000020ADF81E00ADF81A00ADF82D
:101FB0002000ADF8220006AA00213C4804F080FD74
:101FC00000221146394804F09EFE60220021374865
:101FD00004F06CFE00221146344804F0A7FE06AA65
:101FE0000121324804F06CFD00220121880704F031
:101FF0008AFE602201212D4804F058FE00220121B2
:102000002A4804F093FE06AA0221284804F058FD4D
:1020100000220221254804F076FE60220221234896
:1020200004F044FE00220221204804F07FFE06AAAC
:1020300003211E4804F044FD002203211B4804F044
:1020400062FE60220321194804F030FE00220321C1
:10205000164804F06BFE0121144805F065F813489A
:1020600004F0E6FC114804F057FF0420022100238D
:102070001A46CDE900100C4802F0AEFB0422032101
:10208000094802F035FB4FF4AF6044F61F61C723E7
:102090000022CDE90010064941F2101003F0BAF910
:1020A0000448048009B030BD000002400000014037
:1020B00000400140E40E00202DE9F04104460D46A9
:1020C0000C48008868434FF47A7190FBF1F087B2B6
:1020D00004B90026012C00D10126022C00D10326D0
:1020E000032C00D102263A463146034804F00BFE89
:1020F000BDE8F081E40E0020000001407047704709
:1021000010B50446044A52F82410044A52F8240038
:1021100002F01DFB10BD0000A40200208C02002074
:1021200010B50446632C0FD00D4931F8140003F0AC
:1021300057FA0C4951F824300B4951F82400012278
:10214000002102F014FB09E040F6064003F048FAD3
:102150003C2301220021054802F009FB10BD0000CC
:10216000BC020020A40200208C02002000180240C3
:1021700010B5044622460021014804F0C4FD10BDFC
:102180000040014010B501F0A1FA10BD08B5294882
:10219000006840F47000274908602748006840F054
:1021A00001002549086024480830006840F080009C
:1021B0002149083108600020009002E00098401C8E
:1021C00000904CF2503100988842F7D31A480830FA
:1021D000006840F090001849083108600020009025
:1021E00002E00098401C00904CF250310098884268
:1021F000F7D3002010490831086000BF0E480830AE
:10220000006800200028F9D10B4800680B490840FD
:10221000094908600A48091D0860081F006820F481
:102220008020091F0860002003490C31086004F079
:10223000D3FB08BD88ED00E000380240FFFFF6FE4A
:102240001030002410B52A2000F086F8002000F09D
:1022500057F8002000F054F8002000F051F8A820B2
:1022600000F04EF82B2000F077F8002000F048F83E
:10227000002000F045F8002000F042F8B32000F004
:102280003FF82C2000F068F810BD70B50646FFF747
:10229000D9FF002408E0002503E0304600F08AF86A
:1022A0006D1C842DF9D3641CA22CF4D370BD2DE9D0
:1022B000F04107460C4615461E462A2000F04CF811
:1022C000002000F01DF8384600F01AF8002000F059
:1022D00017F8284600F014F82B2000F03DF80020F5
:1022E00000F00EF8204600F00BF8002000F008F88F
:1022F000304600F005F82C2000F02EF8BDE8F08103
:1023000070B5044601229103124802F09CFA0025A0
:102310001DE000224FF400510E4802F094FA04F040
:10232000800028B10122D1030A4802F08CFA05E0AE
:1023300000224FF40041074802F085FA01225103C0
:10234000044802F080FA6006040E681CC5B2082D2D
:10235000DFDB70BD0004024070B5044600224FF47C
:102360008041134802F06FFA00251DE000224FF46F
:1023700000510F4802F067FA04F0800028B10122F2
:10238000D1030B4802F05FFA05E000224FF4004150
:10239000074802F058FA01225103054802F053FAA7
:1023A0006006040E681CC5B2082DDFDB70BD00009E
:1023B0000004024070B5044601229103134802F064
:1023C00042FA00251FE000224FF400510F4802F0AE
:1023D0003AFA04F4004028B10122D1030B4802F07C
:1023E00032FA05E000224FF40041084802F02BFACF
:1023F00001225103054802F026FA4FF6FF7000EA69
:102400004404681CC5B2102DDDDB70BD0004024021
:1024100010B5044600224FF40041744802F013FA4C
:10242000322001F049F90122D103704802F00BFA81
:10243000322001F041F91120FFF78EFF0A2001F050
:102440003BF93A20FFF788FF5520FFF759FF262078
:10245000FFF782FF0420FFF753FFF220FFF77CFF16
:102460000120FFF74DFFE020FFF776FF3F20FFF749
:1024700047FF2520FFF744FF1C20FFF741FF1E20E8
:10248000FFF73EFF2020FFF73BFF1220FFF738FF4A
:102490002A20FFF735FF9020FFF732FF2420FFF7B7
:1024A0002FFF1120FFF72CFF0020FFF729FF00204E
:1024B000FFF726FF0020FFF723FF0020FFF720FF94
:1024C0000020FFF71DFFE120FFF746FF2020FFF768
:1024D00017FF2020FFF714FF2020FFF711FF202017
:1024E000FFF70EFF0520FFF70BFF0020FFF708FFA7
:1024F0001520FFF705FFA720FFF702FF3D20FFF79C
:10250000FFFE1820FFF7FCFE2520FFF7F9FE2A202A
:10251000FFF7F6FE2B20FFF7F3FE2B20FFF7F0FE70
:102520003A20FFF7EDFEB120FFF716FF0020FFF77E
:10253000E7FE0020FFF7E4FEB420FFF70DFF0720C1
:10254000FFF7DEFEC020FFF707FF0A20FFF7D8FEE7
:102550000220FFF7D5FEC120FFF7FEFE0220FFF7A5
:10256000CFFEC520FFF7F8FE4F20FFF7C9FE5A2027
:10257000FFF7C6FEC720FFF7EFFE4020FFF7C0FEC3
:102580002A20FFF7E9FE0020FFF7BAFE0020FFF740
:10259000B7FE0020FFF7B4FEA820FFF7B1FE2B2006
:1025A000FFF7DAFE0020FFF7ABFE0020FFF7A8FEE2
:1025B0000020FFF7A5FEB320FFF7A2FE3620FFF7AD
:1025C000CBFE1CB1C020FFF79BFE02E0A020FFF76E
:1025D00097FEB720FFF7C0FE0020FFF791FE2920ED
:1025E000FFF7BAFE2C20FFF7B7FE10BD000C02402B
:1025F0001CB540F6034002F0F3FF4FF40040022107
:1026000000231A46CDE900100121424802F0E4F807
:1026100000224FF400413F4802F015F940F6014016
:1026200002F0DEFF4FF48040022100231A46CDE97C
:1026300000100121384802F0CFF800224FF4804109
:10264000354802F000F940F6014002F0C9FF4FF4AE
:102650000050022100230122CDE900102E4802F093
:10266000BBF84FF4005205212B4802F041F800223C
:102670004FF40051284802F0E6F84FF400530122CD
:102680000221254802F081F840F6014002F0A8FF3F
:102690004FF40040022100231A46CDE90010012129
:1026A0001D4802F099F800224FF400411A4802F048
:1026B000CAF840F6014002F093FF4FF400500221A7
:1026C00000231A46CDE900100121134802F084F8D6
:1026D00000224FF40051104802F0B5F840F60140D6
:1026E00002F07EFF4FF48050022100231A46CDE90C
:1026F00000100121084802F06FF800224FF48051C9
:10270000054802F0A0F841F20E01044804F010F868
:102710001CBD0000000C02400004024000380040D4
:1027200010B50121044804F0F3FC18B1012102485E
:1027300004F0EBFC10BD00000048014010B5012181
:102740000B4804F0E5FC88B10121094804F0DDFCE8
:102750000120FEF729FC074988800020FEF724FCB1
:102760000549888002F026FB02F0A6FA10BD0000A1
:102770000044014088C20020A4C2002010B50221FC
:10278000480704F0C5FC012847D10221800704F066
:10279000BCFC012002F0B8F92048008858B900219B
:1027A0004FF0804004F049F9401C1D490880012089
:1027B0001A49088031E01948008801282DD10021EC
:1027C000800704F03AF9401C164908800846008842
:1027D00013490988884207DD124800881049098892
:1027E000401A1149086009E00D4800884FF6FF7152
:1027F000081A0C49098808440B4908600A4800680F
:102800000A49B1FBF0F00A4908800846018809A08E
:1028100000F096F900200149088010BD8C000020CE
:10282000880000208A0000209000002040420F0015
:10283000940000206672652069732025640A0000F8
:1028400010B51A4A11681A4A106804F061FC58B1B0
:10285000164A1168164A106804F057FC154800889B
:10286000401C144908801FE011490868012104F048
:102870004FFCC8B10E490868012104F046FC0D4820
:10288000008800B20C49088000200A4908800B4AE1
:1028900011680B4A106801F062FF28B106480088F1
:1028A000404200B20449088010BD00000801002029
:1028B000EC000020BC000020C4000020D800002054
:1028C000C800002010B50121124804F021FCF8B125
:1028D0000121104804F019FC0F4804F054FAA0F547
:1028E0001C50103800B20D49088042F210710A489D
:1028F00004F04DFA0A4804F046FA42F21071081A40
:1029000000B20849088042F21071054804F03FFA0D
:1029100010BD00000008004000040040C40000207A
:10292000000C0040C600002010B51A4A51681A4A2F
:10293000506804F0EDFB58B1164A5168164A5068C9
:1029400004F0E3FB15480088401C1449088020E08F
:1029500011494868012104F0DBFBD0B10E494868F9
:10296000012104F0D2FB0D480088404200B20C491E
:1029700008800020094908800A4A51680A4A5068BC
:1029800001F0EDFE28B106480088404200B204493B
:10299000088010BD08010020EC000020BE000020CF
:1029A000C6000020D8000020C800002010B501217A
:1029B000064804F0ADFB40B10121044804F0A5FB3A
:1029C00003480088401C0249088010BD00140040E4
:1029D0000000002070B504460D461449085D002231
:1029E000114602F091FB124B33F81420114B53F8AF
:1029F0002410114B53F8240004F007FC0C4B33F85F
:102A000014200E4B53F824100B4B53F8240004F001
:102A1000E6FB0B4A52F824100A4A32F814002A4600
:102A200004F0AEFB0848047070BD0000640F002085
:102A3000540F0020440F00203C0F00204C0F0020BA
:102A40005C0F0020580F0020660F002070B5044670
:102A50000D4614E014F8011B0A4A0B4B1B7852F880
:102A6000230004F062FC00BF0649074A127851F8BF
:102A70002200072104F0DEFC0028F5D06D1E002D99
:102A8000E8D170BD5C0F0020660F002010B5044631
:102A900009490A4A127851F82200214604F045FCFF
:102AA00000BF0549054A127851F82200072104F0B9
:102AB000C1FC0028F5D010BD5C0F0020660F00207F
:102AC00010B51949194804F0DEFC60B30521174818
:102AD00004F0B0FC38B31449144804F0C7FC0521D5
:102AE000124804F09AFC114804F01AFC1049114AEB
:102AF000127888540F480078401C0E490870084628
:102B00000078012805D10A480078A52801D00020C6
:102B1000087008480078032805D10020054908708E
:102B200001200549087010BD050305000010014093
:102B3000F00E0020F30E0020F40E002000BFFEE790
:102B40000FB4054B10B503A9044A029800F018F819
:102B500010BC5DF814FB000019460008AC0F002003
:102B600002E008C8121F08C1002AFAD17047704756
:102B7000002001E001C1121F002AFBD170470000B4
:102B80002DE9FF4F89B09B460446002506E0252825
:102B90000BD05A460B999047641C6D1C2078002876
:102BA000F5D10DB02846BDE8F08F0027B8460122C8
:102BB000474900E0074314F8013F203B02FA03F0C5
:102BC0000842F7D120782E2819D114F8010F47F0C8
:102BD00004072A280ED06FF02F022078A0F13001D0
:102BE00009290CD808EB880102EB410100EB010830
:102BF000641CF2E70A98641C50F8048B0A90207851
:102C00000028CED0642808D0692806D075281ED0A8
:102C10005A460B9990476D1C58E00A994FF00A09E3
:102C200001C90A91002802DA40422D2102E039054B
:102C300004D52B218DF82010012103E0F90704D0E1
:102C40002021F7E78A4608AE0DE00021FAE70A994D
:102C50004FF00A0901C90A91F7E74946FDF7ACFCB4
:102C6000303106F8011D0028F7D1ADEB060000F168
:102C70002009780701D44FF00108C84502DDA8EB10
:102C8000090000E000208046002706E008A85A4618
:102C9000C05D0B9990476D1C7F1C5745F6DB04E027
:102CA00030205A460B9990476D1CB8F10001A8F1ED
:102CB0000108F5DC05E016F8010B5A460B99904720
:102CC0006D1CB9F10001A9F10109F4DC641C65E790
:102CD000092801002DE9F04105460E461746B81BAC
:102CE00000F0FF0829463046FEF7F1FD002405E01C
:102CF00040210020FEF743FF601CC4B24445F7DBCF
:102D0000681CC1B23046FEF7E2FD002405E0402118
:102D10000020FEF734FF601CC4B24445F7DBBDE879
:102D2000F081000008B59023804A0021022001F0C4
:102D300001FB082000231A467D4900907B4801F0E2
:102D400050FB0820002302467A490090774801F0A2
:102D500048FB08200023102277490090734801F0B7
:102D600040FB082000231822744900906F4801F0AE
:102D700038FB082000232022714900906B4801F0A5
:102D800030FB0820002328226E490090674801F09C
:102D900028FB0820002330226B490090634801F093
:102DA00020FB082000233822684900905F4801F08A
:102DB00018FB082000234022654900905B4801F081
:102DC00010FB08200023482262490090574801F078
:102DD00008FB0820002350225F490090534801F06F
:102DE00000FB0820002358225C4900904F4801F066
:102DF000F8FA082000236022594900904B4801F05E
:102E0000F0FA08200023682256490090474801F054
:102E1000E8FA08200023702253490090434801F04B
:102E2000E0FA082000237822504900903F4801F042
:102E3000D8FA0820002380224D4900903B4801F039
:102E4000D0FA0820002388224A490090374801F030
:102E5000C8FA37490820FDF789FD47490860354918
:102E60000820FDF783FD4549086033490820FDF738
:102E70007DFD4349086031490820FDF777FD414950
:102E800008602F490820FDF771FD3F4908602D4972
:102E90000820FDF76BFD3D4908602B490820FDF730
:102EA00065FD3B49086029490820FDF75FFD394968
:102EB000086027490820FDF759FD37490860254972
:102EC0000820FDF753FD3549086023490820FDF728
:102ED0004DFD3349086021490820FDF747FD314980
:102EE00008601F490820FDF741FD2F4908601D4972
:102EF0000820FDF73BFD2D4908601B490820FDF720
:102F000035FD2B49086019490820FDF72FFD294997
:102F1000086017490820FDF729FD27490860154971
:102F20000820FDF723FD2549086008BDB8110020E1
:102F3000BC010020C4010020CC010020D4010020ED
:102F4000DC010020E4010020EC010020F40100205D
:102F5000FC010020040200200C02002014020020CA
:102F60001C020020240200202C0200203402002039
:102F70003C020020440200203401002038010020DF
:102F80003C010020400100204401002048010020B5
:102F9000040000202001002024010020280100203E
:102FA0002C010020300100204C01002050010020A5
:102FB00054010020580100205C0100206001002025
:102FC00008B50023894A082189480068FDF70CFDEF
:102FD0000023884A082188480068FDF705FD002382
:102FE000864A082186480068FDF7FEFC0023854AD2
:102FF000082185480068FDF7F7FC0023834A082173
:1030000083480068FDF7F0FC0023824A08218248CB
:103010000068FDF7E9FC0023804A08218048006829
:10302000FDF7E2FC00237F4A08217F480068FDF796
:10303000DBFC00237D4A08217D480068FDF7D4FCB5
:1030400000237C4A08217C480068FDF7CDFC002362
:103050007A4A08217A480068FDF7C6FC0023794ABD
:10306000082179480068FDF7BFFC0023774A082152
:1030700077480068FDF7B8FC0023764A08217648B7
:103080000068FDF7B1FC0023744A08217448006809
:10309000FDF7AAFC0023734A082173480068FDF776
:1030A000A3FC0023714A082171480068FDF79CFCCD
:1030B0000023704A082170480068FDF795FC08203D
:1030C00000231A466D490090484801F08AF908200B
:1030D0000346002269490090464801F082F9082021
:1030E0001023002265490090444801F07AF9082035
:1030F0001823002261490090424801F072F908202B
:10310000202300225D490090404801F06AF9082020
:1031100028230022594900903E4801F062F9082016
:1031200030230022554900903C4801F05AF908200C
:1031300038230022514900903A4801F052F9082002
:10314000402300224D490090384801F04AF90820F8
:103150004823002249490090364801F042F90820EE
:103160005023002245490090344801F03AF90820E4
:103170005823002241490090324801F032F90820DA
:10318000602300223D490090304801F02AF90820D0
:1031900068230022394900902E4801F022F90820C6
:1031A00070230022354900902C4801F01AF90820BC
:1031B00078230022314900902A4801F012F90820B2
:1031C000802300222D490090284801F00AF90820A8
:1031D0008823002229490090264801F002F9902313
:1031E000264A0021022001F0C5F808BDBC010020DC
:1031F00034010020C401002038010020CC0100204F
:103200003C010020D401002040010020DC0100200E
:1032100044010020E401002048010020EC010020CE
:1032200004000020F401002020010020FC01002007
:103230002401002004020020280100200C020020AC
:103240002C01002014020020300100201C0200206C
:103250004C01002024020020500100202C020020FC
:103260005401002034020020580100203C020020BC
:103270005C01002044020020600100202811002091
:10328000F0B507460C461546002F4ED144B93DB95E
:1032900000237B4A05217B480068FDF7A5FB37E04A
:1032A0004CB9012D07D10023754A052176480068E5
:1032B000FDF79AFB2CE04CB9022D07D10023704A90
:1032C000052172480068FDF78FFB21E0012C08D131
:1032D0003DB900236A4A05216D480068FDF784FB6B
:1032E00016E0012C09D1012D07D10023644A0521E4
:1032F00068480068FDF778FB0AE0012C08D1022D30
:1033000006D100235E4A052163480068FDF76CFB87
:103310005B48067900785A49087108460670C678F5
:103320004078C87008464670A8E0012F56D144B9CD
:103330003DB90023524A052158480068FDF754FB67
:1033400037E04CB9012D07D100234D4A05215448DF
:103350000068FDF749FB2CE04CB9022D07D1002392
:10336000474A05214F480068FDF73EFB21E0012C4C
:1033700008D13DB90023424A05214B480068FDF7BA
:1033800033FB16E0012C09D1012D07D100233C4A63
:10339000052146480068FDF727FB0AE0012C08D10B
:1033A000022D06D10023364A052141480068FDF769
:1033B0001BFB3348067900783149087108460670CE
:1033C000C6784078C87008464670002C56D1007800
:1033D000384908702A48407888704FE0022F4DD154
:1033E00044B93DB90023264A052133480068FDF75A
:1033F000FBFA37E04CB9012D07D10023204A052103
:103400002E480068FDF7F0FA2CE04CB9022D07D1E8
:1034100000231B4A05212A480068FDF7E5FA21E050
:10342000012C08D13DB90023154A05212548006823
:10343000FDF7DAFA16E0012C09D1012D07D100239E
:103440000F4A052120480068FDF7CEFA0AE0012C5A
:1034500008D1022D06D10023094A05211B48006826
:10346000FDF7C2FA06480679007805490871084652
:103470000670C6784078C87008464670F0BD0000F7
:103480006401002034010020380100203C010020AC
:1034900040010020440100204801002004000020D9
:1034A0002001002024010020280100202C01002000
:1034B000300100206A0100204C0100205001002052
:1034C00054010020580100205C0100206001002010
:1034D0000348006840F0010001490860704700009F
:1034E0000000055010B54FF4A06002F09DF84FF4B5
:1034F000A06002F087F810BD0348006840F48040E7
:1035000001490860704700000000055000210B4A87
:10351000126844F201039A43084B1A60026811438F
:103520004268114382681143C26811430269114322
:10353000426911431A4611607047000000000550AF
:103540000249C9680143014AD16070470000055033
:10355000024949690143014A516170470000055021
:10356000014604480069084008B90020704701205E
:10357000FCE700000000055030B589B005460C4658
:1035800040F6164002F02CF80721134800F073FBB8
:1035900012480090029500200690079401200190A7
:1035A000002003904FF480500490400108900020C8
:1035B00005906A460721084800F0F0FC0122072127
:1035C000054800F045FB0721034800F031FBFFF7F9
:1035D0007FFF09B030BD00000064024028000550A4
:1035E00000B587B04FF4406001F0FAFF40F60140AB
:1035F00001F0F6FF40F6024001F0F2FF50220D21EB
:103600002A4801F075F84FF470720D21284801F036
:103610006FF84FF43C620D21264801F069F84FF431
:10362000506001F0DDFF5023012202211F4801F00C
:10363000ACF84FF47073012202211D4801F0A5F887
:103640004FF43C63012202211A4801F09EF85023F6
:1036500003220021154801F0D5F84FF470730322BE
:103660000021134801F0CEF84FF43C6303220021FF
:10367000104801F0C7F8FFF735FF00200190202027
:1036800002900020039004900590069001A8FFF797
:103690003DFF0120FFF754FFFFF72EFF022201211B
:1036A0004E2001F031FD07B000BD000000000240D7
:1036B00000040240000802400349086000BF0249BC
:1036C00009680029FBD17047840000200448006885
:1036D00020B103480068401E01490860704700009F
:1036E00084000020F8B50446002C60D1FBA3002222
:1036F0001146104601F059FEF948002210210368D6
:10370000104602F0A1FFF7A300221146022001F0AB
:103710004CFEF548002210210368022002F094FFBD
:10372000F2A300221146042001F03FFEF0480022DF
:1037300010210368042002F087FFE8A3002248213B
:10374000104601F032FEEB48002258210368104673
:1037500002F07AFFE8A300224821022001F025FEB2
:10376000E648002258210368022002F06DFFDFA323
:1037700000224821042001F018FEE14800225821CF
:103780000368042002F060FFDEA300221146062039
:1037900001F00BFEDCA300222C21062001F005FE27
:1037A000DBA300226821062001F0FFFD2CE2012CA2
:1037B00066D1D8A300221146104601F0F6FDD74885
:1037C000002220210368104602F03EFFD4A300220D
:1037D0001146022001F0E9FDD348002220210368B0
:1037E000022002F031FFD1A300221146042001F093
:1037F000DCFDD048002220210368042002F024FFD1
:103800000120CD490870CDA300224821104601F0C7
:10381000CCFDCB48002258210368104602F014FF6B
:10382000B5A300224821022001F0BFFDC5480022B7
:1038300058210368022002F007FFC3A30022482199
:10384000042001F0B2FDC148002258210368042081
:1038500002F0FAFE0020B8490870AAA3002211461F
:10386000062001F0A2FDA8A300222C21062001F0D1
:103870009CFDA7A300226821062001F096FDC3E16C
:10388000022C60D1B2A300221146104601F08DFD3A
:10389000B048002210210368104602F0D5FEAEA306
:1038A00000221146022001F080FDAC4800221021C8
:1038B0000368022002F0C8FEA9A3002211460420DA
:1038C00001F073FDA748002210210368042002F0D4
:1038D000BBFEA5A300224821104601F066FDA348C7
:1038E000002258210368104602F0AEFEA0A3002279
:1038F0004821022001F059FD9E480022582103680A
:10390000022002F0A1FE9CA300224821042001F025
:103910004CFD9A48002258210368042002F094FECE
:1039200078A300221146062001F03FFD76A3002275
:103930002C21062001F039FD75A300226821062004
:1039400001F033FD60E1032C48D16FA300222C214C
:10395000062001F02AFD6EA300226821062001F056
:1039600024FD87A301221821002001F01EFD012360
:103970001A463821002002F067FE83A301220021AD
:10398000022001F012FD022300221021184602F04D
:103990005BFE7EA301224021022001F006FD0223EE
:1039A00000225021184602F04FFE79A30122002187
:1039B000042001F0FAFC032300221821042002F065
:1039C00043FE74A301224021042001F0EEFC0423F5
:1039D00000225821184602F037FE15E1042C7CD154
:1039E0006D4803F0D0F90546102005232A46002132
:1039F00000900846FEF700F8684803F0C4F94CF25E
:103A000050310D1A102005232A4602210090002073
:103A1000FDF7F2FF614803F0B6F94CF250310D1A90
:103A20005D4803F0B0F9281A12D15C4803F0ABF9F5
:103A30004CF250310E1A584803F0A5F9351A1020EF
:103A400006232A46194600900020FDF7D5FF12E014
:103A5000514803F098F90646504803F094F94CF2A7
:103A60005031081A351A102006232A4619460090AC
:103A70000020FDF7C1FF0020FEF742FB40B9002106
:103A8000454803F084F94CF25031444803F07FF983
:103A9000102000904248008842F21071421805231D
:103AA00004210020FDF7A8FF0120FDF70BFD0228EF
:103AB00004D13B4800880A30394908800120FDF7CD
:103AC00001FD032804D1364800880A3834490880AB
:103AD00033480088FEF74CFB96E063E0503A000064
:103AE00034010020493A000038010020443A000027
:103AF0003C01002040010020623A00004401002007
:103B00004801002053657400536869667400000022
:103B100052756E004D5F533A000000000400002013
:103B2000485F533A00000000200100204C5F533AE8
:103B300000000000240100201A010020613A00006A
:103B4000280100202C010020633A000030010020F1
:103B5000313A00004C010020323A000050010020B0
:103B6000333A000054010020343A0000580100208C
:103B7000353A00005C010020363A00006001002068
:103B80006D69643A000000004C3A0000523A0000AF
:103B9000384C3A0038523A0000040040000C004013
:103BA0004E020020052C2FD10220FDF753FC28B92E
:103BB00016480078401C1549087008E00320FDF7FE
:103BC00049FC20B911480078401E104908700020B7
:103BD000FEF796FA18B90D480078FCF7D5FD0120DC
:103BE000FEF78EFA08B9FCF7E3FD0220FEF788FA2B
:103BF00008B9FCF713FE1020032300900348027855
:103C000000210846FDF7F8FEF8BD00000200002084
:103C100010B501EB4102D30000F11002D25822F09E
:103C2000010301EB4102D40000F11002135110BD59
:103C300010B501EB4102D30000F11002D25842F05E
:103C4000010301EB4102D40000F11002135110BD39
:103C500030B5134601EB4104E50000F11004625950
:103C600022F0606242EA436201EB4104E50000F1A8
:103C70001004625130BD10B501EB4102D30000F1D8
:103C80001002D25822F0010301EB4102D40000F1EE
:103C900010021351002301EB4102D40000F1100285
:103CA000135101EB4102D40000F11402135101EB56
:103CB0004102D40000F11802135101EB4102D4007B
:103CC00000F11C02135101EB4102D40000F120026B
:103CD000135101EB4102D40000F1240213510429D5
:103CE0000CDA01EB41025300C1F3400203EB820303
:103CF0003D229A4083681A4382600DE00A1FD1B2C8
:103D000001EB41025300C1F3400203EB82033D2269
:103D10009A40C3681A43C26010BD30B5802A0DD0E6
:103D200001EB4103DC0000F110031B59934301EB4D
:103D30004104E50000F1100463510CE001EB410384
:103D4000DC0000F124031B59934301EB4104E5001F
:103D500000F12404635130BD10B504290CDA01EBE5
:103D600041035C00C1F3400304EB830302FA03F355
:103D70008468234383600DE00B1FD9B201EB41033C
:103D80005C00C1F3400304EB830302FA03F3C4684D
:103D90002343C36010BDF0B50346002500260C4642
:103DA000042979DA082A34D004DC012A07D0042A4D
:103DB00070D119E0102A41D0202A6BD153E001EBD9
:103DC00041004700C1F3400007EB800702FA07F00B
:103DD0001F6800EA070601EB4100C70003F1240059
:103DE000C05900F0800556E001EB41004700C1F3E7
:103DF000400007EB800702FA07F01F6800EA070699
:103E000001EB4100C70003F11000C05900F00205AA
:103E100041E001EB41004700C1F3400007EB8007A0
:103E200002FA07F01F6800EA070601EB4100C7002D
:103E300003F11000C05900F004052CE001EB410033
:103E40004700C1F3400007EB800702FA07F01F6844
:103E500000EA070601EB4100C70003F11000C0595A
:103E600000F0080517E001EB41004700C1F34000F6
:103E700007EB800702FA07F01F6800EA070601EB6C
:103E80004100C70003F11000C05900F0100502E026
:103E900002E0FFE700BF7AE0201FC4B2082A34D056
:103EA00004DC012A07D0042A6FD119E0102A41D07E
:103EB000202A6AD153E004EB44004700C4F34000D9
:103EC00007EB800702FA07F05F6800EA070601EBDC
:103ED0004100C70003F12400C05900F0800555E0FF
:103EE00004EB44004700C4F3400007EB800702FAEC
:103EF00007F05F6800EA070601EB4100C70003F125
:103F00001000C05900F0020540E004EB44004700F7
:103F1000C4F3400007EB800702FA07F05F6800EA8D
:103F2000070601EB4100C70003F11000C05900F083
:103F300004052BE004EB44004700C4F3400007EB0A
:103F4000800702FA07F05F6800EA070601EB41000C
:103F5000C70003F11000C05900F0080516E004EB9B
:103F600044004700C4F3400007EB800702FA07F063
:103F70005F6800EA070601EB4100C70003F110008B
:103F8000C05900F0100501E0FFE700BF00BF16B107
:103F90000DB10120F0BD0020FCE7000070B501EB81
:103FA0004104E50000F12404645924F0040501EB08
:103FB0004104E60000F12404A55101EB4104E600B0
:103FC00000F118041568A55101EB4104E60000F169
:103FD0001C049568A55101EB4104E60000F11404AE
:103FE000D569A55101EB4104E50000F110046359C6
:103FF0003F4C2340146944EA8404156A2C439569B4
:104000002C43234301EB4104E50000F1100463510C
:10401000546874B901EB4104E50000F110046459DF
:1040200044F4007501EB4104E60000F11004A551D1
:104030001FE05468012C0ED101EB4104E50000F1B2
:104040001004645924F4007501EB4104E60000F10A
:104050001004A5510DE001EB4104E50000F110044E
:10406000645944F4004501EB4104E60000F11004FA
:10407000A551D46874B901EB4104E50000F11004C6
:10408000645944F4806501EB4104E60000F110043A
:10409000A5510DE001EB4104E50000F11004645965
:1040A00024F4806501EB4104E60000F11004A55101
:1040B000546974B901EB4104E50000F1100464593E
:1040C00044F4807501EB4104E60000F11004A551B1
:1040D0000DE001EB4104E50000F11004645924F403
:1040E000807501EB4104E60000F11004A55170BD9C
:1040F0003F87FCFF10B501EB4103DC0000F1140326
:104100001A5110BD0149086070470000143C01407D
:1041100001460748006800EA0102054814380068B3
:1041200000EA010312B10BB1012070470020FCE747
:10413000143C01402DE9FE4F804600260027002058
:104140000190002407E06C48005D404501DB2646F5
:1041500003E0601CC4B2BC2CF5DB00BFBB2407E04D
:104160006548005D404501DB274603E0601EC4B2A0
:10417000002CF5DC00BF10200323324606210090FE
:104180004020FDF739FC102003233A460621009019
:104190005820FDF731FC7225A8E04FF0000B0020FD
:1041A000029081468246344612E0C5EB051000EBD2
:1041B0004510524901EB8000005D404506DB264674
:1041C0000CB94FF001094FF0010B04E0601CC4B2C0
:1041D000701D8442E9DD00BFBBF1000F18D13446E9
:1041E00012E0C5EB051000EB4510444901EB8000DF
:1041F000005D404506DB26460CB94FF001094FF043
:10420000010B04E0601EC4B2701FA042E9DD00BFD4
:104210003C4613E0C5EB051000EB4510374901EBB8
:104220008000005D404507DB2746BB2C01D14FF0E5
:10423000010A0120029004E0601EC4B2781FA0426F
:10424000E8DD00BF0298C8B93C4613E0C5EB051095
:1042500000EB4510294901EB8000005D404507DB7C
:104260002746BB2C01D14FF0010A0120029004E047
:10427000601CC4B2781D8442E8DD00BFB9F1000FB4
:1042800009D1BAF1010F06D106F17C00FF2802DC4A
:104290001B49485528E0B9F1010F09D1BAF1000FC7
:1042A00006D1A7F14000002802D4154948551BE06B
:1042B000B9F1010F06D1BAF1010F03D17C201049E9
:1042C000485511E0BBF1000F0ED0029860B1B9F172
:1042D000000F09D1BAF1000F06D1F01900EBD0712F
:1042E00049101E31064A5155681EC5B20A2DBFF647
:1042F00054AFBDE8FE8F0000BC66002048120020CD
:10430000B00F002010B502468B1A094C2488634375
:1043100003F5AF6398B240F22263984201DD18467C
:1043200004E040F2CE43984200DA184610BD000087
:10433000400100202DE9F04380460E4617461D46F9
:10434000404600F079F88419012000FB0549A9EBEB
:104350000400B0F5804F03D34FF0FF30BDE8F08389
:10436000002303E02078F854641C5B1CAB42F9D3B3
:104370000120F3E72DE9F05F81460F4690461E4687
:1043800000F038F9D32000F0BBF8484600F054F8AC
:10439000C519012000FB065AAAEB0500B0F5804FB5
:1043A00003D34FF0FF30BDE8F09F484600F02BF8F4
:1043B000834600BF584600F0C5F80028FAD1002413
:1043C00009E000BF18F80410284600F071F8002832
:1043D000F8D16D1C641CB442F3D300F097F80120AF
:1043E000E1E7F0B5059C1719BDB21F19BEB207E091
:1043F0002F1BC75DA6EB040C01F80C70671EBCB246
:10440000002CF5D1F0BD01460B2903D8F82000EAB5
:10441000C1007047172904D8081DF82202EAC0001D
:10442000F7E71B2905D8A1F10C00F82202EAC00029
:10443000EFE74FF0FF30ECE70146042904D24FF0DC
:10444000006000EB81307047052901D21448FAE77B
:104450000C2904D2481F134A02EB4040F3E710290D
:1044600006D2A1F10C004FF0016202EB8030EAE7C6
:10447000112901D20C48E6E7182905D2A1F1110053
:104480000A4A02EB4040DEE71C2906D2A1F11800DF
:104490004FF0026202EB8040D5E74FF0FF30D2E7E9
:1044A00000000108000002080000110800001208C6
:1044B00070B504460D460026701E00F031F8064621
:1044C000CEB90E48006820F440700C4908600846D8
:1044D000006808600846006840F001000860257028
:1044E0004FF0FF3000F01CF806460448006820F04A
:1044F000010002490860304670BD0000103C0240D7
:1045000001490860704700000C3C02400348006805
:1045100040F000400149086070470000103C024034
:1045200000B50346012200BF00F03AF802465B1EC8
:10453000012A01D1002BF7D1012A00D1082210460F
:1045400000BD000030B504460025681EFFF7E8FFF7
:1045500005460DBB1148006820F0F8000F490860BF
:104560000846006844F0020108430C490860084608
:10457000006840F4803008604FF0FF30FFF7D0FF54
:1045800005460648006820F0020004490860084615
:10459000006820F0F8000860284630BD103C02405A
:1045A00000201349096801F48031B1F5803F01D141
:1045B00001201CE00E49096801F0100109B1052035
:1045C00015E00B49096801F4807109B102200EE081
:1045D0000749096801F0EF0109B1072007E0044924
:1045E000096801F0020109B1062000E000207047CF
:1045F0000C3C02400548006800F0004028B1044827
:1046000002490C390860034808607047103C0240BA
:1046100023016745AB89EFCD70B504460D46E1B285
:10462000094A0A4B1B7852F8230002F07EFE00BFB5
:104630000549064A127851F82200072102F0FAFED5
:104640000028F5D0204670BD5C0F0020660F0020CA
:10465000F8B507460D46002434E0A5208DF800008B
:10466000F1208DF8010035F8240086B230128DF863
:104670000200F0B28DF8030004226946384602F0C9
:1046800099FD12A0FEF75CFA00BF114800780028DF
:10469000FBD000200E4908700EA0FEF751FA0E481C
:1046A00080780D49497840EA012000B205EB840189
:1046B000488005EB8400B0F9021008A0FEF740FA2C
:1046C000601C84B2082CC8DBF8BD0000310A000071
:1046D000F40E0020320A0000F00E002062756666BB
:1046E0005B695D5B315D203D2025640A00000000B0
:1046F000F0B503461C6A5D6A00200DE00126864085
:1047000016403EB187000F26BE40B443860001FA32
:1047100006F63443461CB0B20828EFD3082011E057
:104720000126864016405EB1A0F10806B7000F26AC
:10473000BE40B543A0F10806B60001FA06F63543BF
:10474000461CB0B21028EBD31C625D62F0BD02467D
:104750001069084008B1012070470020FCE70246BC
:104760001069084008B1012070470020FCE72DE9DE
:10477000F04104460D4616461F463B463246294642
:10478000204600F002F8BDE8F081F0B504460D4681
:1047900016462168E268002019E0012787401F4083
:1047A0009FB14FEA400C032707FA0CF7B9434700C3
:1047B00005FA07F739434FEA400C032707FA0CF7CD
:1047C000BA43470006FA07F73A43471CB8B2102825
:1047D000E3D32160E260F0BD2DE9F04705460E46C7
:1047E00017461C46DDE908894B463A4631462846BD
:1047F000FFF7CBFF4B4642462146284600F002F821
:10480000BDE8F087F0B50C461546012C03D146688B
:104810001E43466002E046689E434660826800216F
:104820000DE001268E401E403EB14F000326BE40E3
:10483000B2434E0005FA06F632434E1CB1B21029BF
:10484000EFD38260F0BD0AB1816100E08162704700
:10485000012904D1026842F48062026003E0026828
:1048600022F48062026070472DE9F05F04460E4634
:104870009346022000F022FE07462E48B7FBF0F8D0
:10488000B8F1320F01D34FF03208D4F804A02AF067
:104890003F0A4AEA080AC4F804A02748864218D802
:1048A0002448B7FBF0F000F10109B9F1320F02D34F
:1048B0003220206201E0C4F820907000B7FBF0F5D0
:1048C000042D00D20425E069C5F30B010843E06123
:1048D0002EE01A4886422BD84FF4967008FB00F061
:1048E0004FF47A71B0FBF1F0401C2062BBF1000F75
:1048F00008D106EB4600B7FBF0F5E06920F48040F4
:10490000E06109E006EBC60000EB0610B7FBF0F52E
:10491000E06940F48040E061C5F30B0008B945F060
:104920000105E06940F40040E061E0692843E0618E
:10493000BDE8F09F40420F00A0860100801A0600EB
:104940007CB504460D4640F6054000F049FE0220C5
:10495000009001231A46014601901648FFF73CFFDC
:104960000120022103460246CDE900101148FFF75D
:1049700033FF022204210F48FFF7BAFE012204216F
:104980000C48FFF7B5FE41F2160000F029FE0022A8
:1049900021460948FFF768FF2B46002211460648CA
:1049A00000F041F8044800F00CF801210248FFF73C
:1049B0004FFF7CBD0014024000580040CAB20261A3
:1049C0007047016841F001010160704710B540F285
:1049D0000152914202D1426982690AE000EB9112D0
:1049E000126801F01F040123A3409A4300EB9113C6
:1049F0001A6010BD10B5024602EB9110006801F07C
:104A00001F040123A340184008B1012010BD00205D
:104A1000FCE712F1020F02D121F0010101E041F0A7
:104A200001010161704730B50C460021016821F099
:104A3000020121430160C3F3090342EA03058560D3
:104A400030BD000070B504460E46154600BF40F26A
:104A500001612748FFF7CEFF0028F8D1244800F075
:104A600049F800BF4FF4A0612148FFF7C3FF0028B9
:104A7000F8D06FF0010221461D48FFF7CAFF00BFC2
:104A800040F201511A48FFF7B5FF0028F8D040F274
:104A900001511748FFF79AFF00BF40F20751144831
:104AA000FFF7A8FF0028F8D031461148FFF786FF2E
:104AB00000BF40F202510E48FFF79CFF0028F8D0DB
:104AC00029460B48FFF77AFF00BF40F20251084821
:104AD000FFF790FF0028F8D0054800F010F800BF5D
:104AE0000348006800F400700028F9D170BD000090
:104AF00000580040016841F480710160704701680E
:104B000041F4007101607047034951F82010034AD5
:104B100052F82020D1627047A80000209C0000209D
:104B200008B501F09DFEFCF7F9FDFCF74FFAA8E08F
:104B300054480078401C534908700846007864289F
:104B400006DBFDF7BFF85049087000204D4908709A
:104B500000F0ACFF4D49087008460078FFF7EAFA0C
:104B600049480078822803DD0020FDF7C9FA70B9B2
:104B70004FF4AF60464908809FED460A464880EDF5
:104B8000000A9FED440A454880ED000A19E07621AD
:104B90003E480078FFF7B6FB3D490880404890ED5D
:104BA000000AB8EE400A3C4880ED000A3C4890ED0F
:104BB000000AB8EE400A394880ED000A0120394960
:104BC000087033480088FDF7D3FA0120FDF798FA02
:104BD00030BB1020062300903348028802210020B9
:104BE000FCF70AFF102003230090284802780021D8
:104BF0000846FCF701FF1020042300902448028897
:104C000000214020FCF7F8FE1020032300901E48EE
:104C1000027804210020FCF7EFFE002022490880E2
:104C20000320FDF76DFA60BB45F6200000231A460D
:104C30001E4900901E48FFF7D4FB742418E00021A1
:104C4000C4EB041000EB4410184A02EB8002194830
:104C5000005D1E381154C4EB041000EB4410134ADD
:104C600002EB80021348005D1D381154601EC4B26F
:104C70001048005D0028E2D103480078FCF788FF67
:104C800000BF55E7080000200200002003000020BC
:104C90000A0000200000000088C20020A4C20020FA
:104CA000040000207A0F002000000020686A002025
:104CB00048120020B00F00202DE9F041394890ED56
:104CC000060AB5EEC00AF1EE10FA11D2D0ED060ACE
:104CD0003548007800EE100AB8EE401A9FED330A0E
:104CE00001EE600ABDEEC00A10EE104A012607E090
:104CF00000262C4890ED060ABDEEC00A10EE104AC0
:104D0000B4F5FA7F01DD4FF4FA74294890ED060AF4
:104D1000B5EEC00AF1EE10FA11D2D0ED060A224823
:104D2000007800EE100AB8EE401A9FED200A01EE5E
:104D3000600ABDEEC00A10EE105A012707E01C48B9
:104D400090ED060ABDEEC00A10EE105A0027B5F528
:104D5000FA7F01DD4FF4FA7546B9A1B20020FDF7E4
:104D6000ABF900210120FDF7A7F907E00021084673
:104D7000FDF7A2F9A1B20120FDF79EF947B9A9B24A
:104D80000220FDF799F900210320FDF795F907E0CE
:104D900000210220FDF790F9A9B20320FDF78CF95C
:104DA000BDE8F08188C200207A0F002000000000DA
:104DB000A4C200203EB5904D38CD8DE838000021CA
:104DC000002200200DE08D4C431C34F8133024F8F1
:104DD00010308B4C431C34F8133024F81030431C33
:104DE000D8B20228EFDB874B9B88844CA380864B8C
:104DF0009B88834CA38000202FE0804B33F9103038
:104E000000EE103AF8EEC00A6B4603EB800393ED18
:104E1000001A00EE101AB8EEC00A00EE810ABDEECC
:104E2000C00A10EE103A19B2754B33F9103000EE8B
:104E3000103AF8EEC00A6B4603EB800393ED001ABC
:104E400000EE102AB8EEC00A00EE810ABDEEC00ADC
:104E500010EE103A1AB2431CD8B20328CDDB6B4BCC
:104E600019806B4B1A80674BD3ED000A674BB3F97F
:104E7000003000EE103AB8EEC00A30EEC00ABDEEC7
:104E8000C00A644B83ED000A5F4BD3ED000A604B10
:104E9000B3F9003000EE103AB8EEC00A30EEC00AA6
:104EA000BDEEC00A5C4B83ED000A5A4B1B685B4C9D
:104EB00024681B1B00EE103AB8EEC00A514B83ED7C
:104EC000020A544B93ED000AB8EEC00A4D4B83ED35
:104ED000030A504B1B68514C2468022505FB143310
:104EE0004F4C2468234400EE103AB8EEC00A454BFC
:104EF00083ED040A484B1B684A4C24681B1B00EED8
:104F0000103AB8EEC00A404B83ED020A424B93EDD3
:104F1000000AB8EEC00A3C4B83ED030A3E4B1B6807
:104F2000404C246805FB14333F4C2468234400EEB6
:104F3000103AB8EEC00A344B83ED040A3B4B93EDB4
:104F4000000A304BD3ED020A20EE200A374BD3ED96
:104F5000010A2C4B93ED031A00EE810A334BD3ED7B
:104F6000020A284B93ED041A00EE810A83ED050A2C
:104F700093ED060AD3ED050A30EE200ABDEEC00A15
:104F8000B8EEC00A83ED060A284B93ED000A1E4BCB
:104F9000D3ED020A20EE200A244BD3ED010A1A4B6E
:104FA00093ED031A00EE810A204BD3ED020A164B53
:104FB00093ED041A00EE810A83ED050A93ED060ACB
:104FC000D3ED050A30EE200ABDEEC00AB8EEC00AE5
:104FD00083ED060A114B1B68114C23600D4B1B68B7
:104FE0000E4C23600F4B1B680F4C23600A4B1B6851
:104FF0000C4C23603EBD00001C750008880F00208B
:105000008E0F002088C20020A4C200207C0F002048
:105010007E0F0020940F0020A00F0020980F00208A
:105020009C0F0020A40F0020A80F0020E8C2002041
:10503000B1EE040A054880ED000A9FED050A80EDF7
:10504000010A9FED040A80ED020A7047E8C20020C1
:10505000CDCCCC3D0000000010B5224822490860AC
:1050600000221146252000F04FF84FF440624FF423
:1050700000411E4802F0C9F840F6014208211C48D0
:1050800002F0ADF84FF416521A4941F2041002F042
:1050900077F840F20531174802F0DBF9C820FEF737
:1050A0000BFB00201449087014491248FFF7D0FA8E
:1050B00000201149087012490E4801F089FA0020B9
:1050C0000D4908700D490B48FFF7C2FA0DA0FDF716
:1050D00037FDFEF785FA41F2086103480068FEF7E4
:1050E0004BFA10BD48120020EC0E002000000240D8
:1050F0000004024000100140F40E00201A0F0020AE
:10510000F60E0020330A00002DE9F04103460D465B
:10511000164600240027A0462A48006800F4E060F4
:10512000B0F5E06F03D100BF4FF0040830E0254830
:10513000006800F4E060B0F5C06F03D101274FF0C4
:10514000030825E01F48006800F4E060B0F5A06F98
:1051500002D10227B8461BE01A48006800F4E0605C
:10516000B0F5806F03D103274FF0010810E0154818
:10517000006800F4E060B0F5407F03D104274FF0F1
:10518000000805E04FF4A06000F020F80227B846C0
:10519000C7F1040005FA00F4C8F104010F20C8406B
:1051A0003040044324010848C45403F01F01012087
:1051B00088405911890001F1E021C1F80001BDE8E2
:1051C000F08100000CED00E000E400E00249014342
:1051D000024A1160704700000000FA050CED00E083
:1051E00010B50246012000E050430B1EA1F101045E
:1051F000E1B2F9D110BD00002DE9F05F81460E4605
:1052000015461C46DDF828B01EB9C4F10600C7B229
:1052100002E0C4F10F00C7B2F8064FEA106808F1C7
:10522000080000F0FF0AB9F1010F37D1002E35D187
:105230005048005D30304F49085565B952464146E7
:105240000020FDF747FD4B4803195A464146002010
:1052500000F094F81CE0012D0CD15246414602208A
:10526000FDF738FD434803195A464146022000F035
:1052700085F80DE0022D0BD1524641460420FDF782
:1052800029FD3C4803195A464146042000F076F8AF
:105290003848005D30383749085569E03648005DC8
:1052A0003030354908556EB965B95246414600203F
:1052B000FDF710FD304803195A464146002000F022
:1052C0005DF850E076B9012D0CD1524641460220DE
:1052D000FDF700FD284803195A464146022000F018
:1052E0004DF840E076B9022D0CD1524641460420DB
:1052F000FDF7F0FC204803195A464146042000F00F
:105300003DF830E0012E0DD165B9524641460020EE
:10531000FDF7E0FC184803195A464146002000F00A
:105320002DF820E0012E0ED1012D0CD15246414620
:105330000220FDF7CFFC104803195A4641460220CF
:1053400000F01CF80FE0012E0DD1022D0BD15246BA
:1053500041460420FDF7BEFC074803195A46414662
:10536000042000F00BF80448005D3038024908556D
:10537000BDE8F09F6A010020640100202DE9F041A2
:1053800005460E4617461C46012F06D122781023EB
:1053900031462846FCF7EEFA05E02278102329462C
:1053A0003046FCF7A9FABDE8F0812DE9F041074647
:1053B0000C4690461E460025B8F1010F14D10FE0AF
:1053C000725D102321463846FCF7D4FA04F1080038
:1053D000C4B2782C02DD0024B81CC7B2681CC5B268
:1053E000705D0028ECD113E00FE0725D10233946A8
:1053F0002046FCF781FA04F10800C4B2782C02DDE3
:105400000024B81CC7B2681CC5B2705D0028ECD17E
:10541000BDE8F0812DE9F04387B007460C461546FC
:105420001E46DDE90E98384600F0DAF80020ADF8A7
:105430001400204601F0AEFCADF800600020ADF88D
:105440000200ADF80400CDF80890ADF806008DF824
:105450000C006946204601F065FD0020ADF81400FF
:105460000120ADF810000020ADF81600ADF81200D4
:10547000ADF81800ADF81A0004AA2946204601F03C
:105480001FFB42462946204601F03DFC602229468A
:10549000204601F00BFC00222946204601F046FC84
:1054A0000121204601F040FE204601F0C1FA2046CD
:1054B00001F032FD07B0BDE8F08300002DE9F04FA8
:1054C0008CB0064600200A903EA090E8004CC068D0
:1054D000CDE905BECDF810A007900FF2EC0ADAE98D
:1054E000000ACDE9020A0FF2E00ADAE9000ACDE982
:1054F000000A38480068C0F381000B900B9820B177
:10550000012804D0022828D103E0334927E0334999
:1055100025E03048001F006800F03F072D48001FBD
:105520000068C0F3881C2B48001F0068C0F30140CE
:10553000401C4FEA40092748001F006800F480081B
:10554000B8F5800F01D1254B00E0234BB3FBF7F0FA
:1055500000FB0CF0B0FBF9F101E01F4900BF00BFF8
:105560001C480068C0F3031404A8055D21FA05F285
:1055700018480068C0F3822402A8055D22FA05F0ED
:10558000099014480068C0F342341DF8045022FA10
:1055900005F0089036B1012E06D0022E06D0032E5B
:1055A0000AD106E00A9108E00A9206E009980A90FA
:1055B00003E008980A9000E000BF00BF0A980CB012
:1055C000BDE8F08F000000000000000001020304AD
:1055D00006070809083802400024F40040787D01DD
:1055E000074A02EB9011D1F8001800F01F030122C6
:1055F0009A401143024B03EB9012C2F80018704717
:1056000000300240074A02EB9011D1F8001800F078
:105610001F0301229A409143024B03EB9012C2F800
:105620000018704700300240074A02EB9011D1F891
:10563000001800F01F0301229A401143024B03EBB4
:105640009012C2F800187047003002406FF080716D
:10565000884205D1054909680140044A116004E007
:10566000024909680143014A116070478C380240C1
:1056700010B5F94A1278002A76D1D8B9D1B9F74ACB
:105680001278F64B5B780A2414FB0322F34B9B78C9
:10569000642414FB0322F14BDB784FF47A7414FB7F
:1056A0000322EE4B1B7942F2107414FB0322EC4BE5
:1056B0001A60CFE1E0B901291AD1E84A1278E74B24
:1056C0005B780A2414FB0322E44B9B78642414FBCC
:1056D0000322E24BDB784FF47A7414FB0322DF4B96
:1056E0001B7942F2107414FB0322DE4B1A60B1E105
:1056F000E0B902291AD1D94A1278D84B5B780A242A
:1057000014FB0322D54B9B78642414FB0322D34B58
:10571000DB784FF47A7414FB0322D04B1B7942F2EE
:10572000107414FB0322D04B1A6093E101281CD1A2
:10573000D9B9CA4A1278C94B5B780A2414FB0322F0
:10574000C64B9B78642414FB0322C44BDB784FF4D4
:105750007A7414FB0322C14B1B7942F2107414FBC0
:105760000322C24B1A6075E13DE001281CD10129DA
:105770001AD1BA4A1278B94B5B780A2414FB032277
:10578000B64B9B78642414FB0322B44BDB784FF4B4
:105790007A7414FB0322B14B1B7942F2107414FB90
:1057A0000322B34B1A6055E10128A0D102299ED1F2
:1057B000AA4A1278A94B5B780A2414FB0322A74B50
:1057C0009B78642414FB0322A44BDB784FF47A7497
:1057D00014FB0322A14B1B7942F2107414FB032229
:1057E000A44B1A6036E19C4A1278012A7AD110BB88
:1057F00049B9A14A1278A04B9B780A2414FB0322D2
:105800009E4B1A6026E1012909D19B4A12789A4BD6
:105810009B780A2414FB0322994B1A601AE102298F
:10582000A1D1954A1278944B9B780A2414FB032249
:10583000944B1A600EE1D1B9884A1278874B5B7895
:105840000A2414FB0322854B9B78642414FB032257
:10585000824BDB784FF47A7414FB03227F4B1B7965
:1058600042F2107414FB0322874B1A60F2E0012904
:105870001AD17A4A1278794B5B780A2414FB0322F6
:10588000764B9B78642414FB0322744BDB784FF433
:105890007A7414FB0322714B1B7942F2107414FBCF
:1058A00003227A4B1A60D5E002299BD16B4A127809
:1058B0006A4B5B780A2414FB0322684B9B786424B0
:1058C00014FB0322654BDB784FF47A7414FB03223C
:1058D000624B1B7942F2107414FB03226C4B1A606A
:1058E000B8E0FFE75C4A1278022A1BD1D8B9D1B9D7
:1058F0005A4A1278594B5B780A2414FB0322574BFF
:105900009B78642414FB0322544BDB784FF47A74A5
:1059100014FB0322514B1B7942F2107414FB032237
:105920005C4B1A6096E0E0B901291AD14B4A127813
:105930004A4B5B780A2414FB0322484B9B7864246F
:1059400014FB0322454BDB784FF47A7414FB0322DB
:10595000424B1B7942F2107414FB03224E4B1A6027
:1059600078E0E0B902291AD13C4A12783B4B5B78C7
:105970000A2414FB0322394B9B78642414FB032272
:10598000364BDB784FF47A7414FB0322334B1B79CC
:1059900042F2107414FB0322404B1A605AE00128B3
:1059A0001BD1D1B92D4A12782C4B5B780A2414FBF9
:1059B00003222A4B9B78642414FB0322274BDB78B9
:1059C0004FF47A7414FB0322244B1B7942F21074B7
:1059D00014FB0322324B1A603CE001281CD1012940
:1059E0001AD11E4A12781D4B5B780A2414FB03223D
:1059F0001A4B9B78642414FB0322184BDB784FF47A
:105A00007A7414FB0322154B1B7942F2107414FBB9
:105A10000322244B1A601DE001281BD1022919D151
:105A20000E4A12780D4B5B780A2414FB03220B4BB1
:105A30009B78642414FB0322084BDB784FF47A74C0
:105A400014FB0322054B1B7942F2107414FB032252
:105A5000154B1A6010BD00001901002064010020E0
:105A600034010020380100203C01002040010020CA
:105A700044010020480100206A01002004000020A9
:105A80002001002024010020280100202C010020FA
:105A9000300100204C010020500100205401002062
:105AA000580100205C0100206001002010B5002298
:105AB000002372210BE00A48405C0A4C645C10FB36
:105AC00004220848405C184483B2481EC1B204480E
:105AD000405C0028EFD1B2FBF3F0C0B210BD000073
