:020000040800F2
:10000000A8040020C5010008C50400082503000855
:10001000C10400080D0200082506000800000000C9
:10002000000000000000000000000000F3040008D1
:100030001102000800000000F10400086505000836
:10004000DF010008DF010008DF010008DF01000810
:10005000DF010008DF010008DF010008DF01000800
:10006000DF010008DF010008DF010008DF010008F0
:10007000DF010008DF010008DF010008DF010008E0
:10008000DF010008DF010008DF010008DF010008D0
:10009000DF010008DF010008DF010008C5020008D9
:1000A000DF010008DF010008DF010008DF010008B0
:1000B000DF010008DF010008DF010008DF010008A0
:1000C000DF010008DF010008DF010008DF01000890
:1000D000DF010008DF010008DF010008DF01000880
:1000E00015020008DF010008DF010008DF01000839
:1000F000DF010008DF010008DF010008DF01000860
:10010000DF010008DF010008DF010008DF0100084F
:10011000DF010008DF010008DF010008DF0100083F
:10012000DF010008DF010008DF010008DF0100082F
:10013000DF010008DF010008DF010008DF0100081F
:10014000DF010008DF010008DF010008DF0100080F
:10015000DF010008DF010008DF010008DF010008FF
:10016000DF010008DF010008DF010008DF010008EF
:10017000DF010008DF010008DF01000800000000C7
:10018000DF010008DF010008DF010008DF010008CF
:10019000DF010008DF010008DF01000800000000A7
:1001A000DF010008DF010008DF010008DFF810D0E0
:1001B00000F01AF800480047590A0008AFF3008021
:1001C000A80400200648804706480047FEE7FEE7EF
:1001D000FEE7FEE7FEE7FEE7FEE7FEE7FEE7FEE7F7
:1001E0006D050008AD010008064C074D06E0E0680B
:1001F00040F0010394E8070098471034AC42F6D36E
:10020000FFF7D8FF1C0E00083C0E000800BFFEE7F9
:100210007047000010B54FF4806000F08FFB78B19C
:1002200002202649087003E04FF4806000F080FB54
:100230004FF48061224800F093FB0028F4D013E0D3
:100240004FF4006000F07AFB70B103201B49087086
:1002500003E04FF4006000F06BFB4FF400611848BE
:1002600000F07EFB0028F4D04FF4805000F066FBD5
:1002700078B101201149087003E04FF4805000F07C
:1002800057FB4FF480510E4800F06AFB0028F4D071
:1002900013E04FF4005000F051FB70B1012007490A
:1002A000087003E04FF4005000F042FB4FF400519F
:1002B000034800F055FB0028F4D010BD00000020DA
:1002C000000C024010B54FF4807000F037FB78B19D
:1002D00003201249087003E04FF4807000F028FBFF
:1002E0004FF480710E4800F03BFB0028F4D013E07F
:1002F0004FF4007000F022FB70B102200749087033
:1003000003E04FF4007000F013FB4FF40071044859
:1003100000F026FB0028F4D010BD000000000020F3
:10032000000C024000BFFEE710B50446632C09D064
:10033000144A52F82410144A52F82400022200F001
:1003400099F91DE00222D101104800F093F9022230
:1003500011020E4800F08EF9022251020B4800F003
:1003600089F902229102094800F084F90222D1029F
:10037000064800F07FF902221103044800F07AF9E0
:1003800010BD0000440000202C000020000C0240A2
:1003900010B50446632C0FD00D4931F8140000F05D
:1003A0002BFC0C4951F824300B4951F82400012250
:1003B000002100F0DDFA0AE040F6034000F01CFCEA
:1003C0004FF47C5301220021044800F0D1FA10BD03
:1003D0005C000020440000202C000020000C0240A3
:1003E0001CB50446632C1CD0184931F8140000F0E9
:1003F00003FC174850F824000221CDE900101549EC
:1004000051F8240000231A46012100F0E6FA104AB0
:1004100052F824100F4A52F82400002200F014FB76
:1004200012E040F6034000F0E7FB07200221002322
:100430001A46CDE900100121074800F0CEFA00224B
:100440000721054800F000FB1CBD0000240000202F
:10045000180000200C000020000C024010B50446DB
:10046000632C09D0074A52F82410074A52F8240096
:10047000002200F0E9FA04E000220721034800F01E
:10048000E3FA10BD180000200C000020000C024010
:1004900010B50446632C08D0064A52F82410064AC8
:1004A00052F8240000F0D5FA03E00721034800F0D9
:1004B000D0FA10BD180000200C000020000C0240F3
:1004C00000BFFEE77047000010B5002807DA0A07F2
:1004D000140E054A00F00F031B1FD45403E00A0753
:1004E000130E024A135410BD18ED00E000E400E0C2
:1004F0007047704710B50446044A52F82410044A65
:1005000052F8240000F02CFA10BD000080000020FA
:100510006800002010B50446632C0FD00D4931F857
:10052000140000F069FB0C4951F824300B4951F8D4
:1005300024000122002100F01BFA09E040F60640E9
:1005400000F05AFB3C2301220021054800F010FA7C
:1005500010BD0000980000208000002068000020EE
:100560000018024010B500F079F810BD08B5294810
:10057000006840F47000274908602748006840F090
:1005800001002549086024480830006840F08000D8
:100590002149083108600020009002E00098401CCA
:1005A00000904CF2503100988842F7D31A48083036
:1005B000006840F090001849083108600020009061
:1005C00002E00098401C00904CF2503100988842A4
:1005D000F7D3002010490831086000BF0E480830EA
:1005E000006800200028F9D10B4800680B4908403A
:1005F000094908600A48091D0860081F006820F4BE
:100600008020091F0860002003490C31086000F0B9
:10061000D9FB08BD88ED00E000380240FFFFF6FE80
:100620001030002400BFFEE702E008C8121F08C116
:10063000002AFAD170477047002001E001C1121F63
:10064000002AFBD1704700000349086000BF02493F
:1006500009680029FBD170470400002004480068A5
:1006600020B103480068401E01490860704700003F
:10067000040000202DE9F04707460C46914641F260
:100680000E1000F0B9FA00221146062000F048FAD8
:1006900000221146072000F043FA002211460820EC
:1006A00000F03EFA00221146092000F039FA00223B
:1006B00011460A2000F034FA00221146172000F0FB
:1006C0002FFA00221146282000F02AFA5F488742BC
:1006D00006D14FF000084FF4406000F08DFA30E092
:1006E0005B48874206D14FF0010840F6014000F018
:1006F00083FA26E05748874206D14FF0020840F6B9
:10070000024000F079FA1CE05348874206D14FF0CE
:10071000030840F6034000F06FFA12E04F488742AA
:1007200006D14FF0040840F6044000F065FA08E0F6
:100730004B48874205D14FF0050840F6054000F0D0
:100740005BFA012C02D10025012658E0022C02D1CF
:100750000125022653E0042C02D1022504264EE096
:10076000082C02D10325082649E0102C02D10425CB
:10077000102644E0202C02D1052520263FE0402C05
:1007800002D1062540263AE0802C02D1072580269A
:1007900035E0B4F5807F02D108256E012FE0B4F575
:1007A000007F03D109254FF4007628E0B4F5806F6F
:1007B00003D10A254FF4806621E0B4F5006F03D120
:1007C0000B254FF400661AE0B4F5805F03D10C25C9
:1007D0004FF4805613E0B4F5005F03D10D254FF4BC
:1007E00000560CE0B4F5804F03D10E254FF480463F
:1007F00005E0B4F5004F02D10F254FF40046E9B2F1
:1008000008F0FF0000F00AFAB9F1000F05D102224A
:100810000021304600F026F810E0B9F1010F05D1B3
:1008200000221146304600F01DF807E0B9F1020F32
:1008300004D101220021304600F014F8304600F0C7
:1008400077F8304600F06CF8BDE8F0870000024011
:100850000004024000080240000C02400010024068
:100860000014024010B52D4B1B6883432B4C2360B2
:10087000231D1B688343241D2360231D1B688343A2
:10088000241D2360231D1B688343241D236011B195
:1008900001290ED105E0214B1B6803431F4C236047
:1008A00008E01E4B1B1D1B6803431C4C241D2360CA
:1008B00000E000BF00BF32B1012A11D0022A1CD0D3
:1008C000032A27D127E0154B08331B680343134C39
:1008D00008342360231D1B688343241D23601BE011
:1008E0000E4B08331B6883430C4C08342360231DD4
:1008F0001B680343241D23600EE0084B08331B686C
:100900000343064C08342360231D1B680343241D46
:10091000236001E000BF00BF00BF10BD003C0140EC
:10092000024909680143014A11607047003C0140D7
:100930000149086070470000143C01400146074827
:10094000006800EA010205481438006800EA010363
:1009500012B10BB1012070470020FCE7143C0140AC
:1009600002461069084008B1012070470020FCE7EA
:100970002DE9F04104460D4616461F463B463246D9
:100980002946204600F002F8BDE8F081F0B50446A3
:100990000D4616462168E268002019E001278740CD
:1009A0001F409FB14FEA400C032707FA0CF7B943E9
:1009B000470005FA07F739434FEA400C032707FAC7
:1009C0000CF7BA43470006FA07F73A43471CB8B298
:1009D0001028E3D32160E260F0BD2DE9F047054621
:1009E0000E4617461C46DDE908894B463A46314615
:1009F0002846FFF7CBFF4B4642462146284600F0EB
:100A000002F8BDE8F087F0B50C461546012C03D17D
:100A100046681E43466002E046689E434660826820
:100A200000210DE001268E401E403EB14F000326FE
:100A3000BE40B2434E0005FA06F632434E1CB1B238
:100A40001029EFD38260F0BD0AB1816100E08162BC
:100A50007047C1627047000000F0B8F96320FFF7EB
:100A6000BFFC6320FFF7FAFC6320FFF791FC6320D3
:100A7000FFF75AFC6320FFF74DFD002401202749B2
:100A8000087049E00020FFF735FD10B944F001047B
:100A900000E000240120FFF72DFD10B944F002040E
:100AA00001E024F002040220FFF724FD10B944F015
:100AB000040401E024F004040320FFF71BFD10B937
:100AC00044F0080401E024F008042CB31348007833
:100AD000012808D10020FFF7DBFC642104FB01F0B2
:100AE000FFF7B2FD18E00D480078022808D1012078
:100AF000FFF7CEFC642104FB01F0FFF7A5FD0BE03E
:100B000006480078032807D10220FFF7C1FC6421C2
:100B100004FB01F0FFF798FDB4E70000000000209F
:100B20002DE9F04103460D46164600240027A04655
:100B30002A48006800F4E060B0F5E06F03D100BF20
:100B40004FF0040830E02548006800F4E060B0F59C
:100B5000C06F03D101274FF0030825E01F4800684C
:100B600000F4E060B0F5A06F02D10227B8461BE0A8
:100B70001A48006800F4E060B0F5806F03D10327E5
:100B80004FF0010810E01548006800F4E060B0F58F
:100B9000407F03D104274FF0000805E04FF4A06028
:100BA00000F020F80227B846C7F1040005FA00F467
:100BB000C8F104010F20C840304004432401084814
:100BC000C45403F01F01012088405911890001F12C
:100BD000E021C1F80001BDE8F08100000CED00E06B
:100BE00000E400E002490143024A1160704700003E
:100BF0000000FA050CED00E0074A02EB9011D1F875
:100C0000001800F01F0301229A401143024B03EB2E
:100C10009012C2F8001870470030024070B50446C8
:100C20000B46CD1701EB9575AD10A1EB8505AE0018
:100C30000F25B540E843CD1701EB9575AD10A1EB3D
:100C40008505AD0004FA05F2CD1701EB9575AD10E1
:100C500035B1012D0ED0022D18D0032D2ED121E05B
:100C6000184B1B680340174D2B602B461B68134322
:100C70002B6024E0134B1B1D1B680340114D2D1DE1
:100C80002B602B461B6813432B6018E00D4B083379
:100C90001B6803400B4D08352B602B461B68134324
:100CA0002B600CE0074B0C331B680340054D0C35E3
:100CB0002B602B461B6813432B6000E000BF00BF76
:100CC00070BD000008380140002000213A4A126837
:100CD00042F48032384B1A6000BF401C364A12681A
:100CE00002F4003119B94FF6FF729042F5D1324A41
:100CF000126802F400320AB900BFFEE72E4A403201
:100D0000126842F080522C4B40331A602B4A126812
:100D100042F44042294B1A60274A08321268264B97
:100D200008331A601A46126842F400421A601A46E2
:100D3000126842F4A0521A60214A1B1F1A601A1F3F
:100D4000126842F080721B1F1A6000BF1A4A1268B4
:100D500002F00072002AF9D0184A126842F4803278
:100D6000164B1A6000BF154A526802F48032002AFE
:100D7000F9D0124A126842F40032104B1A6000BFD8
:100D80000E4A526802F40032002AF9D00A4A0832A8
:100D9000126822F00302084B08331A601A461268E0
:100DA00042F002021A6000BF034A0832126802F0E1
:100DB0000802002AF8D07047003802400070004056
:100DC0001964400910B5FFF77FFF10BD10B5124838
:100DD00000684FF47A71B0FBF1F4601EB0F1807FCF
:100DE00001D301200FE0601E4FF0E02148610F2188
:100DF0004FF0FF30FFF768FB00204FF0E0218861E3
:100E000007200861002008B100BFFEE70021481E4E
:100E1000FFF75AFB10BD0000080000203C0E000840
:100E200000000020A800000028060008E40E0008CA
:100E3000A8000020000400003806000800000000A0
:100E40000000000000C2EB0B000C0240000C02404E
:100E5000000C02400400000001000000020000003D
:100E6000030C030C030C0000000C0240000C0240B9
:100E7000000C0240000C0240000C0240000C02403A
:100E80000002000000100000000400000008000044
:100E90000001000000200000030C030C030C030CF5
:100EA000030C030C00180240001802400018024016
:100EB00000180240000000000000000004000000D4
:100EC00008000000100000002000000000000000EA
:100ED00000000000060C060C060C060C00000000CA
:040EE000010000000D
:04000005080001AD41
:00000001FF
