:020000040800F2
:10000000980E0020C5010008950200088D02000826
:100010009102000887020008610600080000000045
:100020000000000000000000000000009F05000824
:100030008B020008000000009D050008A1050008D3
:10004000DF010008DF010008DF010008DF01000810
:10005000DF010008DF010008DF010008DF01000800
:10006000DF010008DF010008DF010008DF010008F0
:10007000DF010008DF010008DF010008DF010008E0
:10008000DF010008DF010008DF010008DF010008D0
:10009000DF010008DF010008DF010008DF010008C0
:1000A000DF010008DF010008DF010008DF010008B0
:1000B000DF010008DF010008DF010008DF010008A0
:1000C000DF010008DF010008DF010008DF01000890
:1000D000DF010008DF010008DF010008DF01000880
:1000E000DF010008DF010008DF010008DF01000870
:1000F000DF010008DF010008DF010008DF01000860
:10010000DF010008DF010008DF010008DF0100084F
:10011000DF010008DF010008DF010008DF0100083F
:10012000DF010008DF010008DF010008DF0100082F
:10013000DF010008DF010008DF010008DF0100081F
:10014000DF010008DF010008DF010008DF0100080F
:10015000DF010008DF010008DF010008DF010008FF
:10016000DF010008DF010008DF010008DF010008EF
:10017000DF010008DF010008DF01000800000000C7
:10018000DF010008DF010008DF010008DF010008CF
:10019000DF010008DF010008DF01000800000000A7
:1001A000DF010008DF010008DF010008DFF810D0E0
:1001B00000F02CF80048004741080008AFF3008029
:1001C000980E00200648804706480047FEE7FEE7F5
:1001D000FEE7FEE7FEE7FEE7FEE7FEE7FEE7FEE7F7
:1001E000A9050008AD010008D2B201E000F8012B1A
:1001F000491EFBD270470022F6E710B513460A46A7
:1002000004461946FFF7F0FF204610BD064C074D87
:1002100006E0E06840F0010394E8070098471034D6
:10022000AC42F6D3FFF7C6FF440B0008640B00088E
:1002300070B58C1810F8015B15F0070301D110F8A8
:10024000013B2A1106D110F8012B03E010F8016BD5
:1002500001F8016B5B1EF9D12B0705D40023521E58
:100260000DD401F8013BFAE710F8013BCB1A921CC0
:1002700003E013F8015B01F8015B521EF9D5A142BE
:10028000D8D3002070BD00BFFEE7704700BFFEE777
:1002900000BFFEE77047000010B5002807DA0A0724
:1002A000140E054A00F00F031B1FD45403E00A0785
:1002B000130E024A135410BD18ED00E000E400E0F4
:1002C00010B5044634B1FF224FF480610548FFF7B2
:1002D0008BFF04E04FF480610248FFF78CFF00F0D1
:1002E00003F810BD9806002070B500241BE004F14F
:1002F000B000002100F0D0F80021084600F0CCF852
:100300000021102000F0C8F8002508E005EBC4111A
:10031000064A505C012100F0BFF8681CC5B2802D70
:10032000F4DB601CC4B2082CE1DB70BD9806002031
:1003300010B500F06FF8364800F016FBC82000F04A
:10034000A1F900F08FF80021AE2000F0A5F80021FF
:10035000084600F0A1F80021102000F09DF80021CF
:10036000402000F099F80021B02000F095F800211D
:10037000812000F091F80021FF2000F08DF800218D
:10038000A12000F089F80021A62000F085F80021C6
:10039000A82000F081F800213F2000F07DF8002126
:1003A000C82000F079F80021D32000F075F8002172
:1003B000084600F071F80021D52000F06DF800210A
:1003C000802000F069F80021D92000F065F80021B4
:1003D000F12000F061F80021DA2000F05DF8002142
:1003E000122000F059F80021DB2000F055F8002120
:1003F000302000F051F800218D2000F04DF8002150
:10040000142000F049F80021AF2000F045F810BD9D
:10041000003800401CB540F6014000F093FA41F26C
:100420000E0000F08FFA4FF4A040022100230122B9
:10043000CDE9001011460A4800F095F94FF420402C
:10044000022100230122CDE90010054800F08BF9BC
:100450004FF420420521024800F02AF91CBD00009B
:100460000004024010B5012291030A4800F04FF940
:10047000642000F007F900224FF48041054800F0A5
:1004800046F9642000F0FEF801229103014800F0D3
:100490003EF910BD0004024070B504460D462DB172
:1004A000012211030A4800F032F905E000224FF45E
:1004B0008051074800F02BF9A1B2064800F074FA09
:1004C00000BF0221034800F071FA0028F9D070BD86
:1004D000000402400038004030B50246002006E02B
:1004E000135C00EB01140B4D2B55431CD8B20828AC
:1004F000F6DB00200AE000F10803D35C802404EB63
:1005000001140444034D2B55431CD8B20828F2DBD8
:1005100030BD00009806002030B50246002008E0FB
:10052000135C082404EB011404440B4D2B55431CAD
:10053000D8B20828F4DB00200BE000F10803D45CFB
:10054000802303EB011308330344034DEC54431C95
:10055000D8B20828F1DB30BD9806002030B502463D
:10056000002006E0135C00EB01140B4D2B55431CDF
:10057000D8B21028F6DB00200AE000F11003D35CAB
:10058000802404EB01140444034D2B55431CD8B2C2
:100590001028F2DB30BD000098060020704770473D
:1005A00010B500F079F810BD08B52948006840F48E
:1005B0007000274908602748006840F0010025497D
:1005C000086024480830006840F080002149083164
:1005D00008600020009002E00098401C00904CF25F
:1005E000503100988842F7D31A480830006840F02C
:1005F00090001849083108600020009002E000983F
:10060000401C00904CF2503100988842F7D30020F3
:1006100010490831086000BF0E480830006800200B
:100620000028F9D10B4800680B49084009490860C7
:100630000A48091D0860081F006820F48020091F6F
:100640000860002003490C31086000F04FFA08BD33
:1006500088ED00E000380240FFFFF6FE1030002475
:1006600000BFFEE702E008C8121F08C1002AFAD145
:1006700070477047002001E001C1121F002AFBD122
:10068000704700000349086000BF0249096800295B
:10069000FBD17047700600200448006820B1034871
:1006A0000068401E01490860704700007006002085
:1006B000F0B503461C6A5D6A00200DE00126864005
:1006C00016403EB187000F26BE40B443860001FAB3
:1006D00006F63443461CB0B20828EFD3082011E0D8
:1006E0000126864016405EB1A0F10806B7000F262D
:1006F000BE40B543A0F10806B60001FA06F6354340
:10070000461CB0B21028EBD31C625D62F0BD0AB18A
:10071000816100E081627047F0B504460D461646DF
:100720002168E268002019E0012787401F409FB13F
:100730004FEA400C032707FA0CF7B943470005FAC4
:1007400007F739434FEA400C032707FA0CF7BA437F
:10075000470006FA07F73A43471CB8B21028E3D31C
:100760002160E260F0BD2DE9F04705460E461746D0
:100770001C46DDE908894B463A4631462846FFF7D4
:10078000CBFF4B4642462146284600F002F8BDE822
:10079000F087F0B50C461546012C03D146681E4380
:1007A000466002E046689E434660826800210DE094
:1007B00001268E401E403EB14F000326BE40B2438C
:1007C0004E0005FA06F632434E1CB1B21029EFD3A3
:1007D0008260F0BD10B50446104931F8140000F0F5
:1007E000B1F80F4951F824300E4951F82400002285
:1007F0000121FFF791FF0A4951F82430094951F8C6
:10080000240002220021FFF7C4FF054850F824000D
:10081000044951F82410886210BD000090060020A1
:100820008406002078060020034951F82010034A6E
:1008300052F820209162704784060020780600203C
:1008400000F058F90020FFF7C5FF0120FFF7C2FFB5
:10085000FFF76EFDC820FFF715FF0120FFF730FD01
:100860004FF4FA70FFF70EFF0020FFF729FD4FF459
:10087000FA70FFF707FF0020FFF7D6FF12212D487F
:10088000FFF76CFE13212B482030FFF767FE142181
:1008900028484030FFF762FE152126486030FFF7F8
:1008A0005DFE21212448FFF717FE21212348FFF791
:1008B00033FE222121487030FFF70EFE22211F480F
:1008C0007030FFF729FE23211C48A030FFF704FEFB
:1008D00024211A48E038FFF7FFFD24211748A030F3
:1008E000FFF71AFE25211548D030FFF7F5FD252129
:1008F00012487030FFF710FE262110481038FFF71D
:10090000EBFDFFF7F1FC14E026210D48FFF704FE94
:10091000FFF7EAFC4FF47A70FFF7B4FE262108488F
:100920001038FFF7F9FDFFF7DFFC4FF47A70FFF79F
:10093000A9FEE9E70000002000030020D004002009
:1009400090000020074A02EB9011D1F8001800F047
:100950001F0301229A401143024B03EB9012C2F88D
:10096000001870470030024010B588B004460020DF
:1009700002904FF4827001900020039006904FF493
:1009800000700490182007900020059001A92046CF
:1009900000F014F8204600F002F808B010BD01681D
:1009A00041F0400101607047C160704702469068A5
:1009B000084008B1012070470020FCE702460020F3
:1009C000106800F441500B6818434B6818438B685B
:1009D0001843CB6818430B6918434B6918438B695C
:1009E00018431060D36923F40063D361704700009B
:1009F000002000213A4A126842F48032384B1A60D3
:100A000000BF401C364A126802F4003119B94FF693
:100A1000FF729042F5D1324A126802F400320AB9EC
:100A200000BFFEE72E4A4032126842F080522C4B43
:100A300040331A602B4A126842F44042294B1A6034
:100A4000274A08321268264B08331A601A46126881
:100A500042F400421A601A46126842F4A0521A6028
:100A6000214A1B1F1A601A1F126842F080721B1F56
:100A70001A6000BF1A4A126802F00072002AF9D008
:100A8000184A126842F48032164B1A6000BF154AA9
:100A9000526802F48032002AF9D0124A126842F4F5
:100AA0000032104B1A6000BF0E4A526802F4003246
:100AB000002AF9D00A4A0832126822F00302084BD1
:100AC00008331A601A46126842F002021A6000BF28
:100AD000034A0832126802F00802002AF8D0704770
:100AE00000380240007000401964400910B5FFF75B
:100AF0007FFF10BD10B5124800684FF47A71B0FB4B
:100B0000F1F4601EB0F1807F01D301200FE0601E80
:100B10004FF0E02148610F214FF0FF30FFF7BCFBA1
:100B200000204FF0E021886107200861002008B113
:100B300000BFFEE70021481EFFF7AEFB10BD00001E
:100B400074060020640B00080000002098060000D6
:100B500030020008540F000898060020000800002A
:100B60007406000840104040202050484443444848
:100B700050202040404BFE420162FE15FE2222FE24
:100B80002CFE828203211780601F42827F2B3F4010
:100B9000011341701380701809FF2010084848FFA6
:100BA00048011A0820380E18070830020202FF0216
:100BB0000212221E2013100828087C545655545443
:100BC0007C4019201F10414949497F040214417299
:100BD000F84333301C100C0603912C40C0780311ED
:100BE0002C043F0403212D7088FC0829261820FFBF
:100BF000211E14F008F033E0184D211C031E1133A0
:100C00008870000C101E2123241927211010160EA5
:100C100045E018040225071820403D020418E06949
:100C20002C20180707174080F08040403F02020147
:100C30000F01022842F01D0101011F04912B80B019
:100C400066B1191D2901913A30CE492C146018045F
:100C50003C6018061D1EE010080810721F0F1020BF
:100C600020100FF05310F83620203F20203C700851
:100C700008C21E3028242221441E300888884808D3
:100C80002E1820202011CC3BC0203227070424241A
:100C90003F241AF8202308084B19212036E0108839
:100CA00088184B0F11101E380808C8382021523FF1
:100CB0001A702E29608F1C222121221C90111D31B7
:100CC000222211901961CAC0C26A80C659081C400C
:100CD000201050170102040810204A4001114A0454
:100CE000012119152A403219251B0402F21B7048F4
:100CF000D13AF0501A360F1EC030C828E8702808C4
:100D00000718272423140B6F2A387E280D203C2334
:100D1000020227382008F888889F4B203FF01BC02C
:100D2000303F1B083830191019781B08F80F19408C
:100D300039201B100F103E8888E8081010AC2320C3
:100D40001810112A035E2940223829402C221E0245
:100D50004019A41809F808203F21010121252A087B
:100D600052298129424149112EC08080807F0E2F57
:100D7000F888C0281808501C0126382F2940292F30
:100D800029801B20301012F81AF81413203F190282
:100D900029204B30C0601A2074123F4BE010B06B1A
:100DA0000F10B029D01AF0301980220179203F1895
:100DB000242438504FC04C888870C0140C30204B0D
:100DC0007088C11738202121221C3A189F4A1882A6
:100DD00039A049D0112A1F90121F240878881BC8F7
:100DE00038151C07380E60191A1AF8201114033C24
:100DF0000714073C03481408186880806818082006
:100E0000302C03032C30200838C82F5950298F2943
:100E1000102F203826212020681145FE02020225CD
:100E20007F4040401A0CE0611C0106380B191D423E
:100E3000FE191D527F1A04120211045A8001193042
:100E4000D91D391621180819242222223F20AB3936
:100E50000F115F3F112020110E21311A0E104B206F
:100E600011104B88F8102A10B359401A1F3F2B223B
:100E7000130F16F0888888181A20D029D1497A21B2
:100E8000176B94949493603960190F4C203F21F3B1
:100E900054809898793059121AC02719D1193039CD
:100EA000311F203F24022D30212A0812893069D7B2
:100EB000294B2903190BC96079A019BF2B201FDD0D
:100EC000390F9C80FFA1E0191229D03BA0FF0C39FB
:100ED00050194112208A01C01B3324012A190F3AEC
:100EE000E0413952290F392349603C103F202C2919
:100EF000053F010E3008060170291038080F300C2C
:100F0000030C300F2C49A14E312E0E31200C2962DA
:100F10001D818E70183059D1215721302C2221305B
:100F200055807C0202443F404072FF39083C020277
:100F30007C8F5440403FD008060101020204041493
:100F4000C2EB0B6C0C024004291D29DA29551A0347
:040F50009723030CD4
:04000005080001AD41
:00000001FF
