:020000040800F2
:1000000008040020C50100081B02000813020008B4
:10001000170200080D02000831030008000000006C
:10002000000000000000000000000000470200087F
:100030001102000800000000450200084902000803
:10004000DF010008DF010008DF010008DF01000810
:10005000DF010008DF010008DF010008DF01000800
:10006000DF010008DF010008DF010008DF010008F0
:10007000DF010008DF010008DF010008DF010008E0
:10008000DF010008DF010008DF010008DF010008D0
:10009000DF010008DF010008DF010008DF010008C0
:1000A000DF010008DF010008DF010008DF010008B0
:1000B000DF010008DF010008DF010008DF010008A0
:1000C000DF010008DF010008DF010008DF01000890
:1000D000DF010008DF010008DF010008DF01000880
:1000E000DF010008DF010008DF010008DF01000870
:1000F000DF010008DF010008DF010008DF01000860
:10010000DF010008DF010008DF010008DF0100084F
:10011000DF010008DF010008DF0100080903000813
:10012000DF010008DF010008DF010008DF0100082F
:10013000DF010008DF010008DF010008DF0100081F
:10014000DF010008DF010008DF010008DF0100080F
:10015000DF010008DF010008DF010008DF010008FF
:10016000DF010008DF010008DF010008DF010008EF
:10017000DF010008DF010008DF01000800000000C7
:10018000DF010008DF010008DF010008DF010008CF
:10019000DF010008DF010008DF01000800000000A7
:1001A000DF010008DF010008DF010008DFF810D0E0
:1001B00000F01AF8004800472D040008AFF3008053
:1001C000080400200648804706480047FEE7FEE78F
:1001D000FEE7FEE7FEE7FEE7FEE7FEE7FEE7FEE7F7
:1001E00051020008AD010008064C074D06E0E0682A
:1001F00040F0010394E8070098471034AC42F6D36E
:10020000FFF7D8FFF40A0008140B000800BFFEE750
:10021000704700BFFEE700BFFEE7704710B500283B
:1002200007DA0A07140E054A00F00F031B1FD45407
:1002300003E00A07130E024A135410BD18ED00E044
:1002400000E400E07047704710B500F083F810BD7F
:1002500008B52948006840F470002749086027481D
:10026000006840F001002549086024480830006813
:1002700040F080002149083108600020009002E031
:100280000098401C00904CF2503100988842F7D3FF
:100290001A480830006840F090001849083108609A
:1002A0000020009002E00098401C00904CF2503179
:1002B00000988842F7D3002010490831086000BF39
:1002C0000E480830006800200028F9D10B4800686B
:1002D0000B490840094908600A48091D0860081FC1
:1002E000006820F48020091F0860002003490C31B9
:1002F000086000F0E9F908BD88ED00E00038024030
:10030000FFFFF6FE1030002410B50121064800F072
:1003100022FB38B10121044800F01AFB01210348F7
:1003200000F082F810BD000000140040000C0240F4
:1003300000BFFEE702E008C8121F08C1002AFAD178
:1003400070477047002001E001C1121F002AFBD155
:10035000704700000448006820B103480068401E50
:10036000014908607047000000000020F0B5044615
:100370000D4616462168E268002019E001278740F3
:100380001F409FB14FEA400C032707FA0CF7B9430F
:10039000470005FA07F739434FEA400C032707FAED
:1003A0000CF7BA43470006FA07F73A43471CB8B2BE
:1003B0001028E3D32160E260F0BD2DE9F047054647
:1003C0000E4617461C46DDE908894B463A4631463B
:1003D0002846FFF7CBFF4B4642462146284600F011
:1003E00002F8BDE8F087F0B50C461546012C03D1A4
:1003F00046681E43466002E046689E434660826847
:1004000000210DE001268E401E403EB14F00032624
:10041000BE40B2434E0005FA06F632434E1CB1B25E
:100420001029EFD38260F0BDC16270471CB500F0A7
:100430004FF940F6034000F081F80120022100232B
:100440001A46CDE9001001460448FFF7B6FF42F214
:100450001071034800F08CFA00BFFEE7000C024068
:10046000001400402DE9F04103460D4616460024D5
:100470000027A0462A48006800F4E060B0F5E06F6D
:1004800003D100BF4FF0040830E02548006800F4B5
:10049000E060B0F5C06F03D101274FF0030825E0FD
:1004A0001F48006800F4E060B0F5A06F02D1022799
:1004B000B8461BE01A48006800F4E060B0F5806FB1
:1004C00003D103274FF0010810E01548006800F43D
:1004D000E060B0F5407F03D104274FF0000805E04D
:1004E0004FF4A06000F020F80227B846C7F10400DE
:1004F00005FA00F4C8F104010F20C840304004435D
:1005000024010848C45403F01F01012088405911F8
:10051000890001F1E021C1F80001BDE8F08100008F
:100520000CED00E000E400E002490143024A1160E2
:10053000704700000000FA050CED00E0074A02EBEE
:100540009011D1F8001800F01F0301229A401143C6
:10055000024B03EB9012C2F80018704700300240C3
:10056000074A02EB9011D1F8001800F01F03012296
:100570009A409143024B03EB9012C2F80018704767
:1005800000300240074A02EB9011D1F8001800F049
:100590001F0301229A401143024B03EB9012C2F851
:1005A00000187047003002406FF08071884205D11A
:1005B000054909680140044A116004E002490968DC
:1005C0000143014A116070478C380240002000212D
:1005D0003A4A126842F48032384B1A6000BF401C1D
:1005E000364A126802F4003119B94FF6FF72904290
:1005F000F5D1324A126802F400320AB900BFFEE7B0
:100600002E4A4032126842F080522C4B40331A601E
:100610002B4A126842F44042294B1A60274A08329A
:100620001268264B08331A601A46126842F40042D8
:100630001A601A46126842F4A0521A60214A1B1F1F
:100640001A601A1F126842F080721B1F1A6000BFE6
:100650001A4A126802F00072002AF9D0184A126889
:1006600042F48032164B1A6000BF154A526802F4F9
:100670008032002AF9D0124A126842F40032104B3C
:100680001A6000BF0E4A526802F40032002AF9D004
:100690000A4A0832126822F00302084B08331A6033
:1006A0001A46126842F002021A6000BF034A08327A
:1006B000126802F00802002AF8D0704700380240A1
:1006C000007000401964400910B5FFF77FFF10BDAE
:1006D00010B5124800684FF47A71B0FBF1F4601E57
:1006E000B0F1807F01D301200FE0601E4FF0E021C8
:1006F00048610F214FF0FF30FFF790FD00204FF0D1
:10070000E021886107200861002008B100BFFEE7F2
:100710000021481EFFF782FD10BD000004000020EC
:1007200010B504465C49601A8C426FD019DC5B49F5
:10073000A4EB01008C424ED009DCB4F1804F2ED0E6
:1007400057482044A0B3B0F5806F72D13AE0B0F5BD
:10075000806F49D0B0F5006F4FD0B0F5406FF4D145
:100760007BE0B0F5923F5BD009DCB0F5806F73D0D1
:10077000B0F5644F0AD0B0F5684F5AD147E0B0F5F4
:10078000943F57D0B0F5963F53D15CE04FF41060E2
:10079000FFF7F8FE4FF41060FFF7E2FE79E04FF448
:1007A0000060FFF7EFFE4FF40060FFF7D9FE70E046
:1007B000FFE740F60100FFF7E5FE40F60100FFF716
:1007C000CFFE66E040F60200FFF7DCFE40F60200D6
:1007D000FFF7C6FE5DE040F60300FFF7D3FE40F6EC
:1007E0000300FFF7BDFE54E040F60400FFF7CAFE29
:1007F00040F60400FFF7B4FE4BE040F60500FFF7BB
:10080000C1FE40F60500FFF7ABFE42E02EE040F6E9
:100810000110FFF7B7FE40F60110FFF7A1FE38E028
:100820004FF41160FFF7AEFE4FF41160FFF798FE32
:100830002FE02DE040F61110FFF7A4FE40F6111056
:10084000FFF78EFE25E040F61210FFF79BFE40F604
:100850001210FFF785FE1CE011E040F60600FFF7DE
:1008600091FE40F60600FFF77BFE12E040F607001F
:10087000FFF788FE40F60700FFF772FE09E040F63A
:100880000800FFF77FFE40F60800FFF769FE00E072
:1008900000BF00BF10BD0000001C0040000C004065
:1008A00000FCFFBF016841F00101016070470000DA
:1008B0000A8882621D4A90420ED0B0F1804F0BD060
:1008C0001B4A904208D01B4A904205D01A4A9042D7
:1008D00002D01A4A90420BD1026822F070020260E4
:1008E00002684B881A43026002688B881A430260D0
:1008F0008A68C262124A90420AD0124A904207D0D5
:10090000026822F4407202600268CB881A430260D7
:10091000064A904202D0094A904201D10A7B026302
:10092000426942F00102426170470000000001404C
:100930000004004000080040000C0040000401409A
:100940000010004000140040C2680A43C2607047B3
:10095000CA43026170470246D06800EA0103106989
:10096000084010B10BB1012070470020FCE70000E7
:100970007FB504460D46B4F1804F09D100221146DF
:100980001C20FFF76FFD4FF48050FFF7D7FD69E0A3
:100990004948844209D1002211461D20FFF762FD1B
:1009A00041F20100FFF7CAFD5CE04448844209D1EE
:1009B000002211461E20FFF755FD41F20200FFF70D
:1009C000BDFD4FE03E48844209D10022114632204D
:1009D000FFF748FD41F20300FFF7B0FD42E0394860
:1009E000844204D141F20400FFF7A8FD3AE0364802
:1009F000844209D1002211463720FFF733FD41F22E
:100A00000500FFF79BFD2DE03048844204D141F200
:100A10000110FFF793FD25E02D48844209D1002203
:100A200011461820FFF71EFD41F21010FFF786FD5A
:100A300018E02848844209D1002211461920FFF706
:100A400011FD41F21110FFF779FD0BE022488442BD
:100A500008D1012211461A20FFF704FD41F21210BD
:100A6000FFF76CFD4FF08070FFF79EFD2046FFF70B
:100A700057FE684600F032F840F2CF70ADF8000043
:100A80000020ADF80200ADF80400681E02900020BE
:100A9000ADF806008DF80C0069462046FFF708FF08
:100AA00001212046FFF754FF01212046FFF74CFFAC
:100AB0002046FFF7F7FE7FBD00040040000800401D
:100AC000000C0040001000400014004000040140F1
:100AD00000400140004401400048014000210180E5
:100AE000418081804FF6FF7181600021C1800173D8
:100AF00070470000140B00080000002008000000F0
:100B0000340300081C0B000808000020000400004B
:0C0B1000440300080000000000C2EB0BD2
:04000005080001AD41
:00000001FF
