:020000040800F2
:1000000010120020C5010008FF050008F7050008D0
:10001000FB050008830500081D0D00080000000016
:10002000000000000000000000000000590C000863
:10003000F505000800000000290600085B0C000818
:10004000DF010008DF010008DF010008DF01000810
:10005000DF010008DF010008DF010008DF01000800
:10006000DF010008DF010008DF010008DF010008F0
:10007000DF010008DF010008DF010008DF010008E0
:10008000DF010008DF010008DF010008DF010008D0
:10009000DF010008DF010008DF010008DF010008C0
:1000A000DF010008DF010008DF010008DF010008B0
:1000B000DF010008DF010008DF010008DF010008A0
:1000C000DF010008DF010008DF010008DF01000890
:1000D000DF010008DF010008DF010008DF01000880
:1000E000DF010008DF010008DF010008DF01000870
:1000F000DF010008DF010008DF010008DF01000860
:10010000DF010008DF010008DF010008DF0100084F
:10011000DF010008DF010008DF010008DF0100083F
:10012000DF010008DF010008DF010008DF0100082F
:10013000DF010008DF010008DF010008DF0100081F
:10014000DF010008DF010008DF010008DF0100080F
:10015000DF010008DF010008DF010008DF010008FF
:10016000DF010008DF010008DF010008DF010008EF
:10017000DF010008DF010008DF01000800000000C7
:10018000DF010008DF010008DF010008DF010008CF
:10019000DF010008DF010008DF01000800000000A7
:1001A000DF010008DF010008DF010008DFF810D0E0
:1001B00000F02CF90048004721150008AFF300803B
:1001C000101200200648804706480047FEE7FEE779
:1001D000FEE7FEE7FEE7FEE7FEE7FEE7FEE7FEE7F7
:1001E000650C0008AD010008C1F30A5210B5C1F357
:1001F000130140F2FF3341F480119A4201DA0020EA
:1002000010BD40F233439A42A2F2334203DC524221
:1002100000F02CF810BD904010BD00F0004230F00E
:1002200000400AD0C10D01F56071C0F3160042EA2A
:100230000151C20840071143704700200146704732
:1002400030B50B46014600202022012409E021FAA6
:1002500002F59D4205D303FA02F5491B04FA02F5A3
:100260002844151EA2F10102F1DC30BD202A04DB76
:10027000203A21FA02F00021704721FA02F3D0401F
:10028000C2F1200291400843194670472DE9FE4F04
:10029000804681EA0300C00F0C46009021F0004127
:1002A00023F00045B8EB0200A94105D240462146A3
:1002B00090461C460B46024623F00040104347D0B0
:1002C000270DC7F30A00C3F30A510290401A0190A8
:1002D00040286BDAC3F3130040F4801B0098924669
:1002E00020B10023D2EB030A63EB0B0B01985946B4
:1002F000C0F14002504600F09BF806460D465046BD
:100300005946019A00F0A3F810EB0800614100245F
:1003100087EA115284EAE7731A4340D0009A62B325
:10032000019A012A4FEA075215DC001B61EB02011A
:100330004FF0004202EA0752CDE90042001C41F5AD
:10034000801132462B4600F0A3F803B0BDE8F08FD1
:1003500040462146F9E7001B61EB0201001C41F514
:10036000801300185B412018A2F5001747EB03012A
:1003700040EAD570B6196D4111E06D084FEA3606B6
:1003800045EAC0754FEA0752001B61EB0201001CF1
:1003900041F5801149084FEA3000001951413246B9
:1003A0002B4603B0BDE8F04F00F063B8009801227F
:1003B00040000023D0EB020263EBE073009821467B
:1003C0004FEAE074B8EB000061EB0401E9E783F069
:1003D00000435BE781F0004158E7000030B5041EA0
:1003E00071F1000404DB4FF00044404264EB010172
:1003F000141E73F1000405DB1C464FF0004352420B
:1004000063EB0403994208BF904230BD064C074D90
:1004100006E0E06840F0010394E8070098471034D4
:10042000AC42F6D3FFF7C6FEF41C0008141D00080A
:10043000202A04DB203A00FA02F1002070479140A4
:10044000C2F1200320FA03F3194390407047202A99
:1004500006DBCB17203A41FA02F043EAE07306E0EC
:1004600041FA02F3D040C2F12002914008431946FC
:10047000704710B5141E73F1000408DA401C41F1F6
:10048000000192185B411A4301D120F0010010BD18
:100490002DE9F04D92469B4611B1B1FA81F202E08E
:1004A000B0FA80F220329046FFF7C2FF04460F46B2
:1004B00040EA0A0041EA0B0153465A46084313D06A
:1004C000114653EA010019D0C8F140025046FFF727
:1004D000CDFE05460E46504659464246FFF7A8FF58
:1004E000084305D0012004E020463946BDE8F08DE0
:1004F0000020054346EAE0762C4337430A9863051B
:10050000E40AA0EB08000022FD0A44EA47540A303E
:1005100002D500200146E9E7010510196941DDE92E
:10052000084500196941BDE8F04DA2E770B58C1887
:1005300010F8015B15F0070301D110F8013B2A11F7
:1005400006D110F8012B03E010F8016B01F8016BE4
:100550005B1EF9D12B0705D40023521E0DD401F8E0
:10056000013BFAE710F8013BCB1A921C03E013F8A9
:10057000015B01F8015B521EF9D5A142D8D30020DE
:1005800070BD00BFFEE7000030B589B005460C46DF
:1005900040F6164001F0D8F80121144800F091FD12
:1005A0001348009002954020069007940120019086
:1005B0000020039004904FF4003008900120059033
:1005C0006A460121094800F023FE04220121074860
:1005D00000F064FD20220121044800F0C4FD012147
:1005E000024800F03BFD09B030BD0000006402404D
:1005F0000C340140704700BFFEE700BFFEE77047C4
:1006000010B5002807DA0A07140E054A00F00F0398
:100610001B1FD45403E00A07130E024A135410BDE3
:1006200018ED00E000E400E07047000010B503485A
:1006300001F04DF9FF2000F0A5FA10BD0034014093
:1006400070B505464FF6FF7401E0601E84B2FF20CE
:1006500000F098FAA84201D0002CF6D103A000F0D7
:100660005FFB0CB9FF2070BD0020FCE72E000000EE
:10067000F8B500F0A3FA002504E0FF2000F082FAAC
:10068000681C85B20A2DF8DB142600BF95220021D4
:10069000084600F0A5F90446012C04D0301EA6F14E
:1006A00001018EB2F2D1002050490870012C4AD1CC
:1006B00087224FF4D571082000F092F9012847D124
:1006C000002506E0FF2000F05DFA0DF80500681C2B
:1006D00085B2042DF6DB9DF80200012879D19DF842
:1006E0000300AA2875D14FF6FE7600BF0122002133
:1006F000372000F075F901229107292000F070F9E8
:10070000044624B1301EA6F101018EB2EED1002EB6
:100710005FD0012200213A2000F062F9002858D170
:10072000002506E0FF2000F02DFA0DF80500681CFA
:1007300085B2042DF6DB9DF8000000F0400018B1F2
:1007400006202A49087044E004202849087040E047
:1007500001220021372000F043F901220021292045
:1007600000F03EF90446012C17DC02201F490870F6
:100770004FF6FE7600BF01220021372000F030F94D
:1007800001220021292000F02BF90446BCB1301EC3
:10079000A6F101018EB2EED111E0012013490870DB
:1007A0004FF6FE7600BF01220021104600F018F936
:1007B000044624B1301EA6F101018EB2F3D12EB150
:1007C00001225102102000F00BF910B1002007495E
:1007D0000870FFF72BFF0548007810B10448006847
:1007E000F8BD0CB12046FBE7AA20F9E70400002081
:1007F000080000202DE9F04705460F4614461FFA71
:1008000087FA2046E11704EBD151C1F34F2835A0F8
:1008100000F086FA2046E11704EBD1514912A4EB0F
:1008200041211FFA81F9314801F056F800BFFF203D
:10083000FFF706FF0028FAD100BFFF223946122039
:1008400000F0CEF80028F8D126E000BFFE20FFF728
:10085000F7FE0028FAD1002606E0FF2000F092F90A
:1008600028706D1C701C86B2B6F5007FF5DBFF208A
:1008700000F088F9FF2000F085F90AF1010080B24C
:1008800082461B490968884202D30120BDE8F087EF
:10089000A8F101001FFA80F8B8F1000FD5DCB9F11A
:1008A000000F16DD00BFFE20FFF7CAFE0028FAD1B8
:1008B000002606E0FF2000F065F928706D1C701C12
:1008C00086B24E45F6DBFF2000F05CF9FF2000F019
:1008D00059F9FF2200210C2000F082F8FFF7A6FE54
:1008E0000020D3E7706167653A00000000340140E2
:1008F0000800002070B504460E461546154800F065
:10090000EBFF00BFFF20FFF79BFE0028FAD100BFDE
:10091000FF223146112000F063F80028F8D100BF13
:10092000FE20FFF78DFE0028FAD104E0FF2000F042
:1009300029F92070641C281EA5F101018DB2F5D1A2
:1009400000BFFF2000F01EF9FF28FAD0FFF76EFE6F
:10095000002070BD0034014070B505460E461F48AA
:1009600000F0BAFF3146304600F0FEFC00BFFF2029
:10097000FFF766FE0028FAD100BFFF22314618209B
:1009800000F02EF80028F8D1FF2000F0FBF8FE2040
:1009900000F0F8F8002404E0285D00F0F3F8601C93
:1009A00084B2B4F5007FF7DBFF2000F0EBF8FF2006
:1009B00000F0E8F8FF2000F0E5F800F01F0005283F
:1009C00001D0012070BD00BFFF2000F0DBF8FF2840
:1009D000FAD0FFF72BFE0020F4E7000000340140BE
:1009E0002DE9F04105460C46174645F0400000F061
:1009F000C9F8200E00F0C6F8C4F3074000F0C2F8B2
:100A0000C4F3072000F0BEF8E0B200F0BBF83846AF
:100A100000F0B8F80C2D02D1FF2000F0B3F84FF031
:100A20001F0800BFFF2000F0ADF8064606F080006A
:100A300030B1B8F10000A8F1010101F0FF08F1D1D7
:100A40003046BDE8F08100002DE9F0472DED048B24
:100A500006460C4617461FFA84F800EE107AB8EEE8
:100A6000400ADFED440A80EE201A11EE109A484643
:100A7000FFF7D3FB41EC190BB0EE490AF0EE690A1F
:100A800000F05EF9B0EE408AF0EE608A51EC180B8F
:100A9000FFF7AAFB85B2384800F01EFF6019411E1F
:100AA000204600F061FC00BFFF20FFF7C9FD0028D1
:100AB000FAD100BFFF2221461920FFF791FF00283D
:100AC000F8D1FF2000F05EF8FF2000F05BF842E074
:100AD000FC2000F057F80121284800F0CFFA00BFB1
:100AE00020220121254800F05DFB0028F8D02022BB
:100AF0000121224800F037FB0121204800F0AEFA26
:100B0000FF2000F03FF8FF2000F03CF800BFFF207E
:100B100000F038F800F01F000528F8D100BFFF20D2
:100B2000FFF78EFD0028FAD108F1010080B280465F
:100B300013490968884204D30120BDEC048BBDE849
:100B4000F08706F500763346002201210B4800F0BD
:100B50004FFB681E85B2002DBADCFD2000F012F8B4
:100B600000BFFF20FFF76CFD0028FAD1FFF75EFD04
:100B7000E8B2E2E7000000440034014000640240B3
:100B80000800002010B5044600BF02210A4800F00A
:100B90007DFE0028F9D02146074800F01FFE00BF67
:100BA0000121054800F072FE0028F9D0024800F04B
:100BB00011FEC0B210BD00000034014000B587B086
:100BC00040F6044000F0C0FD41F20D1000F0BCFD05
:100BD0004FF4F04205211E4800F014FC4FF4F0439E
:100BE000002202211A4800F052FC4FF4F043022286
:100BF0000021174800F072FC164800F0F1FD68462D
:100C000000F074FE002001904FF4827000900020EC
:100C10000290032005904FF4007003901820069076
:100C20000020049069460B4800F038FE0021094876
:100C300000F0C0FD074800F054FE064800F0C5FD76
:100C4000044800F044FEFF20FFF79CFF07B000BD02
:100C50000010024000340140704710B500F0F2F976
:100C600010BD000008B52948006840F4700027490D
:100C700008602748006840F00100254908602448C2
:100C80000830006840F080002149083108600020E9
:100C9000009002E00098401C00904CF25031009807
:100CA0008842F7D31A480830006840F0900018498D
:100CB000083108600020009002E00098401C00907D
:100CC0004CF2503100988842F7D300201049083187
:100CD000086000BF0E480830006800200028F9D1E5
:100CE0000B4800680B490840094908600A48091D7B
:100CF0000860081F006820F48020091F0860002099
:100D000003490C31086000F079FE08BD88ED00E071
:100D100000380240FFFFF6FE1030002400BFFEE75F
:100D20000FB4054B10B503A9044A029800F0A4F8CB
:100D300010BC5DF814FB0000E11300080808002057
:100D40002DE9F0412DED020B9FED3D0B2DED028BBA
:100D50009FED3D8BDDE90254C4F30A50A0F2FF364B
:100D6000142E37DA002E18DA53EC102B9DED020BFF
:100D700051EC100BFFF78AFA53EC182BFFF72EFB00
:100D800057D2002CBCBF4FF00044002551DB54EA81
:100D9000050018BF2E4C1BD14BE02E4820FA06F759
:100DA00004EA070028431FD053EC102B9DED020BE3
:100DB00051EC100BFFF76AFA53EC182BFFF70EFB00
:100DC00037D2002C03DD4FF48010F0400444BC43C4
:100DD00000252EE0332E07DCA6F114004FF0FF3182
:100DE00021FA00F73D4206D19DED020BBDEC028BCE
:100DF00002B0BDE8F08153EC102B9DED020B51ECDD
:100E0000100BFFF7E7FA53EC182BFFF7E7FA10D2B5
:100E1000002C0DDD142E08BF641C09D0C6F134006F
:100E2000012101FA00F02844A84238BF641C05469D
:100E3000BD43CDE902549DED020BD7E70000000051
:100E40009C7500883CE4377E000000000000000034
:100E50000000F03FFFFF0F0002E008C8121F08C1AA
:100E6000002AFAD170477047002001E001C1121F2B
:100E7000002AFBD1704700002DE9FF4F8BB09A4646
:100E80000F460546002606E025280BD052460D9950
:100E900090476D1C761C28780028F5D10FB030469D
:100EA000BDE8F08F0024A0460122604900E0044321
:100EB00015F8013F203B02FA03F00842F7D12878E9
:100EC0002E2817D115F8010F44F004042A280ED05B
:100ED0006FF02F022878A0F1300109290AD808EB19
:100EE000880102EB410100EB01086D1CF2E757F8A5
:100EF000048B6D1C287869283ED006DC0028CDD0F4
:100F000063280BD0642804D136E0732810D07528EC
:100F10004BD052460D999047761C85E017F8040B8C
:100F20008DF8000000208DF80100E946012003E063
:100F300057F8049B4FF0FF3061074FF0000401D4D5
:100F40000AE0641C44450DDA8442FADB19F8041007
:100F50000029F6D106E0641C8442FCDB19F8041079
:100F60000029F8D1264404E019F8010B52460D99E6
:100F70009047641EF8D257E001CF4FF00A0B0028CB
:100F800002DA40422D2102E0210504D52B218DF803
:100F90002410012103E0E10705D02021F7E70DF13E
:100FA000200908910CE00021F9E701CF4FF00A0B6E
:100FB000F9E75946FFF744F901F1300209F8012D2C
:100FC0000028F6D1ADEB090000F1200B600701D439
:100FD0004FF00108D84502DDA8EB0B0000E000202F
:100FE0008046002406E009A85246005D0D9990470E
:100FF000641C761C08988442F5DB04E030205246DD
:101000000D999047761CB8F10001A8F10108F5DCB4
:1010100005E019F8010B52460D999047761CBBF17B
:101020000001ABF1010BF4DC6D1C34E70928010071
:1010300070B504460D46164632462946204600F055
:10104000E1F970BD0448006820B103480068401E03
:1010500001490860704700000000002010B501EB56
:101060004102D30000F11002D25822F0010301EB3B
:101070004102D40000F11002135110BD10B501EB74
:101080004102D30000F11002D25842F0010301EBFB
:101090004102D40000F11002135110BD30B51346C7
:1010A00001EB4104E50000F11004625922F0606296
:1010B00042EA436201EB4104E50000F11004625191
:1010C00030BD10B501EB4102D30000F11002D2583F
:1010D00022F0010301EB4102D40000F11002135190
:1010E000002301EB4102D40000F11002135101EB87
:1010F0004102D40000F11402135101EB4102D4006B
:1011000000F11802135101EB4102D40000F11C025E
:10111000135101EB4102D40000F12002135101EB05
:101120004102D40000F12402135104290CDA01EB2E
:1011300041025300C1F3400203EB82033D229A4077
:1011400083681A4382600DE00A1FD1B201EB4102AD
:101150005300C1F3400203EB82033D229A40C3686F
:101160001A43C26010BD10B504290CDA01EB41032B
:101170005C00C1F3400304EB830302FA03F38468C9
:10118000234383600DE00B1FD9B201EB41035C00E8
:10119000C1F3400304EB830302FA03F3C46823435F
:1011A000C36010BD10B5034604290FDA01EB4100FE
:1011B0004400C1F3400004EB800402FA04F01C6810
:1011C000204008B1012010BD0020FCE7081FC1B27B
:1011D00001EB41004400C1F3400004EB800402FA3B
:1011E00004F05C68204008B10120ECE70020EAE749
:1011F00030B532B101EB4104E50000F12004635148
:1012000005E001EB4104E50000F11C04635130BD31
:1012100070B501EB4104E50000F12404645924F0A9
:10122000040501EB4104E60000F12404A55101EBA3
:101230004104E60000F118041568A55101EB4104D2
:10124000E60000F11C049568A55101EB4104E6009D
:1012500000F11404D569A55101EB4104E50000F14A
:10126000100463593F4C2340146944EA8404156A0E
:101270002C4395692C43234301EB4104E50000F125
:1012800010046351546874B901EB4104E50000F1A6
:101290001004645944F4007501EB4104E60000F1C8
:1012A0001004A5511FE05468012C0ED101EB41043C
:1012B000E50000F11004645924F4007501EB4104C9
:1012C000E60000F11004A5510DE001EB4104E5003A
:1012D00000F11004645944F4004501EB4104E600B8
:1012E00000F11004A551D46874B901EB4104E50084
:1012F00000F11004645944F4806501EB4104E600F8
:1013000000F11004A5510DE001EB4104E50000F1EE
:101310001004645924F4806501EB4104E60000F1F7
:101320001004A551546974B901EB4104E50000F1C2
:101330001004645944F4807501EB4104E60000F1A7
:101340001004A5510DE001EB4104E50000F110048B
:10135000645924F4807501EB4104E60000F11004A7
:10136000A55170BD3F87FCFF70B504460D461B4874
:1013700000F0B2FA00BFFF20FFF762F90028FAD1AF
:1013800000BFFF2221462020FFF72AFB0028F8D1CA
:1013900000BFFF20FFF754F90028FAD100BFFF2259
:1013A00029462120FFF71CFB0028F8D100BFFF20B1
:1013B000FFF746F90028FAD100BFFF2200212620BE
:1013C000FFF70EFB0028F8D100BFFF20FFF7DAFB84
:1013D000FF28FAD0FFF72AF970BD00000034014061
:1013E00070B504460D46E1B2054800F0EDFB00BFC4
:1013F0000721034800F05FFC0028F9D0204670BDAB
:1014000000440040F0B503461C6A5D6A00200DE010
:101410000126864016403EB187000F26BE40B443E9
:10142000860001FA06F63443461CB0B20828EFD312
:10143000082011E00126864016405EB1A0F10806A2
:10144000B7000F26BE40B543A0F10806B60001FA6A
:1014500006F63543461CB0B21028EBD31C625D6221
:10146000F0BD2DE9F04705460E4617461C46DDE95E
:1014700008894B463A463146284600F008F84B4664
:1014800042462146284600F029F8BDE8F087F0B52D
:1014900004460D4616462168E268002019E001273F
:1014A00087401F409FB14FEA400C032707FA0CF713
:1014B000B943470005FA07F739434FEA400C0327C1
:1014C00007FA0CF7BA43470006FA07F73A43471CF6
:1014D000B8B21028E3D32160E260F0BDF0B50C464D
:1014E0001546012C03D146681E43466002E046685B
:1014F0009E434660826800210DE001268E401E401A
:101500003EB14F000326BE40B2434E0005FA06F638
:1015100032434E1CB1B21029EFD38260F0BD0000FF
:1015200000F070FA40F603422021244800F0C2FA8D
:1015300040F603424021214800F0A6FA4FF4E13280
:101540001F4941F2110000F085FA1EA0FFF7E8FBE9
:101550004FF400712348FFF717F8FFF789F80446A6
:10156000214621A0FFF7DCFB00212248FFF7F4F918
:101570000446214620A0FFF7D3FB05220021214885
:10158000FFF7B8F91F4920A0FFF7CAFB4FF4966296
:1015900001211448FFF758FA0446214616A0FFF728
:1015A000BFFB4FF4966201211A48FFF723F919494E
:1015B00019A0FFF7B5FB00BFFEE70000000C0240DA
:1015C0000044004061207573617274207472616E12
:1015D000736D69742074657374206578616D706CC7
:1015E000652100000C020020696E69743A25640DC3
:1015F0000A0000000C00002077726974653A2564C7
:101600000D0A00000C0800206275663A25730D0A69
:10161000000000000C0A0020627566723A25730D06
:101620000A0000002DE9F04F8CB0064600200A9019
:101630003EA090E8004CC068CDE905BECDF810A0F2
:1016400007900FF2EC0ADAE9000ACDE9020A0FF27C
:10165000E00ADAE9000ACDE9000A38480068C0F378
:1016600081000B900B9820B1012804D0022828D1CA
:1016700003E0334927E0334925E03048001F006884
:1016800000F03F072D48001F0068C0F3881C2B485E
:10169000001F0068C0F30140401C4FEA4009274882
:1016A000001F006800F48008B8F5800F01D1254BB9
:1016B00000E0234BB3FBF7F000FB0CF0B0FBF9F1BB
:1016C00001E01F4900BF00BF1C480068C0F30314BD
:1016D00004A8055D21FA05F218480068C0F38224C9
:1016E00002A8055D22FA05F0099014480068C0F3CD
:1016F00042341DF8045022FA05F0089036B1012E4C
:1017000006D0022E06D0032E0AD106E00A9108E088
:101710000A9206E009980A9003E008980A9000E00F
:1017200000BF00BF0A980CB0BDE8F08F00000000B9
:1017300000000000010203040607080908380240FF
:101740000024F40040787D01074A02EB9011D1F8A3
:10175000001800F01F0301229A401143024B03EBD3
:101760009012C2F80018704700300240074A02EB9E
:101770009011D1F8001800F01F0301229A40914304
:10178000024B03EB9012C2F8001870470030024081
:10179000074A02EB9011D1F8001800F01F03012254
:1017A0009A401143024B03EB9012C2F800187047A5
:1017B0000030024021B9426842F00202426003E078
:1017C000426842F0010242607047016841F0400106
:1017D000016070470146C86880B27047C1607047B9
:1017E00010B504462749601A8C422CD009DC2648E3
:1017F0002044B0B1B0F5806F1CD0B0F5784F3DD12A
:1018000006E0B0F5E05F27D0B0F5005F36D12CE000
:1018100040F60C10FFF7BCFF40F60C10FFF7A6FFD8
:101820002DE040F60E00FFF7B3FF40F60E00FFF785
:101830009DFF24E040F60F00FFF7AAFF40F60F00DF
:10184000FFF794FF1BE040F60D10FFF7A1FF40F6F5
:101850000D10FFF78BFF12E040F61410FFF798FF12
:1018600040F61410FFF782FF09E040F61510FFF76D
:101870008FFF40F61510FFF779FF00E000BF00BFB3
:1018800010BD00000034014000C8FFBF0246906850
:10189000084008B1012070470020FCE70246002004
:1018A000106800F441500B6818434B6818438B686C
:1018B0001843CB6818430B6918434B6918438B696D
:1018C00018431060D36923F40063D3617047016843
:1018D00041F4807101607047016821F480710160FA
:1018E0007047416841F00401416070470021016088
:1018F00041608160C16041618161016170470000A8
:10190000002000213A4A126842F48032384B1A60B3
:1019100000BF401C364A126802F4003119B94FF674
:10192000FF729042F5D1324A126802F400320AB9CD
:1019300000BFFEE72E4A4032126842F080522C4B24
:1019400040331A602B4A126842F44042294B1A6015
:10195000274A08321268264B08331A601A46126862
:1019600042F400421A601A46126842F4A0521A6009
:10197000214A1B1F1A601A1F126842F080721B1F37
:101980001A6000BF1A4A126802F00072002AF9D0E9
:10199000184A126842F48032164B1A6000BF154A8A
:1019A000526802F48032002AF9D0124A126842F4D6
:1019B0000032104B1A6000BF0E4A526802F4003227
:1019C000002AF9D00A4A0832126822F00302084BB2
:1019D00008331A601A46126842F002021A6000BF09
:1019E000034A0832126802F00802002AF8D0704751
:1019F00000380240007000401964400910B5FFF73C
:101A00007FFF10BD10B5124800684FF47A71B0FB2B
:101A1000F1F4601EB0F1807F01D301200FE0601E61
:101A20004FF0E02148610F214FF0FF30FEF7E8FD55
:101A300000204FF0E021886107200861002008B1F4
:101A400000BFFEE70021481EFEF7DAFD10BD0000D2
:101A50000408002070B506460C4615463046FFF7D0
:101A600073FE204600F0B4F82946204600F038F80E
:101A70000421204600F02EF90821204600F032F91A
:101A8000204600F013F970BD7CB506460C4615469D
:101A90002846FFF759FE224607213046FFF7C8FACD
:101AA0000220002301220146CDE900043046FFF761
:101AB000D8FC7CBD7CB506460C4615462846FFF78B
:101AC00043FE224607213046FFF7B2FA02200023E8
:101AD00001220146CDE900043046FFF7C2FC7CBD7F
:101AE0002DE9F04704460D460027B846B9460026C2
:101AF0003349601A8C4235D00CDC32482044E8B1BE
:101B0000B0F5806F1FD0B0F5006F21D0B0F5406FF9
:101B100032D122E0B0F5806F29D0B0F5184F03D054
:101B2000B0F51C4F28D104E00320FFF77BFD0746EA
:101B300023E00320FFF776FD07461EE00220FFF7B3
:101B400071FD074619E00220FFF76CFD074614E01F
:101B50000220FFF767FD07460FE00220FFF762FD56
:101B600007460AE00220FFF75DFD074605E0022078
:101B7000FFF758FD074600E000BF00BFE06800F433
:101B8000004070B1780000EB5500B0FBF5F64FF661
:101B9000F07006EA0008C6F3420948EA0900A060AE
:101BA0000CE007EB5500B0FBF5F64FF6F07006EAD7
:101BB000000806F00F0948EA0900A060BDE8F087B8
:101BC0000078004000BCFFBFC1F3080242607047CC
:101BD00010B504463349601A8C424DD00CDC3248B3
:101BE0002044E0B1B0F5806F22D0B0F5006F31D065
:101BF000B0F5406F52D136E0B0F5806F45D0B0F50A
:101C0000184F03D0B0F51C4F48D11AE040F604102D
:101C1000FFF7BEFD40F60410FFF7A8FD3FE040F6D9
:101C20001100FFF7B5FD40F61100FFF79FFD36E00C
:101C300040F61200FFF7ACFD40F61200FFF796FDEC
:101C40002DE040F60510FFF7A3FD40F60510FFF765
:101C50008DFD24E040F61300FFF79AFD40F61300D7
:101C6000FFF784FD1BE040F61400FFF791FD40F6FE
:101C70001400FFF77BFD12E040F61E00FFF788FD21
:101C800040F61E00FFF772FD09E040F61F00FFF767
:101C90007FFD40F61F00FFF769FD00E000BF00BFB9
:101CA00010BD00000078004000BCFFBFC16841F4D7
:101CB0000051C160704710B5024602EB91100068F8
:101CC00001F01F040123A340184008B1012010BDFA
:101CD0000020FCE70A460021C16821F004011143FD
:101CE000C16070470A460021C16821F00801114314
:101CF000C1607047141D0008000000200C0800009F
:101D00002C050008EC1D00080C080020040A000047
:101D1000680E000881320806FF617364666701FC83
:101D2000185EB4F3C1A6BFAAB7A2BDD7B6CEC8F697
:101D3000B7B4B6D4ECABB7E7B0A2C9AAB7BFBCE49E
:101D4000C0EFCAD5B5BD76B0B2C9AAC2D7D285BEDA
:101D5000D3D7A1C1CBBEDDB0A2CBB9B6EDB7BDA381
:101D6000BBC0ADC9AABECDB3F6C9ABB5C4B4D376BA
:101D7000BDBEB0C1B6F8B4D3736572666165660165
:101D8000180B61737267647267667A73061825733D
:101D9000727467627467666D6A75796667386974AC
:101DA0006B79646A687466676A6E7466363777340E
:101DB00068793304181872696B62647266766A67B0
:101DC000667464726574687861736566644C1C67D8
:101DD000667250294B190D09FD6409FD6409FD6403
:0C1DE00009FD6409FC64014444C2EB0BE3
:04000005080001AD41
:00000001FF
