:020000040800F2
:1000000068040020C5010008C5060008BD060008F8
:10001000C1060008390200081D09000800000000A0
:10002000000000000000000000000000F3060008CF
:100030003D02000800000000F1060008F506000877
:10004000DF010008DF010008DF010008DF01000810
:10005000DF010008DF010008DF010008DF01000800
:10006000DF010008DF01000841020008DF0100088D
:10007000DF010008DF010008DF010008DF010008E0
:10008000DF010008DF010008DF010008DF010008D0
:10009000DF010008DF010008DF010008DF010008C0
:1000A000DF010008DF010008DF010008DF010008B0
:1000B000B507000815080008DF010008DF01000887
:1000C000DF010008DF010008DF010008DF01000890
:1000D000DF010008DF010008DF010008DF01000880
:1000E0003F020008DF010008DF010008DF0100080F
:1000F000DF010008DF010008DF010008DF01000860
:10010000DF010008DF01000899080008DF0100088E
:10011000DF010008DF010008DF010008DF0100083F
:10012000DF010008DF010008DF010008DF0100082F
:10013000DF010008DF010008DF010008DF0100081F
:10014000DF010008DF010008DF010008DF0100080F
:10015000DF010008DF010008DF010008DF010008FF
:10016000DF010008DF010008DF010008DF010008EF
:10017000DF010008DF010008DF01000800000000C7
:10018000DF010008DF010008DF010008DF010008CF
:10019000DF010008DF010008DF01000800000000A7
:1001A000DF010008DF010008DF010008DFF810D0E0
:1001B00000F030F800480047310C0008AFF3008031
:1001C000680400200648804706480047FEE7FEE72F
:1001D000FEE7FEE7FEE7FEE7FEE7FEE7FEE7FEE7F7
:1001E000FD060008AD01000830B50B4601460020B1
:1001F0002022012409E021FA02F59D4205D303FAE9
:1002000002F5491B04FA02F52844151EA2F1010269
:10021000F1DC30BD064C074D06E0E06840F001031C
:1002200094E8070098471034AC42F6D3FFF7C2FFBA
:10023000B01D0008D01D000800BFFEE770477047E2
:100240007047000070B586B006460D46632E01D19A
:10025000002400E03446002C7DD1002DFCD141F279
:100260000E1000F00BFFFE4931F8140000F006FFFD
:10027000FC4951F82430FC4951F8240001220221A4
:1002800000F077FCF74B53F82420F84B53F8241078
:10029000F54B53F8240000F035FCF54951F82430B3
:1002A000F14951F824000022114600F062FCF149A6
:1002B00031F8140000F0E2FE4FF0807000F014FFFF
:1002C000ED4951F8240001F067F9C720ADF80800A6
:1002D0000020ADF80A00ADF80C0041F28730049020
:1002E0000020ADF80E008DF81400E34951F8240009
:1002F00002A901F019FA0220ADF800000120ADF8C2
:1003000002000020ADF80400ADF80600DB4A32F828
:10031000242091B2D84A52F824006A4601F050FADB
:10032000D54951F8240000F09BFFD54A52F824101B
:10033000D14A52F8240001F0EAFACF4951F82400DA
:10034000012101F0E4FACC4951F82400012101F027
:10035000DAFACB4A00E013E052F82410C64A52F809
:10036000240001F0D0FAC74911F8240000221146F8
:1003700000F0B8FCC04951F8240001F0CFF96DE05D
:10038000002C6BD1012D69D1B54931F8140000F072
:1003900075FEB44951F82430B34951F824000122C4
:1003A000022100F0E6FBB24951F82430AE4951F881
:1003B00024000122022100F0DCFBAA4B53F8242088
:1003C000AA4B53F82410A84B53F8240000F09AFBD2
:1003D000A74B53F82420A54B53F82410A24B53F8F5
:1003E000240000F08FFBA34931F8140000F046FE12
:1003F000280600F079FEA04951F8240001F0CCF85D
:100400000920ADF808000020ADF80A00ADF80C0096
:1004100041F2883004900020ADF80E008DF81400F1
:10042000954951F8240002A901F07EF9924951F84A
:10043000240000F015FF904951F8240000231A46CB
:10044000032101F039FB8C4951F8240001F066F9D1
:1004500041F28731A80701F069FA00BF632E00D18D
:100460000124012C7ED1002DFCD141F20E1000F0B0
:1004700005FE7B4931F8140000F000FE794951F87F
:100480002430794951F824000122022100F071FB47
:10049000744B53F82420754B53F82410724B53F8C7
:1004A000240000F02FFB724951F824306E4951F8B6
:1004B00024000022114600F05CFB6E4931F8140064
:1004C00000F0DCFD200600F00FFE6B4951F824001F
:1004D00001F062F8C720ADF808000020ADF80A006E
:1004E000ADF80C0041F2873004900020ADF80E000A
:1004F0008DF81400604951F8240002A901F014F9A4
:100500000220ADF800000120ADF802000020ADF897
:100510000400ADF80600594A32F8242091B2564A38
:1005200052F824006A4601F04BF9534951F824006F
:1005300000F096FE524A52F824104F4A52F8240016
:1005400001F0E5F94C4951F82400012101F0DFF9EF
:10055000494951F82400012101F0D5F9484A52F8DF
:10056000241000E011E0444A52F8240001F0CBF9D5
:10057000444911F824000022114600F0B3FB3E4923
:1005800051F8240001F0CAF883E0012C7CD1012D40
:100590007FD1334931F8140000F070FD314951F832
:1005A0002430314951F824000122022100F0E1FAFF
:1005B0002F4951F824302C4951F8240001220221FE
:1005C00000F0D7FA274B53F82420284B53F8241077
:1005D000254B53F8240000F095FA254B53F82420BE
:1005E000224B53F82410204B53F8240000F08AFAD1
:1005F000204931F8140000F041FD200600F074FDA0
:100600001D4951F8240000F0C7FF0920ADF808008B
:100610000020ADF80A00ADF80C0041F288300490DB
:100620000020ADF80E008DF81400134951F8240095
:1006300002A901F079F8104951F8240000F010FEE9
:100640000D4951F8240000231A46032101F034FA21
:10065000094951F8240001F061F841F2873114E0B2
:100660002C0000201C00002014000020300000207E
:10067000240000204000002038000020440000201A
:100680004C0000205C00002003E0A00701F04EF9C0
:1006900000BF06B070BD0000014619B905480088CA
:1006A00082B204E0012902D10348008882B210B26C
:1006B00070470000100000201200002000BFFEE77D
:1006C00000BFFEE77047000010B5002807DA0A07F0
:1006D000140E054A00F00F031B1FD45403E00A0751
:1006E000130E024A135410BD18ED00E000E400E0C0
:1006F0007047704710B500F0E7F910BD08B52948FC
:10070000006840F47000274908602748006840F0FE
:1007100001002549086024480830006840F0800046
:100720002149083108600020009002E00098401C38
:1007300000904CF2503100988842F7D31A480830A4
:10074000006840F0900018490831086000200090CF
:1007500002E00098401C00904CF250310098884212
:10076000F7D3002010490831086000BF0E48083058
:10077000006800200028F9D10B4800680B490840A8
:10078000094908600A48091D0860081F006820F42C
:100790008020091F0860002003490C31086000F028
:1007A00033FD08BD88ED00E000380240FFFFF6FE93
:1007B0001030002410B50121880701F0ABF8F8B122
:1007C0000121880701F0A3F80E4800F0DEFEA0F535
:1007D0001C50103800B20C49088042F210710948D0
:1007E00000F0D7FE094800F0D0FE42F21071081A5E
:1007F00000B20749088042F21071044800F0C9FEB7
:1008000010BD00000004004010000020000C00405B
:100810001200002010B51A4A11681A4A106801F037
:1008200079F858B1164A1168164A106801F06FF845
:1008300015480088401C144908801FE011490868C9
:10084000012101F067F8C8B10E490868012101F0E3
:100850005EF80D48008800B20C49088000200A4963
:1008600008800B4A11680B4A106800F07AF928B129
:1008700006480088404200B20449088010BD0000CC
:100880005400002038000020080000201000002044
:10089000240000201400002010B51A4A51681A4A9A
:1008A000506801F037F858B1164A5168164A506836
:1008B00001F02DF815480088401C144908801FE0FD
:1008C00011494868012101F025F8C8B10E4948686E
:1008D000012101F01CF80D48008800B20C49088085
:1008E00000200A4908800B4A51680B4A506800F002
:1008F00038F928B106480088404200B2044908800F
:1009000010BD000054000020380000200A00002024
:1009100012000020240000201400002000BFFEE789
:100920000FB4054B10B503A9044A029800F018F85B
:1009300010BC5DF814FB0000E10A00086400002010
:1009400002E008C8121F08C1002AFAD17047704798
:10095000002001E001C1121F002AFBD170470000F6
:100960002DE9FF4F89B09B460446002506E0252867
:100970000BD05A460B999047641C6D1C20780028B8
:10098000F5D10DB02846BDE8F08F0027B84601220A
:10099000474900E0074314F8013F203B02FA03F007
:1009A0000842F7D120782E2819D114F8010F47F00A
:1009B00004072A280ED06FF02F022078A0F1300112
:1009C00009290CD808EB880102EB410100EB010872
:1009D000641CF2E70A98641C50F8048B0A90207893
:1009E0000028CED0642808D0692806D075281ED0EB
:1009F0005A460B9990476D1C58E00A994FF00A0926
:100A000001C90A91002802DA40422D2102E039058D
:100A100004D52B218DF82010012103E0F90704D023
:100A20002021F7E78A4608AE0DE00021FAE70A998F
:100A30004FF00A0901C90A91F7E74946FFF7D4FBCD
:100A4000303106F8011D0028F7D1ADEB060000F1AA
:100A50002009780701D44FF00108C84502DDA8EB52
:100A6000090000E000208046002706E008A85A465A
:100A7000C05D0B9990476D1C7F1C5745F6DB04E069
:100A800030205A460B9990476D1CB8F10001A8F12F
:100A90000108F5DC05E016F8010B5A460B99904762
:100AA0006D1CB9F10001A9F10109F4DC641C65E7D2
:100AB000092801000349086000BF024909680029AC
:100AC000FBD17047000000200448006820B10348B3
:100AD0000068401E014908607047000000000020C7
:100AE00070B504460D46E1B2054801F0CBF800BFF1
:100AF0000721034801F03DF90028F9D0204670BDD8
:100B000000480040F0B503461C6A5D6A00200DE015
:100B10000126864016403EB187000F26BE40B443F2
:100B2000860001FA06F63443461CB0B20828EFD31B
:100B3000082011E00126864016405EB1A0F10806AB
:100B4000B7000F26BE40B543A0F10806B60001FA73
:100B500006F63543461CB0B21028EBD31C625D622A
:100B6000F0BD02461069084008B10120704700201E
:100B7000FCE7F0B504460D4616462168E268002001
:100B800019E0012787401F409FB14FEA400C03271F
:100B900007FA0CF7B943470005FA07F739434FEA5C
:100BA000400C032707FA0CF7BA43470006FA07F789
:100BB0003A43471CB8B21028E3D32160E260F0BD8D
:100BC0002DE9F04705460E4617461C46DDE9088923
:100BD0004B463A4631462846FFF7CBFF4B46424646
:100BE0002146284600F002F8BDE8F087F0B50C4633
:100BF0001546012C03D146681E43466002E0466854
:100C00009E434660826800210DE001268E401E4012
:100C10003EB14F000326BE40B2434E0005FA06F631
:100C200032434E1CB1B21029EFD38260F0BD0000F8
:100C300000F0EEFA40F601424FF48061174800F0F0
:100C400096FF40F601424FF40061144800F079FF2E
:100C50004FF4E132124941F2120000F058FF11A0A6
:100C6000FFF75EFE01216320FFF7ECFA00F0A6F823
:100C700012E00020FFF710FD0446214611A0FFF707
:100C80004FFE0120FFF708FD0446214611A0FFF7A3
:100C900047FE6420FFF70EFFEBE700000004024070
:100CA0000048004061207573617274207472616E37
:100CB000736D69742074657374206578616D706CF0
:100CC0006521000076616C756531206973202564AB
:100CD0000A00000076616C75653220697320256416
:100CE0000A0000002DE9F04103460D461646002497
:100CF0000027A0462A48006800F4E060B0F5E06FE5
:100D000003D100BF4FF0040830E02548006800F42C
:100D1000E060B0F5C06F03D101274FF0030825E074
:100D20001F48006800F4E060B0F5A06F02D1022710
:100D3000B8461BE01A48006800F4E060B0F5806F28
:100D400003D103274FF0010810E01548006800F4B4
:100D5000E060B0F5407F03D104274FF0000805E0C4
:100D60004FF4A06000F020F80227B846C7F1040055
:100D700005FA00F4C8F104010F20C84030400443D4
:100D800024010848C45403F01F0101208840591170
:100D9000890001F1E021C1F80001BDE8F081000007
:100DA0000CED00E000E400E002490143024A11605A
:100DB000704700000000FA050CED00E000B587B0B8
:100DC0004FF4406000F05AF940F6044000F056F944
:100DD0004FF46063012202215C48FFF7CAFE4FF422
:100DE0006063022200215948FFF700FF4FF40073AF
:100DF000012202215648FFF7BCFE4FF40073022285
:100E000000215348FFF7F2FE4FF4007201214F48D2
:100E1000FFF778FE4FF4006201214C48FFF772FEA5
:100E20004FF4007201214A48FFF76CFE4FF48062D4
:100E300001214648FFF766FE4FF4885000F01EF986
:100E40000020ADF81400434800F0A6FB0920ADF8DF
:100E500000000020ADF80200ADF804004FF4FA6085
:100E600002900020ADF806008DF80C006946394864
:100E700000F05AFC0020ADF814000120ADF810007D
:100E80000020ADF81600ADF81200ADF81800ADF86E
:100E90001A0004AA00212F4800F014FA002211467B
:100EA0002C4800F032FB602200212A4800F000FBB1
:100EB00000221146274800F03BFB04AA01212548E7
:100EC00000F000FA00220121880700F01EFB6022DA
:100ED0000121204800F0ECFA002201211D4800F019
:100EE00027FB04AA02211B4800F0ECF90022022192
:100EF000184800F00AFB60220221164800F0D8FAD8
:100F000000220221134800F013FB04AA0321114818
:100F100000F0D8F9002203210E4800F0F6FA602212
:100F200003210C4800F0C4FA00220321094800F014
:100F3000FFFA0121074800F0B3FD064800F090F9E0
:100F4000044800F0EBFB07B000BD000000000240C9
:100F500000100240000001402DE9F04F8CB0064621
:100F600000200A903EA090E8004CC068CDE905BE84
:100F7000CDF810A007900FF2EC0ADAE9000ACDE9EB
:100F8000020A0FF2E00ADAE9000ACDE9000A38485D
:100F90000068C0F381000B900B9820B1012804D0A9
:100FA000022828D103E0334927E0334925E03048BF
:100FB000001F006800F03F072D48001F0068C0F3C5
:100FC000881C2B48001F0068C0F30140401C4FEAFA
:100FD00040092748001F006800F48008B8F5800F1A
:100FE00001D1254B00E0234BB3FBF7F000FB0CF0E5
:100FF000B0FBF9F101E01F4900BF00BF1C480068C9
:10100000C0F3031404A8055D21FA05F2184800682E
:10101000C0F3822402A8055D22FA05F00990144865
:101020000068C0F342341DF8045022FA05F008901D
:1010300036B1012E06D0022E06D0032E0AD106E0CC
:101040000A9108E00A9206E009980A9003E00898DD
:101050000A9000E000BF00BF0A980CB0BDE8F08F16
:101060000000000000000000010203040607080958
:10107000083802400024F40040787D01074A02EB62
:101080009011D1F8001800F01F0301229A4011437B
:10109000024B03EB9012C2F8001870470030024078
:1010A000074A02EB9011D1F8001800F01F0301224B
:1010B0009A409143024B03EB9012C2F8001870471C
:1010C00000300240074A02EB9011D1F8001800F0FE
:1010D0001F0301229A401143024B03EB9012C2F806
:1010E00000187047003002406FF08071884205D1CF
:1010F000054909680140044A116004E00249096891
:101100000143014A116070478C38024000200021E1
:101110003A4A126842F48032384B1A6000BF401CD1
:10112000364A126802F4003119B94FF6FF72904244
:10113000F5D1324A126802F400320AB900BFFEE764
:101140002E4A4032126842F080522C4B40331A60D3
:101150002B4A126842F44042294B1A60274A08324F
:101160001268264B08331A601A46126842F400428D
:101170001A601A46126842F4A0521A60214A1B1FD4
:101180001A601A1F126842F080721B1F1A6000BF9B
:101190001A4A126802F00072002AF9D0184A12683E
:1011A00042F48032164B1A6000BF154A526802F4AE
:1011B0008032002AF9D0124A126842F40032104BF1
:1011C0001A6000BF0E4A526802F40032002AF9D0B9
:1011D0000A4A0832126822F00302084B08331A60E8
:1011E0001A46126842F002021A6000BF034A08322F
:1011F000126802F00802002AF8D070470038024056
:10120000007000401964400910B5FFF77FFF10BD62
:1012100010B5124800684FF47A71B0FBF1F4601E0B
:10122000B0F1807F01D301200FE0601E4FF0E0217C
:1012300048610F214FF0FF30FFF746FA00204FF0D2
:10124000E021886107200861002008B100BFFEE7A7
:101250000021481EFFF738FA10BD000004000020EE
:10126000016841F080010160704731B101290CD063
:10127000022913D0032922D118E0836923F00C033B
:1012800083618369134383611AE0836923F44063B4
:101290008361836943EA0223836111E0C36923F018
:1012A0000C03C361C3691343C36109E0C36923F439
:1012B0004063C361C36943EA0223C36100E000BF26
:1012C00000BF704710B531B101293FD002297DD050
:1012D00003297CD1BFE0036A23F001030362836921
:1012E00023F003038361036A148823430362036AC0
:1012F00023F002030362036A9488234303626A4B68
:10130000984202D0694B98421FD1036A23F004032C
:101310000362036A548823430362036A23F00803C9
:101320000362036AD48823430362436823F480730F
:1013300043604368148923434360436823F4007384
:1013400043604368548923434360ABE0036A23F05E
:1013500010030362836923F440738361036A148872
:1013600043EA04130362036A23F020030362036A5F
:10137000948843EA041303624B4B984202D04B4BD0
:10138000984226D1036A23F040030362036A54881B
:1013900043EA04130362036A23F080030362036ACF
:1013A000D48843EA04130362436823F480634360F0
:1013B0004368148943EA84034360436823F4006369
:1013C00043604368548943EA840301E002E068E033
:1013D000436067E0036A23F480730362C36923F008
:1013E0000303C361036A148843EA04230362036AA4
:1013F00023F400730362036A948843EA04230362BC
:10140000294B984202D0294B984223D1036A23F4F6
:1014100080630362036A548843EA04230362036A15
:1014200023F400630362036AD48843EA042303625B
:10143000436823F4805343604368148943EA0413E8
:101440004360436823F4005343604368548943EA8C
:101450000413436026E0036A23F480530362C369E4
:1014600023F44073C361036A148843EA04330362BC
:10147000036A23F400530362036A948843EA043343
:101480000362094B984202D0084B984208D1436846
:1014900023F4804343604368148943EA8413436020
:1014A00000E000BF00BF10BD00000140000401408B
:1014B00031B101290CD0022913D0032922D118E01F
:1014C000836923F0700383618369134383611AE0A6
:1014D000836923F4E0438361836943EA02238361E0
:1014E00011E0C36923F07003C361C3691343C3618F
:1014F00009E0C36923F4E043C361C36943EA0223FB
:10150000C36100E000BF00BF704731B1012906D0C0
:10151000022906D0032908D105E0426306E0826370
:1015200004E0C26302E0026400E000BF00BF704755
:1015300031B101290CD0022913D0032922D118E09E
:10154000836923F0080383618369134383611AE08D
:10155000836923F400638361836943EA022383611F
:1015600011E0C36923F00803C361C3691343C36176
:1015700009E0C36923F40063C361C36943EA02233A
:10158000C36100E000BF00BF704701460020486A09
:10159000704741627047000010B504465C49601A0C
:1015A0008C426FD019DC5B49A4EB01008C424ED019
:1015B00009DCB4F1804F2ED057482044A0B3B0F5D9
:1015C000806F72D13AE0B0F5806F49D0B0F5006F0E
:1015D0004FD0B0F5406FF4D17BE0B0F5923F5BD0D7
:1015E00009DCB0F5806F73D0B0F5644F0AD0B0F568
:1015F000684F5AD147E0B0F5943F57D0B0F5963FC9
:1016000053D15CE04FF41060FFF75CFD4FF41060C5
:10161000FFF746FD79E04FF40060FFF753FD4FF40C
:101620000060FFF73DFD70E0FFE740F60100FFF7C7
:1016300049FD40F60100FFF733FD66E040F6020089
:10164000FFF740FD40F60200FFF72AFD5DE040F69F
:101650000300FFF737FD40F60300FFF721FD54E0DC
:1016600040F60400FFF72EFD40F60400FFF718FDDA
:101670004BE040F60500FFF725FD40F60500FFF7BB
:101680000FFD42E02EE040F60110FFF71BFD40F693
:101690000110FFF705FD38E04FF41160FFF712FD70
:1016A0004FF41160FFF7FCFC2FE02DE040F6111025
:1016B000FFF708FD40F61110FFF7F2FC25E040F6B9
:1016C0001210FFF7FFFC40F61210FFF7E9FC1CE0D8
:1016D00011E040F60600FFF7F5FC40F60600FFF7C4
:1016E000DFFC12E040F60700FFF7ECFC40F60700D5
:1016F000FFF7D6FC09E040F60800FFF7E3FC40F6F0
:101700000800FFF7CDFC00E000BF00BF10BD0000E7
:10171000001C0040000C004000FCFFBF016841F0CD
:1017200001010160704700000A8882621D4A9042F0
:101730000ED0B0F1804F0BD01B4A904208D01B4A0C
:10174000904205D01A4A904202D01A4A90420BD1D8
:10175000026822F07002026002684B881A4302603D
:1017600002688B881A4302608A68C262124A9042F9
:101770000AD0124A904207D0026822F440720260F6
:101780000268CB881A430260064A904202D0094A96
:10179000904201D10A7B0263426942F00102426138
:1017A00070470000000001400004004000080040B5
:1017B000000C0040000401400010004000140040F4
:1017C00070B504460E46154636B1012E26D0022EBF
:1017D00048D0032E7DD168E0206A20F0010020620D
:1017E000206A20F00A002062206A298808432062CB
:1017F000A06920F00300A061A06969880843A06186
:10180000A06920F0F000A061A069E98840EA011019
:10181000A061206A40F0010020626DE0206A20F0A3
:1018200010002062206A20F0A0002062206A29882F
:1018300040EA01102062A06920F44070A061A06914
:10184000698840EA0120A061A06920F47040A0618D
:10185000A069E98840EA0130A061206A40F01000E8
:10186000206249E0206A20F480702062206A20F41F
:1018700020602062206A298840EA01202062E06915
:1018800020F00300E061E06969880843E061E069F5
:1018900020F0F000E061E069E98840EA0110E061D1
:1018A000206A40F48070206226E0206A20F4805094
:1018B0002062206A20F400502062206A298840EAD1
:1018C00001302062E06920F44070E061E0696988DD
:1018D00000E010E040EA0120E061E06920F470409F
:1018E000E061E069E98840EA0130E061206A40F4A3
:1018F0008050206200E000BF00BFAA883146204629
:10190000FFF7B3FC70BDC2680A43C2607047CA43A8
:10191000026170470246D06800EA0103106908407E
:1019200010B10BB1012070470020FCE77FB50446E1
:101930000D46B4F1804F09D1002211461C20FFF75B
:10194000D1F94FF48050FFF799FB6EE04B48844289
:1019500009D1002211461D20FFF7C4F941F2010010
:10196000FFF78CFB61E04648844209D10022114612
:101970001E20FFF7B7F941F20200FFF77FFB54E0AA
:101980004048844209D1002211463220FFF7AAF9CB
:1019900041F20300FFF772FB47E03B48844209D164
:1019A000002211463620FFF79DF941F20400FFF7AF
:1019B00065FB3AE03548844209D1002211463720C0
:1019C000FFF790F941F20500FFF758FB2DE0304892
:1019D000844204D141F20110FFF750FB25E02D486D
:1019E000844209D1002211461820FFF77BF941F209
:1019F0001010FFF743FB18E02748844209D100226A
:101A000011461920FFF76EF941F21110FFF736FB6E
:101A10000BE02248844208D1012211461A20FFF728
:101A200061F941F21210FFF729FB4FF08070FFF7C8
:101A30005BFB2046FFF7B0FD684600F05DF8C7206D
:101A4000ADF800000020ADF80200ADF80400681EFB
:101A500002900020ADF806008DF80C006946204683
:101A6000FFF762FE01212046FFF751FF01212046CA
:101A7000FFF749FF2046FFF751FE7FBD00040040FD
:101A800000080040000C004000100040001400401E
:101A90000004014000400140004401400048014072
:101AA000012904D1426C42F40042426403E0426CDA
:101AB00022F400424264704730B5846824F0070481
:101AC000846084680C438460846940F20335AC43CD
:101AD0008461846940F201152C438461046A24F016
:101AE0000A040462046A24F0A0040462046A42EA5C
:101AF00003152C43046230BD0021018041808180A8
:101B00004FF6FF7181600021C1800173704770B58D
:101B100006460C4615463046FFF7B0FA204600F060
:101B2000B5F82946204600F039F80421204600F097
:101B30002FF90821204600F033F9204600F014F96F
:101B400070BD7CB506460C4615462846FFF796FA4A
:101B5000224607213046FEF7D5FF0220002301224E
:101B60000146CDE900043046FFF72AF87CBD7CB57C
:101B700006460C4615462846FFF780FA22460721FE
:101B80003046FEF7BFFF0220002301220146CDE9C7
:101B900000043046FFF714F87CBD00002DE9F04743
:101BA00004460D460027B846B94600263349601A58
:101BB0008C4235D00CDC32482044E8B1B0F5806F5F
:101BC0001FD0B0F5006F21D0B0F5406F32D122E0C8
:101BD000B0F5806F29D0B0F5184F03D0B0F51C4F89
:101BE00028D104E00320FFF7B7F9074623E00320DC
:101BF000FFF7B2F907461EE00220FFF7ADF90746EE
:101C000019E00220FFF7A8F9074614E00220FFF7C9
:101C1000A3F907460FE00220FFF79EF907460AE006
:101C20000220FFF799F9074605E00220FFF794F933
:101C3000074600E000BF00BFE06800F4004070B15C
:101C4000780000EB5500B0FBF5F64FF6F07006EAB1
:101C50000008C6F3420948EA0900A0600CE007EB5F
:101C60005500B0FBF5F64FF6F07006EA000806F0F6
:101C70000F0948EA0900A060BDE8F087007800403D
:101C800000BCFFBFC1F308024260704710B50446B4
:101C90003349601A8C424DD00CDC32482044E0B10C
:101CA000B0F5806F22D0B0F5006F31D0B0F5406F45
:101CB00052D136E0B0F5806F45D0B0F5184F03D063
:101CC000B0F51C4F48D11AE040F60410FFF7FAF9BE
:101CD00040F60410FFF7E4F93FE040F61100FFF78B
:101CE000F1F940F61100FFF7DBF936E040F612009B
:101CF000FFF7E8F940F61200FFF7D2F92DE040F6C1
:101D00000510FFF7DFF940F60510FFF7C9F924E0E9
:101D100040F61300FFF7D6F940F61300FFF7C0F9BD
:101D20001BE040F61400FFF7CDF940F61400FFF772
:101D3000B7F912E040F61E00FFF7C4F940F61E00A6
:101D4000FFF7AEF909E040F61F00FFF7BBF940F6D8
:101D50001F00FFF7A5F900E000BF00BF10BD0000A5
:101D60000078004000BCFFBFC16841F40051C16071
:101D7000704710B5024602EB9110006801F01F0495
:101D80000123A340184008B1012010BD0020FCE74A
:101D90000A460021C16821F004011143C160704767
:101DA0000A460021C16821F008011143C160704753
:101DB000D01D000800000020680000004009000855
:101DC000381E0008680000200004000050090008C8
:101DD0000000000000C2EB0B00000000000000004B
:101DE000000000000004024000000240200000004B
:101DF000020000001000000001000000010C000CB7
:101E0000020000000200000000040040000C00403E
:101E10000110031001000000010000000400000098
:101E20000400000004000000040000001D00000089
:081E3000320000000000000078
:04000005080001AD41
:00000001FF
