:020000040800F2
:1000000030200020C5010008010300081302000889
:10001000FD0200080D0200087D0800080000000035
:100020000000000000000000000000002F03000896
:1000300011020008000000002D0300083103000831
:10004000DF010008DF010008DF010008DF01000810
:10005000DF010008DF010008DF010008DF01000800
:10006000DF010008DF010008DF010008DF010008F0
:10007000DF010008DF010008DF010008DF010008E0
:10008000DF010008DF010008DF010008DF010008D0
:10009000DF010008DF010008DF010008DF010008C0
:1000A000DF010008DF010008DF010008DF010008B0
:1000B000DF010008DF010008DF010008DF010008A0
:1000C000DF010008DF010008DF010008DF01000890
:1000D000DF010008DF010008DF010008DF01000880
:1000E000DF010008DF010008DF010008DF01000870
:1000F000DF010008DF010008DF010008DF01000860
:10010000DF010008DF010008DF010008DF0100084F
:10011000DF010008DF010008DF010008DF0100083F
:10012000DF010008DF010008DF010008DF0100082F
:10013000DF010008DF010008DF010008DF0100081F
:10014000DF010008DF010008DF010008DF0100080F
:10015000DF010008DF010008DF010008DF010008FF
:10016000DF010008DF010008DF010008DF010008EF
:10017000DF010008DF010008DF01000800000000C7
:10018000DF010008DF010008DF010008DF010008CF
:10019000DF010008DF010008DF01000800000000A7
:1001A000DF010008DF010008DF010008DFF810D0E0
:1001B00000F01AF800480047F1090008AFF300808A
:1001C000302000200648804706480047FEE7FEE74B
:1001D000FEE7FEE7FEE7FEE7FEE7FEE7FEE7FEE7F7
:1001E00039030008AD010008064C074D06E0E06841
:1001F00040F0010394E8070098471034AC42F6D36E
:10020000FFF7D8FF580D0008780D000800BFFEE783
:10021000704700BFFEE700001CB50446632C1CD0ED
:10022000184931F8140000F01FFC174850F824005A
:100230000221CDE90010154951F8240000231A4687
:10024000012100F099FB104A52F824100F4A52F88D
:100250002400002200F0C7FB12E040F6034000F04B
:1002600003FC0F20022100231A46CDE900100121D2
:10027000074800F081FB00220F21054800F0B3FB86
:100280001CBD0000280000201800002008000020ED
:10029000000C024010B50446632C09D0074A52F8FE
:1002A0002410074A52F82400012200F09CFB04E0CD
:1002B00001220F21034800F096FB10BD180000201A
:1002C00008000020000C024010B50446632C09D041
:1002D000074A52F82410074A52F82400002200F07E
:1002E00082FB04E000220F21034800F07CFB10BDDC
:1002F0001800002008000020000C024000BFFEE7AC
:100300007047000010B5002807DA0A07140E054AE6
:1003100000F00F031B1FD45403E00A07130E024A18
:10032000135410BD18ED00E000E400E07047704782
:1003300010B500F0BFFA10BD08B52948006840F4B8
:100340007000274908602748006840F001002549EF
:10035000086024480830006840F0800021490831D6
:1003600008600020009002E00098401C00904CF2D1
:10037000503100988842F7D31A480830006840F09E
:1003800090001849083108600020009002E00098B1
:10039000401C00904CF2503100988842F7D3002066
:1003A00010490831086000BF0E480830006800207E
:1003B0000028F9D10B4800680B490840094908603A
:1003C0000A48091D0860081F006820F48020091FE2
:1003D0000860002003490C31086000F091FC08BD62
:1003E00088ED00E000380240FFFFF6FE10300024E8
:1003F00010B52A2000F05EF8002000F02FF8002051
:1004000000F02CF8002000F029F8A82000F026F8D1
:100410002B2000F04FF8002000F020F8002000F022
:100420001DF8002000F01AF8B32000F017F82C2077
:1004300000F040F810BD70B50646FFF7D9FF002464
:1004400008E0002503E0304600F062F86D1C842DC2
:10045000F9D3641CA22CF4D370BD000070B504461F
:1004600001229103124800F0BEFA00251DE000228F
:100470004FF400510E4800F0B6FA04F0800028B1A5
:100480000122D1030A4800F0AEFA05E000224FF441
:100490000041074800F0A7FA01225103044800F088
:1004A000A2FA6006040E681CC5B2082DDFDB70BD21
:1004B0000004024070B5044600224FF48041134806
:1004C00000F091FA00251DE000224FF400510F4882
:1004D00000F089FA04F0800028B10122D1030B4812
:1004E00000F081FA05E000224FF40041074800F0D7
:1004F0007AFA01225103054800F075FA6006040EED
:10050000681CC5B2082DDFDB70BD0000000402408E
:1005100070B5044601229103134800F064FA0025E7
:100520001FE000224FF400510F4800F05CFA04F481
:10053000004028B10122D1030B4800F054FA05E035
:1005400000224FF40041084800F04DFA0122510307
:10055000054800F048FA4FF6FF7000EA4404681CB2
:10056000C5B2102DDDDB70BD0004024010B504469D
:1005700000224FF40041744800F035FA322000F0B8
:100580008FF90122D103704800F02DFA322000F0DB
:1005900087F91120FFF78EFF0A2000F081F93A2039
:1005A000FFF788FF5520FFF759FF2620FFF782FF4E
:1005B0000420FFF753FFF220FFF77CFF0120FFF735
:1005C0004DFFE020FFF776FF3F20FFF747FF252094
:1005D000FFF744FF1C20FFF741FF1E20FFF73EFFFF
:1005E0002020FFF73BFF1220FFF738FF2A20FFF7FC
:1005F00035FF9020FFF732FF2420FFF72FFF112057
:10060000FFF72CFF0020FFF729FF0020FFF726FF50
:100610000020FFF723FF0020FFF720FF0020FFF757
:100620001DFFE120FFF746FF2020FFF717FF2020E6
:10063000FFF714FF2020FFF711FF2020FFF70EFF28
:100640000520FFF70BFF0020FFF708FF1520FFF73D
:1006500005FFA720FFF702FF3D20FFF7FFFE182050
:10066000FFF7FCFE2520FFF7F9FE2A20FFF7F6FE34
:100670002B20FFF7F3FE2B20FFF7F0FE3A20FFF7C9
:10068000EDFEB120FFF716FF0020FFF7E7FE002088
:10069000FFF7E4FEB420FFF70DFF0720FFF7DEFEB3
:1006A000C020FFF707FF0A20FFF7D8FE0220FFF760
:1006B000D5FEC120FFF7FEFE0220FFF7CFFEC520CA
:1006C000FFF7F8FE4F20FFF7C9FE5A20FFF7C6FEDE
:1006D000C720FFF7EFFE4020FFF7C0FE2A20FFF7FC
:1006E000E9FE0020FFF7BAFE0020FFF7B7FE00206A
:1006F000FFF7B4FEA820FFF7B1FE2B20FFF7DAFECC
:100700000020FFF7ABFE0020FFF7A8FE0020FFF758
:10071000A5FEB320FFF7A2FE3620FFF7CBFE1CB1EB
:10072000C020FFF79BFE02E0A020FFF797FEB72056
:10073000FFF7C0FE0020FFF791FE2920FFF7BAFE69
:100740002C20FFF7B7FE10BD000C02401CB540F690
:10075000034000F089F94FF40040022100231A46BB
:10076000CDE900100121424800F006F900224FF4C3
:1007700000413F4800F037F940F6014000F074F9BD
:100780004FF48040022100231A46CDE900100121D8
:10079000384800F0F1F800224FF48041354800F06D
:1007A00022F940F6014000F05FF94FF400500221B9
:1007B00000230122CDE900102E4800F0DDF84FF4AF
:1007C000005205212B4800F081F800224FF400511F
:1007D000284800F008F94FF400530122022125486F
:1007E00000F0A3F840F6014000F03EF94FF400405D
:1007F000022100231A46CDE9001001211D4800F016
:10080000BBF800224FF400411A4800F0ECF840F623
:10081000014000F029F94FF40050022100231A464C
:10082000CDE900100121134800F0A6F800224FF492
:100830000051104800F0D7F840F6014000F014F9DC
:100840004FF48050022100231A46CDE90010012107
:10085000084800F091F800224FF48051054800F05C
:10086000C2F841F20E01044800F034F91CBD00004A
:10087000000C0240000402400038004000BFFEE7C8
:1008800002E008C8121F08C1002AFAD17047704759
:10089000002001E001C1121F002AFBD170470000B7
:1008A0000349086000BF024909680029FBD170476D
:1008B000000000200448006820B103480068401E82
:1008C000014908607047000000000020F0B50346B1
:1008D0001C6A5D6A00200DE00126864016403EB18C
:1008E00087000F26BE40B443860001FA06F6344363
:1008F000461CB0B20828EFD3082011E0012686403C
:1009000016405EB1A0F10806B7000F26BE40B54301
:10091000A0F10806B60001FA06F63543461CB0B24F
:100920001028EBD31C625D62F0BDF0B504460D46A5
:1009300016462168E268002019E0012787401F4021
:100940009FB14FEA400C032707FA0CF7B943470061
:1009500005FA07F739434FEA400C032707FA0CF76B
:10096000BA43470006FA07F73A43471CB8B21028C3
:10097000E3D32160E260F0BD2DE9F04705460E4665
:1009800017461C46DDE908894B463A46314628465B
:10099000FFF7CBFF4B4642462146284600F002F8BF
:1009A000BDE8F087F0B50C461546012C03D146682A
:1009B0001E43466002E046689E434660826800210E
:1009C0000DE001268E401E403EB14F000326BE4082
:1009D000B2434E0005FA06F632434E1CB1B210295E
:1009E000EFD38260F0BD0AB1816100E0816270479F
:1009F00000F08AF96320FFF70FFC4FF4FA70FFF75D
:100A00004FFF6320FFF746FC4FF4FA70FFF748FFF3
:100A1000FFF79CFE0020FFF757FC4FF47A70FFF7BA
:100A20003FFF0220FFF7A2FD0120FFF74DFC002051
:100A3000FFF701FD0220FFF747FC13E00220FFF75C
:100A400095FD0120FFF740FC4FF6FF70FFF7F3FC28
:100A50000220FFF739FC4FF47A70FFF721FF632083
:100A6000FFF718FCEAE70000074A02EB9011D1F803
:100A7000001800F01F0301229A401143024B03EBC0
:100A80009012C2F80018704700300240074A02EB8B
:100A90009011D1F8001800F01F0301229A409143F1
:100AA000024B03EB9012C2F800187047003002406E
:100AB000074A02EB9011D1F8001800F01F03012241
:100AC0009A401143024B03EB9012C2F80018704792
:100AD0000030024030B587B005460C462046FFF78F
:100AE000C3FF284600F01EF8002001904FF48270EA
:100AF00000900020029005904FF4007003901820A1
:100B00000690002004906946284600F061F82846C7
:100B100000F002F807B030BD016841F0400101600B
:100B20007047000010B504462749601A8C422CD04B
:100B300009DC26482044B0B1B0F5806F1CD0B0F578
:100B4000784F3DD106E0B0F5E05F27D0B0F5005F0B
:100B500036D12CE040F60C10FFF7AAFF40F60C103F
:100B6000FFF794FF2DE040F60E00FFF7A1FF40F6DF
:100B70000E00FFF78BFF24E040F60F00FFF798FF11
:100B800040F60F00FFF782FF1BE040F60D10FFF765
:100B90008FFF40F60D10FFF779FF12E040F61410BA
:100BA000FFF786FF40F61410FFF770FF09E040F6EC
:100BB0001510FFF77DFF40F61510FFF767FF00E007
:100BC00000BF00BF10BD00000034014000C8FFBFDF
:100BD00002460020106800F441500B6818434B682F
:100BE00018438B681843CB6818430B6918434B694B
:100BF00018438B6918431060D36923F40063D361F1
:100C000070470000002000213A4A126842F4803206
:100C1000384B1A6000BF401C364A126802F400319B
:100C200019B94FF6FF729042F5D1324A126802F4B8
:100C300000320AB900BFFEE72E4A4032126842F085
:100C400080522C4B40331A602B4A126842F44042C7
:100C5000294B1A60274A08321268264B08331A605B
:100C60001A46126842F400421A601A46126842F4A8
:100C7000A0521A60214A1B1F1A601A1F126842F004
:100C800080721B1F1A6000BF1A4A126802F00072BD
:100C9000002AF9D0184A126842F48032164B1A60C2
:100CA00000BF154A526802F48032002AF9D0124A75
:100CB000126842F40032104B1A6000BF0E4A5268AC
:100CC00002F40032002AF9D00A4A0832126822F0EF
:100CD0000302084B08331A601A46126842F00202F7
:100CE0001A6000BF034A0832126802F00802002AA4
:100CF000F8D0704700380240007000401964400985
:100D000010B5FFF77FFF10BD10B5124800684FF413
:100D10007A71B0FBF1F4601EB0F1807F01D3012045
:100D20000FE0601E4FF0E02148610F214FF0FF30CF
:100D3000FFF7E8FA00204FF0E02188610720086102
:100D4000002008B100BFFEE70021481EFFF7DAFAD5
:100D500010BD000004000020780D000800000020F5
:100D60003000000080080008A80D000830000020B6
:100D700000200000900800080000000000C2EB0BFB
:100D8000000C0240000C0240000C0240000C02402B
:100D90000100000002000000040000000800000044
:080DA000030C030C030C030C0F
:04000005080001AD41
:00000001FF
