:020000040800F2
:1000000038040020C5010008B90300086302000895
:10001000B50300085D020008A90400080000000004
:10002000000000000000000000000000E7030008DE
:100030006102000800000000E5030008E903000871
:10004000DF010008DF010008DF010008DF01000810
:10005000DF010008DF010008DF010008DF01000800
:10006000DF010008DF010008DF010008DF010008F0
:10007000DF010008DF010008DF010008DF010008E0
:10008000DF010008DF010008DF010008DF010008D0
:10009000DF010008DF010008DF010008DF010008C0
:1000A000DF010008DF010008DF010008DF010008B0
:1000B000DF010008DF010008DF010008DF010008A0
:1000C000DF010008DF010008DF010008DF01000890
:1000D000DF010008DF010008DF010008DF01000880
:1000E000DF010008DF010008DF010008DF01000870
:1000F000DF010008DF010008DF010008DF01000860
:10010000DF010008DF010008DF010008DF0100084F
:10011000DF010008DF010008DF010008DF0100083F
:10012000DF010008DF010008DF010008DF0100082F
:10013000DF010008DF010008DF010008DF0100081F
:10014000DF010008DF010008DF010008DF0100080F
:10015000DF010008DF010008DF010008DF010008FF
:10016000DF010008DF010008DF010008DF010008EF
:10017000DF010008DF010008DF01000800000000C7
:10018000DF010008DF010008DF010008DF010008CF
:10019000DF010008DF010008DF01000800000000A7
:1001A000DF010008DF010008DF010008DFF810D0E0
:1001B00000F042F800480047350C0008AFF300801B
:1001C000380400200648804706480047FEE7FEE75F
:1001D000FEE7FEE7FEE7FEE7FEE7FEE7FEE7FEE7F7
:1001E000F1030008AD01000840EA01039B0703D0BA
:1001F00009E008C9121F08C0042AFAD203E011F866
:10020000013B00F8013B521EF9D2704730B50B4656
:10021000014600202022012409E021FA02F59D4236
:1002200005D303FA02F5491B04FA02F52844151E0A
:10023000A2F10102F1DC30BD064C074D06E0E0689A
:1002400040F0010394E8070098471034AC42F6D31D
:10025000FFF7B0FF80130008A013000800BFFEE7FF
:10026000704700BFFEE700001CB506236A463B212D
:10027000D12000F0A3FB9DF801009DF8001040EA9A
:10028000012000B20A4908809DF803009DF8021081
:1002900040EA012000B2074908809DF805009DF85A
:1002A000041040EA012000B2034908801CBD000090
:1002B0000A0000200C0000200E0000201CB50623C0
:1002C0006A464321D12000F079FB9DF801009DF89A
:1002D000001040EA012000B20A4908809DF803009E
:1002E0009DF8021040EA012000B2074908809DF8FD
:1002F00005009DF8041040EA012000B2034908807F
:100300001CBD0000040000200600002008000020A2
:1003100008B500F037F880226B21D12000F0FEFBF9
:10032000022000F08DF900BF01236A466B21D12025
:1003300000F044FB9DF800004128F5D101226B211B
:10034000D12000F0EBFB00226C21D12000F0E6FB75
:1003500001221A21D12000F0E1FB07221921D1202E
:1003600000F0DCFB18221B21D12000F0D7FB10226B
:100370001C21D12000F0D2FB03221D21D12000F04E
:10038000CDFB08BD08B500BF01236A467521D12009
:1003900000F014FB9DF800001228F5D101A000F038
:1003A00085F808BD49434D3230363032206973201C
:1003B0006F6B000000BFFEE77047000010B500281B
:1003C00007DA0A07140E054A00F00F031B1FD45466
:1003D00003E00A07130E024A135410BD18ED00E0A3
:1003E00000E400E07047704710B500F033F910BD2D
:1003F00008B52948006840F470002749086027487C
:10040000006840F001002549086024480830006871
:1004100040F080002149083108600020009002E08F
:100420000098401C00904CF2503100988842F7D35D
:100430001A480830006840F09000184908310860F8
:100440000020009002E00098401C00904CF25031D7
:1004500000988842F7D3002010490831086000BF97
:100460000E480830006800200028F9D10B480068C9
:100470000B490840094908600A48091D0860081F1F
:10048000006820F48020091F0860002003490C3117
:10049000086000F0E5FD08BD88ED00E0003802408E
:1004A000FFFFF6FE1030002400BFFEE70FB4054B3F
:1004B00010B503A9044A029800F018F810BC5DF8C2
:1004C00014FB00006D0600083400002002E008C89C
:1004D000121F08C1002AFAD170477047002001E0BE
:1004E00001C1121F002AFBD1704700002DE9FF4F08
:1004F00089B09B460446002506E025280BD05A46C5
:100500000B999047641C6D1C20780028F5D10DB024
:100510002846BDE8F08F0027B8460122474900E091
:10052000074314F8013F203B02FA03F00842F7D1D9
:1005300020782E2819D114F8010F47F004072A2833
:100540000ED06FF02F022078A0F1300109290CD8CD
:1005500008EB880102EB410100EB0108641CF2E7A3
:100560000A98641C50F8048B0A9020780028CED09A
:10057000642808D0692806D075281ED05A460B99E1
:1005800090476D1C58E00A994FF00A0901C90A9179
:10059000002802DA40422D2102E0390504D52B2142
:1005A0008DF82010012103E0F90704D02021F7E79E
:1005B0008A4608AE0DE00021FAE70A994FF00A09D1
:1005C00001C90A91F7E74946FFF720FE303106F8E6
:1005D000011D0028F7D1ADEB060000F120097807D6
:1005E00001D44FF00108C84502DDA8EB090000E086
:1005F00000208046002706E008A85A46C05D0B99F7
:1006000090476D1C7F1C5745F6DB04E030205A46AE
:100610000B9990476D1CB8F10001A8F10108F5DCB9
:1006200005E016F8010B5A460B9990476D1CB9F17D
:100630000001A9F10109F4DC641C65E70928010047
:100640000349086000BF024909680029FBD17047CF
:10065000000000200448006820B103480068401EE4
:1006600001490860704700000000002070B5044692
:100670000D46E1B2054800F0EDFD00BF072103483B
:1006800000F05FFE0028F9D0204670BD0048004011
:10069000F0B503461C6A5D6A00200DE00126864025
:1006A00016403EB187000F26BE40B443860001FAD3
:1006B00006F63443461CB0B20828EFD3082011E0F8
:1006C0000126864016405EB1A0F10806B7000F264D
:1006D000BE40B543A0F10806B60001FA06F6354360
:1006E000461CB0B21028EBD31C625D62F0BDF0B5C1
:1006F00004460D4616462168E268002019E00127ED
:1007000087401F409FB14FEA400C032707FA0CF7C0
:10071000B943470005FA07F739434FEA400C03276E
:1007200007FA0CF7BA43470006FA07F73A43471CA3
:10073000B8B21028E3D32160E260F0BD2DE9F047A4
:1007400005460E4617461C46DDE908894B463A46E3
:1007500031462846FFF7CBFF4B4642462146284606
:1007600000F002F8BDE8F087F0B50C461546012C04
:1007700003D146681E43466002E046689E434660D9
:10078000826800210DE001268E401E403EB14F00E0
:100790000326BE40B2434E0005FA06F632434E1C15
:1007A000B1B21029EFD38260F0BD012904D10268F3
:1007B00042F48062026003E0026822F48062026018
:1007C000704721B9026842F40062026003E00268E7
:1007D00022F40062026070472DE9F05F04460E4685
:1007E0009346022000F0F6FA07462E48B7FBF0F8D1
:1007F000B8F1320F01D34FF03208D4F804A02AF038
:100800003F0A4AEA080AC4F804A02748864218D8D2
:100810002448B7FBF0F000F10109B9F1320F02D31F
:100820003220206201E0C4F820907000B7FBF0F5A0
:10083000042D00D20425E069C5F30B010843E061F3
:100840002EE01A4886422BD84FF4967008FB00F031
:100850004FF47A71B0FBF1F0401C2062BBF1000F45
:1008600008D106EB4600B7FBF0F5E06920F48040C4
:10087000E06109E006EBC60000EB0610B7FBF0F5FF
:10088000E06940F48040E061C5F30B0008B945F031
:100890000105E06940F40040E061E0692843E0615F
:1008A000BDE8F09F40420F00A0860100801A0600BC
:1008B0007CB504460D4640F6054000F01DFB0220C5
:1008C000009001231A46014601901648FFF736FFB3
:1008D0000120022103460246CDE900101148FFF72E
:1008E0002DFF022204210F48FFF7D2FE012204212E
:1008F0000C48FFF7CDFE41F2160000F0FDFA002291
:1009000021460948FFF768FF2B460022114606489A
:1009100000F045F8044800F010F801210248FFF704
:1009200044FF7CBD001402400058004001460869A5
:10093000C0B27047CAB202617047016841F001015C
:100940000160704710B540F20152914202D14269F4
:1009500082690AE000EB9112126801F01F04012382
:10096000A3409A4300EB91131A6010BD10B50246E4
:1009700002EB9110006801F01F040123A34018400E
:1009800008B1012010BD0020FCE712F1020F02D1D6
:1009900021F0010101E041F001010161704730B532
:1009A0000C460021016821F0020121430160C3F3DC
:1009B000090342EA0305856030BD00002DE9F041DE
:1009C00006460F4615461C4600BF40F201615248DC
:1009D000FFF7CCFF0028F8D1022C03D100214E48AC
:1009E000FFF7EFFE4C4800F0F1F800BF4FF4A061B4
:1009F0004948FFF7BBFF0028F8D06FF001023146ED
:100A00004548FFF7C2FF00BF40F201514248FFF7DF
:100A1000ADFF0028F8D040F201513F48FFF792FFA8
:100A200000BF40F207513C48FFF7A0FF0128F8D172
:100A30003948FFF782FF39463748FFF77BFF00BF91
:100A400040F202513448FFF791FF0028F8D03248B5
:100A500000F0BCF800BF4FF4A0612F48FFF786FFFD
:100A60000028F8D0012231462B48FFF78EFF032CD7
:100A700003DA00212848FFF798FE00BF40F2015139
:100A80002548FFF773FF0028F8D040F201512248B3
:100A9000FFF758FF012C02D11F4800F09CF827E017
:100AA000032C0BD100BF40F202511B48FFF75EFF41
:100AB0000028F8D000211848FFF777FE022C0AD151
:100AC00000BF40F202511448FFF750FF0028F8D051
:100AD000114800F080F840F206510F48FFF746FF3A
:100AE00030B10D48FFF722FF28706D1C601E84B2E4
:100AF000002CD5D100BF0848006800F40070002821
:100B0000F9D101210448FFF750FE01210248FFF707
:100B100058FEBDE8F08100000058004070B5044662
:100B20000E46154600BF40F201612748FFF71EFF41
:100B30000028F8D1244800F049F800BF4FF4A06124
:100B40002148FFF713FF0028F8D06FF0010221467B
:100B50001D48FFF71AFF00BF40F201511A48FFF786
:100B600005FF0028F8D040F201511748FFF7EAFED0
:100B700000BF40F207511448FFF7F8FE0028F8D0F4
:100B800031461148FFF7D6FE00BF40F202510E4831
:100B9000FFF7ECFE0028F8D029460B48FFF7CAFE05
:100BA00000BF40F202510848FFF7E0FE0028F8D0ED
:100BB000054800F010F800BF0348006800F400701A
:100BC0000028F9D170BD000000580040016841F4D0
:100BD000807101607047016841F4007101607047E5
:100BE00010B50446104931F8140000F085F90F499A
:100BF00051F824300E4951F8240000220121FFF75A
:100C000076FD0A4951F82430094951F8240002229E
:100C10000021FFF7A9FD054850F82400044951F8C8
:100C20002410886210BD00002C000020200000204D
:100C30001400002088B000F017FA0020FFF7D0FF62
:100C40000120FFF7CDFF40F601424FF480612948B3
:100C500000F076FA40F601424FF40061254800F0BA
:100C600059FA4FF4E132244941F2120000F024FA1B
:100C7000202222A16846FFF7B7FA69461E4800F015
:100C800035FA00212548FFF713FEFFF741FB2FE05F
:100C90004FF47A70FFF7D4FCFFF7E6FA2048B0F97A
:100CA000001020A0FFF702FC2448B0F9001024A097
:100CB000FFF7FCFB2848B0F9001028A0FFF7F6FB6F
:100CC0004FF47A70FFF7BCFCFFF7F8FA2948B0F947
:100CD000001029A0FFF7EAFB2E48B0F900102EA063
:100CE000FFF7E4FB3348B0F9001033A0FFF7DEFB59
:100CF000CEE7000000040240004800406120757308
:100D0000617274207472616E736D6974207465739E
:100D100074206578616D706C65210A00801A060088
:100D20000A00002069636D5F6163635F782076610C
:100D30006C7565206973202564200A000C00002072
:100D400069636D5F6163635F792076616C756520AF
:100D50006973202564200A000E00002069636D5F1E
:100D60006163635F7A2076616C7565206973202505
:100D700064200A000400002069636D5F6779726F68
:100D80005F782076616C7565206973202564200A80
:100D9000000000000600002069636D5F6779726FD4
:100DA0005F792076616C7565206973202564200A5F
:100DB000000000000800002069636D5F6779726FB2
:100DC0005F7A2076616C7565206973202564200A3E
:100DD000000000002DE9F04F8CB0064600200A907C
:100DE0003EA090E8004CC068CDE905BECDF810A04B
:100DF00007900FF2EC0ADAE9000ACDE9020A0FF2D5
:100E0000E00ADAE9000ACDE9000A38480068C0F3D0
:100E100081000B900B9820B1012804D0022828D122
:100E200003E0334927E0334925E03048001F0068DC
:100E300000F03F072D48001F0068C0F3881C2B48B6
:100E4000001F0068C0F30140401C4FEA40092748DA
:100E5000001F006800F48008B8F5800F01D1254B11
:100E600000E0234BB3FBF7F000FB0CF0B0FBF9F113
:100E700001E01F4900BF00BF1C480068C0F3031415
:100E800004A8055D21FA05F218480068C0F3822421
:100E900002A8055D22FA05F0099014480068C0F325
:100EA00042341DF8045022FA05F0089036B1012EA4
:100EB00006D0022E06D0032E0AD106E00A9108E0E1
:100EC0000A9206E009980A9003E008980A9000E068
:100ED00000BF00BF0A980CB0BDE8F08F0000000012
:100EE0000000000001020304060708090838024058
:100EF0000024F40040787D01074A02EB9011D1F8FC
:100F0000001800F01F0301229A401143024B03EB2B
:100F10009012C2F80018704700300240074A02EBF6
:100F20009011D1F8001800F01F0301229A4091435C
:100F3000024B03EB9012C2F80018704700300240D9
:100F4000074A02EB9011D1F8001800F01F030122AC
:100F50009A401143024B03EB9012C2F800187047FD
:100F600000300240002000213A4A126842F48032E8
:100F7000384B1A6000BF401C364A126802F4003138
:100F800019B94FF6FF729042F5D1324A126802F455
:100F900000320AB900BFFEE72E4A4032126842F022
:100FA00080522C4B40331A602B4A126842F4404264
:100FB000294B1A60274A08321268264B08331A60F8
:100FC0001A46126842F400421A601A46126842F445
:100FD000A0521A60214A1B1F1A601A1F126842F0A1
:100FE00080721B1F1A6000BF1A4A126802F000725A
:100FF000002AF9D0184A126842F48032164B1A605F
:1010000000BF154A526802F48032002AF9D0124A11
:10101000126842F40032104B1A6000BF0E4A526848
:1010200002F40032002AF9D00A4A0832126822F08B
:101030000302084B08331A601A46126842F0020293
:101040001A6000BF034A0832126802F00802002A40
:10105000F8D0704700380240007000401964400921
:1010600010B5FFF77FFF10BD10B5124800684FF4B0
:101070007A71B0FBF1F4601EB0F1807F01D30120E2
:101080000FE0601E4FF0E02148610F214FF0FF306C
:10109000FFF794F900204FF0E021886107200861F4
:1010A000002008B100BFFEE70021481EFFF786F9C7
:1010B00010BD00001000002070B506460C46154615
:1010C0003046FFF719FF204600F0C8F829462046B1
:1010D00000F04CF80421204600F042F90821204697
:1010E00000F046F9204600F027F970BD70B50546BE
:1010F0000C460BE014F8011B284600F0ABF800BFCB
:101100000721284600F01DF90028F9D02078002892
:10111000F0D170BD7CB506460C4615462846FFF753
:10112000EBFE224607213046FFF7B2FA02200023E9
:1011300001220146CDE900043046FFF7FFFA7CBDED
:101140007CB506460C4615462846FFF7D5FE2246D6
:1011500007213046FFF79CFA0220002301220146B6
:10116000CDE900043046FFF7E9FA7CBD2DE9F047F0
:1011700004460D460027B846B94600263349601A92
:101180008C4235D00CDC32482044E8B1B0F5806F99
:101190001FD0B0F5006F21D0B0F5406F32D122E002
:1011A000B0F5806F29D0B0F5184F03D0B0F51C4FC3
:1011B00028D104E00320FFF70DFE074623E00320BB
:1011C000FFF708FE07461EE00220FFF703FE074672
:1011D00019E00220FFF7FEFD074614E00220FFF7AA
:1011E000F9FD07460FE00220FFF7F4FD07460AE08D
:1011F0000220FFF7EFFD074605E00220FFF7EAFDBA
:10120000074600E000BF00BFE06800F4004070B196
:10121000780000EB5500B0FBF5F64FF6F07006EAEB
:101220000008C6F3420948EA0900A0600CE007EB99
:101230005500B0FBF5F64FF6F07006EA000806F030
:101240000F0948EA0900A060BDE8F0870078004077
:1012500000BCFFBFC1F308024260704710B50446EE
:101260003349601A8C424DD00CDC32482044E0B146
:10127000B0F5806F22D0B0F5006F31D0B0F5406F7F
:1012800052D136E0B0F5806F45D0B0F5184F03D09D
:10129000B0F51C4F48D11AE040F60410FFF750FE9D
:1012A00040F60410FFF73AFE3FE040F61100FFF76A
:1012B00047FE40F61100FFF731FE36E040F612001F
:1012C000FFF73EFE40F61200FFF728FE2DE040F645
:1012D0000510FFF735FE40F60510FFF71FFE24E06E
:1012E00040F61300FFF72CFE40F61300FFF716FE42
:1012F0001BE040F61400FFF723FE40F61400FFF752
:101300000DFE12E040F61E00FFF71AFE40F61E002A
:10131000FFF704FE09E040F61F00FFF711FE40F65C
:101320001F00FFF7FBFD00E000BF00BF10BD000085
:101330000078004000BCFFBFC16841F40051C160AB
:10134000704710B5024602EB9110006801F01F04CF
:101350000123A340184008B1012010BD0020FCE784
:101360000A460021C16821F004011143C1607047A1
:101370000A460021C16821F008011143C16070478D
:10138000A01300080000002038000000CC04000872
:10139000D81300083800002000040000DC04000816
:1013A000000000000000000000000000000000003D
:1013B00000C2EB0B000C0240000C0240000C02408B
:1013C000040000000100000002000000030C030CF8
:0813D000030C00000000000006
:04000005080001AD41
:00000001FF
