:020000040800F2
:1000000030040020C5010008310300081302000875
:100010002D0300080D020008210400080000000064
:100020000000000000000000000000005F03000866
:1000300011020008000000005D03000861030008D1
:10004000DF010008DF010008DF010008DF01000810
:10005000DF010008DF010008DF010008DF01000800
:10006000DF010008DF010008DF010008DF010008F0
:10007000DF010008DF010008DF010008DF010008E0
:10008000DF010008DF010008DF010008DF010008D0
:10009000DF010008DF010008DF010008DF010008C0
:1000A000DF010008DF010008DF010008DF010008B0
:1000B000DF010008DF010008DF010008DF010008A0
:1000C000DF010008DF010008DF010008DF01000890
:1000D000DF010008DF010008DF010008DF01000880
:1000E000DF010008DF010008DF010008DF01000870
:1000F000DF010008DF010008DF010008DF01000860
:10010000DF010008DF010008DF010008DF0100084F
:10011000DF010008DF010008DF010008DF0100083F
:10012000DF010008DF010008DF010008DF0100082F
:10013000DF010008DF010008DF010008DF0100081F
:10014000DF010008DF010008DF010008DF0100080F
:10015000DF010008DF010008DF010008DF010008FF
:10016000DF010008DF010008DF010008DF010008EF
:10017000DF010008DF010008DF01000800000000C7
:10018000DF010008DF010008DF010008DF010008CF
:10019000DF010008DF010008DF01000800000000A7
:1001A000DF010008DF010008DF010008DFF810D0E0
:1001B00000F01AF8004800473B050008AFF3008044
:1001C000300400200648804706480047FEE7FEE767
:1001D000FEE7FEE7FEE7FEE7FEE7FEE7FEE7FEE7F7
:1001E00069030008AD010008064C074D06E0E06811
:1001F00040F0010394E8070098471034AC42F6D36E
:10020000FFF7D8FF740700089407000800BFFEE757
:10021000704700BFFEE700001CB50446632C1CD0ED
:10022000184931F8140000F0E9F9174850F8240093
:100230000221CDE90010154951F8240000231A4687
:10024000012100F03CF9104A52F824100F4A52F8EC
:100250002400002200F06AF912E040F6034000F0AA
:10026000CDF90F20022100231A46CDE9001001210B
:10027000074800F024F900220F21054800F056F944
:100280001CBD0000280000201800002008000020ED
:10029000000C024010B50446632C09D0074A52F8FE
:1002A0002410074A52F82400012200F03FF904E02C
:1002B00001220F21034800F039F910BD1800002079
:1002C00008000020000C024010B50446632C09D041
:1002D000074A52F82410074A52F82400002200F07E
:1002E00025F904E000220F21034800F01FF910BD9A
:1002F0001800002008000020000C024010B5044641
:10030000632C08D0064A52F82410064A52F82400FA
:1003100000F011F903E00F21034800F00CF910BDC3
:100320001800002008000020000C024000BFFEE77B
:100330007047000010B5002807DA0A07140E054AB6
:1003400000F00F031B1FD45403E00A07130E024AE8
:10035000135410BD18ED00E000E400E07047704752
:1003600010B500F079F810BD08B52948006840F4D0
:100370007000274908602748006840F001002549BF
:10038000086024480830006840F0800021490831A6
:1003900008600020009002E00098401C00904CF2A1
:1003A000503100988842F7D31A480830006840F06E
:1003B00090001849083108600020009002E0009881
:1003C000401C00904CF2503100988842F7D3002036
:1003D00010490831086000BF0E480830006800204E
:1003E0000028F9D10B4800680B490840094908600A
:1003F0000A48091D0860081F006820F48020091FB2
:100400000860002003490C31086000F087F908BD3E
:1004100088ED00E000380240FFFFF6FE10300024B7
:1004200000BFFEE702E008C8121F08C1002AFAD187
:1004300070477047002001E001C1121F002AFBD164
:10044000704700000349086000BF0249096800299D
:10045000FBD17047000000200448006820B1034829
:100460000068401E0149086070470000000000203D
:10047000F0B504460D4616462168E268002019E0F2
:10048000012787401F409FB14FEA400C032707FA1E
:100490000CF7B943470005FA07F739434FEA400C18
:1004A000032707FA0CF7BA43470006FA07F73A435F
:1004B000471CB8B21028E3D32160E260F0BD2DE9FB
:1004C000F04705460E4617461C46DDE908894B46AF
:1004D0003A4631462846FFF7CBFF4B464246214677
:1004E000284600F002F8BDE8F087F0B50C46154646
:1004F000012C03D146681E43466002E046689E43D5
:100500004660826800210DE001268E401E403EB10B
:100510004F000326BE40B2434E0005FA06F63243B2
:100520004E1CB1B21029EFD38260F0BD0AB18161D7
:1005300000E081627047C162704700F0F3F8632009
:10054000FFF76AFE4FF4FA70FFF77CFF6320FFF7B6
:10055000D5FE4FF4FA70FFF775FF6320FFF7CEFE6C
:100560004FF4FA70FFF76EFF6320FFF7C7FE4FF4FA
:10057000FA70FFF767FF3FE00020FFF7A5FE0120BC
:10058000FFF788FE0220FFF785FE0320FFF782FEBB
:100590004FF47A70FFF756FF0120FFF795FE002019
:1005A000FFF778FE0220FFF775FE0220FFF772FECC
:1005B0004FF47A70FFF746FF0220FFF785FE002018
:1005C000FFF768FE0120FFF765FE0320FFF762FEDC
:1005D0004FF47A70FFF736FF0320FFF775FE002017
:1005E000FFF758FE0120FFF755FE0220FFF752FEED
:1005F0004FF47A70FFF726FFBEE70000074A02EBD0
:100600009011D1F8001800F01F0301229A40114305
:10061000024B03EB9012C2F8001870470030024002
:10062000002000213A4A126842F48032384B1A60A6
:1006300000BF401C364A126802F4003119B94FF667
:10064000FF729042F5D1324A126802F400320AB9C0
:1006500000BFFEE72E4A4032126842F080522C4B17
:1006600040331A602B4A126842F44042294B1A6008
:10067000274A08321268264B08331A601A46126855
:1006800042F400421A601A46126842F4A0521A60FC
:10069000214A1B1F1A601A1F126842F080721B1F2A
:1006A0001A6000BF1A4A126802F00072002AF9D0DC
:1006B000184A126842F48032164B1A6000BF154A7D
:1006C000526802F48032002AF9D0124A126842F4C9
:1006D0000032104B1A6000BF0E4A526802F400321A
:1006E000002AF9D00A4A0832126822F00302084BA5
:1006F00008331A601A46126842F002021A6000BFFC
:10070000034A0832126802F00802002AF8D0704743
:1007100000380240007000401964400910B5FFF72E
:100720007FFF10BD10B5124800684FF47A71B0FB1E
:10073000F1F4601EB0F1807F01D301200FE0601E54
:100740004FF0E02148610F214FF0FF30FFF7F2FD3D
:1007500000204FF0E021886107200861002008B1E7
:1007600000BFFEE70021481EFFF7E4FD10BD0000BA
:100770000400002094070008000000203000000062
:1007800024040008C4070008300000200004000012
:10079000340400080000000000C2EB0B000C024013
:1007A000000C0240000C0240000C0240010000005E
:1007B000020000000400000008000000030C030C0D
:0407C000030C030C17
:04000005080001AD41
:00000001FF
