:020000040800F2
:1000000018D40020C5010008B9090008E508000857
:10001000B50900088F0200084D1700080000000015
:10002000000000000000000000000000270E000893
:10003000E903000800000000250E0008790E000802
:10004000DF010008DF010008DF010008DF01000810
:10005000DF010008DF010008DF010008DF01000800
:10006000DF010008DF010008DF010008DF010008F0
:10007000DF010008DF010008DF010008DF010008E0
:10008000DF010008DF010008DF010008DF010008D0
:10009000DF010008DF010008DF010008ED030008B0
:1000A000DF010008E1130008C5130008DF010008A4
:1000B00021140008E514000869150008DF01000894
:1000C000DF010008DF010008DF010008DF01000890
:1000D000DF010008D1160008DF010008DF01000879
:1000E000DF010008DF010008DF010008DF01000870
:1000F000DF010008DF010008DF010008DF01000860
:10010000DF010008DF010008AD150008DF0100086D
:10011000DF010008DF010008DF01000831160008D8
:10012000DF010008DF010008DF010008DF0100082F
:10013000DF010008DF010008DF010008DF0100081F
:10014000DF010008DF010008DF010008DF0100080F
:10015000DF010008DF01000861030008DF0100087B
:10016000DF010008DF010008DF010008DF010008EF
:10017000DF010008DF01000845030008000000005F
:10018000DF010008DF010008DF010008DF010008CF
:10019000DF010008DF010008DF01000800000000A7
:1001A000DF010008DF010008DF010008DFF810D0E0
:1001B00000F030F80048004739250008AFF3008010
:1001C00018D400200648804706480047FEE7FEE7AF
:1001D000FEE7FEE7FEE7FEE7FEE7FEE7FEE7FEE7F7
:1001E000810E0008AD01000830B50B460146002025
:1001F0002022012409E021FA02F59D4205D303FAE9
:1002000002F5491B04FA02F52844151EA2F1010269
:10021000F1DC30BD064C074D06E0E06840F001031C
:1002200094E8070098471034AC42F6D3FFF7C2FFBA
:10023000743E0008943E000870B58C1810F8015BFD
:1002400015F0070301D110F8013B2A1106D110F86F
:10025000012B03E010F8016B01F8016B5B1EF9D173
:100260002B0705D40023521E0DD401F8013BFAE7F9
:1002700010F8013BCB1A921C03E013F8015B01F864
:10028000015B521EF9D5A142D8D3002070BD00BF3A
:10029000FEE710B502F02EFB10BD000038B5044695
:1002A00045F6200000231A4604490090044801F056
:1002B000B5FE204600F01AFC38BD0000705B00203F
:1002C0005003002070B50546082D1FDA294600208E
:1002D00000F0EEFB002406E000224021782002F02E
:1002E000BDF8601CC4B2802CF6DB681CC1B20020D3
:1002F00000F0DEFB002406E000224021782002F01E
:10030000ADF8601CC4B2802CF6DB19E0082D17D1C3
:100310000025002612E02946002000F0C9FB002439
:1003200006E000224021782002F098F8601CC4B258
:10033000802CF6DB681CC5B2701CC6B2082EEADB46
:1003400070BD000010B5012001F014FB012804D19C
:1003500001F008FB01200149087010BD8402002053
:1003600010B5102207211E4801F089FC98B1012028
:100370001C490870022002F0D3F8202207211848F7
:1003800001F05EFC10220721154801F03AFC07211C
:10039000134801F0B1FB01220721114801F06FFC65
:1003A00010B1022002F0BCF8042207210C4801F031
:1003B00066FC10B1022002F0B3F8082207210848B9
:1003C00001F05DFC10B1022002F0AAF81022072112
:1003D000034801F054FC10B1022002F0A1F810BD56
:1003E00000640240840200207047000010B54FF402
:1003F000007001F001FE01280FD1400201F0F6FD6E
:10040000002002F08DF845F620020721144801F083
:10041000E5FD0721124801F07FFB4FF4807001F0E9
:10042000EBFD012802D1000201F0E0FD802001F087
:10043000E3FD012802D1802001F0D8FD402001F029
:10044000DBFD012802D1402001F0D0FD202001F089
:10045000D3FD012802D1202001F0C8FD10BD00000D
:100460000064024070B586B006460D46632E01D189
:10047000002400E03446002C7DD1002DFCD141F257
:100480000E1002F0BDFCFE4931F8140002F0B8FC79
:10049000FC4951F82430FC4951F824000122022182
:1004A00001F07FFEF74B53F82420F84B53F824104B
:1004B000F54B53F8240001F02FFEF54951F8243094
:1004C000F14951F824000022114601F06AFEF14979
:1004D00031F8140002F094FC4FF0807002F0C6FC7A
:1004E000ED4951F8240003F03FF8C720ADF80800AB
:1004F0000020ADF80A00ADF80C0041F287300490FE
:100500000020ADF80E008DF81400E34951F82400E6
:1005100002A903F0F1F80220ADF800000120ADF8C7
:1005200002000020ADF80400ADF80600DB4A32F806
:10053000242091B2D84A52F824006A4603F028F9E0
:10054000D54951F8240002F05FFED54A52F8241034
:10055000D14A52F8240003F0C2F9CF4951F82400DF
:10056000012103F0BCF9CC4951F82400012103F02A
:10057000B2F9CB4A00E013E052F82410C64A52F810
:10058000240003F0A8F9C74911F8240000221146FD
:1005900002F008FAC04951F8240003F0A7F86DE012
:1005A000002C6BD1012D69D1B54931F8140002F04E
:1005B00027FCB44951F82430B34951F824000122F2
:1005C000022101F0EEFDB24951F82430AE4951F854
:1005D00024000122022101F0E4FDAA4B53F824205B
:1005E000AA4B53F82410A84B53F8240001F094FDB3
:1005F000A74B53F82420A54B53F82410A24B53F8D3
:10060000240001F089FDA34931F8140002F0F8FB41
:10061000280602F02BFCA04951F8240002F0A4FFA8
:100620000920ADF808000020ADF80A00ADF80C0074
:1006300041F2883004900020ADF80E008DF81400CF
:10064000954951F8240002A903F056F8924951F84F
:10065000240002F0D9FD904951F8240000231A46E5
:10066000032103F00DFA8C4951F8240003F03EF801
:1006700041F287318C4803F041F900BF632E00D16D
:100680000124012C7ED1002DFCD141F20E1002F08C
:10069000B7FB7B4931F8140002F0B2FB794951F8FD
:1006A0002430794951F824000122022101F079FD1A
:1006B000744B53F82420754B53F82410724B53F8A5
:1006C000240001F029FD724951F824306E4951F897
:1006D00024000022114601F064FD6E4931F8140037
:1006E00002F08EFB200602F0C1FB6B4951F824009A
:1006F00002F03AFFC720ADF808000020ADF80A006C
:10070000ADF80C0041F2873004900020ADF80E00E7
:100710008DF81400604951F8240002A902F0ECFFA2
:100720000220ADF800000120ADF802000020ADF875
:100730000400ADF80600594A32F8242091B2564A16
:1007400052F824006A4603F023F8534951F8240074
:1007500002F05AFD524A52F824104F4A52F824002F
:1007600003F0BDF84C4951F82400012103F0B7F81B
:10077000494951F82400012103F0ADF8484A52F8E4
:10078000241000E011E0444A52F8240003F0A3F8DA
:10079000444911F824000022114602F003F93E49B1
:1007A00051F8240002F0A2FF85E0012C7ED1012D3A
:1007B0007CD1334931F8140002F022FB314951F861
:1007C0002430314951F824000122022101F0E9FCD2
:1007D0002F4951F824302C4951F8240001220221DC
:1007E00001F0DFFC274B53F82420284B53F824104A
:1007F000254B53F8240001F08FFC254B53F824209F
:10080000224B53F82410204B53F8240001F084FCB1
:10081000204931F8140002F0F3FA200602F026FB1A
:100820001D4951F8240002F09FFE0920ADF8080090
:100830000020ADF80A00ADF80C0041F288300490B9
:100840000020ADF80E008DF81400134951F8240073
:1008500002A902F051FF104951F8240002F0D4FC23
:100860000D4951F8240000231A46032103F008F92A
:10087000094951F8240002F039FF41F2873116E0AE
:100880006C0000205C00002054000020700000205C
:1008900064000020800000207800002084000020F8
:1008A0008C0000209C0000200008004003E003486A
:1008B00003F024F800BF06B070BD0000000800403F
:1008C000014619B90548008882B204E0012902D125
:1008D0000348008882B210B2704700005000002028
:1008E0005200002000BFFEE710B50446632C0FD075
:1008F0000D4931F8140002F083FA0C4951F8243004
:100900000B4951F824000122002101F03CFC0AE0CF
:1009100040F6034002F074FA4FF47C5301220021A8
:10092000044801F030FC10BD0C020020F40100204E
:10093000DC010020000C02401CB50446632C1CD0D6
:10094000184931F8140002F05BFA174850F82400F7
:100950000221CDE90010154951F8240000231A4660
:10096000012101F045FC104A52F824100F4A52F8B8
:100970002400002201F073FC12E040F6034002F074
:100980003FFA0F20022100231A46CDE90010012171
:10099000074801F02DFC00220F21054801F05FFC03
:1009A0001CBD0000780200206802002058020020D0
:1009B000000C024000BFFEE77047000010B50028A1
:1009C00007DA0A07140E054A00F00F031B1FD45460
:1009D00003E00A07130E024A135410BD18ED00E09D
:1009E00000E400E010B50021AE2000F075F8002111
:1009F000084600F071F80021102000F06DF8002189
:100A0000402000F069F80021B02000F065F80021D6
:100A1000812000F061F80021FF2000F05DF8002146
:100A2000A12000F059F80021A62000F055F800217F
:100A3000A82000F051F800213F2000F04DF80021DF
:100A4000C82000F049F80021D32000F045F800212B
:100A5000084600F041F80021D52000F03DF80021C3
:100A6000802000F039F80021D92000F035F800216D
:100A7000F12000F031F80021DA2000F02DF80021FB
:100A8000122000F029F80021DB2000F025F80021D9
:100A9000302000F021F800218D2000F01DF8002109
:100AA000142000F019F80021AF2000F015F810BD57
:100AB00070B504460D4605F1B000002100F00CF8B9
:100AC000102141EA1410002100F006F804F00F0094
:100AD000002100F001F870BD70B504460D46E2B289
:100AE000E9B2782001F0BAFC70BD00002DE9F041B8
:100AF0000746002400250026A04641460020FFF7B7
:100B0000D7FF00BF85E0002576E000266000C0EB3F
:100B1000001101EB4010414901EB8000405DB842FB
:100B200001DB46F00106601C4000C0EB001101EB48
:100B300040103A4901EB8000405DB84201DB46F0CD
:100B40000206A01C4000C0EB001101EB401033492D
:100B500001EB8000405DB84201DB46F00406E01C7A
:100B60004000C0EB001101EB40102C4901EB80006C
:100B7000405DB84201DB46F00806201D4000C0EB96
:100B8000001101EB4010254901EB8000405DB842A7
:100B900001DB46F01006601D4000C0EB001101EBC8
:100BA00040101E4901EB8000405DB84201DB46F079
:100BB0002006A01D4000C0EB001101EB40101749BA
:100BC00001EB8000405DB84201DB46F04006E01DCD
:100BD0004000C0EB001101EB4010104901EB800018
:100BE000405DB84201DB46F0800632464021782065
:100BF00001F034FCA81CC5B2BC2D86DB08F1010055
:100C000000F0FF0841460020FFF752FF04F1080002
:100C1000C4B2382CFFF677AFBDE8F081705B0020DE
:100C200030B589B005460C464FF4406002F0E8F854
:100C300040F6044002F0E4F84FF470630122022110
:100C4000634801F0AEFA4FF460630222002160486D
:100C500001F0E4FA4FF4007201215D4801F05CFA02
:100C60004FF4006201215A4801F056FA4FF48072A5
:100C70000121574801F050FA4FF480620121544895
:100C800001F04AFA4FF4885002F0BAF80020ADF8AB
:100C90001C00504802F068FC681E80B2ADF80800E5
:100CA0000020ADF80A00ADF80C00601E0490002092
:100CB000ADF80E008DF8140002A9464802F01CFDA4
:100CC0000020ADF81C000120ADF818000020ADF8A0
:100CD0001E00ADF81A00ADF82000ADF8220006AAFB
:100CE00000213C4802F0D8FA00221146394802F0AF
:100CF000F6FB60220021374802F0C4FB00221146B7
:100D0000344802F0FFFB06AA0121324802F0C4FA7F
:100D100000220121880702F0E2FB602201212D4818
:100D200002F0B0FB002201212A4802F0EBFB06AAE8
:100D30000221284802F0B0FA00220221254802F0E0
:100D4000CEFB60220221234802F09CFB00220221FC
:100D5000204802F0D7FB06AA03211E4802F09CFAA5
:100D6000002203211B4802F0BAFB6022032119482C
:100D700002F088FB00220321164802F0C3FB012188
:100D8000144802F071FE134802F03EFA114802F0D6
:100D9000ADFC0420022100231A46CDE900100C48C6
:100DA00001F026FA04220321094801F0B5F94FF4B5
:100DB000AF6044F61F61C7230022CDE90010064949
:100DC00041F2101001F036FF0448048009B030BD34
:100DD000000002400000014000400140800200206D
:100DE0002DE9F04104460D460C48008868434FF455
:100DF0007A7190FBF1F087B204B90026012C00D182
:100E00000126022C00D10326032C00D102263A46EB
:100E10003146034802F063FBBDE8F0818002002008
:100E2000000001407047704710B50446632C0FD096
:100E30000D4931F8140001F0E3FF0C4951F824305A
:100E40000B4951F824000122002101F09CF909E02E
:100E500040F6064001F0D4FF3C2301220021054862
:100E600001F091F910BD000048020020300200207E
:100E7000180200200018024010B500F031FE10BD2D
:100E800008B52948006840F47000274908602748E1
:100E9000006840F0010025490860244808300068D7
:100EA00040F080002149083108600020009002E0F5
:100EB0000098401C00904CF2503100988842F7D3C3
:100EC0001A480830006840F090001849083108605E
:100ED0000020009002E00098401C00904CF250313D
:100EE00000988842F7D3002010490831086000BFFD
:100EF0000E480830006800200028F9D10B4800682F
:100F00000B490840094908600A48091D0860081F84
:100F1000006820F48020091F0860002003490C317C
:100F2000086002F045F908BD88ED00E00038024095
:100F3000FFFFF6FE1030002410B52A2000F05EF806
:100F4000002000F02FF8002000F02CF8002000F026
:100F500029F8A82000F026F82B2000F04FF80020F8
:100F600000F020F8002000F01DF8002000F01AF832
:100F7000B32000F017F82C2000F040F810BD70B539
:100F80000646FFF7D9FF002408E0002503E03046BD
:100F900000F062F86D1C842DF9D3641CA22CF4D3EC
:100FA00070BD000070B5044601229103124801F0A3
:100FB00056F900251DE000224FF400510E4801F0C3
:100FC0004EF904F0800028B10122D1030A4801F053
:100FD00046F905E000224FF40041074801F03FF9CF
:100FE00001225103044801F03AF96006040E681C1E
:100FF000C5B2082DDFDB70BD0004024070B50446A9
:1010000000224FF48041134801F029F900251DE02A
:1010100000224FF400510F4801F021F904F0800044
:1010200028B10122D1030B4801F019F905E0002293
:101030004FF40041074801F012F90122510305481D
:1010400001F00DF96006040E681CC5B2082DDFDB47
:1010500070BD00000004024070B5044601229103F7
:10106000134801F0FCF800251FE000224FF4005166
:101070000F4801F0F4F804F4004028B10122D10334
:101080000B4801F0ECF805E000224FF4004108485D
:1010900001F0E5F801225103054801F0E0F84FF6B0
:1010A000FF7000EA4404681CC5B2102DDDDB70BD82
:1010B0000004024010B5044600224FF40041744879
:1010C00001F0CDF8322000F001FD0122D10370487B
:1010D00001F0C5F8322000F0F9FC1120FFF78EFF77
:1010E0000A2000F0F3FC3A20FFF788FF5520FFF7B5
:1010F00059FF2620FFF782FF0420FFF753FFF2205D
:10110000FFF77CFF0120FFF74DFFE020FFF776FFA0
:101110003F20FFF747FF2520FFF744FF1C20FFF784
:1011200041FF1E20FFF73EFF2020FFF73BFF12206C
:10113000FFF738FF2A20FFF735FF9020FFF732FF37
:101140002420FFF72FFF1120FFF72CFF0020FFF7CF
:1011500029FF0020FFF726FF0020FFF723FF0020D4
:10116000FFF720FF0020FFF71DFFE120FFF746FFFC
:101170002020FFF717FF2020FFF714FF2020FFF7A4
:1011800011FF2020FFF70EFF0520FFF70BFF0020C7
:10119000FFF708FF1520FFF705FFA720FFF702FF65
:1011A0003D20FFF7FFFE1820FFF7FCFE2520FFF78C
:1011B000F9FE2A20FFF7F6FE2B20FFF7F3FE2B2087
:1011C000FFF7F0FE3A20FFF7EDFEB120FFF716FF24
:1011D0000020FFF7E7FE0020FFF7E4FEB420FFF752
:1011E0000DFF0720FFF7DEFEC020FFF707FF0A20F4
:1011F000FFF7D8FE0220FFF7D5FEC120FFF7FEFE65
:101200000220FFF7CFFEC520FFF7F8FE4F20FFF7C3
:10121000C9FE5A20FFF7C6FEC720FFF7EFFE4020A9
:10122000FFF7C0FE2A20FFF7E9FE0020FFF7BAFE15
:101230000020FFF7B7FE0020FFF7B4FEA820FFF75D
:10124000B1FE2B20FFF7DAFE0020FFF7ABFE0020F7
:10125000FFF7A8FE0020FFF7A5FEB320FFF7A2FED0
:101260003620FFF7CBFE1CB1C020FFF79BFE02E04B
:10127000A020FFF797FEB720FFF7C0FE0020FFF782
:1012800091FE2920FFF7BAFE2C20FFF7B7FE10BD14
:10129000000C02401CB540F6034001F0B1FD4FF4D4
:1012A0000040022100231A46CDE9001001214248E6
:1012B00000F09EFF00224FF400413F4800F0CFFFB6
:1012C00040F6014001F09CFD4FF4804002210023D4
:1012D0001A46CDE900100121384800F089FF0022AC
:1012E0004FF48041354800F0BAFF40F6014001F06C
:1012F00087FD4FF40050022100230122CDE90010A8
:101300002E4800F075FF4FF4005205212B4800F0E5
:1013100003FF00224FF40051284800F0A0FF4FF4D3
:10132000005301220221254800F03BFF40F6014016
:1013300001F066FD4FF40040022100231A46CDE97A
:10134000001001211D4800F053FF00224FF400411E
:101350001A4800F084FF40F6014001F051FD4FF4BF
:101360000050022100231A46CDE900100121134844
:1013700000F03EFF00224FF40051104800F06FFFD4
:1013800040F6014001F03CFD4FF480500221002363
:101390001A46CDE900100121084800F029FF00227B
:1013A0004FF48051054800F05AFF41F20E01044805
:1013B00001F0AAFD1CBD0000000C02400004024028
:1013C0000038004010B50121044802F08BFA18B132
:1013D0000121024802F083FA10BD000000480140DC
:1013E00010B501210B4802F07DFA88B101210948AE
:1013F00002F075FA0120FFF763FA074988800020A0
:10140000FFF75EFA0549888001F022F901F0A2F8A1
:1014100010BD00000044014090B30020ACB3002098
:1014200010B50221480702F05DFA012847D10221D8
:10143000800702F054FA012001F072F82048008879
:1014400058B900214FF0804001F0E3FE401C1D49D7
:10145000088001201A49088031E0194800880128D5
:101460002DD10021800701F0D4FE401C16490880D0
:101470000846008813490988884207DD1248008819
:1014800010490988401A1149086009E00D48008890
:101490004FF6FF71081A0C49098808440B49086087
:1014A0000A4800680A49B1FBF0F00A49088008467A
:1014B000018809A000F04CF900200149088010BD06
:1014C0001800002014000020160000201C0000203E
:1014D00040420F00200000206672652069732025BD
:1014E000640A000010B51A4A11681A4A106802F01E
:1014F000F9F958B1164A1168164A106802F0EFF966
:1015000015480088401C144908801FE011490868EC
:10151000012102F0E7F9C8B10E490868012102F083
:10152000DEF90D48008800B20C49088000200A4905
:1015300008800B4A11680B4A106800F01CFE28B1A5
:1015400006480088404200B20449088010BD0000EF
:101550009400002078000020480000205000002067
:10156000640000205400002010B501210A4802F058
:10157000B9F978B10121084802F0B1F9074801F042
:10158000EEFF00B206490880064801F0E8FF00B20D
:101590000549088010BD000000080040000400401C
:1015A00050000020000C00405200002010B51A4AE4
:1015B00051681A4A506802F095F958B1164A5168B4
:1015C000164A506802F08BF915480088401C1449EF
:1015D000088020E011494868012102F083F9D0B168
:1015E0000E494868012102F07AF90D48008840420E
:1015F00000B20C4908800020094908800A4A516855
:101600000A4A506800F0B7FD28B1064800884042F9
:1016100000B20449088010BD94000020780000202A
:101620004A000020520000206400002054000020E6
:1016300010B50121064802F055F940B101210448D6
:1016400002F04DF903480088401C0249088010BD93
:10165000001400400000002070B504460D461449F7
:10166000085D0022114601F09DF9124B33F8142059
:10167000114B53F82410114B53F8240002F070FA68
:101680000C4B33F814200E4B53F824100B4B53F82B
:10169000240002F04FFA0B4A52F824100A4A32F89A
:1016A00014002A4602F017FA0848047070BD0000C2
:1016B00000030020F0020020E0020020D8020020F9
:1016C000E8020020F8020020F402002002030020BB
:1016D00010B51949194802F080FB60B3052117487D
:1016E00002F052FB38B31449144802F069FB05219B
:1016F000124802F03CFB114802F0BCFA1049114AB2
:10170000127888540F480078401C0E49087008462B
:101710000078012805D10A480078A52801D00020CA
:10172000087008480078032805D100200549087092
:1017300001200549087010BD050305000010014097
:101740008C0200208F0200209002002000BFFEE7E4
:101750000FB4054B10B503A9044A029800F018F81D
:1017600010BC5DF814FB0000412000084C03002071
:1017700002E008C8121F08C1002AFAD1704770475A
:10178000002001E001C1121F002AFBD170470000B8
:101790002DE9FF4F89B09B460446002506E0252829
:1017A0000BD05A460B999047641C6D1C207800287A
:1017B000F5D10DB02846BDE8F08F0027B8460122CC
:1017C000474900E0074314F8013F203B02FA03F0C9
:1017D0000842F7D120782E2819D114F8010F47F0CC
:1017E00004072A280ED06FF02F022078A0F13001D4
:1017F00009290CD808EB880102EB410100EB010834
:10180000641CF2E70A98641C50F8048B0A90207854
:101810000028CED0642808D0692806D075281ED0AC
:101820005A460B9990476D1C58E00A994FF00A09E7
:1018300001C90A91002802DA40422D2102E039054F
:1018400004D52B218DF82010012103E0F90704D0E5
:101850002021F7E78A4608AE0DE00021FAE70A9951
:101860004FF00A0901C90A91F7E74946FEF7BCFCA7
:10187000303106F8011D0028F7D1ADEB060000F16C
:101880002009780701D44FF00108C84502DDA8EB14
:10189000090000E000208046002706E008A85A461C
:1018A000C05D0B9990476D1C7F1C5745F6DB04E02B
:1018B00030205A460B9990476D1CB8F10001A8F1F1
:1018C0000108F5DC05E016F8010B5A460B99904724
:1018D0006D1CB9F10001A9F10109F4DC641C65E794
:1018E000092801000348006840F001000149086030
:1018F000704700000000055010B54FF4A06001F0E3
:10190000A3FA4FF4A06001F08DFA10BD03480068FF
:1019100040F4804001490860704700000000055015
:1019200000210B4A126844F201039A43084B1A60E3
:10193000026811434268114382681143C26811432F
:1019400002691143426911431A4611607047000051
:10195000000005500249C9680143014AD16070473F
:1019600000000550024949690143014A516170472D
:1019700000000550014604480069084008B90020ED
:1019800070470120FCE700000000055030B589B029
:1019900005460C4640F6164001F032FA072113487E
:1019A00000F0DDF8124800900295002006900794A0
:1019B00001200190002003904FF4805004904001DA
:1019C0000890002005906A460721084800F05AFA5E
:1019D00001220721054800F0AFF80721034800F075
:1019E0009BF8FFF77FFF09B030BD000000640240A4
:1019F0002800055000B587B04FF4406001F000FAB0
:101A000040F6014001F0FCF940F6024001F0F8F91F
:101A100050220D212A4800F07FFB4FF470720D21F7
:101A2000284800F079FB4FF43C620D21264800F075
:101A300073FB4FF4506001F0E3F9502301220221BF
:101A40001F4800F0AEFB4FF47073012202211D48C5
:101A500000F0A7FB4FF43C63012202211A4800F07A
:101A6000A0FB502303220021154800F0D7FB4FF4C0
:101A7000707303220021134800F0D0FB4FF43C6345
:101A800003220021104800F0C9FBFFF735FF0020BA
:101A90000190202002900020039004900590069071
:101AA00001A8FFF73DFF0120FFF754FFFFF72EFFCE
:101AB000022201214E2000F075FF07B000BD00009A
:101AC0000000024000040240000802400349086090
:101AD00000BF024909680029FBD1704710000020AF
:101AE0000448006820B103480068401E01490860AE
:101AF000704700001000002010B501EB4102D30038
:101B000000F11002D25822F0010301EB4102D4008F
:101B100000F11002135110BD10B501EB4102D300CA
:101B200000F11002D25842F0010301EB4102D4004F
:101B300000F11002135110BD30B5134601EB410402
:101B4000E50000F11004625922F0606242EA43624B
:101B500001EB4104E50000F11004625130BD10B505
:101B600001EB4102D30000F11002D25822F0010330
:101B700001EB4102D40000F110021351002301EBEC
:101B80004102D40000F11002135101EB4102D400D4
:101B900000F11402135101EB4102D40000F11802CC
:101BA000135101EB4102D40000F11C02135101EB6F
:101BB0004102D40000F12002135101EB4102D40094
:101BC00000F12402135104290CDA01EB4102530005
:101BD000C1F3400203EB82033D229A4083681A431B
:101BE00082600DE00A1FD1B201EB41025300C1F344
:101BF000400203EB82033D229A40C3681A43C2604D
:101C000010BD30B5802A0DD001EB4103DC0000F19E
:101C100010031B59934301EB4104E50000F110044C
:101C200063510CE001EB4103DC0000F124031B597C
:101C3000934301EB4104E50000F12404635130BDFE
:101C400010B504290CDA01EB41035C00C1F3400339
:101C500004EB830302FA03F38468234383600DE0FB
:101C60000B1FD9B201EB41035C00C1F3400304EB4D
:101C7000830302FA03F3C4682343C36010BDF0B5C5
:101C80000346002500260C46042979DA082A34D0B8
:101C900004DC012A07D0042A70D119E0102A41D0AF
:101CA000202A6BD153E001EB41004700C1F3400013
:101CB00007EB800702FA07F01F6800EA070601EB4E
:101CC0004100C70003F12400C05900F0800556E030
:101CD00001EB41004700C1F3400007EB800702FA27
:101CE00007F01F6800EA070601EB4100C70003F197
:101CF0001000C05900F0020541E001EB410047002F
:101D0000C1F3400007EB800702FA07F01F6800EA02
:101D1000070601EB4100C70003F11000C05900F0B5
:101D200004052CE001EB41004700C1F3400007EB44
:101D3000800702FA07F01F6800EA070601EB41007E
:101D4000C70003F11000C05900F0080517E001EBCF
:101D500041004700C1F3400007EB800702FA07F09B
:101D60001F6800EA070601EB4100C70003F11000FD
:101D7000C05900F0100502E002E0FFE700BF7AE082
:101D8000201FC4B2082A34D004DC012A07D0042A58
:101D90006FD119E0102A41D0202A6AD153E004EB18
:101DA00044004700C4F3400007EB800702FA07F045
:101DB0005F6800EA070601EB4100C70003F1240059
:101DC000C05900F0800555E004EB44004700C4F31F
:101DD000400007EB800702FA07F05F6800EA070699
:101DE00001EB4100C70003F11000C05900F00205EB
:101DF00040E004EB44004700C4F3400007EB8007D9
:101E000002FA07F05F6800EA070601EB4100C7002D
:101E100003F11000C05900F004052BE004EB44006E
:101E20004700C4F3400007EB800702FA07F05F6841
:101E300000EA070601EB4100C70003F11000C0599A
:101E400000F0080516E004EB44004700C4F340002E
:101E500007EB800702FA07F05F6800EA070601EB6C
:101E60004100C70003F11000C05900F0100501E067
:101E7000FFE700BF00BF16B10DB10120F0BD00208B
:101E8000FCE7000070B501EB4104E50000F124041B
:101E9000645924F0040501EB4104E60000F1240438
:101EA000A55101EB4104E60000F118041568A551A5
:101EB00001EB4104E60000F11C049568A55101EB1B
:101EC0004104E60000F11404D569A55101EB410479
:101ED000E50000F1100463593F4C2340146944EAC3
:101EE0008404156A2C4395692C43234301EB410478
:101EF000E50000F110046351546874B901EB41042A
:101F0000E50000F11004645944F4007501EB41044C
:101F1000E60000F11004A5511FE05468012C0ED119
:101F200001EB4104E50000F11004645924F400754C
:101F300001EB4104E60000F11004A5510DE001EBB6
:101F40004104E50000F11004645944F4004501EB3C
:101F50004104E60000F11004A551D46874B901EB06
:101F60004104E50000F11004645944F4806501EB7C
:101F70004104E60000F11004A5510DE001EB41041D
:101F8000E50000F11004645924F4806501EB41047C
:101F9000E60000F11004A551546974B901EB410445
:101FA000E50000F11004645944F4807501EB41042C
:101FB000E60000F11004A5510DE001EB4104E5003D
:101FC00000F11004645924F4807501EB4104E6002B
:101FD00000F11004A55170BD3F87FCFF10B501EB67
:101FE0004103DC0000F114031A5110BD01490860DF
:101FF00070470000143C014001460748006800EAB1
:10200000010205481438006800EA010312B10BB15F
:10201000012070470020FCE7143C0140F0B5059C0E
:102020001719BDB21F19BEB207E02F1BC75DA6EB83
:10203000040C01F80C70671EBCB2002CF5D1F0BD89
:1020400070B504460D46E1B2094A0A4B1B7852F8B6
:10205000230001F014FE00BF0549064A127851F82A
:102060002200072101F090FE0028F5D0204670BD27
:10207000F802002002030020F8B507460D460024B0
:1020800034E0A5208DF80000F1208DF8010035F82E
:10209000240086B230128DF80200F0B28DF80300F1
:1020A00004226946384601F030FD12A0FFF750FBCC
:1020B00000BF114800780028FBD000200E490870AE
:1020C0000EA0FFF745FB0E4880780D49497840EA9D
:1020D000012000B205EB8401488005EB8400B0F9D3
:1020E000021008A0FFF734FB601C84B2082CC8DB88
:1020F000F8BD0000310A000090020020320A000002
:102100008C020020627566665B695D5B315D203D17
:102110002025640A00000000F0B503461C6A5D6AD1
:1021200000200DE00126864016403EB187000F26B4
:10213000BE40B443860001FA06F63443461CB0B2F2
:102140000828EFD3082011E00126864016405EB132
:10215000A0F10806B7000F26BE40B543A0F108065F
:10216000B60001FA06F63543461CB0B21028EBD390
:102170001C625D62F0BD02461069084008B1012092
:1021800070470020FCE72DE9F04104460D46164655
:102190001F463B4632462946204600F002F8BDE87D
:1021A000F081F0B504460D4616462168E26800202D
:1021B00019E0012787401F409FB14FEA400C0327D9
:1021C00007FA0CF7B943470005FA07F739434FEA16
:1021D000400C032707FA0CF7BA43470006FA07F743
:1021E0003A43471CB8B21028E3D32160E260F0BD47
:1021F0002DE9F04705460E4617461C46DDE90889DD
:102200004B463A4631462846FFF7CBFF4B464246FF
:102210002146284600F002F8BDE8F087F0B50C46EC
:102220001546012C03D146681E43466002E046680D
:102230009E434660826800210DE001268E401E40CC
:102240003EB14F000326BE40B2434E0005FA06F6EB
:1022500032434E1CB1B21029EFD38260F0BD0AB1F7
:10226000816100E081627047012904D1026842F473
:102270008062026003E0026822F4806202607047BC
:102280002DE9F05F04460E469346022000F026FD3D
:1022900007462E48B7FBF0F8B8F1320F01D34FF0E4
:1022A0003208D4F804A02AF03F0A4AEA080AC4F81F
:1022B00004A02748864218D82448B7FBF0F000F164
:1022C0000109B9F1320F02D33220206201E0C4F8D3
:1022D00020907000B7FBF0F5042D00D20425E069D2
:1022E000C5F30B010843E0612EE01A4886422BD863
:1022F0004FF4967008FB00F04FF47A71B0FBF1F0E8
:10230000401C2062BBF1000F08D106EB4600B7FB72
:10231000F0F5E06920F48040E06109E006EBC600DA
:1023200000EB0610B7FBF0F5E06940F48040E06197
:10233000C5F30B0008B945F00105E06940F4004021
:10234000E061E0692843E061BDE8F09F40420F0092
:10235000A0860100801A06007CB504460D4640F6B2
:10236000054000F04DFD0220009001231A46014671
:1023700001901648FFF73CFF012002210346024668
:10238000CDE900101148FFF733FF022204210F4866
:10239000FFF7C2FE012204210C48FFF7BDFE41F207
:1023A000160000F02DFD002221460948FFF768FFC6
:1023B0002B4600221146064800F041F8044800F080
:1023C0000CF801210248FFF74FFF7CBD00140240CA
:1023D00000580040CAB202617047016841F0010133
:1023E0000160704710B540F20152914202D142693A
:1023F00082690AE000EB9112126801F01F040123C8
:10240000A3409A4300EB91131A6010BD10B5024629
:1024100002EB9110006801F01F040123A340184053
:1024200008B1012010BD0020FCE712F1020F02D11B
:1024300021F0010101E041F001010161704730B577
:102440000C460021016821F0020121430160C3F321
:10245000090342EA0305856030BD000070B50446FB
:102460000E46154600BF40F201612748FFF7CEFF38
:102470000028F8D1244800F049F800BF4FF4A061CB
:102480002148FFF7C3FF0028F8D06FF00102214672
:102490001D48FFF7CAFF00BF40F201511A48FFF77D
:1024A000B5FF0028F8D040F201511748FFF79AFF16
:1024B00000BF40F207511448FFF7A8FF0028F8D0EA
:1024C00031461148FFF786FF00BF40F202510E4827
:1024D000FFF79CFF0028F8D029460B48FFF77AFF4A
:1024E00000BF40F202510848FFF790FF0028F8D0E3
:1024F000054800F010F800BF0348006800F40070C1
:102500000028F9D170BD000000580040016841F476
:10251000807101607047016841F40071016070478B
:10252000034951F82010034A52F82020D162704725
:10253000340000202800002000F07EFD07E000F0BD
:102540009DFA0349087008460078FDF7A7FEF6E7F4
:10255000020000202DE9F041394890ED060AB5EE61
:10256000C00AF1EE10FA11D2D0ED060A3548007813
:1025700000EE100AB8EE401A9FED330A01EE600A31
:10258000BDEEC00A10EE104A012607E000262C48D6
:1025900090ED060ABDEEC00A10EE104AB4F5FA7FBF
:1025A00001DD4FF4FA74294890ED060AB5EEC00A31
:1025B000F1EE10FA11D2D0ED060A2248007800EEB2
:1025C000100AB8EE401A9FED200A01EE600ABDEE37
:1025D000C00A10EE105A012707E01C4890ED060AC9
:1025E000BDEEC00A10EE105A0027B5F5FA7F01DDE6
:1025F0004FF4FA7546B9A1B20020FEF7F1FB0021B5
:102600000120FEF7EDFB07E000210846FEF7E8FB9E
:10261000A1B20120FEF7E4FB47B9A9B20220FEF700
:10262000DFFB00210320FEF7DBFB07E00021022097
:10263000FEF7D6FBA9B20320FEF7D2FBBDE8F0817E
:1026400090B300201603002000000000ACB300206F
:102650003EB5904D38CD8DE8380000210022002095
:102660000DE08D4C431C34F8133024F810308B4CA3
:10267000431C34F8133024F81030431CD8B202281D
:10268000EFDB874B9B88844CA380864B9B88834CD5
:10269000A38000202FE0804B33F9103000EE103A79
:1026A000F8EEC00A6B4603EB800393ED001A00EED0
:1026B000101AB8EEC00A00EE810ABDEEC00A10EE94
:1026C000103A19B2754B33F9103000EE103AF8EEAB
:1026D000C00A6B4603EB800393ED001A00EE102A4C
:1026E000B8EEC00A00EE810ABDEEC00A10EE103A44
:1026F0001AB2431CD8B20328CDDB6B4B19806B4B4D
:102700001A80674BD3ED000A674BB3F9003000EE37
:10271000103AB8EEC00A30EEC00ABDEEC00A644BF3
:1027200083ED000A5F4BD3ED000A604BB3F9003034
:1027300000EE103AB8EEC00A30EEC00ABDEEC00A94
:102740005C4B83ED000A5A4B1B685B4C24681B1BD7
:1027500000EE103AB8EEC00A514B83ED020A544B1A
:1027600093ED000AB8EEC00A4D4B83ED030A504BBF
:102770001B68514C2468022505FB14334F4C246818
:10278000234400EE103AB8EEC00A454B83ED040A2C
:10279000484B1B684A4C24681B1B00EE103AB8EEED
:1027A000C00A404B83ED020A424B93ED000AB8EE9B
:1027B000C00A3C4B83ED030A3E4B1B68404C246827
:1027C00005FB14333F4C2468234400EE103AB8EE66
:1027D000C00A344B83ED040A3B4B93ED000A304BA7
:1027E000D3ED020A20EE200A374BD3ED010A2C4B21
:1027F00093ED031A00EE810A334BD3ED020A284B06
:1028000093ED041A00EE810A83ED050A93ED060AA2
:10281000D3ED050A30EE200ABDEEC00AB8EEC00ABC
:1028200083ED060A284B93ED000A1E4BD3ED020AF6
:1028300020EE200A244BD3ED010A1A4B93ED031A24
:1028400000EE810A204BD3ED020A164B93ED041AD9
:1028500000EE810A83ED050A93ED060AD3ED050A21
:1028600030EE200ABDEEC00AB8EEC00A83ED060ABB
:10287000114B1B68114C23600D4B1B680E4C2360E1
:102880000F4B1B680F4C23600A4B1B680C4C2360DA
:102890003EBD0000683E0008240300202A030020FB
:1028A00090B30020ACB30020180300201A030020CE
:1028B000300300203C0300203403002038030020B4
:1028C0004003002044030020F0B30020B1EE040ACE
:1028D000054880ED000A9FED050A80ED010A9FED95
:1028E000040A80ED020A7047F0B30020CDCCCC3D45
:1028F0000000000010B5224822490860002211465D
:10290000252000F04FF84FF440624FF400411E487C
:1029100001F026F940F6014208211C4801F00AF9AD
:102920004FF416521A4941F2041001F0D4F840F263
:102930000531174801F037FAC820FFF7C7F8002023
:102940001449087014491248FFF796FB00201149FA
:10295000087012490E4800F09BFA00200D490870DB
:102960000D490B48FFF788FB0DA0FEF7F1FEFFF7BE
:1029700041F841F2086103480068FFF707F810BD0D
:1029800050030020880200200000024000040240A2
:102990000010014090020020B602002092020020A8
:1029A000330A00002DE9F04103460D461646002487
:1029B0000027A0462A48006800F4E060B0F5E06F08
:1029C00003D100BF4FF0040830E02548006800F450
:1029D000E060B0F5C06F03D101274FF0030825E098
:1029E0001F48006800F4E060B0F5A06F02D1022734
:1029F000B8461BE01A48006800F4E060B0F5806F4C
:102A000003D103274FF0010810E01548006800F4D7
:102A1000E060B0F5407F03D104274FF0000805E0E7
:102A20004FF4A06000F020F80227B846C7F1040078
:102A300005FA00F4C8F104010F20C84030400443F7
:102A400024010848C45403F01F0101208840591193
:102A5000890001F1E021C1F80001BDE8F08100002A
:102A60000CED00E000E400E002490143024A11607D
:102A7000704700000000FA050CED00E02DE9F0437E
:102A8000ADF5006DBC23782713FB07F04FEAE07823
:102A900000EB98784FEAA8044FF0000C624D00213B
:102AA0000CE000200DF5806848F82100DFED5F4A5A
:102AB000684600EB8100C0ED004A491CFF29F0DDAB
:102AC0000026002119E0002214E001FB0320285C0D
:102AD0000DF5806858F82000401C01FB032815F80C
:102AE00008800DF5806949F8280001FB0320285C67
:102AF0000644921C9A42E8DB891CB942E3DB0021C0
:102B000013E00DF5806050F8210004EE900AB8EE55
:102B1000E45A04EE904AF8EEE44AC5EE245A6846B8
:102B200000EB8100C0ED005A491CFF29E9DDDFED13
:102B30003F3A9FED3E0AF0EE401AB0EE401AB0EE7A
:102B4000403AB0EE404AF0EE402AF0EE400AB0EED5
:102B5000402A374800783238002804DD34480078AD
:102B6000A0F1320200E0002255E0684600EB82004E
:102B7000D0ED004A74EE804AB0EE640A684600EB7D
:102B8000820090ED005A04EE902AF8EEE45AF0EE3E
:102B9000604A45EE854AF0EE640AF7EE004A74EEAC
:102BA000C04AB0EE642AB6FBF4F004EE900AF8EEE8
:102BB000644A74EEE04AF0EE642AC0EE804AB0EE59
:102BC000644AC2EE824AB0EE643A70EEA24AB0EEB7
:102BD000641A74EE414A64EE804A34EE415A64EE5F
:102BE000854A33EE415A25EE025A73EE415A45EEBC
:102BF000254AF0EE641AF4EEE31AF1EE10FA03DD62
:102C0000F0EE613A02F0FF0CF4EEE31AF1EE10FA86
:102C100000D202E0521CFF2AA7DD00BF60460DF57E
:102C2000006DBDE8F08300005003002000000000AC
:102C3000480300202DE9F04387B007460C461546AF
:102C40001E46DDE90E98384600F0DAF80020ADF8AF
:102C50001400204600F088FCADF800600020ADF8BC
:102C60000200ADF80400CDF80890ADF806008DF82C
:102C70000C006946204600F03FFD0020ADF814002E
:102C80000120ADF810000020ADF81600ADF81200DC
:102C9000ADF81800ADF81A0004AA2946204600F045
:102CA000FBFA42462946204600F019FC60222946DC
:102CB000204600F0E7FB00222946204600F022FCD7
:102CC0000121204600F0D0FE204600F09DFA20466B
:102CD00000F00CFD07B0BDE8F08300002DE9F04FD7
:102CE0008CB0064600200A903EA090E8004CC068D8
:102CF000CDE905BECDF810A007900FF2EC0ADAE995
:102D0000000ACDE9020A0FF2E00ADAE9000ACDE989
:102D1000000A38480068C0F381000B900B9820B17E
:102D2000012804D0022828D103E0334927E03349A1
:102D300025E03048001F006800F03F072D48001FC5
:102D40000068C0F3881C2B48001F0068C0F30140D6
:102D5000401C4FEA40092748001F006800F4800823
:102D6000B8F5800F01D1254B00E0234BB3FBF7F002
:102D700000FB0CF0B0FBF9F101E01F4900BF00BF00
:102D80001C480068C0F3031404A8055D21FA05F28D
:102D900018480068C0F3822402A8055D22FA05F0F5
:102DA000099014480068C0F342341DF8045022FA18
:102DB00005F0089036B1012E06D0022E06D0032E63
:102DC0000AD106E00A9108E00A9206E009980A9002
:102DD00003E008980A9000E000BF00BF0A980CB01A
:102DE000BDE8F08F000000000000000001020304B5
:102DF00006070809083802400024F40040787D01E5
:102E0000074A02EB9011D1F8001800F01F030122CD
:102E10009A401143024B03EB9012C2F8001870471E
:102E200000300240074A02EB9011D1F8001800F080
:102E30001F0301229A409143024B03EB9012C2F808
:102E40000018704700300240074A02EB9011D1F899
:102E5000001800F01F0301229A401143024B03EBBC
:102E60009012C2F800187047003002406FF0807175
:102E7000884205D1054909680140044A116004E00F
:102E8000024909680143014A116070478C380240C9
:102E9000F8B507460D4600201949087000241AE0CD
:102EA000A5208DF8000015F824008DF8010005EB31
:102EB0008400408886B230128DF80200F0B28DF89E
:102EC000030004226946384600F01FFE0220FEF788
:102ED000FDFD601C84B2092CE2DB00BF08480078CD
:102EE0000028FBD000200649087000BF0548407844
:102EF000FF28FBD103488078FF28F7D1F8BD0000F8
:102F0000900200208C02002030B587B005460C46A8
:102F10002046FFF775FF284600F01EF800200190BC
:102F20004FF4827000900020029005904FF40070E2
:102F3000039018200690002004906946284600F06F
:102F400061F8284600F002F807B030BD016841F092
:102F5000400101607047000010B504462749601A1F
:102F60008C422CD009DC26482044B0B1B0F5806FEB
:102F70001CD0B0F5784F3DD106E0B0F5E05F27D02A
:102F8000B0F5005F36D12CE040F60C10FFF75CFF87
:102F900040F60C10FFF746FF2DE040F60E00FFF75D
:102FA00053FF40F60E00FFF73DFF24E040F60F0010
:102FB000FFF74AFF40F60F00FFF734FF1BE040F633
:102FC0000D10FFF741FF40F60D10FFF72BFF12E049
:102FD00040F61410FFF738FF40F61410FFF722FFF9
:102FE00009E040F61510FFF72FFF40F61510FFF728
:102FF00019FF00E000BF00BF10BD00000034014019
:1030000000C8FFBF02460020106800F441500B6862
:1030100018434B6818438B681843CB6818430B69F7
:1030200018434B6918438B6918431060D36923F424
:103030000063D3617047000010B500F0BDF8632055
:10304000FDF77AFC6320FDF74FFC00211748FFF7DE
:1030500083F9FDF7C7FCC820FEF738FD0820FDF70F
:1030600031F96320FDF7E0FE4FF4E1310120FEF776
:10307000F3FAFEF70FF90020FEF71CF84FF6FF7089
:10308000FDF77DFFFDF705F900F0D4FE40F20F11CA
:103090002920FDF7C5FD01216320FDF7E3F9FFF7C6
:1030A00015FC8C200249087010BD0000801A060033
:1030B00002000020002000213A4A126842F48032C7
:1030C000384B1A6000BF401C364A126802F40031C7
:1030D00019B94FF6FF729042F5D1324A126802F4E4
:1030E00000320AB900BFFEE72E4A4032126842F0B1
:1030F00080522C4B40331A602B4A126842F44042F3
:10310000294B1A60274A08321268264B08331A6086
:103110001A46126842F400421A601A46126842F4D3
:10312000A0521A60214A1B1F1A601A1F126842F02F
:1031300080721B1F1A6000BF1A4A126802F00072E8
:10314000002AF9D0184A126842F48032164B1A60ED
:1031500000BF154A526802F48032002AF9D0124AA0
:10316000126842F40032104B1A6000BF0E4A5268D7
:1031700002F40032002AF9D00A4A0832126822F01A
:103180000302084B08331A601A46126842F0020222
:103190001A6000BF034A0832126802F00802002ACF
:1031A000F8D07047003802400070004019644009B0
:1031B00010B5FFF77FFF10BD10B5124800684FF43F
:1031C0007A71B0FBF1F4601EB0F1807F01D3012071
:1031D0000FE0601E4FF0E02148610F214FF0FF30FB
:1031E000FDF7ECFB00204FF0E0218861072008612B
:1031F000002008B100BFFEE70021481EFDF7DEFBFE
:1032000010BD000024000020016841F08001016031
:1032100070470246002031B1012906D0022906D0AC
:10322000032908D105E0506B06E0906B04E0D06BF9
:1032300002E0106C00E000BF00BF704731B101290F
:103240000CD0022913D0032922D118E0836923F07E
:103250000C0383618369134383611AE0836923F458
:1032600040638361836943EA0223836111E0C36998
:1032700023F00C03C361C3691343C36109E0C3694D
:1032800023F44063C361C36943EA0223C36100E0DE
:1032900000BF00BF7047000010B531B101293FD019
:1032A00002297DD003297CD1BFE0036A23F001030A
:1032B0000362836923F003038361036A1488234351
:1032C0000362036A23F002030362036A94882343C0
:1032D00003626A4B984202D0694B98421FD1036A3D
:1032E00023F004030362036A548823430362036ADE
:1032F00023F008030362036AD4882343036243680C
:1033000023F4807343604368148923434360436814
:1033100023F4007343604368548923434360ABE064
:10332000036A23F010030362836923F4407383610B
:10333000036A148843EA04130362036A23F0200338
:103340000362036A948843EA041303624B4B984276
:1033500002D04B4B984226D1036A23F0400303620C
:10336000036A548843EA04130362036A23F0800368
:103370000362036AD48843EA04130362436823F4B4
:10338000806343604368148943EA8403436043686D
:1033900023F4006343604368548943EA840301E0F3
:1033A00002E068E0436067E0036A23F4807303622D
:1033B000C36923F00303C361036A148843EA042347
:1033C0000362036A23F400730362036A948843EA86
:1033D00004230362294B984202D0294B984223D1FF
:1033E000036A23F480630362036A548843EA042374
:1033F0000362036A23F400630362036AD48843EA26
:1034000004230362436823F48053436043681489B0
:1034100043EA04134360436823F400534360436862
:10342000548943EA0413436026E0036A23F480537B
:103430000362C36923F44073C361036A148843EAD7
:1034400004330362036A23F400530362036A94881B
:1034500043EA04330362094B984202D0084B984276
:1034600008D1436823F4804343604368148943EAE6
:103470008413436000E000BF00BF10BD00000140A6
:103480000004014031B101290CD0022913D00329D5
:1034900022D118E0836923F07003836183691343A9
:1034A00083611AE0836923F4E0438361836943EA1B
:1034B0000223836111E0C36923F07003C361C36910
:1034C0001343C36109E0C36923F4E043C361C369E3
:1034D00043EA0223C36100E000BF00BF704731B17F
:1034E000012906D0022906D0032908D105E042634C
:1034F00006E0826304E0C26302E0026400E000BF11
:1035000000BF704731B101290CD0022913D0032923
:1035100022D118E0836923F0080383618369134390
:1035200083611AE0836923F400638361836943EA5A
:103530000223836111E0C36923F00803C361C369F7
:103540001343C36109E0C36923F40063C361C36922
:1035500043EA0223C36100E000BF00BF7047014699
:103560000020486A7047000010B504465C49601AA4
:103570008C426FD019DC5B49A4EB01008C424ED029
:1035800009DCB4F1804F2ED057482044A0B3B0F5E9
:10359000806F72D13AE0B0F5806F49D0B0F5006F1E
:1035A0004FD0B0F5406FF4D17BE0B0F5923F5BD0E7
:1035B00009DCB0F5806F73D0B0F5644F0AD0B0F578
:1035C000684F5AD147E0B0F5943F57D0B0F5963FD9
:1035D00053D15CE04FF41060FFF736FC4FF41060FD
:1035E000FFF720FC79E04FF40060FFF72DFC4FF46B
:1035F0000060FFF717FC70E0FFE740F60100FFF7FF
:1036000023FC40F60100FFF70DFC66E040F60200E7
:10361000FFF71AFC40F60200FFF704FC5DE040F6FD
:103620000300FFF711FC40F60300FFF7FBFB54E03B
:1036300040F60400FFF708FC40F60400FFF7F2FB39
:103640004BE040F60500FFF7FFFB40F60500FFF7F3
:10365000E9FB42E02EE040F60110FFF7F5FB40F6F3
:103660000110FFF7DFFB38E04FF41160FFF7ECFBD0
:103670004FF41160FFF7D6FB2FE02DE040F611105C
:10368000FFF7E2FB40F61110FFF7CCFB25E040F618
:103690001210FFF7D9FB40F61210FFF7C3FB1CE036
:1036A00011E040F60600FFF7CFFB40F60600FFF7FB
:1036B000B9FB12E040F60700FFF7C6FB40F6070033
:1036C000FFF7B0FB09E040F60800FFF7BDFB40F64E
:1036D0000800FFF7A7FB00E000BF00BF10BD00001F
:1036E000001C0040000C004000FCFFBF016841F0DE
:1036F00001010160704700000A8882621D4A904201
:103700000ED0B0F1804F0BD01B4A904208D01B4A1C
:10371000904205D01A4A904202D01A4A90420BD1E8
:10372000026822F07002026002684B881A4302604D
:1037300002688B881A4302608A68C262124A904209
:103740000AD0124A904207D0026822F44072026006
:103750000268CB881A430260064A904202D0094AA6
:10376000904201D10A7B0263426942F00102426148
:1037700070470000000001400004004000080040C5
:10378000000C004000040140001000400014004004
:1037900070B504460E46154636B1012E26D0022ECF
:1037A00048D0032E7DD168E0206A20F0010020621D
:1037B000206A20F00A002062206A298808432062DB
:1037C000A06920F00300A061A06969880843A06196
:1037D000A06920F0F000A061A069E98840EA01102A
:1037E000A061206A40F0010020626DE0206A20F0B4
:1037F00010002062206A20F0A0002062206A298840
:1038000040EA01102062A06920F44070A061A06924
:10381000698840EA0120A061A06920F47040A0619D
:10382000A069E98840EA0130A061206A40F01000F8
:10383000206249E0206A20F480702062206A20F42F
:1038400020602062206A298840EA01202062E06925
:1038500020F00300E061E06969880843E061E06905
:1038600020F0F000E061E069E98840EA0110E061E1
:10387000206A40F48070206226E0206A20F48050A4
:103880002062206A20F400502062206A298840EAE1
:1038900001302062E06920F44070E061E0696988ED
:1038A00000E010E040EA0120E061E06920F47040AF
:1038B000E061E069E98840EA0130E061206A40F4B3
:1038C0008050206200E000BF00BFAA883146204639
:1038D000FFF7B4FC70BDC2680A43C2607047CA43B8
:1038E000026170470246D06800EA0103106908408F
:1038F00010B10BB1012070470020FCE77FB50446F2
:103900000D46B4F1804F09D1002211461C20FFF76B
:1039100049F84FF48050FFF773FA69E04948844250
:1039200009D1002211461D20FFF73CF841F20100A9
:10393000FFF766FA5CE04448844209D10022114650
:103940001E20FFF72FF841F20200FFF759FA4FE06F
:103950003E48844209D1002211463220FFF722F866
:1039600041F20300FFF74CFA42E03948844204D1A7
:1039700041F20400FFF744FA3AE03648844209D1A4
:10398000002211463720FFF70DF841F20500FFF73E
:1039900037FA2DE03048844204D141F20110FFF79C
:1039A0002FFA25E02D48844209D100221146182023
:1039B000FEF7F8FF41F21010FFF722FA18E028484E
:1039C000844209D1002211461920FEF7EBFF41F293
:1039D0001110FFF715FA0BE02248844208D10122AA
:1039E00011461A20FEF7DEFF41F21210FFF708FA27
:1039F0004FF08070FFF73AFA2046FFF7B5FD6846B2
:103A000000F05EF8C720ADF800000020ADF802001D
:103A1000ADF80400681E02900020ADF806008DF895
:103A20000C0069462046FFF767FE01212046FFF79C
:103A300056FF01212046FFF74EFF2046FFF756FEB6
:103A40007FBD00000004004000080040000C004062
:103A500000100040001400400004014000400140FC
:103A60000044014000480140012904D1426C42F465
:103A70000042426403E0426C22F400424264704718
:103A800030B5846824F00704846084680C43846043
:103A9000846940F20335AC438461846940F20115C6
:103AA0002C438461046A24F00A040462046A24F04A
:103AB000A0040462046A42EA03152C43046230BD88
:103AC00000210180418081804FF6FF7181600021DB
:103AD000C1800173704770B506460C4615463046E6
:103AE000FFF78EF9204600F0CFF82946204600F077
:103AF0004DF80421204600F08CF90821204600F002
:103B000090F9204600F02EF970BD70B506460C46BF
:103B100015460CE014F8011B304600F0B0F800BF69
:103B20000721304600F030F90028F9D06D1E002D35
:103B3000F0D170BD7CB506460C4615462846FFF709
:103B40005FF9224607213046FEF7E6FA02200023FD
:103B500001220146CDE900043046FEF749FB7CBD59
:103B60007CB506460C4615462846FFF749F922461D
:103B700007213046FEF7D0FA022000230122014639
:103B8000CDE900043046FEF733FB7CBD2DE9F0475C
:103B900004460D460027B846B94600263349601A48
:103BA0008C4235D00CDC32482044E8B1B0F5806F4F
:103BB0001FD0B0F5006F21D0B0F5406F32D122E0B8
:103BC000B0F5806F29D0B0F5184F03D0B0F51C4F79
:103BD00028D104E00320FFF781F8074623E0032003
:103BE000FFF77CF807461EE00220FFF777F807464C
:103BF00019E00220FFF772F8074614E00220FFF7F1
:103C00006DF807460FE00220FFF768F807460AE064
:103C10000220FFF763F8074605E00220FFF75EF891
:103C2000074600E000BF00BFE06800F4004070B14C
:103C3000780000EB5500B0FBF5F64FF6F07006EAA1
:103C40000008C6F3420948EA0900A0600CE007EB4F
:103C50005500B0FBF5F64FF6F07006EA000806F0E6
:103C60000F0948EA0900A060BDE8F087007800402D
:103C700000BCFFBF01464868C0F308007047C1F3AD
:103C8000080242607047000010B504463349601ACC
:103C90008C424DD00CDC32482044E0B1B0F5806F4E
:103CA00022D0B0F5006F31D0B0F5406F52D136E080
:103CB000B0F5806F45D0B0F5184F03D0B0F51C4F6C
:103CC00048D11AE040F60410FFF7BEF840F60410A1
:103CD000FFF7A8F83FE040F61100FFF7B5F840F60F
:103CE0001100FFF79FF836E040F61200FFF7ACF83E
:103CF00040F61200FFF796F82DE040F60510FFF7AA
:103D0000A3F840F60510FFF78DF824E040F6130005
:103D1000FFF79AF840F61300FFF784F81BE040F62F
:103D20001400FFF791F840F61400FFF77BF812E05B
:103D300040F61E00FFF788F840F61E00FFF772F805
:103D400009E040F61F00FFF77FF840F61F00FFF77D
:103D500069F800E000BF00BF10BD0000007800401F
:103D600000BCFFBFC16841F40051C160704710B58D
:103D700000EB9112126801F01F040123A3409A4343
:103D800000EB91131A6010BD10B5024602EB9110C2
:103D9000006801F01F040123A340184008B101206E
:103DA00010BD0020FCE710B500EB9112126801F085
:103DB0001F040123A3401A4300EB91131A6010BDA6
:103DC00010B500EB91521268C1F304440123A340E3
:103DD0009A4300EB91531A6010BD70B50246002360
:103DE0000024C1F38910105801F01F060125B540C9
:103DF00000EA050302EB91500068C1F30446012577
:103E0000B54000EA050414B10BB1012070BD0020DB
:103E1000FCE70A460021C16821F004011143C1609A
:103E200070470A460021C16821F008011143C160B2
:103E300070470000002006490870064908700649CE
:103E400008700649087006490870064908707047EE
:103E5000A4000020A5000020A6000020A70000204C
:103E6000A8000020A9000020CDCCCC3D9A99993E15
:103E70009A99193F943E000800000020500300006A
:103E800038020008683F000850030020C8D0000036
:103E900080170008A10319780514C2EB0B6C0C0203
:103EA00040043204320132022B030C02F11A0428BE
:103EB000115C024020245A10301B010C3E59141191
:103EC0001204194C113E40011003101C3913C9048F
:103ED000321DB2323214F20A23881372643A6C59DA
:103EE0002132C83282291802F9031378050C130C09
:103EF0000240043202321032043208320122208B96
:103F0000030C02111A1828A904711927393B293703
:103F1000293F814B060C0241294FE9742914297766
:103F2000697379680111492A126412031A962E12D4
:103F3000BC1205127832063A073A298069241946DC
:103F400059522A05827924515A047C191F3934198F
:103F50001729C51A017415121011101A480F1244AE
:083F6000044E4027260000007A
:04000005080001AD41
:00000001FF
