:020000040800F2
:10000000700D0020C5010008190A0008E108000869
:10001000150A000863020008D10D00080000000066
:100020000000000000000000000000000F0D0008AC
:1000300065040008000000000D0D0008110D000807
:10004000DF010008DF010008DF010008DF01000810
:10005000DF010008DF010008DF010008DF01000800
:10006000DF010008DF010008DF010008DF010008F0
:10007000DF010008DF010008DF010008DF010008E0
:10008000DF010008DF010008DF010008DF010008D0
:10009000DF010008DF010008DF010008DF010008C0
:1000A000DF010008DF010008DF010008DF010008B0
:1000B000DF010008DF010008DF010008DF010008A0
:1000C000DF010008DF010008DF010008DF01000890
:1000D000DF010008DF010008DF010008DF01000880
:1000E000DF010008DF010008DF010008DF01000870
:1000F000DF010008DF010008DF010008DF01000860
:10010000DF010008DF010008DF010008DF0100084F
:10011000DF010008DF010008DF010008DF0100083F
:10012000DF010008DF010008DF010008DF0100082F
:10013000DF010008DF010008DF010008DF0100081F
:10014000DF010008DF010008DF010008DF0100080F
:10015000DF010008DF010008DF010008DF010008FF
:10016000DF010008DF010008DF010008DF010008EF
:10017000DF010008DF010008DF01000800000000C7
:10018000DF010008DF010008DF010008DF010008CF
:10019000DF010008DF010008DF01000800000000A7
:1001A000DF010008DF010008DF010008DFF810D0E0
:1001B00000F01AF8004800472D210008AFF3008036
:1001C000700D00200648804706480047FEE7FEE71E
:1001D000FEE7FEE7FEE7FEE7FEE7FEE7FEE7FEE7F7
:1001E000190D0008AD010008064C074D06E0E06857
:1001F00040F0010394E8070098471034AC42F6D36E
:10020000FFF7D8FFA83C0008C83C000870B58C1860
:1002100010F8015B15F0070301D110F8013B2A111A
:1002200006D110F8012B03E010F8016B01F8016B07
:100230005B1EF9D12B0705D40023521E0DD401F803
:10024000013BFAE710F8013BCB1A921C03E013F8CC
:10025000015B01F8015B521EF9D5A142D8D3002001
:1002600070BD00BFFEE770B50546082D1FDA2946B0
:10027000002000F04DFC002406E000224021782000
:1002800001F0B4FE601CC4B2802CF6DB681CC1B265
:10029000002000F03DFC002406E0002240217820F0
:1002A00001F0A4FE601CC4B2802CF6DB19E0082D1E
:1002B00017D10025002612E02946002000F028FC76
:1002C000002406E000224021782001F08FFE601C0F
:1002D000C4B2802CF6DB681CC5B2701CC6B2082EF6
:1002E000EADB70BD10B502460020092A36D2DFE8ED
:1002F00002F0352F29231D17110B050011F8014BB2
:100300000A2300FB034000BF11F8014B0A2300FB46
:10031000034000BF11F8014B0A2300FB034000BF5C
:1003200011F8014B0A2300FB034000BF11F8014BF9
:100330000A2300FB034000BF11F8014B0A2300FB16
:10034000034000BF11F8014B0A2300FB034000BF2C
:1003500011F8014B0A2300FB034000BF00BF10BD92
:1003600070B5092975D2DFE801F074695B4D3E2F45
:1003700021130500384CB0FBF4F40A25B4FBF5F664
:1003800005FB1644302505FB034402F8014B00BF72
:10039000324CB0FBF4F40A25B4FBF5F605FB164429
:1003A000302505FB034402F8014B00BF2C4CB0FB89
:1003B000F4F40A25B4FBF5F605FB1644302505FBDD
:1003C000034402F8014B00BF42F21074B0FBF4F496
:1003D0000A25B4FBF5F605FB1644302505FB03445E
:1003E00002F8014B00BF4FF47A74B0FBF4F40A2515
:1003F000B4FBF5F605FB1644302505FB034402F873
:10040000014B00BF6424B0FBF4F40A25B4FBF5F6FD
:1004100005FB1644302505FB034402F8014B00BFE1
:100420000A24B0FBF4F40A25B4FBF5F605FB1644E8
:10043000302505FB034402F8014B00BF0A24B0FB42
:10044000F4F504FB1504302505FB034402F8014BC9
:1004500000BF00BF70BD00008096980040420F00B2
:10046000A08601007047000008B500F0E9FCE348F1
:100470000068E3490860E3480068E3490860E3482E
:100480000068E3490860E3480068E3490860E3481E
:100490000068E3490860E3480068E3490860E3480E
:1004A0000068E3490860E3480068E3490860E348FE
:1004B0000068E3490860E3480068E3490860E348EE
:1004C0000068E3490860E3480068E3490860E348DE
:1004D0000068E3490860E3480068E3490860E348CE
:1004E0000068E3490860E3480068E3490860E348BE
:1004F0000068E3490860E3480068E349086077E181
:10050000E248007801F088F8012000F013FA012891
:100510001ED154222C21062000F06BFCDCA301220A
:100520002C21062001F039FF322001F05FF808206D
:10053000FFF799FED5480078032803D10020D3495E
:10054000087055E1D1480078401CD04908704FE14F
:10055000012000F0EFF904281DD154222C2106209F
:1005600000F047FCCAA301222C21062001F015FF50
:10057000322001F03BF80820FFF775FEC3480078F1
:1005800018B90320C149087032E1C0480078401E04
:10059000BE4908702CE1012000F0CCF905286FD18C
:1005A00012220021062000F024FCBBA3012200211E
:1005B000062001F0F2FE322001F018F80120B749C0
:1005C000087080220021062000F013FC1023B2A244
:1005D0000621002000F074FB1023B1A20621602048
:1005E00000F06EFB0123B0480278B0480178A748BC
:1005F000007802F041FAE1E062E0AD4800780128BD
:100600000BD10020AA4908700123A7480278A74807
:1006100001789E48007802F02FFA012000F08AF954
:1006200001280BD10023A0480278A0480178974800
:10063000007802F021FA02F0D1FD32E0012000F052
:1006400079F904280BD1002397480278974801785C
:100650008E48007802F010FA02F0F6FB21E001204B
:1006600000F068F902280CD100238F4802788F48E7
:1006700001788648007802F0FFF902F083FC10E070
:10068000A0E0012000F056F903280AD10023864893
:100690000278864801787D48007802F0EDF902F092
:1006A00087FD012000F046F9052802D102F0E2FBA7
:1006B00006E0012000F03EF9062801D102F076FCA8
:1006C00076480078012898D070480078012811D128
:1006D00078A300222821104601F05FFE75A30022B6
:1006E0002821022001F059FE72A3002228210420B3
:1006F00001F053FE5EE06E480078012814D16A488C
:1007000001786A48007801F099FF00206849087074
:1007100001200090684803786348027863480178B4
:100720005A48007801F060FD012000F003F901282B
:1007300002D102F0AFFE2EE0012000F0FBF8042809
:1007400002D102F05FFD26E0012000F0F3F802285C
:100750000ED100200090584803785348027853483F
:1007600001784A48007801F03FFD02F0D3FD12E025
:10077000012000F0DFF803280DD1002000904E4842
:10078000037849480278494801784048007801F0E8
:100790002BFD02F055FE012000F0CCF8052802D117
:1007A00002F070FD06E0012000F0C4F8062801D137
:1007B00002F0DCFD3948007802289CD037480078E8
:1007C000B0B119E7012000F0B5F8062810D1702269
:1007D000582100F00EFB39A301225821062001F018
:1007E000DCFD322000F002FF0820FFF73CFD00E0B6
:1007F00086E600BF00F024FB08BD00009406002040
:10080000D406002098060020D80600209C06002070
:10081000DC060020A0060020E0060020A406002040
:10082000E4060020A8060020E80600207C06002040
:10083000EC06002080060020F00600208406002040
:10084000F406002088060020F80600208C06002010
:10085000FC0600209006002000070020AC060020C7
:1008600004070020B006002008070020B40600207E
:100870000C070020B806002010070020BC0600204E
:1008800014070020C006002018070020750600206D
:100890005368696674000000536574007406002094
:1008A0004578697400000000770600207606002075
:1008B000790600202E0000007806002052756E0098
:1008C00010B500F0BFF8C82000F090FE0820FFF738
:1008D000CAFC01F017FC03F0C9F902F091FE10BD4B
:1008E00000BFFEE710B50446044A52F82410044A3B
:1008F00052F8240001F00BFA10BD0000C4070020DC
:10090000AC07002010B50446074931F8140001F087
:100910005FFE064951F82430054951F824000122B0
:10092000002101F0FCF910BDDC070020C407002005
:10093000AC07002010B50446012C01D134490870E1
:1009400033480078002840D00020FFF7CBFF98B153
:100950000120FFF7C7FF78B10220FFF7C3FF58B1AE
:100960000320FFF7BFFF38B10420FFF7BBFF18B12A
:100970000520FFF7B7FF40BB142000F037FE002032
:1009800023490870FFF7AEFF08B9012010BD02200F
:10099000FFF7A8FF08B90220F8E70320FFF7A2FF3E
:1009A00008B90320F2E70120FFF79CFF08B90420F3
:1009B000ECE70420FFF796FF08B90520E6E70520DD
:1009C000FFF790FF08B90620E0E70020FFF78AFF55
:1009D000012818D00120FFF785FF012813D002203D
:1009E000FFF780FF01280ED00320FFF77BFF0128CF
:1009F00009D00420FFF776FF012804D00520FFF777
:100A000071FF012802D10120014908700020BDE7D3
:100A10002408002000BFFEE77047000010B5002842
:100A200007DA0A07140E054A00F00F031B1FD454FF
:100A300003E00A07130E024A135410BD18ED00E03C
:100A400000E400E010B50021AE2000F056F90021CE
:100A5000084600F052F90021102000F04EF9002164
:100A6000402000F04AF90021B02000F046F90021B2
:100A7000812000F042F90021FF2000F03EF9002122
:100A8000A12000F03AF90021A62000F036F900215B
:100A9000A82000F032F900213F2000F02EF90021BB
:100AA000C82000F02AF90021D32000F026F9002107
:100AB000084600F022F90021D52000F01EF900219F
:100AC000802000F01AF90021D92000F016F9002149
:100AD000F12000F012F90021DA2000F00EF90021D7
:100AE000122000F00AF90021DB2000F006F90021B5
:100AF000302000F002F900218D2000F0FEF80021E6
:100B0000142000F0FAF80021AF2000F0F6F810BD34
:100B100070B504460D4605F1B000002100F0EDF877
:100B2000102141EA1410002100F0E7F804F00F0052
:100B3000002100F0E2F870BD2DE9F04707460E46AF
:100B4000904699464FF0000A0024A8F1200000F0DA
:100B5000FF0A174800EB0A157F2F02DD0027B01CA3
:100B6000C6B2B9F1100F20D131463846FFF7D0FF99
:100B7000002407E02A784021782001F037FA6D1C24
:100B8000601CC4B2082CF5DB701CC1B23846FFF7FC
:100B9000BFFF002407E02A784021782001F026FAE0
:100BA0006D1C601CC4B2082CF5DBBDE8F0870000AA
:100BB000840000202DE9F04704460F4690469946F0
:100BC0004FF0000A0025A8F1200000F0FF0A1948A4
:100BD00000EB0A167F2F02DD0027A01CC4B2B9F17A
:100BE000100F24D121463846FFF792FF002509E077
:100BF0003078C043C2B24021782001F0F7F9761C6A
:100C0000681CC5B2082DF3DB601CC1B23846FFF783
:100C10007FFF002509E03078C043C2B24021782030
:100C200001F0E4F9761C681CC5B2082DF3DBBDE8C1
:100C3000F0870000840000202DE9FF5F0746914601
:100C40001E460E9D4FF0000A002435E0301B401E6A
:100C5000C1B20A2001F0BCFAB9FBF0F00A21B0FBE6
:100C6000F1F201FB1208BAF1000F14D1701EA0427C
:100C700011DDB8F1000F0CD1AB4605EBDB7149106B
:100C800001FB0471C8B22B4620220199FFF754FFE3
:100C900010E04FF0010AAB4605EBDB71491001FB98
:100CA0000471C8B208F13001CAB22B460199FFF7AE
:100CB00043FF00BF601CC4B2B442C7DBBDE8FF9F66
:100CC0002DE9F04104460F461546984600260FE0F0
:100CD000AA5D434639462046FFF72EFF04F108007F
:100CE000C4B2782C02DD0024B81CC7B2701CC6B296
:100CF000A85D0028ECD1BDE8F08170B504460D4632
:100D0000E2B2E9B2782001F071F970BD7047704726
:100D100010B500F075FC10BD08B52948006840F416
:100D20007000274908602748006840F00100254905
:100D3000086024480830006840F0800021490831EC
:100D400008600020009002E00098401C00904CF2E7
:100D5000503100988842F7D31A480830006840F0B4
:100D600090001849083108600020009002E00098C7
:100D7000401C00904CF2503100988842F7D300207C
:100D800010490831086000BF0E4808300068002094
:100D90000028F9D10B4800680B4908400949086050
:100DA0000A48091D0860081F006820F48020091FF8
:100DB0000860002003490C31086002F0A1FC08BD66
:100DC00088ED00E000380240FFFFF6FE10300024FE
:100DD00000BFFEE702E008C8121F08C1002AFAD1CE
:100DE00070477047002001E001C1121F002AFBD1AB
:100DF00070472DE9F04105460E461746B81B00F036
:100E0000FF0829463046FFF783FE002405E0402115
:100E10000020FFF772FF601CC4B24445F7DB681C7A
:100E2000C1B23046FFF774FE002405E040210020E7
:100E3000FFF763FF601CC4B24445F7DBBDE8F081F7
:100E400008B59023804A0021022000F0BFFD082051
:100E500000231A467D4900907B4800F00EFE0820D2
:100E6000002302467A490090774800F006FE0820E9
:100E70000023102277490090734800F0FEFD0820FF
:100E800000231822744900906F4800F0F6FD0820F6
:100E900000232022714900906B4800F0EEFD0820ED
:100EA000002328226E490090674800F0E6FD0820E4
:100EB000002330226B490090634800F0DEFD0820DB
:100EC00000233822684900905F4800F0D6FD0820D2
:100ED00000234022654900905B4800F0CEFD0820C9
:100EE0000023482262490090574800F0C6FD0820C0
:100EF000002350225F490090534800F0BEFD0820B7
:100F0000002358225C4900904F4800F0B6FD0820AD
:100F100000236022594900904B4800F0AEFD0820A4
:100F20000023682256490090474800F0A6FD08209B
:100F30000023702253490090434800F09EFD082092
:100F400000237822504900903F4800F096FD082089
:100F5000002380224D4900903B4800F08EFD082080
:100F6000002388224A490090374800F086FD37491F
:100F70000820FFF7B7F94749086035490820FFF70F
:100F8000B1F94549086033490820FFF7ABF94349F7
:100F9000086031490820FFF7A5F9414908602F4949
:100FA0000820FFF79FF93F4908602D490820FFF707
:100FB00099F93D4908602B490820FFF793F93B490F
:100FC000086029490820FFF78DF939490860274949
:100FD0000820FFF787F93749086025490820FFF7FF
:100FE00081F93549086023490820FFF77BF9334927
:100FF000086021490820FFF775F9314908601F4949
:101000000820FFF76FF92F4908601D490820FFF7F6
:1010100069F92D4908601B490820FFF763F92B493E
:10102000086019490820FFF75DF929490860174948
:101030000820FFF757F92749086015490820FFF7EE
:1010400051F92549086008BDDC0800201C07002074
:10105000240700202C070020340700203C07002034
:10106000440700204C070020540700205C070020A4
:10107000640700206C070020740700207C07002014
:10108000840700208C070020940700209C07002084
:10109000A407002094060020980600209C0600204B
:1010A000A0060020A4060020A80600207C06002040
:1010B0008006002084060020880600208C06002080
:1010C00090060020AC060020B0060020B4060020E8
:1010D000B8060020BC060020C006002008B500238A
:1010E000894A082189480068FFF73AF90023884AAD
:1010F000082188480068FFF733F90023864A082151
:1011000086480068FFF72CF90023854A08218548A6
:101110000068FFF725F90023834A08218348006807
:10112000FFF71EF90023824A082182480068FFF772
:1011300017F90023804A082180480068FFF710F95A
:1011400000237F4A08217F480068FFF709F9002340
:101150007D4A08217D480068FFF702F900237C4A98
:1011600008217C480068FFF7FBF800237A4A082131
:101170007A480068FFF7F4F80023794A0821794893
:101180000068FFF7EDF80023774A082177480068E8
:10119000FFF7E6F80023764A082176480068FFF753
:1011A000DFF80023744A082174480068FFF7D8F874
:1011B0000023734A082173480068FFF7D1F8002321
:1011C000714A082171480068FFF7CAF80023704A85
:1011D000082170480068FFF7C3F8082000231A466A
:1011E0006D490090484800F048FC08200346002262
:1011F00069490090464800F040FC08201023002276
:1012000065490090444800F038FC0820182300226B
:1012100061490090424800F030FC08202023002261
:101220005D490090404800F028FC08202823002257
:10123000594900903E4800F020FC0820302300224D
:10124000554900903C4800F018FC08203823002243
:10125000514900903A4800F010FC08204023002239
:101260004D490090384800F008FC0820482300222F
:1012700049490090364800F000FC08205023002225
:1012800045490090344800F0F8FB0820582300221C
:1012900041490090324800F0F0FB08206023002212
:1012A0003D490090304800F0E8FB08206823002208
:1012B000394900902E4800F0E0FB082070230022FE
:1012C000354900902C4800F0D8FB082078230022F4
:1012D000314900902A4800F0D0FB082080230022EA
:1012E0002D490090284800F0C8FB082088230022E0
:1012F00029490090264800F0C0FB9023264A00218F
:10130000022000F083FB08BD1C070020940600208B
:1013100024070020980600202C0700209C060020AF
:1013200034070020A00600203C070020A40600206F
:1013300044070020A80600204C0700207C0600205F
:1013400054070020800600205C070020840600204F
:1013500064070020880600206C0700208C0600200F
:1013600074070020900600207C070020AC060020B7
:1013700084070020B00600208C070020B40600205F
:1013800094070020B80600209C070020BC0600201F
:10139000A4070020C00600204C080020F0B5074636
:1013A0000C461546002F4ED144B93DB900237B4A67
:1013B00005217B480068FEF7D3FF37E04CB9012DCB
:1013C00007D10023754A052176480068FEF7C8FF5B
:1013D0002CE04CB9022D07D10023704A0521724838
:1013E0000068FEF7BDFF21E0012C08D13DB90023C4
:1013F0006A4A05216D480068FEF7B2FF16E0012C2D
:1014000009D1012D07D10023644A052168480068ED
:10141000FEF7A6FF0AE0012C08D1022D06D1002319
:101420005E4A052163480068FEF79AFF5B4806792B
:1014300000785A49087108460670C6784078C87026
:1014400008464670A8E0012F56D144B93DB90023A3
:10145000524A052158480068FEF782FF37E04CB930
:10146000012D07D100234D4A052154480068FEF79D
:1014700077FF2CE04CB9022D07D10023474A052104
:101480004F480068FEF76CFF21E0012C08D13DB900
:101490000023424A05214B480068FEF761FF16E031
:1014A000012C09D1012D07D100233C4A05214648D2
:1014B0000068FEF755FF0AE0012C08D1022D06D185
:1014C0000023364A052141480068FEF749FF3348AA
:1014D000067900783149087108460670C678407868
:1014E000C87008464670002C56D1007838490870FC
:1014F0002A48407888704FE0022F4DD144B93DB959
:101500000023264A052133480068FEF729FF37E00B
:101510004CB9012D07D10023204A05212E4800682F
:10152000FEF71EFF2CE04CB9022D07D100231B4A09
:1015300005212A480068FEF713FF21E0012C08D19D
:101540003DB90023154A052125480068FEF708FF2C
:1015500016E0012C09D1012D07D100230F4A0521E6
:1015600020480068FEF7FCFE0AE0012C08D1022D9D
:1015700006D10023094A05211B480068FEF7F0FE4A
:101580000648067900780549087108460670C6784D
:101590004078C87008464670F0BD0000C4060020C0
:1015A00094060020980600209C060020A00600203B
:1015B000A4060020A80600207C060020800600204B
:1015C00084060020880600208C060020900600205B
:1015D000CA060020AC060020B0060020B406002099
:1015E000B8060020BC060020C006002003490860A1
:1015F00000BF024909680029FBD1704700000020A4
:101600000448006820B103480068401E0149086092
:10161000704700000000002010B50446002C60D187
:10162000BBA300221146104600F0B7FEB9480022C5
:1016300010210368104601F06FFFB7A30022114686
:10164000022000F0AAFEB548002210210368022003
:1016500001F062FFB2A300221146042000F09DFEBB
:10166000B048002210210368042001F055FFA8A310
:1016700000224821104600F090FEAB48002258217D
:101680000368104601F048FFA8A300224821022069
:1016900000F083FEA648002258210368022001F0D2
:1016A0003BFF9FA300224821042000F076FEA148C2
:1016B000002258210368042001F02EFF9EA300227F
:1016C0001146062000F069FE9CA300222C21062072
:1016D00000F063FE9BA300226821062000F05DFE5F
:1016E00015E1012C66D198A300221146104600F0A6
:1016F00054FE9748002220210368104601F00CFF99
:1017000094A300221146022000F047FE93480022D5
:1017100020210368022001F0FFFE91A30022114660
:10172000042000F03AFE90480022202103680420A3
:1017300001F0F2FE01208D4908708DA3002248219E
:10174000104600F02AFE8B480022582103681046FC
:1017500001F0E2FE75A300224821022000F01DFEE8
:101760008548002258210368022001F0D5FE83A39A
:1017700000224821042000F010FE81480022582158
:101780000368042001F0C8FE0020784908706AA3AD
:1017900000221146062000F000FE68A300222C2142
:1017A000062000F0FAFD67A300226821062000F061
:1017B000F4FDACE0022C60D172A300221146104669
:1017C00000F0EBFD7048002210210368104601F084
:1017D000A3FE6EA300221146022000F0DEFD6C483D
:1017E000002210210368022001F096FE69A3002266
:1017F0001146042000F0D1FD674800221021036843
:10180000042001F089FE65A300224821104600F063
:10181000C4FD6348002258210368104601F07CFE95
:1018200060A300224821022000F0B7FD5E4800229C
:1018300058210368022001F06FFE5CA300224821BA
:10184000042000F0AAFD5A48002258210368042011
:1018500001F062FE38A300221146062000F09DFD33
:1018600036A300222C21062000F097FD35A300228C
:101870006821062000F091FD49E0032C47D12FA3F9
:1018800000222C21062000F088FD2EA300226821D2
:10189000062000F082FD47A301221821002000F05D
:1018A0007CFD01231A463821002001F035FE43A3B8
:1018B00001220021022000F070FD022300221021ED
:1018C000184601F029FE3EA301224021022000F02B
:1018D00064FD022300225021184601F01DFE39A3A9
:1018E00001220021042000F058FD032300221821CA
:1018F000042001F011FE34A301224021042000F055
:101900004CFD042300225821184601F005FE10BDAD
:10191000503A000094060020493A00009806002042
:10192000443A00009C060020A0060020623A000015
:10193000A4060020A8060020536574005368696659
:101940007400000052756E004D5F533A00000000B5
:101950007C060020485F533A00000000800600200B
:101960004C5F533A000000008406002076060020F9
:10197000613A0000880600208C060020633A0000CF
:1019800090060020313A0000AC060020323A0000F8
:10199000B0060020333A0000B4060020343A0000BC
:1019A000B8060020353A0000BC060020363A000098
:1019B000C00600206D69643A000000004C3A000047
:1019C000523A0000384C3A0038523A002DE9F043C0
:1019D00080460E4617461D46404600F079F88419A9
:1019E000012000FB0549A9EB0400B0F5804F03D3AB
:1019F0004FF0FF30BDE8F083002303E02078F85477
:101A0000641C5B1CAB42F9D30120F3E72DE9F05FC6
:101A100081460F4690461E4600F038F9D32000F06C
:101A2000BBF8484600F054F8C519012000FB065ADF
:101A3000AAEB0500B0F5804F03D34FF0FF30BDE8AF
:101A4000F09F484600F02BF8834600BF584600F050
:101A5000C5F80028FAD1002409E000BF18F80410E6
:101A6000284600F071F80028F8D16D1C641CB442BF
:101A7000F3D300F097F80120E1E7F0B5059C1719C2
:101A8000BDB21F19BEB207E02F1BC75DA6EB040C49
:101A900001F80C70671EBCB2002CF5D1F0BD0146F8
:101AA0000B2903D8F82000EAC1007047172904D891
:101AB000081DF82202EAC000F7E71B2905D8A1F1AA
:101AC0000C00F82202EAC000EFE74FF0FF30ECE72D
:101AD0000146042904D24FF0006000EB81307047CA
:101AE000052901D21448FAE70C2904D2481F134AE9
:101AF00002EB4040F3E7102906D2A1F10C004FF0B1
:101B0000016202EB8030EAE7112901D20C48E6E7D6
:101B1000182905D2A1F111000A4A02EB4040DEE784
:101B20001C2906D2A1F118004FF0026202EB80409E
:101B3000D5E74FF0FF30D2E70000010800000208AF
:101B4000000011080000120870B504460D4600267A
:101B5000701E00F031F80646CEB90E48006820F439
:101B600040700C4908600846006808600846006834
:101B700040F00100086025704FF0FF3000F01CF8C5
:101B800006460448006820F001000249086030461B
:101B900070BD0000103C0240014908607047000021
:101BA0000C3C02400348006840F0004001490860D6
:101BB00070470000103C024000B50346012200BF00
:101BC00000F03AF802465B1E012A01D1002BF7D142
:101BD000012A00D10822104600BD000030B504469D
:101BE0000025681EFFF7E8FF05460DBB1148006899
:101BF00020F0F8000F4908600846006844F0020130
:101C000008430C4908600846006840F480300860CA
:101C10004FF0FF30FFF7D0FF05460648006820F080
:101C20000200044908600846006820F0F8000860D7
:101C3000284630BD103C024000201349096801F4D9
:101C40008031B1F5803F01D101201CE00E490968C7
:101C500001F0100109B1052015E00B49096801F4F4
:101C6000807109B102200EE00749096801F0EF0117
:101C700009B1072007E00449096801F0020109B130
:101C8000062000E0002070470C3C02400548006838
:101C900000F0004028B1044802490C3908600348AC
:101CA00008607047103C024023016745AB89EFCDC7
:101CB000F0B503461C6A5D6A00200DE001268640EF
:101CC00016403EB187000F26BE40B443860001FA9D
:101CD00006F63443461CB0B20828EFD3082011E0C2
:101CE0000126864016405EB1A0F10806B7000F2617
:101CF000BE40B543A0F10806B60001FA06F635432A
:101D0000461CB0B21028EBD31C625D62F0BD0246E7
:101D10001069084008B1012070470020FCE72DE958
:101D2000F04104460D4616461F463B4632462946BC
:101D3000204600F002F8BDE8F081F0B504460D46FB
:101D400016462168E268002019E0012787401F40FD
:101D50009FB14FEA400C032707FA0CF7B94347003D
:101D600005FA07F739434FEA400C032707FA0CF747
:101D7000BA43470006FA07F73A43471CB8B210289F
:101D8000E3D32160E260F0BD2DE9F04705460E4641
:101D900017461C46DDE908894B463A463146284637
:101DA000FFF7CBFF4B4642462146284600F002F89B
:101DB000BDE8F087F0B50C461546012C03D1466806
:101DC0001E43466002E046689E43466082680021EA
:101DD0000DE001268E401E403EB14F000326BE405E
:101DE000B2434E0005FA06F632434E1CB1B210293A
:101DF000EFD38260F0BD012904D1026842F4806211
:101E0000026003E0026822F4806202607047000012
:101E10002DE9F05F04460E469346022000F046FB93
:101E200007462E48B7FBF0F8B8F1320F01D34FF058
:101E30003208D4F804A02AF03F0A4AEA080AC4F893
:101E400004A02748864218D82448B7FBF0F000F1D8
:101E50000109B9F1320F02D33220206201E0C4F847
:101E600020907000B7FBF0F5042D00D20425E06946
:101E7000C5F30B010843E0612EE01A4886422BD8D7
:101E80004FF4967008FB00F04FF47A71B0FBF1F05C
:101E9000401C2062BBF1000F08D106EB4600B7FBE7
:101EA000F0F5E06920F48040E06109E006EBC6004F
:101EB00000EB0610B7FBF0F5E06940F48040E0610C
:101EC000C5F30B0008B945F00105E06940F4004096
:101ED000E061E0692843E061BDE8F09F40420F0007
:101EE000A0860100801A06007CB504460D4640F627
:101EF000054000F06DFB0220009001231A460146C8
:101F000001901648FFF740FF0120022103460246D8
:101F1000CDE900101148FFF737FF022204210F48D6
:101F2000FFF7C6FE012204210C48FFF7C1FE41F273
:101F3000160000F04DFB002221460948FFF768FF1C
:101F40002B4600221146064800F041F8044800F0F4
:101F50000CF801210248FFF74EFF7CBD001402403F
:101F600000580040CAB202617047016841F00101A7
:101F70000160704710B540F20152914202D14269AE
:101F800082690AE000EB9112126801F01F0401233C
:101F9000A3409A4300EB91131A6010BD10B502469E
:101FA00002EB9110006801F01F040123A3401840C8
:101FB00008B1012010BD0020FCE712F1020F02D190
:101FC00021F0010101E041F001010161704730B5EC
:101FD0000C460021016821F0020121430160C3F396
:101FE000090342EA0305856030BD000070B5044670
:101FF0000E46154600BF40F201612748FFF7CEFFAD
:102000000028F8D1244800F049F800BF4FF4A0613F
:102010002148FFF7C3FF0028F8D06FF001022146E6
:102020001D48FFF7CAFF00BF40F201511A48FFF7F1
:10203000B5FF0028F8D040F201511748FFF79AFF8A
:1020400000BF40F207511448FFF7A8FF0028F8D05E
:1020500031461148FFF786FF00BF40F202510E489B
:10206000FFF79CFF0028F8D029460B48FFF77AFFBE
:1020700000BF40F202510848FFF790FF0028F8D057
:10208000054800F010F800BF0348006800F4007035
:102090000028F9D170BD000000580040016841F4EB
:1020A000807101607047016841F400710160704700
:1020B00010B50446104931F8140000F089FA0F49B0
:1020C00051F824300E4951F8240000220121FFF775
:1020D00034FE0A4951F82430094951F824000222FB
:1020E0000021FFF767FE054850F82400044951F825
:1020F0002410886210BD0000440800203808002029
:102100002C08002010B50020FEF7FCFB0120FEF794
:10211000F9FB0220FEF7F6FB0320FEF7F3FB042099
:10212000FEF7F0FB0520FEF7EDFB10BD1CB501F03E
:10213000EBFA4FF4AF640020FFF7BAFF0120FFF77E
:10214000B7FF0220FFF7B4FF00211E48FFF7CCFEC7
:10215000FEF7B6FBFEF788F94FF4406000F038FA5E
:102160000820022100231A46CDE900101648FFF787
:102170000BFE082202211448FFF79AFD21E01020EF
:10218000009042F210702218052300210846FEF745
:1021900053FD0120FEF7CEFB012800D10A340120B7
:1021A000FEF7C8FB022800D10A3CA0B244F61F612A
:1021B00063230322CDE90010044941F2030000F03B
:1021C00021F9DCE7801A060000000240000C004004
:1021D00010B50246012000E050430B1EA1F101049E
:1021E000E1B2F9D110BD00002DE9F05F81460E4645
:1021F00015461C46DDF828B01EB9C4F10600C7B26A
:1022000002E0C4F10F00C7B2F8064FEA106808F107
:10221000080000F0FF0AB9F1010F37D1002E35D1C7
:102220005048005D30304F49085565B95246414627
:102230000020FEF7DEFD4B4803195A4641460020B8
:1022400000F094F81CE0012D0CD1524641460220CA
:10225000FEF7CFFD434803195A464146022000F0DD
:1022600085F80DE0022D0BD1524641460420FEF7C1
:10227000C0FD3C4803195A464146042000F076F858
:102280003848005D30383749085569E03648005D08
:102290003030354908556EB965B95246414600207F
:1022A000FEF7A7FD304803195A464146002000F0CA
:1022B0005DF850E076B9012D0CD15246414602201E
:1022C000FEF797FD284803195A464146022000F0C0
:1022D0004DF840E076B9022D0CD15246414604201B
:1022E000FEF787FD204803195A464146042000F0B6
:1022F0003DF830E0012E0DD165B95246414600202F
:10230000FEF777FD184803195A464146002000F0B1
:102310002DF820E0012E0ED1012D0CD15246414660
:102320000220FEF766FD104803195A464146022076
:1023300000F01CF80FE0012E0DD1022D0BD15246FA
:1023400041460420FEF755FD074803195A46414609
:10235000042000F00BF80448005D303802490855AD
:10236000BDE8F09FCA060020C40600202DE9F04118
:1023700005460E4617461C46012F06D1227810232B
:1023800031462846FEF716FC05E022781023294640
:102390003046FEF7D1FBBDE8F0812DE9F04107465C
:1023A0000C4690461E460025B8F1010F14D10FE0EF
:1023B000725D102321463846FEF7FCFB04F108004D
:1023C000C4B2782C02DD0024B81CC7B2681CC5B2A8
:1023D000705D0028ECD113E00FE0725D10233946E8
:1023E0002046FEF7A9FB04F10800C4B2782C02DDF8
:1023F0000024B81CC7B2681CC5B2705D0028ECD1BF
:10240000BDE8F0812DE9F04387B007460C4615463C
:102410001E46DDE90E98384600F0DAF80020ADF8E7
:102420001400204601F002FBADF800600020ADF87A
:102430000200ADF80400CDF80890ADF806008DF864
:102440000C006946204601F0B9FB0020ADF81400ED
:102450000120ADF810000020ADF81600ADF8120014
:10246000ADF81800ADF81A0004AA2946204601F07C
:1024700079F942462946204601F097FA602229461A
:10248000204601F065FA00222946204601F0A0FA14
:102490000121204601F0DEFB204601F05DF92046D7
:1024A00001F086FB07B0BDE8F08300002DE9F04F96
:1024B0008CB0064600200A903EA090E8004CC06810
:1024C000CDE905BECDF810A007900FF2EC0ADAE9CD
:1024D000000ACDE9020A0FF2E00ADAE9000ACDE9C2
:1024E000000A38480068C0F381000B900B9820B1B7
:1024F000012804D0022828D103E0334927E03349DA
:1025000025E03048001F006800F03F072D48001FFD
:102510000068C0F3881C2B48001F0068C0F301400E
:10252000401C4FEA40092748001F006800F480085B
:10253000B8F5800F01D1254B00E0234BB3FBF7F03A
:1025400000FB0CF0B0FBF9F101E01F4900BF00BF38
:102550001C480068C0F3031404A8055D21FA05F2C5
:1025600018480068C0F3822402A8055D22FA05F02D
:10257000099014480068C0F342341DF8045022FA50
:1025800005F0089036B1012E06D0022E06D0032E9B
:102590000AD106E00A9108E00A9206E009980A903A
:1025A00003E008980A9000E000BF00BF0A980CB052
:1025B000BDE8F08F000000000000000001020304ED
:1025C00006070809083802400024F40040787D011D
:1025D000074A02EB9011D1F8001800F01F03012206
:1025E0009A401143024B03EB9012C2F80018704757
:1025F00000300240074A02EB9011D1F8001800F0B9
:102600001F0301229A409143024B03EB9012C2F840
:102610000018704700300240074A02EB9011D1F8D1
:10262000001800F01F0301229A401143024B03EBF4
:102630009012C2F8001870470030024010B5F94AF5
:102640001278002A76D1D8B9D1B9F74A1278F64B68
:102650005B780A2414FB0322F34B9B78642414FB5D
:102660000322F14BDB784FF47A7414FB0322EE4B18
:102670001B7942F2107414FB0322EC4B1A60CFE179
:10268000E0B901291AD1E84A1278E74B5B780A24AD
:1026900014FB0322E44B9B78642414FB0322E24BDB
:1026A000DB784FF47A7414FB0322DF4B1B7942F280
:1026B000107414FB0322DE4B1A60B1E1E0B9022969
:1026C0001AD1D94A1278D84B5B780A2414FB03221A
:1026D000D54B9B78642414FB0322D34BDB784FF457
:1026E0007A7414FB0322D04B1B7942F2107414FB52
:1026F0000322D04B1A6093E101281CD1D9B9CA4AF0
:102700001278C94B5B780A2414FB0322C64B9B78D2
:10271000642414FB0322C44BDB784FF47A7414FB5B
:102720000322C14B1B7942F2107414FB0322C24BEB
:102730001A6075E13DE001281CD101291AD1BA4A7D
:102740001278B94B5B780A2414FB0322B64B9B78B2
:10275000642414FB0322B44BDB784FF47A7414FB2B
:102760000322B14B1B7942F2107414FB0322B34BCA
:102770001A6055E10128A0D102299ED1AA4A1278F7
:10278000A94B5B780A2414FB0322A74B9B78642493
:1027900014FB0322A44BDB784FF47A7414FB03225E
:1027A000A14B1B7942F2107414FB0322A44B1A6054
:1027B00036E19C4A1278012A7AD110BB49B9A14A64
:1027C0001278A04B9B780A2414FB03229E4B1A60BC
:1027D00026E1012909D19B4A12789A4B9B780A2459
:1027E00014FB0322994B1A601AE10229A1D1954AE0
:1027F0001278944B9B780A2414FB0322944B1A60A2
:102800000EE1D1B9884A1278874B5B780A2414FB11
:102810000322854B9B78642414FB0322824BDB78D4
:102820004FF47A7414FB03227F4B1B7942F210742D
:1028300014FB0322874B1A60F2E001291AD17A4A6D
:102840001278794B5B780A2414FB0322764B9B7831
:10285000642414FB0322744BDB784FF47A7414FB6A
:102860000322714B1B7942F2107414FB03227A4B42
:102870001A60D5E002299BD16B4A12786A4B5B78CB
:102880000A2414FB0322684B9B78642414FB032264
:10289000654BDB784FF47A7414FB0322624B1B798F
:1028A00042F2107414FB03226C4B1A60B8E0FFE78D
:1028B0005C4A1278022A1BD1D8B9D1B95A4A127887
:1028C000594B5B780A2414FB0322574B9B786424F2
:1028D00014FB0322544BDB784FF47A7414FB03226D
:1028E000514B1B7942F2107414FB03225C4B1A60AB
:1028F00096E0E0B901291AD14B4A12784A4B5B782D
:102900000A2414FB0322484B9B78642414FB032203
:10291000454BDB784FF47A7414FB0322424B1B794E
:1029200042F2107414FB03224E4B1A6078E0E0B9B7
:1029300002291AD13C4A12783B4B5B780A2414FBDB
:102940000322394B9B78642414FB0322364BDB783B
:102950004FF47A7414FB0322334B1B7942F2107448
:1029600014FB0322404B1A605AE001281BD1D1B955
:102970002D4A12782C4B5B780A2414FB03222A4B35
:102980009B78642414FB0322274BDB784FF47A7482
:1029900014FB0322244B1B7942F2107414FB032214
:1029A000324B1A603CE001281CD101291AD11E4A81
:1029B00012781D4B5B780A2414FB03221A4B9B7878
:1029C000642414FB0322184BDB784FF47A7414FB55
:1029D0000322154B1B7942F2107414FB0322244B83
:1029E0001A601DE001281BD1022919D10E4A127864
:1029F0000D4B5B780A2414FB03220B4B9B78642459
:102A000014FB0322084BDB784FF47A7414FB032287
:102A1000054B1B7942F2107414FB0322154B1A600C
:102A200010BD000075060020C4060020940600209A
:102A3000980600209C060020A0060020A406002086
:102A4000A8060020CA0600207C0600208006002080
:102A500084060020880600208C06002090060020B6
:102A6000AC060020B0060020B4060020B806002006
:102A7000BC060020C00600202DE9F04106460C46A9
:102A800015461F46002E7DD19CB995B938220021EC
:102A90000846FEF7AEF9C8A33A4600210846FFF7FC
:102AA0007CFCC6483A4610210368002000F034FD43
:102AB00080E1A4B9012D12D1382200210220FEF7B5
:102AC00098F9BFA33A4600210220FFF766FCBD48F3
:102AD0003A4610210368022000F01EFD6AE1A4B905
:102AE000022D12D1382200210420FEF782F9B6A36C
:102AF0003A4600210420FFF750FCB4483A46102122
:102B00000368042000F008FD54E1012C13D195B9AD
:102B1000802248210020FEF76CF9A7A33A464821FD
:102B20000020FFF73AFCAA483A46582103680020E3
:102B300000F0F2FC3EE1012C14D1012D12D18022D3
:102B400038210220FEF755F9A2A33A464821022077
:102B5000FFF723FCA0483A4658210368022000F002
:102B6000DBFC27E1012CA3D1022DA1D18022382149
:102B70000420FEF73EF994A33A4648210420FFF7CB
:102B80000CFC00E007E095483A4658210368042011
:102B900000F0C2FC0EE1012E7ED19CB995B9402215
:102BA00000210846FEF725F98DA33A460021084684
:102BB000FFF7F3FB8C483A4620210368002000F021
:102BC000ABFCF7E0A4B9012D12D140220021022074
:102BD000FEF70FF985A33A4600210220FFF7DDFB3F
:102BE00084483A4620210368022000F095FCE1E089
:102BF000A4B9022D12D1402200210420FEF7F9F8D9
:102C00007DA33A4600210420FFF7C7FB7C483A46E3
:102C100020210368042000F07FFCCBE0012C13D1BD
:102C200095B9802240210020FEF7E3F875A33A46CB
:102C300048210020FFF7B1FB73483A46582103684A
:102C4000002000F069FCB5E0012C14D1012D12D157
:102C5000802240210220FEF7CCF85EA33A464821AC
:102C60000220FFF79AFB69483A4658210368022080
:102C700000F052FC9EE0012C8CD1022D8AD18022E2
:102C800040210420FEF7B5F861A33A46482104200C
:102C9000FFF783FB5F4800E006E03A4658210368EF
:102CA000042000F039FC85E0022E8AD19CB995B948
:102CB000382200210846FEF79CF857A33A46002127
:102CC0000846FFF76AFB55483A4610210368002082
:102CD00000F022FC6EE0A4B9012D12D138220021AF
:102CE0000220FEF786F84EA33A4600210220FFF7A5
:102CF00054FB4C483A4610210368022000F00CFCBB
:102D000058E0A4B9022D12D1382200210420FEF788
:102D100070F845A33A4600210420FFF73EFB4348E4
:102D20003A4610210368042000F0F6FB42E0012C33
:102D300013D195B9802248210020FEF75AF83CA310
:102D40003A4648210020FFF728FB3A483A465821E6
:102D50000368002000F0E0FB2CE0012C14D1012DD1
:102D600012D1802238210220FEF743F832A33A46DE
:102D700048210220FFF711FB30483A4658210368EA
:102D8000022000F0C9FB15E0012C13D1022D11D156
:102D9000802238210420FEF72CF829A33A46482146
:102DA0000420FFF7FAFA27483A465821036804201E
:102DB00000F0B2FBBDE8F081503A0000940600201C
:102DC000493A000098060020443A00009C06002082
:102DD000A0060020623A0000A4060020A8060020F9
:102DE0004D5F533A000000007C060020485F533AD4
:102DF00000000000800600204C5F533A00000000F5
:102E000084060020613A0000880600208C0600201D
:102E1000633A000090060020313A0000AC06002022
:102E2000323A0000B0060020333A0000B406002019
:102E3000343A0000B8060020353A0000BC060020F5
:102E4000363A0000C00600200120084908700848F2
:102E50000078022803D100200549087004E00448E6
:102E60000078401C02490870704700007906002075
:102E70007706002008B5112200210620FDF7B9FFD2
:102E800034A3012200210620FFF787FA3220FEF743
:102E9000ADFB032030490870304802783048017893
:102EA00030480078FEF77AFA2E48007801280CD1D5
:102EB0002B48007848B92C4800782B4989780A2299
:102EC00012FB01002949086019E0294800782849C7
:102ED00049780A2212FB010025498978642212FBF5
:102EE00001002349C9784FF47A7212FB010020498E
:102EF000097942F2107212FB01001C49086080221D
:102F000000210620FDF775FF1AA3002211460620B6
:102F1000FFF743FA18A3002260210620FFF73DFACD
:102F200000230E4802780E4801780E480078FFF71B
:102F3000A3FD012000901248037808480278084851
:102F4000017808480078FFF74FF90220024908701D
:102F500008BD000053657400740600207706002049
:102F60007606002075060020CA060020D006002044
:102F7000C40600204F6B00004261636B000000003C
:102F8000780600200120074908700748007818B922
:102F900001200549087004E003480078401E0249FA
:102FA00008707047790600207606002010B50024CE
:102FB000802240210620FDF71CFF54A3012260213E
:102FC0000620FFF7EAF93220FEF710FB00205149F6
:102FD000087051490870514908700820FDF743F9FD
:102FE0004F4800684F490968884201D0012486E0B3
:102FF0004D4800684D490968884201D001247EE0AF
:103000004B4800684B490968884201D0012476E0AA
:103010004948006849490968884201D001246EE0A6
:103020004748006847490968884201D0012466E0A2
:103030004548006845490968884201D001245EE09E
:103040004348006843490968884201D0012456E09A
:103050004148006841490968884201D001244EE096
:103060003F4800683F490968884201D0012446E092
:103070003D4800683D490968884201D001243EE08E
:103080003B4800683B490968884201D0012436E08A
:103090003948006839490968884201D001242EE086
:1030A0003748006837490968884201D0012426E082
:1030B0003548006835490968884201D001241EE07E
:1030C0003348006833490968884201D0012416E07A
:1030D0003148006831490968884201D001240EE076
:1030E0002F4800682F490968884201D0012406E072
:1030F0002D4800682D490968884200D00124012C20
:1031000002D10024FDF7EAFF10BD00004578697484
:1031100000000000740600207606002077060020DC
:1031200094060020D406002098060020D80600202F
:103130009C060020DC060020A0060020E0060020FF
:10314000A4060020E4060020A8060020E8060020CF
:103150007C060020EC06002080060020F0060020FF
:1031600084060020F406002088060020F8060020CF
:103170008C060020FC06002090060020000700209E
:10318000AC06002004070020B0060020080700203D
:10319000B40600200C070020B8060020100700200D
:1031A000BC06002014070020C006002018070020DD
:1031B00001200849087008480078012803D1002040
:1031C0000549087004E004480078401C0249087072
:1031D000704700007906002076060020012007498C
:1031E00008700748007818B902200549087004E003
:1031F00003480078401E0249087070477906002095
:103200007706002001201949087019480078012824
:1032100017D118480078A0B9174818490978405CB8
:1032200028B909201449154A127888541DE012481B
:1032300012490978405C401E0F49104A12788854A0
:1032400013E00F480D490978405C28B909200C4962
:103250000A4A1278885408E0094808490978405C0D
:10326000401E0749054A12788854704779060020A5
:103270007506002076060020CA0600207806002089
:10328000C406002010B5102200210620FDF7B1FD74
:1032900017A3012200210620FFF77FF83220FEF756
:1032A000A5F90120134908701348017813480078E4
:1032B000FFF7C4F90123104802781048017810483C
:1032C0000078FFF7D9FB802200210620FDF791FD51
:1032D0000CA3002211460620FFF75FF80AA3002284
:1032E00060210620FFF759F800200949087010BD39
:1032F0004F6B000074060020770600207606002041
:10330000750600205365740045786974000000005C
:103310007806002001201149087011480078012822
:103320000DD11048007850B90F48007818B9022024
:103330000D49087010E000200B4908700CE00A48A5
:103340000078042803D100200749087004E00648EB
:103350000078401C0449087070470000790600207E
:1033600075060020760600207806002010B5802221
:1033700040210620FDF73DFD24A301226021062007
:10338000FFF70BF83220FEF731F90023214A05211F
:1033900021480068FCF7E4FF1E48047900781D49C5
:1033A000087108460470C4784078C87008464470B4
:1033B00000781A49087017484078887018480178D2
:1033C00018480078FFF73AF90120174908700123DF
:1033D000134802781348017814480078FFF74CFB33
:1033E000002013490870802200210620FDF701FD0E
:1033F00010A3002211460620FEF7CFFF0EA30022E5
:1034000060210620FEF7C9FF10BD00004261636B1A
:1034100000000000C4060020D0060020CA060020DC
:10342000770600207606002074060020750600202E
:103430007806002053657400457869740000000028
:103440000120104908701048007801280DD10F485C
:10345000007850B90E48007818B902200C4908705D
:103460000FE000200A4908700BE00948007818B9FD
:1034700004200749087004E005480078401E04490C
:103480000870704779060020750600207606002037
:103490007806002001201A4908701A48007801288F
:1034A00018D119480078A8B9184819490978405C1A
:1034B000092805D100201549154A127888541EE0C4
:1034C000124813490978405C401C1049104A127890
:1034D000885414E00F480E490978405C092805D14A
:1034E00000200C490A4A1278885408E00948084923
:1034F0000978405C401C0749054A12788854704797
:10350000790600207506002076060020CA060020F5
:1035100078060020C40600202DE9F04786B0074653
:10352000884691461E46324903C9CDE9040100246C
:103530000025A246012304AA05213046FCF710FF0E
:1035400000BF04E0202001A90855601CC4B2062C6D
:10355000F8DB28480078012818D127480078A8B956
:103560009DF815008DF80F009DF814008DF80E00E1
:103570002E208DF80D009DF813008DF80C0003AB84
:103580004A4641463846FEF708FF2CE01B480078C3
:10359000032806D104AB4A4641463846FEF7FDFEF5
:1035A00021E0002410E004A8005D302802D1BAF127
:1035B000000F07D04FF0010A04A8005D01A948558B
:1035C000681CC5B2601CC4B2052CECDB15B93020F8
:1035D0008DF8040000208DF8090001AB4A464146F1
:1035E0003846FEF7DAFE4FF0000A06B0BDE8F08775
:1035F000A03C000875060020760600207406002016
:1036000070470000002000213A4A126842F48032DC
:10361000384B1A6000BF401C364A126802F4003171
:1036200019B94FF6FF729042F5D1324A126802F48E
:1036300000320AB900BFFEE72E4A4032126842F05B
:1036400080522C4B40331A602B4A126842F440429D
:10365000294B1A60274A08321268264B08331A6031
:103660001A46126842F400421A601A46126842F47E
:10367000A0521A60214A1B1F1A601A1F126842F0DA
:1036800080721B1F1A6000BF1A4A126802F0007293
:10369000002AF9D0184A126842F48032164B1A6098
:1036A00000BF154A526802F48032002AF9D0124A4B
:1036B000126842F40032104B1A6000BF0E4A526882
:1036C00002F40032002AF9D00A4A0832126822F0C5
:1036D0000302084B08331A601A46126842F00202CD
:1036E0001A6000BF034A0832126802F00802002A7A
:1036F000F8D070470038024000700040196440095B
:1037000010B5FFF77FFF10BD10B5124800684FF4E9
:103710007A71B0FBF1F4601EB0F1807F01D301201B
:103720000FE0601E4FF0E02148610F214FF0FF30A5
:10373000FDF774F900204FF0E0218861072008614F
:10374000002008B100BFFEE70021481EFDF766F922
:1037500010BD000028080020016841F080010160D0
:103760007047000010B531B101293FD002297DD04A
:1037700003297CD1BFE0036A23F00103036283695C
:1037800023F003038361036A148823430362036AFB
:1037900023F002030362036A9488234303626A4BA3
:1037A000984202D0694B98421FD1036A23F0040368
:1037B0000362036A548823430362036A23F0080305
:1037C0000362036AD48823430362436823F480734B
:1037D00043604368148923434360436823F40073C0
:1037E00043604368548923434360ABE0036A23F09A
:1037F00010030362836923F440738361036A1488AE
:1038000043EA04130362036A23F020030362036A9A
:10381000948843EA041303624B4B984202D04B4B0B
:10382000984226D1036A23F040030362036A548856
:1038300043EA04130362036A23F080030362036A0A
:10384000D48843EA04130362436823F4806343602B
:103850004368148943EA84034360436823F40063A4
:1038600043604368548943EA840301E002E068E06E
:10387000436067E0036A23F480730362C36923F043
:103880000303C361036A148843EA04230362036ADF
:1038900023F400730362036A948843EA04230362F7
:1038A000294B984202D0294B984223D1036A23F432
:1038B00080630362036A548843EA04230362036A51
:1038C00023F400630362036AD48843EA0423036297
:1038D000436823F4805343604368148943EA041324
:1038E0004360436823F4005343604368548943EAC8
:1038F0000413436026E0036A23F480530362C36920
:1039000023F44073C361036A148843EA04330362F7
:10391000036A23F400530362036A948843EA04337E
:103920000362094B984202D0084B984208D1436881
:1039300023F4804343604368148943EA841343605B
:1039400000E000BF00BF10BD0000014000040140C6
:1039500031B101290CD0022913D0032922D118E05A
:10396000836923F0700383618369134383611AE0E1
:10397000836923F4E0438361836943EA022383611B
:1039800011E0C36923F07003C361C3691343C361CA
:1039900009E0C36923F4E043C361C36943EA022336
:1039A000C36100E000BF00BF704731B1012906D0FC
:1039B000022906D0032908D105E0426306E08263AC
:1039C00004E0C26302E0026400E000BF00BF704791
:1039D00031B101290CD0022913D0032922D118E0DA
:1039E000836923F0080383618369134383611AE0C9
:1039F000836923F400638361836943EA022383615B
:103A000011E0C36923F00803C361C3691343C361B1
:103A100009E0C36923F40063C361C36943EA022375
:103A2000C36100E000BF00BF7047000010B504464E
:103A30005C49601A8C426FD019DC5B49A4EB010031
:103A40008C424ED009DCB4F1804F2ED05748204430
:103A5000A0B3B0F5806F72D13AE0B0F5806F49D075
:103A6000B0F5006F4FD0B0F5406FF4D17BE0B0F50A
:103A7000923F5BD009DCB0F5806F73D0B0F5644F36
:103A80000AD0B0F5684F5AD147E0B0F5943F57D00F
:103A9000B0F5963F53D15CE04FF41060FEF7BCFDEB
:103AA0004FF41060FEF7A6FD79E04FF40060FEF7DA
:103AB000B3FD4FF40060FEF79DFD70E0FFE740F6B8
:103AC0000100FEF7A9FD40F60100FEF793FD66E058
:103AD00040F60200FEF7A0FD40F60200FEF78AFD68
:103AE0005DE040F60300FEF797FD40F60300FEF7A9
:103AF00081FD54E040F60400FEF78EFD40F6040020
:103B0000FEF778FD4BE040F60500FEF785FD40F638
:103B10000500FEF76FFD42E02EE040F60110FEF7D3
:103B20007BFD40F60110FEF765FD38E04FF41160B3
:103B3000FEF772FD4FF41160FEF75CFD2FE02DE003
:103B400040F61110FEF768FD40F61110FEF752FD29
:103B500025E040F61210FEF75FFD40F61210FEF76A
:103B600049FD1CE011E040F60600FEF755FD40F669
:103B70000600FEF73FFD12E040F60700FEF74CFDA1
:103B800040F60700FEF736FD09E040F60800FEF7B4
:103B900043FD40F60800FEF72DFD00E000BF00BF2A
:103BA00010BD0000001C0040000C004000FCFFBFE6
:103BB000016841F001010160704700000A888262DB
:103BC0001D4A90420ED0B0F1804F0BD01B4A90425C
:103BD00008D01B4A904205D01A4A904202D01A4A95
:103BE00090420BD1026822F07002026002684B889A
:103BF0001A43026002688B881A4302608A68C262B4
:103C0000124A90420AD0124A904207D0026822F427
:103C1000407202600268CB881A430260064A9042F2
:103C200002D0094A904201D10A7B0263426942F004
:103C300001024261704700000000014000040040A2
:103C400000080040000C004000040140001000404B
:103C500000140040012904D1426C42F40042426445
:103C600003E0426C22F4004242647047002006499F
:103C70000870064908700649087006490870064928
:103C80000870064908707047740600207506002009
:103C900076060020770600207806002079060020AE
:103CA0002000000000000000C83C000800000020C8
:103CB0004C0800000C020008FC4000084C080020E2
:103CC00024050000E40D0008414010404020205031
:103CD000484443444850202040404BFE420162FE8D
:103CE00015FE2222FE2CFE828203211780601F42D5
:103CF000827F2B3F40011341701380701809FF2011
:103D000010084848FF48011A0820380E18070830E4
:103D1000020202FF020212221E2013100828087C51
:103D200054565554547C4019201F10414949497F2D
:103D30000402144172F84333301C100C0603912C1A
:103D400040C07803112C043F0403212D7088FC0827
:103D500029261820FF211E14F008F033E0184D2109
:103D60001C031E11338870000C101E2123241927F8
:103D7000211010160E45E018040225071820403DBA
:103D8000020418E0692C20180707174080F08040D3
:103D9000403F0202010F01022842F01D0101011FF4
:103DA00004912B80B066B1191D2901913A30CE499A
:103DB0002C146018043C6018061D1EE01008081042
:103DC000721F0F102020100FF05310F83620203FE4
:103DD00020203C700808C21E3028242221441E30B6
:103DE00008888848082E1820202011CC3BC020329B
:103DF00027070424243F241AF8202308084B1921FC
:103E00002036E0108888184B0F11101E380808C89B
:103E1000382021523F1A702E29608F1C2221212226
:103E20001C90111D31222211901961CAC0C26A80F2
:103E3000C659081C40201050170102040810204ADF
:103E40004001114A04012119152A403219251B0489
:103E500002F21B7048D13AF0501A360F1EC030C81B
:103E600028E87028080718272423140B6F2A387EA7
:103E7000280D203C23020227382008F888889F4B11
:103E8000203FF01BC0303F1B083830191019781B39
:103E900008F80F194039201B100F103E8888E808D9
:103EA0001010AC23201810112A035E294022382953
:103EB000402C221E024019A41809F808203F2101B5
:103EC0000121252A0852298129424149112EC08009
:103ED00080807F0E2FF888C0281808501C012638D3
:103EE0002F2940292F29801B20301012F81AF8148E
:103EF00013203F190229204B30C0601A2074123F52
:103F00004BE010B06B0F10B029D01AF0301980229E
:103F10000179203F18242438504FC04C888870C045
:103F2000140C30204B7088C11738202121221C3AF4
:103F3000189F4A188239A049D0112A1F90121F24B5
:103F40000878881BC838151C07380E60191A1AF82B
:103F5000201114033C0714073C0348140818688018
:103F60008068180820302C03032C30200838C82F14
:103F70005950298F29102F203826212020681145DB
:103F8000FE020202257F4040401A0CE0611C01063F
:103F9000380B191D42FE191D527F1A04120211041A
:103FA0005A80011930D91D391621180819242222E6
:103FB000223F20AB390F115F3F112020110E21311C
:103FC0001A0E104B2011104B88F8102A10B35940CC
:103FD0001A1F3F2B22130F16F0888888181A20D03A
:103FE00029D1497A21176B94949493603960190F01
:103FF0004C203F21F354809898793059121AC027E9
:1040000019D1193039311F203F24022D30212A08BF
:1040100012893069D7294B2903190BC96079A01976
:10402000BF2B201FDD390F9C80FFA1E0191229D082
:104030003BA0FF0C3950194112208A01C01B3324C8
:10404000012A190F3AE0413952290F392349603CBE
:10405000103F202C29053F010E3008060170291061
:1040600038080F300C030C300F2C49A14E312E0EA6
:1040700031200C29621D818E70183059D1215721B1
:10408000302C22213055807C0202443F404072FF98
:1040900039083C02027C8F5440403F000810060162
:1040A0000102020404197A113214F20A23881372ED
:1040B000644A6C661132C83282291802F8030C1364
:1040C0000C02400432023204321032083220220143
:1040D0008B030C02111A1828A904712937293329D6
:1040E0003B2937814B060C0241194B21ACC2EB0B2B
:0C40F0007429382918297B59621100003E
:04000005080001AD41
:00000001FF
