:020000040800F2
:10000000A8040020C50100085104000813020008DC
:100010004D0400080D020008410500080000000022
:100020000000000000000000000000007F04000845
:1000300011020008000000007D040008810400088F
:10004000DF010008DF010008DF010008DF01000810
:10005000DF010008DF010008DF010008DF01000800
:10006000DF010008DF010008DF010008DF010008F0
:10007000DF010008DF010008DF010008DF010008E0
:10008000DF010008DF010008DF010008DF010008D0
:10009000DF010008DF010008DF010008DF010008C0
:1000A000DF010008DF010008DF010008DF010008B0
:1000B000DF010008DF010008DF010008DF010008A0
:1000C000DF010008DF010008DF010008DF01000890
:1000D000DF010008DF010008DF010008DF01000880
:1000E000DF010008DF010008DF010008DF01000870
:1000F000DF010008DF010008DF010008DF01000860
:10010000DF010008DF010008DF010008DF0100084F
:10011000DF010008DF010008DF010008DF0100083F
:10012000DF010008DF010008DF010008DF0100082F
:10013000DF010008DF010008DF010008DF0100081F
:10014000DF010008DF010008DF010008DF0100080F
:10015000DF010008DF010008DF010008DF010008FF
:10016000DF010008DF010008DF010008DF010008EF
:10017000DF010008DF010008DF01000800000000C7
:10018000DF010008DF010008DF010008DF010008CF
:10019000DF010008DF010008DF01000800000000A7
:1001A000DF010008DF010008DF010008DFF810D0E0
:1001B00000F01AF80048004783060008AFF30080FB
:1001C000A80400200648804706480047FEE7FEE7EF
:1001D000FEE7FEE7FEE7FEE7FEE7FEE7FEE7FEE7F7
:1001E00089040008AD010008064C074D06E0E068F0
:1001F00040F0010394E8070098471034AC42F6D36E
:10020000FFF7D8FFE00800080009000800BFFEE77C
:10021000704700BFFEE7000010B50446044A52F8DC
:100220002410044A52F8240000F0B2F910BD000076
:10023000400000202800002010B50446632C0FD099
:100240000D4931F8140000F08FFA0C4951F82430B0
:100250000B4951F824000122002100F0A1F90AE025
:1002600040F6034000F080FA4FF47C530122002155
:10027000044800F095F910BD58000020400000200F
:1002800028000020000C024010B50446012C01D1CA
:100290003449087033480078002840D00020FFF728
:1002A000BBFF98B10120FFF7B7FF78B10220FFF73D
:1002B000B3FF58B10320FFF7AFFF38B10420FFF7B9
:1002C000ABFF18B10520FFF7A7FF40BB142000F0DB
:1002D00049F9002023490870FFF79EFF08B9012063
:1002E00010BD0220FFF798FF08B90220F8E70320AD
:1002F000FFF792FF08B90320F2E70120FFF78CFF18
:1003000008B90420ECE70420FFF786FF08B90520B0
:10031000E6E70520FFF780FF08B90620E0E70020A8
:10032000FFF77AFF012818D00120FFF775FF012899
:1003300013D00220FFF770FF01280ED00320FFF733
:100340006BFF012809D00420FFF766FF012804D0C5
:100350000520FFF761FF012802D101200149087043
:100360000020BDE7A00000201CB50446632C1CD073
:10037000184931F8140000F0F7F9174850F8240034
:100380000221CDE90010154951F8240000231A4636
:10039000012100F03AF9104A52F824100F4A52F89D
:1003A0002400002200F068F912E040F6034000F05B
:1003B000DBF90720022100231A46CDE900100121B4
:1003C000074800F022F900220721054800F054F9FF
:1003D0001CBD0000200000201400002008000020A8
:1003E000000C024010B50446632C09D0074A52F8AD
:1003F0002410074A52F82400012200F03DF904E0DD
:1004000001220721034800F037F910BD1400002035
:1004100008000020000C024010B50446632C09D0EF
:10042000074A52F82410074A52F82400002200F02C
:1004300023F904E000220721034800F01DF910BD54
:100440001400002008000020000C024000BFFEE75E
:100450007047000010B5002807DA0A07140E054A95
:1004600000F00F031B1FD45403E00A07130E024AC7
:10047000135410BD18ED00E000E400E07047704731
:1004800010B500F079F810BD08B52948006840F4AF
:100490007000274908602748006840F0010025499E
:1004A000086024480830006840F080002149083185
:1004B00008600020009002E00098401C00904CF280
:1004C000503100988842F7D31A480830006840F04D
:1004D00090001849083108600020009002E0009860
:1004E000401C00904CF2503100988842F7D3002015
:1004F00010490831086000BF0E480830006800202D
:100500000028F9D10B4800680B49084009490860E8
:100510000A48091D0860081F006820F48020091F90
:100520000860002003490C31086000F0ADF908BDF7
:1005300088ED00E000380240FFFFF6FE1030002496
:1005400000BFFEE702E008C8121F08C1002AFAD166
:1005500070477047002001E001C1121F002AFBD143
:10056000704700000349086000BF0249096800297C
:10057000FBD17047000000200448006820B1034808
:100580000068401E0149086070470000000000201C
:1005900002461069084008B1012070470020FCE7BE
:1005A0002DE9F04104460D4616461F463B463246AD
:1005B0002946204600F002F8BDE8F081F0B5044677
:1005C0000D4616462168E268002019E001278740A1
:1005D0001F409FB14FEA400C032707FA0CF7B943BD
:1005E000470005FA07F739434FEA400C032707FA9B
:1005F0000CF7BA43470006FA07F73A43471CB8B26C
:100600001028E3D32160E260F0BD2DE9F0470546F4
:100610000E4617461C46DDE908894B463A463146E8
:100620002846FFF7CBFF4B4642462146284600F0BE
:1006300002F8BDE8F087F0B50C461546012C03D151
:1006400046681E43466002E046689E4346608268F4
:1006500000210DE001268E401E403EB14F000326D2
:10066000BE40B2434E0005FA06F632434E1CB1B20C
:100670001029EFD38260F0BD0AB1816100E0816290
:10068000704700F005F96320FFF76EFE4FF4FA7033
:10069000FFF768FF6320FFF7A5FE6320FFF7CCFD9F
:1006A00060E00120FFF7F0FD012809D10020FFF7ED
:1006B000B3FE0120FFF796FE0220FFF793FE51E004
:1006C0000120FFF7E1FD022809D10020FFF78AFE93
:1006D0000120FFF7A1FE0220FFF784FE42E0012087
:1006E000FFF7D2FD032809D10020FFF795FE012076
:1006F000FFF792FE0220FFF775FE33E00120FFF7BF
:10070000C3FD042809D10020FFF76CFE0120FFF78C
:1007100069FE0220FFF780FE24E00120FFF7B4FD10
:10072000052809D10020FFF777FE0120FFF75AFEC8
:100730000220FFF771FE15E00120FFF7A5FD062856
:1007400009D10020FFF74EFE0120FFF765FE0220D1
:10075000FFF762FE06E00120FFF796FD10B9632067
:10076000FFF740FE9DE70000074A02EB9011D1F829
:10077000001800F01F0301229A401143024B03EBC3
:100780009012C2F80018704700300240002000218B
:100790003A4A126842F48032384B1A6000BF401C5B
:1007A000364A126802F4003119B94FF6FF729042CE
:1007B000F5D1324A126802F400320AB900BFFEE7EE
:1007C0002E4A4032126842F080522C4B40331A605D
:1007D0002B4A126842F44042294B1A60274A0832D9
:1007E0001268264B08331A601A46126842F4004217
:1007F0001A601A46126842F4A0521A60214A1B1F5E
:100800001A601A1F126842F080721B1F1A6000BF24
:100810001A4A126802F00072002AF9D0184A1268C7
:1008200042F48032164B1A6000BF154A526802F437
:100830008032002AF9D0124A126842F40032104B7A
:100840001A6000BF0E4A526802F40032002AF9D042
:100850000A4A0832126822F00302084B08331A6071
:100860001A46126842F002021A6000BF034A0832B8
:10087000126802F00802002AF8D0704700380240DF
:10088000007000401964400910B5FFF77FFF10BDEC
:1008900010B5124800684FF47A71B0FBF1F4601E95
:1008A000B0F1807F01D301200FE0601E4FF0E02106
:1008B00048610F214FF0FF30FFF7CCFD00204FF0D3
:1008C000E021886107200861002008B100BFFEE731
:1008D0000021481EFFF7BEFD10BD000004000020EF
:1008E0000009000800000020A400000044050008E2
:1008F000A4090008A4000020040400005405000816
:100900000000000000C2EB0B000C0240000C024093
:10091000000C024004000000010000000200000082
:10092000030C030C030C0000000C0240000C0240FE
:10093000000C0240000C0240000C0240000C02407F
:100940000002000000040000001000000008000089
:100950000020000000010000030C030C030C030C3A
:10096000030C030C0018024000180240001802405B
:100970000018024000000000000000000400000019
:10098000080000001000000020000000000000002F
:1009900000000000060C060C060C060C000000000F
:0409A0000100000052
:04000005080001AD41
:00000001FF
