:020000040800F2
:1000000038170120C5010008F51F0008FD1500087C
:100010005D1D0008C9080008ED310008000000005F
:100020000000000000000000000000004B27000856
:10003000310C0008000000004927000819280008BA
:10004000DF010008DF010008DF010008DF01000810
:10005000DF010008DF010008DF010008DF01000800
:10006000DF010008DF010008DF010008DF010008F0
:10007000DF010008DF010008DF010008DF010008E0
:10008000DF010008DF010008DF010008DF010008D0
:10009000DF010008DF010008DF010008350C00085F
:1000A000DF010008ED2D0008D12D0008DF01000858
:1000B0002D2E0008F12E0008752F0008DF01000822
:1000C000DF010008DF010008DF010008DF01000890
:1000D000DF01000871310008DF010008DF010008BE
:1000E000DF010008DF010008DF010008DF01000870
:1000F000DF010008DF010008DF010008DF01000860
:10010000DF010008DF010008D92F0008DF01000827
:10011000DF010008DF010008DF0100085D30000892
:10012000DF010008DF010008DF010008DF0100082F
:10013000DF010008DF010008DF010008DF0100081F
:10014000DF010008DF010008DF010008DF0100080F
:10015000DF010008DF010008290A0008DF010008AC
:10016000DF010008DF010008DF010008DF010008EF
:10017000DF010008DF0100080D0A00080000000090
:10018000DF010008DF010008DF010008DF010008CF
:10019000DF010008DF010008DF01000800000000A7
:1001A000DF010008DF010008DF010008DFF810D0E0
:1001B00000F0DCFA00480047C1590008AFF30080A6
:1001C000381701200648804706480047FEE7FEE74B
:1001D000FEE7FEE7FEE7FEE7FEE7FEE7FEE7FEE7F7
:1001E00021280008AD0100082DE9FE4F804681EA74
:1001F0000300C00F0C46009021F0004123F00045A1
:10020000B8EB0200A94105D24046214690461C4663
:100210000B46024623F00040104347D0270DC7F39A
:100220000A00C3F30A510290401A019040286BDA89
:10023000C3F3130040F4801B0098924620B10023C2
:10024000D2EB030A63EB0B0B01985946C0F1400255
:10025000504600F0BFF906460D4650465946019AF1
:1002600000F0C7F910EB08006141002487EA115241
:1002700084EAE7731A4340D0009A62B3019A012AD4
:100280004FEA075215DC001B61EB02014FF0004200
:1002900002EA0752CDE90042001C41F580113246C6
:1002A0002B4600F0FEF903B0BDE8F08F4046214632
:1002B000F9E7001B61EB0201001C41F580130018F7
:1002C0005B412018A2F5001747EB030140EAD57007
:1002D000B6196D4111E06D084FEA360645EAC07562
:1002E0004FEA0752001B61EB0201001C41F580112F
:1002F00049084FEA30000019514132462B4603B0FD
:10030000BDE8F04F00F0BEB9009801224000002384
:10031000D0EB020263EBE073009821464FEAE074F1
:10032000B8EB000061EB0401E9E783F000435BE711
:1003300081F0004158E72DE9FE4F81EA030404F003
:10034000004421F0004100944FF0000B23F00043E3
:1003500050EA01045ED052EA03045BD0C3F30A54AE
:10036000C1F30A552C44A4F2F3340194A0FB0254C7
:10037000C1F3130141F48011C3F3130343F4801359
:1003800001FB024400FB034E840A970A44EA8154AD
:1003900047EA8357A4FB076802958D0A05FB07858A
:1003A0004FEA932C04FB0C542705029D4FEA065894
:1003B00047EA1637B5EB08056EEB070C870E920E71
:1003C00047EA811742EA8312A7FB0201B6EB0B0151
:1003D00064EB00042B0D43EA0C335E1844EB1C5015
:1003E000DA465146E7FB0201C5F313044FEA0B332B
:1003F00043EA14534FEA0432019C43EA0603A4F192
:100400000C040294009CCDE900B400F04AF903B05A
:10041000BDE8F08F00200146F9E72DE9F04D81EAB3
:10042000030404F0004B21F0004514464FF0000A8D
:1004300023F0004150EA050220D054EA01021DD009
:10044000C5F30A570246C5F31303C1F31300C1F302
:100450000A5640F4801543F48013A7EB0608101BDE
:10046000D64608F2FD3873EB050002D308F1010807
:1004700001E092185B41B8F1000F03DA0020014659
:10048000BDE8F08D00204FF48011064684460EE052
:10049000171B73EB050705D3121B63EB050306431C
:1004A0004CEA010C49084FEA300092185B4150EACF
:1004B0000107EDD152EA030012D082EA040083EA78
:1004C0000501084305D0101BAB4106D201220023D1
:1004D00006E000224FF0004302E06FF001025310EB
:1004E0001AEB06004CEB085110EB0A0041EB0B0134
:1004F000BDE8F04D00F0C6B80EB5C10F80EAE0705F
:100500000844CA07002140F233438DE80E000A4632
:100510000B4600F0C6F803B000BD00F0004230F01A
:1005200000400AD0C10D01F56071C0F3160042EA27
:100530000151C2084007114370470020014670472F
:1005400030B5041E71F1000404DB4FF0004440425A
:1005500064EB0101141E73F1000405DB1C464FF02F
:100560000043524263EB0403994208BF904230BDFE
:1005700001F0004330B421F0004150EA010206D0FE
:100580000A0DA2F56072C1F31301002A02DC30BC2F
:1005900000207047440F44EAC104C100E01830BC99
:1005A00000EBC25000F037B830B50B4601460020D2
:1005B0002022012409E021FA02F59D4205D303FA25
:1005C00002F5491B04FA02F52844151EA2F10102A6
:1005D000F1DC30BD202A04DB203A00FA02F10020D1
:1005E00070479140C2F1200320FA03F31943904071
:1005F0007047202A06DBCB17203A41FA02F043EA83
:10060000E07306E041FA02F3D040C2F120029140CB
:100610000843194670470029A8BF7047401C49008D
:1006200008BF20F00100704710B4B0FA80FC00FA57
:100630000CF050EA010404BF10BC704749B1CCF182
:10064000200421FA04F411FA0CF118BF012121430E
:100650000843A3EB0C01CB1D4FEA00614FEA1020C9
:1006600042BF002010BC704700EBC350104400296B
:10067000A4BF10BC7047401C490008BF20F0010017
:1006800010BC704710B5141E73F1000408DA401C4A
:1006900041F1000192185B411A4301D120F00100A1
:1006A00010BD2DE9F04D92469B4611B1B1FA81F291
:1006B00002E0B0FA80F220329046FFF78BFF04464A
:1006C0000F4640EA0A0041EA0B0153465A460843E6
:1006D00013D0114653EA010019D0C8F14002504628
:1006E00000F056F805460E46504659464246FFF77A
:1006F00071FF084305D0012004E020463946BDE8DB
:10070000F08D0020054346EAE0762C4337430A98F3
:100710006305E40AA0EB08000022FD0A44EA4754FE
:100720000A3002D500200146E9E7010510196941A8
:10073000DDE9084500196941BDE8F04DA2E770B553
:1007400021F0004303430CD0C1F30A550024D5EB3C
:10075000040564EB0403D617AD1AB34102DB002095
:10076000014670BD201841EB025170BD064C074D8B
:1007700006E0E06840F0010394E807009847103471
:10078000AC42F6D3FFF716FDE8870008088800089A
:10079000202A04DB203A21FA02F00021704721FAD6
:1007A00002F3D040C2F1200291400843194670473D
:1007B0002DE9F04D00231A461B1A8A4103DB002065
:1007C0000146BDE8F08DC1F30A52C1F3130141F4B3
:1007D00080154FF0000BD10702D100186D41521E59
:1007E0000027044640F2FF11384601EB620A3E46FC
:1007F0008046024600204FF48011FFF7C9FFC2195E
:100800007141BB1846EB0100B4EB030C75EB000C17
:1008100004D3E41A65EB000517460E46241908F1C7
:1008200001006D4180463428E3DDF91946EB0600EE
:10083000091BA84103D24FF0FF32134601E000220A
:1008400013461BEB070046EB0A51BDE8F04DFFF7DE
:1008500019BF70B58C1810F8015B15F0070301D1B2
:1008600010F8013B2A1106D110F8012B03E010F813
:10087000016B01F8016B5B1EF9D12B0705D4002336
:10088000521E0DD401F8013BFAE710F8013BCB1AD8
:10089000921C03E013F8015B01F8015B521EF9D5CD
:1008A000A142D8D3002070BD41F2086209E003786C
:1008B0008B4202DA0023037001E0FF230370401C27
:1008C000521E002AF3DA704700BFFEE738B504462F
:1008D00045F6200000231A4604490090044804F01D
:1008E00020FD204601F000FD38BD00008C9E002058
:1008F0006C46002070B500263C235D22002108468E
:1009000002F02DF8002526E0002421E000BFC5EB11
:10091000051000EB4510114901EB8000005DC0108F
:10092000C602C5EB051000EB451001EB8000005D31
:10093000801046EA4016C5EB051000EB451001EBB0
:100940008000005D46EAE006304602F08BF8A41C09
:10095000BC2CDBD3AD1C782DD6D370BD6C460020EB
:1009600010B5012002F0EAFBFE2002F0E7FB45F69D
:100970002001054802F0C2FBFE2002F0DFFB01204F
:1009800002F0DCFB10BD00006C46002070B505468F
:10099000082D1FDA2946002001F0A8FB002406E0FC
:1009A00000224021782004F09DFF601CC4B2802CFE
:1009B000F6DB681CC1B2002001F098FB002406E0C1
:1009C00000224021782004F08DFF601CC4B2802CEE
:1009D000F6DB19E0082D17D10025002612E0294684
:1009E000002001F083FB002406E000224021782053
:1009F00004F078FF601CC4B2802CF6DB681CC5B222
:100A0000701CC6B2082EEADB70BD000010B50120D4
:100A100003F0D4FF012804D103F0C8FF01200149ED
:100A2000087010BDAC0F002010B5102207211E4821
:100A300004F0DAFA98B101201C490870022004F091
:100A4000B3FF20220721184804F0AFFA1022072133
:100A5000154804F08BFA0721134804F067FA0122C5
:100A60000721114804F0C0FA10B1022004F09CFFE5
:100A7000042207210C4804F0B7FA10B1022004F058
:100A800093FF08220721084804F0AEFA10B10220B3
:100A900004F08AFF10220721034804F0A5FA10B1E0
:100AA000022004F081FF10BD00640240AC0F002062
:100AB00010B502460020092A36D2DFE802F0352FB1
:100AC00029231D17110B050011F8014B0A2300FB08
:100AD000034000BF11F8014B0A2300FB034000BF95
:100AE00011F8014B0A2300FB034000BF11F8014B32
:100AF0000A2300FB034000BF11F8014B0A2300FB4F
:100B0000034000BF11F8014B0A2300FB034000BF64
:100B100011F8014B0A2300FB034000BF11F8014B01
:100B20000A2300FB034000BF00BF10BD70B50929B8
:100B300075D2DFE801F074695B4D3E2F211305008B
:100B4000384CB0FBF4F40A25B4FBF5F605FB16446B
:100B5000302505FB034402F8014B00BF324CB0FBCB
:100B6000F4F40A25B4FBF5F605FB1644302505FB25
:100B7000034402F8014B00BF2C4CB0FBF4F40A25EF
:100B8000B4FBF5F605FB1644302505FB034402F8DB
:100B9000014B00BF42F21074B0FBF4F40A25B4FB21
:100BA000F5F605FB1644302505FB034402F8014B1E
:100BB00000BF4FF47A74B0FBF4F40A25B4FBF5F6E9
:100BC00005FB1644302505FB034402F8014B00BF2A
:100BD0006424B0FBF4F40A25B4FBF5F605FB1644D7
:100BE000302505FB034402F8014B00BF0A24B0FB8B
:100BF000F4F40A25B4FBF5F605FB1644302505FB95
:100C0000034402F8014B00BF0A24B0FBF4F504FBD7
:100C10001504302505FB034402F8014B00BF00BF5B
:100C200070BD00008096980040420F00A086010031
:100C30007047000010B54FF4007004F0E5FA012889
:100C40000FD1400204F0DAFA002004F0ADFE45F6C0
:100C500020020721144804F0C9FA0721124804F0C1
:100C600075F94FF4807004F0CFFA012802D1000228
:100C700004F0C4FA802004F0C7FA012802D18020D1
:100C800004F0BCFA402004F0BFFA012802D1402051
:100C900004F0B4FA202004F0B7FA012802D1202091
:100CA00004F0ACFA10BD00000064024070B586B0DC
:100CB00006460D46632E01D1002400E03446002C88
:100CC0007DD1002DFCD141F20E1005F0FFFCFE4954
:100CD00031F8140005F0FAFCFC4951F82430FC49C5
:100CE00051F824000122022104F09FFCF74B53F835
:100CF0002420F84B53F82410F54B53F8240004F04B
:100D000047FCF54951F82430F14951F824000022FC
:100D1000114604F08AFCF14931F8140005F0D6FCC4
:100D20004FF0807005F008FDED4951F8240007F000
:100D3000A9F8C720ADF808000020ADF80A00ADF80A
:100D40000C0041F2873004900020ADF80E008DF8C1
:100D50001400E34951F8240002A907F05BF90220CE
:100D6000ADF800000120ADF802000020ADF804004D
:100D7000ADF80600DB4A32F8242091B2D84A52F886
:100D800024006A4607F092F9D54951F8240006F08C
:100D9000C7FED54A52F82410D14A52F8240007F071
:100DA0002CFACF4951F82400012107F026FACC494A
:100DB00051F82400012107F01CFACB4A00E013E0AF
:100DC00052F82410C64A52F8240007F012FAC74914
:100DD00011F824000022114605F00CFAC04951F820
:100DE000240007F011F96DE0002C6BD1012D69D1C1
:100DF000B54931F8140005F069FCB44951F82430C4
:100E0000B34951F824000122022104F00EFCB2493A
:100E100051F82430AE4951F824000122022104F097
:100E200004FCAA4B53F82420AA4B53F82410A84BD7
:100E300053F8240004F0ACFBA74B53F82420A54B37
:100E400053F82410A24B53F8240004F0A1FBA3494B
:100E500031F8140005F03AFC280605F06DFCA049B5
:100E600051F8240007F00EF80920ADF80800002022
:100E7000ADF80A00ADF80C0041F288300490002073
:100E8000ADF80E008DF81400954951F8240002A920
:100E900007F0C0F8924951F8240006F041FE90494D
:100EA00051F8240000231A46032107F077FA8C49F1
:100EB00051F8240007F0A8F841F287318C4807F078
:100EC000ABF900BF632E00D10124012C7ED1002D8F
:100ED000FCD141F20E1005F0F9FB7B4931F814000A
:100EE00005F0F4FB794951F82430794951F8240090
:100EF0000122022104F099FB744B53F82420754B16
:100F000053F82410724B53F8240004F041FB72494B
:100F100051F824306E4951F824000022114604F0A3
:100F200084FB6E4931F8140005F0D0FB200605F073
:100F300003FC6B4951F8240006F0A4FFC720ADF86C
:100F400008000020ADF80A00ADF80C0041F287302F
:100F500004900020ADF80E008DF81400604951F89F
:100F6000240002A907F056F80220ADF80000012085
:100F7000ADF802000020ADF80400ADF80600594AB3
:100F800032F8242091B2564A52F824006A4607F0FB
:100F90008DF8534951F8240006F0C2FD524A52F828
:100FA00024104F4A52F8240007F027F94C4951F811
:100FB0002400012107F021F9494951F824000121B9
:100FC00007F017F9484A52F8241000E011E0444AAB
:100FD00052F8240007F00DF9444911F824000022CA
:100FE000114605F007F93E4951F8240007F00CF8C6
:100FF00085E0012C7ED1012D7CD1334931F81400DC
:1010000005F064FB314951F82430314951F824008E
:101010000122022104F009FB2F4951F824302C4908
:1010200051F824000122022104F0FFFA274B53F863
:101030002420284B53F82410254B53F8240004F0A7
:10104000A7FA254B53F82420224B53F82410204BA9
:1010500053F8240004F09CFA204931F8140005F0FC
:1010600035FB200605F068FB1D4951F8240006F009
:1010700009FF0920ADF808000020ADF80A00ADF81E
:101080000C0041F2883004900020ADF80E008DF87D
:101090001400134951F8240002A906F0BBFF1049BF
:1010A00051F8240006F03CFD0D4951F824000023BE
:1010B0001A46032107F072F9094951F8240006F095
:1010C000A3FF41F2873116E0A40100209401002023
:1010D0008C010020A80100209C010020B801002004
:1010E000B0010020BC010020C4010020D401002078
:1010F0000008004003E0034807F08EF800BF06B088
:1011000070BD000000080040014619B9054800887C
:1011100082B204E0012902D10348008882B210B2F1
:1011200070470000880100208A01002010B50CA043
:1011300002F05EF8002410E00D4850F824100DA0D5
:1011400002F056F80A2094FBF0F100FB114010B9B0
:1011500006A002F04DF8601C84B23C2CECDB10BD04
:101160000D0AC8FCB5C0BFEDB6C8A3BA0D0A000091
:101170006828002025642C0008B503F041F8EE48EB
:101180000068EE490860EE480068EE490860EE48E5
:101190000068EE490860EE480068EE490860EE48D5
:1011A0000068EE490860EE480068EE490860EE48C5
:1011B0000068EE490860EE480068EE490860EE48B5
:1011C0000068EE490860EE480068EE490860EE48A5
:1011D0000068EE490860EE480068EE490860EE4895
:1011E0000068EE490860EE480068EE490860EE4885
:1011F0000068EE490860EE480068EE490860EE4875
:101200000068EE490860EE480068EE4908608EE12B
:10121000ED48007803F0F4FB012000F0C1FC012848
:101220001ED154222C21062002F0C2FFE7A3012286
:101230002C21062005F02FF9322003F0CBFB0820EB
:10124000FFF7A4FBE0480078052803D10020DE4921
:1012500008706CE1DC480078401CDB49087066E1EE
:10126000012000F09DFC04281DD154222C210620D1
:1012700002F09EFFD5A301222C21062005F00BF9D8
:10128000322003F0A7FB0820FFF780FBCE48007850
:1012900018B90520CC49087049E1CB480078401EB8
:1012A000C949087043E1012000F07AFC05286FD19C
:1012B00012220021062002F07BFFC6A3012200219A
:1012C000062005F0E8F8322003F084FB0120C24933
:1012D000087080220021062002F06AFF1023BDA2C0
:1012E0000621002000F0DAFF1023BCA206216020B6
:1012F00000F0D4FF0123BB480278BB480178B24814
:10130000007805F069FCE1E062E0B8480078012867
:101310000BD10020B54908700123B2480278B248C9
:101320000178A948007805F057FC012000F038FC4E
:1013300001280BD10023AB480278AB480178A248C2
:10134000007805F049FC06F025F832E0012000F0B5
:1013500027FC04280BD10023A2480278A248017878
:101360009948007805F038FC05F01EFE21E00120C8
:1013700000F016FC02280CD100239A4802789A4803
:1013800001789148007805F027FC05F0ABFE10E0ED
:10139000A0E0012000F004FC03280AD100239148BA
:1013A0000278914801788848007805F015FC05F02E
:1013B000DBFF012000F0F4FB052802D105F00AFE56
:1013C00006E0012000F0ECFB062801D105F09EFEAE
:1013D00081480078012898D07B480078012811D1F5
:1013E00083A300222821104605F055F880A300228F
:1013F0002821022005F04FF87DA300222821042097
:1014000005F049F85EE079480078012814D1754864
:1014100001787548007805F0A1F90020734908703B
:1014200001200090734803786E4802786E48017876
:101430006548007804F056FF012000F0B1FB012858
:1014400002D106F003F92EE0012000F0A9FB0428E8
:1014500002D105F0B3FF26E0012000F0A1FB022835
:101460000ED100200090634803785E4802785E4801
:1014700001785548007804F035FF06F027F812E0AF
:10148000012000F08DFB03280DD100200090594869
:10149000037854480278544801784B48007804F0A7
:1014A00021FF06F0A9F8012000F07AFB052802D1FF
:1014B00005F0C4FF06E0012000F072FB062801D110
:1014C00006F030F84448007802289CD04248007862
:1014D00068B319E7012000F063FB062810D17022E1
:1014E000582102F065FE44A301225821062004F091
:1014F000D2FF322003F06EFA0820FFF747FA17E018
:10150000012000F04DFB072811D170225821062040
:1015100002F04EFE38A301225821062004F0BBFF42
:10152000322003F057FA0820FFF730FA00E06FE6A8
:1015300000BF02F065FE08BDF8010020380200205F
:10154000FC0100203C02002000020020400200209C
:10155000040200204402002008020020480200206B
:101560000C0200204C020020040000205002002049
:10157000E401002054020020E8010020580200206D
:10158000EC0100205C020020F0010020600200203D
:10159000F4010020640200201002002068020020F4
:1015A000140200206C0200201802002070020020AB
:1015B0001C0200207402002020020020780200207B
:1015C000240200207C020020DD01002053686966AF
:1015D0007400000053657400DC01002045786974D4
:1015E00000000000DF010020DE010020E1010020FA
:1015F0002E000000E001002052756E0000BFFEE7E3
:10160000F0B5002119E2002011E24C00C4EB0415F2
:1016100005EB4414FE4D05EB8404245C012505EB29
:101620004105C5EB051606EB4515F94E06EB85059C
:101630002D5C25444C00C4EB041606EB4414F44E18
:1016400006EB8406441C345D2544012404EB41046C
:10165000C4EB041606EB4414ED4E06EB8406441C62
:10166000345D2A19D41702EB9474C4F3870400EB99
:10167000D0756D10C1EB011606EB4116E54F07EB77
:10168000460674554C1C6400C4EB041505EB441469
:10169000DF4D05EB8404255C4C1C012606EB44045D
:1016A000C4EB041606EB4414D94E06EB8404245C08
:1016B00025444C1C6400C4EB041606EB4414D44EC1
:1016C00006EB8406441C345D25444C1C012606EBC5
:1016D0004404C4EB041606EB4414CD4E06EB84061A
:1016E000441C345D2A19D41702EB9474C4F38705A3
:1016F00000EBD07466104C1CC4EB041707EB4414C9
:10170000C44F07EB4404A5558C1C6400C4EB0415BE
:1017100005EB4414BE4D05EB8404255C8C1C0126AE
:1017200006EB4404C4EB041606EB4414B84E06EB77
:101730008404245C25448C1C6400C4EB041606EB72
:101740004414B34E06EB8406441C345D25448C1CC3
:10175000012606EB4404C4EB041606EB4414AC4E1D
:1017600006EB8406441C345D2A19D41702EB9474EA
:10177000C4F3870500EBD07466108C1CC4EB04170F
:1017800007EB4414A34F07EB4404A555CC1C64009D
:10179000C4EB041505EB44149D4D05EB8404255C56
:1017A000CC1C012606EB4404C4EB041606EB4414DF
:1017B000974E06EB8404245C2544CC1C6400C4EBE7
:1017C000041606EB4414924E06EB8406441C345D6A
:1017D0002544CC1C012606EB4404C4EB041606EB9E
:1017E00044148B4E06EB8406441C345D2A19D4172E
:1017F00002EB9474C4F3870500EBD0746610CC1C24
:10180000C4EB041707EB4414824F07EB4404A555BF
:101810000C1D6400C4EB041505EB44147C4D05EB72
:101820008404255C0C1D012606EB4404C4EB04165D
:1018300006EB4414764E06EB8404245C25440C1D10
:101840006400C4EB041606EB4414714E06EB8406E8
:10185000441C345D25440C1D012606EB4404C4EBF6
:10186000041606EB44146A4E06EB8406441C345DF1
:101870002A19D41702EB9474C4F3870500EBD074D3
:1018800066100C1DC4EB041707EB4414614F07EB03
:101890004404A5554C1D6400C4EB041505EB441429
:1018A0005B4D05EB8404255C4C1D012606EB4404CE
:1018B000C4EB041606EB4414554E06EB8404245C7A
:1018C00025444C1D6400C4EB041606EB4414504E32
:1018D00006EB8406441C345D25444C1D012606EBB2
:1018E0004404C4EB041606EB4414494E06EB84068C
:1018F000441C345D2A19D41702EB9474C4F3870591
:1019000000EBD07466104C1DC4EB041707EB4414B5
:10191000404F07EB4404A5558C1D6400C4EB04152F
:1019200005EB44143A4D05EB8404255C8C1D01261F
:1019300006EB4404C4EB041606EB4414344E06EBE9
:101940008404245C25448C1D6400C4EB041606EB5F
:1019500044142F4E06EB8406441C345D25448C1D34
:10196000012606EB4404C4EB041606EB4414284E8F
:1019700006EB8406441C345D2A19D41702EB9474D8
:10198000C4F3870500EBD07466108C1DC4EB0417FC
:1019900007EB44141F4F07EB4404A555CC1D64000E
:1019A000C4EB041505EB4414194D05EB8404255CC8
:1019B000CC1D012606EB4404C4EB041606EB4414CC
:1019C000134E06EB8404245C2544CC1D6400C4EB58
:1019D000041606EB44140E4E06EB8406441C345DDC
:1019E0002544CC1D012606EB4404C4EB041606EB8B
:1019F0004414074E06EB8406441C345D2A19D417A0
:101A000002EB9474C4F3870500EBD074661003E016
:101A10006C46002064300020CC1DC4EB041707EB9B
:101A200044143C4F07EB4404A555821CD0B2BC289B
:101A3000FFF6EBAD01F10802D1B23829FFF6E3ADB4
:101A4000002064E0344C245C334DBC352D5C2544CF
:101A5000314E441C345D2544BC36441C345D2A1987
:101A6000D41702EB9474C4F38704034600EBD375D8
:101A70006D102A4E74552A4C245C294DBC352D5CC2
:101A80002544274E441C345D2544BC36441C345D3B
:101A90002A19D41702EB9474C4F3870400EBD375AE
:101AA0006D101E4E5E3674551E4C245C1D4DBC35AB
:101AB0002D5C25441B4E441C345D2544BC36441C1F
:101AC000345D2A19D41702EB9474C4F3870500EB34
:101AD000D3746410114EBC363555134C245C124D32
:101AE000BC352D5C2544104E441C345D2544BC3669
:101AF000441C345D2A19D41702EB9474C4F3870490
:101B000000EBD3756D10094E7455821CD0B2BC2801
:101B100098DBF0BD64300020AC980020F444002035
:101B2000249A00209C9B0020149D00200E4600203B
:101B300010B50446044A52F82410044A52F824000E
:101B400003F055FD10BD00002C03002014030020FD
:101B500010B50446632C0FD00D4931F8140004F081
:101B6000B5FD0C4951F824300B4951F824000122ED
:101B7000002103F04CFD0AE040F6034004F0A6FD0E
:101B80004FF47C5301220021044803F040FD10BDB6
:101B9000440300202C03002014030020000C02400A
:101BA00010B50446012C01D134490870334800783F
:101BB000002840D00020FFF7BBFF98B10120FFF7BD
:101BC000B7FF78B10220FFF7B3FF58B10320FFF74A
:101BD000AFFF38B10420FFF7ABFF18B10520FFF7C6
:101BE000A7FF40BB142002F0F5FE00202349087037
:101BF000FFF79EFF08B9012010BD0220FFF798FFF4
:101C000008B90220F8E70320FFF792FF08B9032084
:101C1000F2E70120FFF78CFF08B90420ECE704206D
:101C2000FFF786FF08B90520E6E70520FFF780FFEC
:101C300008B90620E0E70020FFF77AFF012818D056
:101C40000120FFF775FF012813D00220FFF770FF76
:101C500001280ED00320FFF76BFF012809D00420D4
:101C6000FFF766FF012804D00520FFF761FF012878
:101C700002D10120014908700020BDE78C0300203B
:101C80001CB50446632C1CD0184931F8140004F02C
:101C90001DFD174850F824000221CDE90010154918
:101CA00051F8240000231A46012103F0E5FC104AF4
:101CB00052F824100F4A52F82400002203F013FDBA
:101CC00012E040F6034004F001FD0F200221002342
:101CD0001A46CDE900100121074803F0CDFC00228F
:101CE0000F21054803F0FFFC1CBD0000B0030020DD
:101CF000A003002090030020000C024010B5002437
:101D000020E0E1B2114A12F824004FF6084200F038
:101D100018FEE1B20E4A12F824004FF61F0200F03E
:101D200010FEE1B20B4A12F824004FF4FC6200F0FE
:101D300008FEE1B2084A12F82400002200F001FE79
:101D4000601C84B23C2CDCDB10BD00006828002045
:101D5000502A0020742700208026002000BFFEE7C4
:101D600010B5002300242F208F49C1F8F000002077
:101D70008E49C1F8F0005E208D49C1F8F0008D4910
:101D8000C1F8F00000F01AFD3B23F1E03B2B03D13A
:101D90008948008804B204E08349581C31F82000C7
:101DA00004B2032C00DC032424E0C3EB031000EB9B
:101DB0004310824901EB4001A01E085CC0B9C3EB8F
:101DC000031000EB43107D4901EB4001601E085CED
:101DD000FF280DD1C3EB031000EB4310774901EB53
:101DE0004000005DFF2803D1704840F8234003E025
:101DF000601E04B2032CD8DA00BF3B2B03D16E481F
:101E0000008804B204E06849581C31F8200004B28C
:101E10005A2C00DB5A2424E0C3EB031000EB4310E0
:101E2000664901EB4001A01C085CC0B9C3EB03107C
:101E300000EB4310614901EB4001601C085CFF2886
:101E40000DD1C3EB031000EB43105C4901EB4000E4
:101E5000005DFF2803D1564840F8234003E0601C92
:101E600004B25A2CD8DD00BF504850F8230090B17E
:101E70004F4850F823005E280DD04C4951F82310EC
:101E80004B4A52F82320881800EBD0714910464A7B
:101E900042F823103EE0454850F8230078B144480A
:101EA00050F823005E280AD1404850F823004149E9
:101EB00051F8231008443C4941F823002AE03B48EC
:101EC00050F8230078B93A4850F823005E280AD029
:101ED000374850F82300374951F82310401A324947
:101EE00041F8230016E0314850F8230090B93048FB
:101EF00050F823005E280DD13B2B05D12E480068F9
:101F0000294941F8230005E02749581C51F82000D1
:101F100041F82300372B29DA2449581C51F82000B6
:101F20004B281FDA2249581C51F820000A2819DBD7
:101F3000581CC0EB001101EB4010204901EB4000A0
:101F4000194951F82310405C80B9981CC0EB00116E
:101F500001EB4010194901EB4000134951F82310DF
:101F6000405C18B9581C1649087004E0581E03B2AA
:101F7000042B3FF70BAF00BF0B48D0F8EC004B2809
:101F800003DB4B200C4908600DE00748D0F8EC005B
:101F90000F2803DC0F200849086004E00248D0F84D
:101FA000EC000549086010BD80260020682800204C
:101FB00074270020600000205401002064300020BD
:101FC0005801002000200DE00021C0EB001202EBC0
:101FD0004012064B03EB4202054B53F82030D1541C
:101FE000411C88B23C28EFDB7047000064300020C1
:101FF000802600207047000010B5002807DA0A0785
:10200000140E054A00F00F031B1FD45403E00A0707
:10201000130E024A135410BD18ED00E000E400E076
:1020200010B50021AE2000F056F90021084600F05E
:1020300052F90021102000F04EF90021402000F05C
:102040004AF90021B02000F046F90021812000F07B
:1020500042F90021FF2000F03EF90021A12000F00C
:102060003AF90021A62000F036F90021A82000F05E
:1020700032F900213F2000F02EF90021C82000F0A5
:102080002AF90021D32000F026F90021084600F0AB
:1020900022F90021D52000F01EF90021802000F057
:1020A0001AF90021D92000F016F90021F12000F0E2
:1020B00012F90021DA2000F00EF90021122000F0C0
:1020C0000AF90021DB2000F006F90021302000F0A1
:1020D00002F900218D2000F0FEF80021142000F00C
:1020E000FAF80021AF2000F0F6F810BD70B50446F4
:1020F0000D4605F1B000002100F0EDF8102141EA95
:102100001410002100F0E7F804F00F00002100F0A7
:10211000E2F870BD2DE9F04707460E469046994615
:102120004FF0000A0024A8F1200000F0FF0A174831
:1021300000EB0A157F2F02DD0027B01CC6B2B9F1F3
:10214000100F20D131463846FFF7D0FF002407E0BA
:102150002A784021782003F0C5FB6D1C601CC4B2B6
:10216000082CF5DB701CC1B23846FFF7BFFF002416
:1021700007E02A784021782003F0B4FB6D1C601C36
:10218000C4B2082CF5DBBDE8F0870000380400205D
:102190002DE9F04704460F46904699464FF0000A55
:1021A0000025A8F1200000F0FF0A194800EB0A16EC
:1021B0007F2F02DD0027A01CC4B2B9F1100F24D17B
:1021C00021463846FFF792FF002509E03078C043EA
:1021D000C2B24021782003F085FB761C681CC5B292
:1021E000082DF3DB601CC1B23846FFF77FFF0025E6
:1021F00009E03078C043C2B24021782003F072FB7E
:10220000761C681CC5B2082DF3DBBDE8F087000022
:10221000380400202DE9FF5F074691461E460E9DBB
:102220004FF0000A002435E0301B401EC1B20A20E6
:1022300004F04CF8B9FBF0F00A21B0FBF1F201FB1D
:102240001208BAF1000F14D1701EA04211DDB8F1CE
:10225000000F0CD1AB4605EBDB71491001FB04719B
:10226000C8B22B4620220199FFF754FF10E04FF02F
:10227000010AAB4605EBDB71491001FB0471C8B2E2
:1022800008F13001CAB22B460199FFF743FF00BFA6
:10229000601CC4B2B442C7DBBDE8FF9F2DE9F0412A
:1022A00004460F461546984600260FE0AA5D4346B1
:1022B00039462046FFF72EFF04F10800C4B2782CFF
:1022C00002DD0024B81CC7B2701CC6B2A85D00288D
:1022D000ECD1BDE8F08170B504460D46E2B2E9B23A
:1022E000782003F0FFFA70BD2DE9F0410746002485
:1022F00000250026A04641460020FFF7F7FE00BF5C
:1023000085E0002576E000266000C0EB001101EBBF
:102310004010414901EB8000405DB84201DB46F0CE
:102320000106601C4000C0EB001101EB40103A496F
:1023300001EB8000405DB84201DB46F00206A01CC4
:102340004000C0EB001101EB4010334901EB80006D
:10235000405DB84201DB46F00406E01C4000C0EBE3
:10236000001101EB40102C4901EB8000405DB842A8
:1023700001DB46F00806201D4000C0EB001101EB18
:102380004010254901EB8000405DB84201DB46F07A
:102390001006601D4000C0EB001101EB40101E490B
:1023A00001EB8000405DB84201DB46F02006A01D35
:1023B0004000C0EB001101EB4010174901EB800019
:1023C000405DB84201DB46F04006E01D4000C0EB36
:1023D000001101EB4010104901EB8000405DB84254
:1023E00001DB46F0800632464021782003F07AFA7D
:1023F000A81CC5B2BC2D86DB08F1010000F0FF0867
:1024000041460020FFF772FE04F10800C4B2382CE8
:10241000FFF677AFBDE8F0818C9E00202DE9F041FA
:102420000746002400250026A04600BF41460020A4
:10243000FFF75CFE00BF7DE000256EE00026C4EBE8
:10244000041000EB44103E4901EB4000405DB842EF
:1024500001DB46F00106601CC0EB001101EB4010EF
:10246000374901EB4000405DB84201DB46F002060F
:10247000A01CC0EB001101EB4010314901EB400002
:10248000405DB84201DB46F00406E01CC0EB0011E1
:1024900001EB40102A4901EB4000405DB84201DBEE
:1024A00046F00806201DC0EB001101EB4010244946
:1024B00001EB4000405DB84201DB46F01006601DB4
:1024C000C0EB001101EB40101D4901EB4000405DE5
:1024D000B84201DB46F02006A01DC0EB001101EB65
:1024E0004010174901EB4000405DB84201DB46F067
:1024F0004006E01DC0EB001101EB4010104901EB5C
:102500004000405DB84201DB46F080063246402183
:10251000782003F0E7F9681CC5B25E2D8EDB08F168
:10252000010000F0FF0841460020FFF7DFFD04F145
:102530000800C4B2382CFFF67FAFBDE8F081000080
:102540006430002030B589B005460C464FF4406039
:1025500004F0BCF840F6044004F0B8F84FF470639F
:1025600001220221634803F060F84FF46063022205
:102570000021604803F096F84FF4007201215D4895
:1025800003F006F84FF4006201215A4803F000F806
:102590004FF480720121574802F0FAFF4FF4806235
:1025A0000121544802F0F4FF4FF4885004F08EF8F3
:1025B0000020ADF81C00504805F064FC681E80B295
:1025C000ADF808000020ADF80A00ADF80C00601E60
:1025D00004900020ADF80E008DF8140002A94648C2
:1025E00005F018FD0020ADF81C000120ADF8180022
:1025F0000020ADF81E00ADF81A00ADF82000ADF8CF
:10260000220006AA00213C4805F0D2FA0022114619
:10261000394805F0F0FB60220021374805F0BEFB89
:1026200000221146344805F0F9FB06AA0121324880
:1026300005F0BEFA00220121880705F0DCFB6022CC
:1026400001212D4805F0AAFB002201212A4805F0AE
:10265000E5FB06AA0221284805F0AAFA0022022179
:10266000254805F0C8FB60220221234805F096FBAF
:1026700000220221204805F0D1FB06AA03211E48B2
:1026800005F096FA002203211B4805F0B4FB6022F6
:102690000321194805F082FB00220321164805F0AA
:1026A000BDFB0121144805F06DFE134805F038FA12
:1026B000114805F0A9FC0420022100231A46CDE9A7
:1026C00000100C4802F0D8FF04220321094802F050
:1026D0005FFF4FF4AF6044F61F61C7230022CDE9CE
:1026E0000010064941F2101003F00AFF044804806C
:1026F00009B030BD00000240000001400040014030
:10270000A80F00202DE9F04104460D460C48008832
:1027100068434FF47A7190FBF1F087B204B9002658
:10272000012C00D10126022C00D10326032C00D15C
:1027300002263A463146034805F05DFBBDE8F081CC
:10274000A80F0020000001407047704710B50446F4
:10275000044A52F82410044A52F8240002F047FFB9
:1027600010BD0000680300205003002010B504468F
:10277000632C0FD00D4931F8140003F0A7FF0C496A
:1027800051F824300B4951F824000122002102F0B5
:102790003EFF09E040F6064003F098FF3C2301228B
:1027A0000021054802F033FF10BD00008003002027
:1027B000680300205003002000180240002014E0AD
:1027C0005E210B4A42F8201000210A4A42F82010EC
:1027D0005E21094A42F820100021084A42F82010E0
:1027E0002F21074A42F82010401C3C28E8DB7047A4
:1027F00074270020682800205C290020502A00202F
:102800008026002010B5044622460021014805F02C
:10281000F2FA10BD0040014010B502F0E5F810BD1D
:1028200008B52948006840F4700027490860274827
:10283000006840F00100254908602448083000681D
:1028400040F080002149083108600020009002E03B
:102850000098401C00904CF2503100988842F7D309
:102860001A480830006840F09000184908310860A4
:102870000020009002E00098401C00904CF2503183
:1028800000988842F7D3002010490831086000BF43
:102890000E480830006800200028F9D10B48006875
:1028A0000B490840094908600A48091D0860081FCB
:1028B000006820F48020091F0860002003490C31C3
:1028C000086005F001F908BD88ED00E0003802401D
:1028D000FFFFF6FE1030002410B52A2000F094F817
:1028E000002000F065F8002000F062F8002000F001
:1028F0005FF8A82000F05CF82B2000F085F800209D
:1029000000F056F8002000F053F8002000F050F8D6
:10291000B32000F04DF82C2000F076F810BD70B513
:102920000646FFF7D9FF002408E0002503E0304603
:1029300000F098F86D1C842DF9D3641CA22CF4D3FC
:1029400070BD70B504460D4616462B4622462946F4
:10295000204600F004F8304600F084F870BD2DE900
:10296000F04107460C4615461E462A2000F04CF85A
:10297000002000F01DF8384600F01AF8002000F0A2
:1029800017F8284600F014F82B2000F03DF800203E
:1029900000F00EF8204600F00BF8002000F008F8D8
:1029A000304600F005F82C2000F02EF8BDE8F0814C
:1029B00070B5044601229103124802F094FE0025EE
:1029C0001DE000224FF400510E4802F08CFE04F08E
:1029D000800028B10122D1030A4802F084FE05E0FC
:1029E00000224FF40041074802F07DFE012251030E
:1029F000044802F078FE6006040E681CC5B2082D7B
:102A0000DFDB70BD0004024070B5044600224FF4C5
:102A10008041134802F067FE00251DE000224FF4BC
:102A200000510F4802F05FFE04F0800028B101223F
:102A3000D1030B4802F057FE05E000224FF400419D
:102A4000074802F050FE01225103054802F04BFEF8
:102A50006006040E681CC5B2082DDFDB70BD0000E7
:102A60000004024070B5044601229103134802F0AD
:102A70003AFE00251FE000224FF400510F4802F0FB
:102A800032FE04F4004028B10122D1030B4802F0C9
:102A90002AFE05E000224FF40041084802F023FE20
:102AA00001225103054802F01EFE4FF6FF7000EAB6
:102AB0004404681CC5B2102DDDDB70BD000402406B
:102AC00010B5044600224FF40041744802F00BFE9A
:102AD000322001F07FFF0122D103704802F003FE93
:102AE000322001F077FF1120FFF78EFF0A2001F05E
:102AF00071FF3A20FFF788FF5520FFF759FF262086
:102B0000FFF782FF0420FFF753FFF220FFF77CFF5F
:102B10000120FFF74DFFE020FFF776FF3F20FFF792
:102B200047FF2520FFF744FF1C20FFF741FF1E2031
:102B3000FFF73EFF2020FFF73BFF1220FFF738FF93
:102B40002A20FFF735FF9020FFF732FF2420FFF700
:102B50002FFF1120FFF72CFF0020FFF729FF002097
:102B6000FFF726FF0020FFF723FF0020FFF720FFDD
:102B70000020FFF71DFFE120FFF746FF2020FFF7B1
:102B800017FF2020FFF714FF2020FFF711FF202060
:102B9000FFF70EFF0520FFF70BFF0020FFF708FFF0
:102BA0001520FFF705FFA720FFF702FF3D20FFF7E5
:102BB000FFFE1820FFF7FCFE2520FFF7F9FE2A2074
:102BC000FFF7F6FE2B20FFF7F3FE2B20FFF7F0FEBA
:102BD0003A20FFF7EDFEB120FFF716FF0020FFF7C8
:102BE000E7FE0020FFF7E4FEB420FFF70DFF07200B
:102BF000FFF7DEFEC020FFF707FF0A20FFF7D8FE31
:102C00000220FFF7D5FEC120FFF7FEFE0220FFF7EE
:102C1000CFFEC520FFF7F8FE4F20FFF7C9FE5A2070
:102C2000FFF7C6FEC720FFF7EFFE4020FFF7C0FE0C
:102C30002A20FFF7E9FE0020FFF7BAFE0020FFF789
:102C4000B7FE0020FFF7B4FEA820FFF7B1FE2B204F
:102C5000FFF7DAFE0020FFF7ABFE0020FFF7A8FE2B
:102C60000020FFF7A5FEB320FFF7A2FE3620FFF7F6
:102C7000CBFE1CB1C020FFF79BFE02E0A020FFF7B7
:102C800097FEB720FFF7C0FE0020FFF791FE292036
:102C9000FFF7BAFE2C20FFF7B7FE10BD000C024074
:102CA0001CB540F6034003F011FD4FF40040022133
:102CB00000231A46CDE900100121424802F0DCFC55
:102CC00000224FF400413F4802F00DFD40F6014064
:102CD00003F0FCFC4FF48040022100231A46CDE9AA
:102CE00000100121384802F0C7FC00224FF4804157
:102CF000354802F0F8FC40F6014003F0E7FC4FF4E1
:102D00000050022100230122CDE900102E4802F0DC
:102D1000B3FC4FF4005205212B4802F039FC00228D
:102D20004FF40051284802F0DEFC4FF4005301221A
:102D30000221254802F079FC40F6014003F0C6FC70
:102D40004FF40040022100231A46CDE90010012172
:102D50001D4802F091FC00224FF400411A4802F095
:102D6000C2FC40F6014003F0B1FC4FF400500221D8
:102D700000231A46CDE900100121134802F07CFC23
:102D800000224FF40051104802F0ADFC40F6014023
:102D900003F09CFC4FF48050022100231A46CDE939
:102DA00000100121084802F067FC00224FF4805116
:102DB000054802F098FC41F20E01044804F0FCFCC6
:102DC0001CBD0000000C024000040240003800401E
:102DD00010B50121044805F013FA18B10121024889
:102DE00005F00BFA10BD00000048014010B50121AC
:102DF0000B4805F005FA88B10121094805F0FDF9F5
:102E00000120FEF781F9074988800020FEF77CF950
:102E10000549888002F03AFF02F0BAFE10BD0000BA
:102E200000440140ACF60020C8F6002010B5022195
:102E3000480705F0E5F9012847D10221800705F090
:102E4000DCF9012002F0B0FD2048008858B90021CB
:102E50004FF0804004F069FE401C1D4908800120AD
:102E60001A49088031E01948008801282DD1002135
:102E7000800704F05AFE401C164908800846008866
:102E800013490988884207DD1248008810490988DB
:102E9000401A1149086009E00D4800884FF6FF719B
:102EA000081A0C49098808440B4908600A48006858
:102EB0000A49B1FBF0F00A4908800846018809A0D8
:102EC00000F096F900200149088010BD180000208C
:102ED00014000020160000201C00002040420F00BB
:102EE000200000206672652069732025640A0000B6
:102EF00010B51A4A11681A4A106805F081F958B1DC
:102F0000164A1168164A106805F077F915480088C6
:102F1000401C144908801FE011490868012105F090
:102F20006FF9C8B10E490868012105F066F90D482E
:102F3000008800B20C49088000200A4908800B4A2A
:102F400011680B4A106802F05AFB28B10648008845
:102F5000404200B20449088010BD0000CC010020AE
:102F6000B001002080010020880100209C01002089
:102F70008C01002010B50121124805F041F9F8B18B
:102F80000121104805F039F90F4804F074FFA0F54D
:102F90001C50103800B20D49088042F210710A48E6
:102FA00004F06DFF0A4804F066FF42F21071081A3F
:102FB00000B20849088042F21071054804F05FFF32
:102FC00010BD0000000800400004004088010020FF
:102FD000000C00408A01002010B51A4A51681A4AB4
:102FE000506805F00DF958B1164A5168164A5068F4
:102FF00005F003F915480088401C1449088020E0BA
:1030000011494868012105F0FBF8D0B10E49486824
:10301000012105F0F2F80D480088404200B20C4949
:1030200008800020094908800A4A51680A4A506805
:1030300002F0E5FA28B106480088404200B204498F
:10304000088010BDCC010020B001002082010020CA
:103050008A0100209C0100208C01002010B5012174
:10306000064805F0CDF840B10121044805F0C5F847
:1030700003480088401C0249088010BD001400402D
:103080000000002070B504460D461449085D00227A
:10309000114603F0AFF8124B33F81420114B53F8DC
:1030A0002410114B53F8240005F0D3F90C4B33F8DE
:1030B00014200E4B53F824100B4B53F8240005F04A
:1030C000B2F90B4A52F824100A4A32F814002A4680
:1030D00005F08FF90848047070BD0000281000202A
:1030E00018100020081000200010002010100020F0
:1030F000201000201C1000202A10002070B504466B
:103100000D4614E014F8011B0A4A0B4B1B7852F8C9
:10311000230005F02EFA00BF0649074A127851F83D
:103120002200072105F0AAFA0028F5D06D1E002D17
:10313000E8D170BD201000202A10002010B50446F0
:1031400009490A4A127851F82200214605F011FA7D
:1031500000BF0549054A127851F82200072105F001
:103160008DFA0028F5D010BD201000202A10002074
:1031700010B51949194805F09DFA60B305211748A3
:1031800005F07CFA38B31449144805F086FA052195
:10319000124805F066FA114805F0E6F91049114A9F
:1031A000127888540F480078401C0E490870084671
:1031B0000078012805D10A480078A52801D0002010
:1031C000087008480078032805D1002005490870D8
:1031D00001200549087010BD0503050000100140DD
:1031E000B40F0020B70F0020B80F002000BFFEE78B
:1031F0000FB4054B10B503A9044A029800F02EFF46
:1032000010BC5DF814FB0000595500087010002038
:1032100003B401984100009850EAC12018BF04206F
:103220004A0D18BF40F0010040F2FF72B2EB515F4F
:1032300008BF40F00200012808BF052002B0704717
:103240002DE9F04D2DED040B2DED0E8B96B0DDE943
:103250002550279CDDF890A025F0004624F000487A
:10326000BAF1000F14BF0121002101EB4502FC4916
:1032700053184A1093422AD3002814BF0123002375
:1032800003EB44030B44F7498B4220D358EA000177
:103290009FEDF59B76D0DFF8D8B35D4503D1BAF149
:1032A000000F05D188E0BAF1000F08BF002100D05F
:1032B000012101EB450111F5001F08D8002814BFBA
:1032C0000121002101EB440111F5001F0BD99DEDF7
:1032D000261B9DED240B16B0BDEC0E8B04B0BDE893
:1032E000F04D00F069BE0027002DBCBFE1498845C4
:1032F00021DAE1498845A8BF02271CDAC3451ADC58
:10330000DE4901EB2851142908DDC1F1340220FA0D
:1033100002F101FA02F282420DD108E058B9C1F17E
:10332000140228FA02F101FA02F2424503D101F037
:103330000101C1F1020756EA0A0124D1002C22DA68
:10334000002D18BF022F01D0012F0AD0022000F05B
:103350007FFE16B0BDEC0E8B04B0BDE8F04D00F062
:1033600013BE022000F074FE00F00EFE51EC100BB4
:1033700081F0004141EC100B16B0BDEC0E8B04B097
:10338000BDE8F08D18E09FEDBEAB9FEDBF8B002830
:1033900071D1B848804522D105F1804010F58010E8
:1033A00008BFBAF1000F07D0B3450ADC002CA8BF54
:1033B0009DED260BE0DA0DE0B0EE490AF0EE690A69
:1033C000DAE7002C06DA9DED260B51EC100B81F0AC
:1033D00000416FE0AE48784490ED000BCCE7D84553
:1033E0004DD1002C48DA2EB186423AD1BAF1000F05
:1033F00042D126E0BAF1000F13D0022000F028FEDF
:1034000000F0F6FD8DED020B9DED240B8DED000B14
:1034100010EE900A039961F31E0003909DED020BDC
:10342000AAE78DED02AB9DED240B1AEE901A10EE7B
:10343000900A8DED000B61F31E0003909DED020BD1
:103440009AE78DED028B9DED240B18EE901A10EE8D
:10345000900A8DED000B61F31E0003909DED020BB1
:103460008AE709DA9DED240B51EC190B53EC102B74
:10347000FCF7D3FF1EE020E09DED240B7CE78642A5
:103480001BDAB4F1804F0DD0A4F10050B0F1FF5021
:1034900013D1002D11DB9DED240B51EC100B04F02A
:1034A00022FA07E09DED240B53EC102B51EC100B8E
:1034B00000F0C2BC41EC100B5EE79DED240B51EC1B
:1034C000100B01F0B3FEBAF1000FCDE90E0142D1AD
:1034D0009FED710B46B3A6F1E040B0F17F600CD0D8
:1034E0005E4538D1002D00DAA7B3022F0CBF0120B2
:1034F0004FF0FF30FDF700F8DCE7002D01DD002C78
:103500000DDA002D01DD002C1FDB002D16DA002C5A
:1035100014DB012F08BF9FED620B3FF42DAFB0EE1F
:103520004A0AF0EE6A0A27E7022F18BF002D0CD0D6
:10353000012F0AD1002DFFF61FAF06E0002DB8BF06
:10354000002C08DA012F3FF417AFB0EE480AF0EE76
:10355000680A11E71BE0012000EBE57050EA070163
:1035600015D0791EB0EE498AF0EE698A084308BF8B
:103570009FED4D8B4E480025804570DD4D494E48EE
:10358000884514DDB0420DDB002C19DB2FE0012053
:1035900000F05EFD16B0BDEC0E8B04B0BDE8F04D42
:1035A00000F016BDB34502DC002C09DC1FE08642AA
:1035B00002DA002C1BDA03E05E452BDD002C16DD61
:1035C000022000F045FD00F013FD8DED020B53ECE1
:1035D0001A2B51EC180BFCF7AEFECDE90001039954
:1035E000019861F31E0003909DED020BC4E60220DA
:1035F00000F02EFD00F00CFD10EE901A18EE900A6F
:103600008DED020B8DED008B61F31E0003909DED9F
:10361000020BB1E69DED0E0B53EC192B51EC100B88
:10362000FCF783FE9FED260BCDE9080153EC102B30
:103630009DED080B51EC100BFCF77DFE9FED221B5E
:1036400053EC112BFCF774FE9DED081B53EC112B72
:10365000FCF771FE9FED1E1B53EC112B3CE08CE040
:10366000FFFF1F00FFFF0F00000000000000F03F01
:103670000000F03F0000F07F0000404301FCFFFF2E
:10368000000000000000F07F0000000000000000CB
:103690000654000000000000000000000000008050
:1036A000000000000000F0FF000000000000F0BF7C
:1036B0000000E0410000F043FFFFEF3F000000008A
:1036C000000000000000D03F555555555555D53FD9
:1036D000000000000000E03FFCF72AFE9DED080B13
:1036E00041EC1A0B53EC102B51EC100BFCF723FEA2
:1036F00053EC1A2BFCF71FFE41EC1A0B9FEDFE0B4F
:1037000053EC102B9DED080B51EC100BFCF713FE46
:1037100041EC1B0B9FEDFA0B51EC1A0B53EC102BE9
:10372000FCF709FE41EC1A0B9FEDF70B53EC102B45
:103730009DED080B51EC100BFCF7FDFD53EC1A2B23
:10374000FCF7F3FD41EC1A0B51EC1B0B53EC1A2B5D
:10375000FCF74AFD0690CDE906519DED060B53ECB2
:103760001B2B51EC100BFCF7E0FD53EC1A2BFCF774
:10377000DFFD41EC100B00F0A1B90020B6F5801F71
:103780000EDA9FEDE30B53EC102B9DED0E0B51EC7D
:10379000100BFCF7D0FDCDE90E016FF034000E46A2
:1037A00000EB2650A0F2FF37C6F31300DA4940F0D1
:1037B0007F6646F040568842D8BF002408DDD749CE
:1037C0008142C8BF012403DC0024A6F580167F1CBB
:1037D000D348784400EBC4000F9690ED00CB9DEDEC
:1037E0000E0B53EC1C2B51EC100BFCF79EFD9DEDCA
:1037F0000E0B41EC1B0B53EC1C2B51EC100BFCF78C
:10380000F3FC41EC100B51EC190B53EC102BFCF7B3
:1038100004FE41EC1D0B51EC1B0B53EC1D2BFCF774
:103820008AFD41EC1A0BBF488DED10AB7844109522
:1038300090ED000B4FF0005040EA660000EB844032
:103840008DED080B00F5002009909DED080B53EC61
:103850001C2B51EC100BFCF768FD9DED0E1B53EC7F
:10386000112BFCF765FD41EC100B53EC102B9DED7B
:10387000100B51EC100BFCF75EFD9DED080B41ECBD
:103880001C0B53EC102B9DED100B51EC100BFCF7A7
:1038900052FD53EC1B2BFCF74BFD53EC1C2BFCF7A0
:1038A00044FD53EC1D2BFCF746FD41EC1C0B53EC87
:1038B0001A2B51EC1A0BFCF73EFD41EC1B0B9A48FE
:1038C0000621B0EE4B0AF0EE6B0A784400F0E0FA05
:1038D000B0EE401AF0EE601AB0EE41DAF0EE61DAC6
:1038E00053EC1B2B51EC1B0BFCF725FD53EC1D2B54
:1038F000FCF721FD9DED100B41EC1B0B53EC1A2B3B
:1039000051EC100BFCF770FC53EC1C2BFCF713FD77
:1039100053EC1B2BFCF768FC9DED100B41EC1B0BD3
:1039200053EC102B51EC100BFCF705FD41EC1D0B7B
:103930009FED7FEB53EC1E2BFCF756FC53EC1B2B3F
:10394000FCF752FC0890CDE908519DED080B53ECB3
:103950001E2B51EC100BFCF7E8FC53EC1D2BFCF775
:10396000E4FC53EC1B2BFCF7E3FC9DED080B41EC56
:103970001D0B53EC102B9DED100B51EC100BFCF7B5
:10398000DAFC41EC1B0B53EC1A2B51EC1D0BFCF732
:10399000D2FC9DED080B41EC1A0B53EC102B51ECB3
:1039A0001C0BFCF7C8FC53EC1A2BFCF71DFC41EC7C
:1039B0001A0B51EC1B0B53EC1A2BFCF715FC0C905B
:1039C000CDE90C519DED0C0B53EC1B2B51EC100B66
:1039D000FCF7ABFC53EC1A2BFCF7AAFC41EC1B0BDD
:1039E0009FED550B53EC102B9DED0C0B51EC100B78
:1039F000FCF7A1FC41EC1A0B9FED510B51EC1B0B9A
:103A000053EC102BFCF797FC41EC1B0B9FED4E0B7E
:103A100053EC102B9DED0C0B51EC100BFCF78BFCB9
:103A200053EC1B2BFCF7E0FB41EC100B48487844AF
:103A300000EBC40090ED001B51EC100B53EC112B6C
:103A4000FCF7D2FB41EC1B0B3846FCF755FDCDE9EA
:103A5000080153EC1B2B51EC1A0BFCF7C5FB41EC96
:103A6000100B3C48784400EBC40090ED00CB51ECC7
:103A7000100B53EC1C2BFCF7B7FB9DED081B53EC14
:103A8000112BFCF7B1FB0690CDE906519DED080B1B
:103A900053EC102B9DED060B51EC100BFCF745FC85
:103AA00053EC1C2BFCF741FC53EC1A2BFCF73DFCB0
:103AB00053EC1B2BFCF73CFC41EC100B9DED261B43
:103AC00053EC102B8DED001B00959DED260B51EC5A
:103AD000100BFCF730FC9DED000B41EC1A0B53EC86
:103AE000102B9DED260B51EC100BFCF71EFC9DEDF1
:103AF000061B53EC112B2FE0000000604715F73F29
:103B0000FE822B654715F73F44DF5DF80BAE543E50
:103B100000000000000040438E9803007AB60B00BE
:103B2000824F0000B04F0000BA4E000000000000BD
:103B30000000000000000840000000E009C7EE3F60
:103B4000FD033ADC09C7EE3FF5015B14E02F3EBEF2
:103B5000464D0000004D0000FCF7EDFB53EC1A2B26
:103B6000FCF742FB9DED060B41EC1A0B53EC102BBE
:103B70009DED000B51EC100BFCF7DDFBCDE90C01CA
:103B80009DED0C0B51EC1A0B53EC102BFCF72CFB9E
:103B9000CDE902010C46AA498C422FDB611A084389
:103BA00018D19DED0C0B53EC102B9DED020B51EC3D
:103BB000100BFCF7BAFB41EC1B0B9FEDA30B51EC78
:103BC0001A0B53EC102BFCF70FFB53EC1B2BFCF7E1
:103BD000B7FC2DD2022000F03BFA00F009FA10EEFB
:103BE000901A18EE900A8DED020B8DED008B61F3AB
:103BF0001E0003909DED020BFFF7BEBB944A24F01C
:103C00000041914214D39349214408437FF4EFAC1F
:103C10009DED0C0B53EC102B9DED020B51EC100B9A
:103C2000FCF783FB53EC1A2BFCF78AFC7FF6DFAC26
:103C300024F000408849894A002601EB2051824245
:103C40002BDA481C4FF4801121FA00F02044844AFA
:103C5000C0F30A517A44A1F2FF3192ED000B814A80
:103C60008DED080BCA4020EA0202C0F3130040F4B5
:103C70008010C1F1140120FA01F60992002CB8BF9E
:103C800076429DED080B53EC102B9DED0C0B51EC87
:103C9000100BFCF74AFBCDE90C019DED0C0B51EC30
:103CA0001A0B53EC102BFCF79FFA9FED6F0B08904B
:103CB000CDE9085153EC102B9DED080B51EC100B86
:103CC000FCF739FB41EC1B0B9FED690B53EC102B00
:103CD0009DED080B51EC100BFCF72DFB9DED0C0B33
:103CE00041EC1C0B53EC102B9DED080B51EC100B11
:103CF000FCF71BFB53EC1A2BFCF71AFB9FED5E1B2A
:103D000053EC112BFCF717FB53EC1C2BFCF76CFA54
:103D100041EC1A0B51EC1B0B53EC1A2BFCF764FA19
:103D2000CDE902019DED020B53EC1B2B51EC100B66
:103D3000FCF7FBFA53EC1A2BFCF7FAFA9DED020B99
:103D400041EC1A0B53EC102B51EC100BFCF7F3FA6F
:103D5000CDE908014A489DED080B0521784400F0A3
:103D600097F89DED081B51EC100B53EC112BFCF751
:103D7000E2FA9DED021B53EC112BFCF7D9FACDE9C9
:103D800006019DED020B53EC1A2B51EC100BFCF7C6
:103D9000D2FA53EC1A2BFCF727FA9FED3B0B41ECC0
:103DA0001A0B53EC102B9DED060B51EC100BFCF78E
:103DB000BCFA9DED060B41EC1B0B53EC102B9DED5B
:103DC000020B51EC100BFCF7B6FA53EC1B2BFCF773
:103DD00024FB53EC1A2BFCF7A8FA9DED021B53ECC5
:103DE000112BFCF7A2FA53EC192BFCF7A1FACDE941
:103DF000020101EB065001150029C8BF039015DC34
:103E00009DED020B324651EC100BFCF798FCFFF7CE
:103E1000FFF9042808BF00F0FBF832469DED020BC5
:103E200051EC100BFCF78BFCCDE902019DED020B70
:103E300051EC180B53EC102BFCF77DFAFFF73ABB53
:103E40000000904000000000FE822B654715973C63
:103E500000CC904000346F3F01FCFFFF0000E03FCA
:103E6000884B0000FFFF0F0000000000432EE63FDC
:103E7000396CA80C615C20BEEF39FAFE422EE63F99
:103E8000584A000000000000000000000000004050
:103E900070B504462DED028B4D1E00EBC500B0EE53
:103EA000408AF0EE608A90ED000B35F0060017D0E6
:103EB00053EC182B51EC100BFCF73DFA41EC100BB6
:103EC0006D1E04EBC50090ED001B51EC100B53EC84
:103ED000112BFCF789F941EC100B35F00600E7D106
:103EE000022D36D0042D1CD0062D1CBFBDEC028B3C
:103EF00070BD53EC182B51EC100BFCF71CFA94ED31
:103F00000A1B53EC112BFCF76FF953EC182BFCF741
:103F100012FA94ED081B53EC112BFCF765F941ECF8
:103F2000100B53EC182B51EC100BFCF704FA94ED2A
:103F3000061B53EC112BFCF757F953EC182BFCF72D
:103F4000FAF994ED040B53EC102BFCF74DF941EC0E
:103F5000100B53EC182B51EC100BFCF7ECF994ED13
:103F6000021B53EC112BFCF73FF953EC182BFCF719
:103F7000E2F994ED001B53EC112BFCF735F9BDEC85
:103F8000028B41EC100B70BD9FED070B10B553EC8D
:103F9000102B9FED070B51EC100BFCF73EFA41EC98
:103FA000100B10BD00000000000000000000000029
:103FB000000000000000F03F10B553EC112B51EC55
:103FC000100BFCF711F941EC100B10BD00000000C4
:103FD0009FED050B10B553EC102B51EC100BFCF7BB
:103FE0001CFA41EC100B10BD0000000000000000A6
:103FF0009FED050B10B553EC102B51EC100BFCF79B
:104000009AF941EC100B10BD000000000000007098
:104010009FED050B10B553EC102B51EC100BFCF77A
:104020008AF941EC100B10BD0000000000000010E8
:1040300002E008C8121F08C1002AFAD17047704771
:10404000002001E001C1121F002AFBD170470000CF
:104050000149086070470000741000202DE9FF4FEF
:1040600089B09B460446002506E025280BD05A4619
:104070000B999047641C6D1C20780028F5D10DB079
:104080002846BDE8F08F0027B8460122474900E0E6
:10409000074314F8013F203B02FA03F00842F7D12E
:1040A00020782E2819D114F8010F47F004072A2888
:1040B0000ED06FF02F022078A0F1300109290CD822
:1040C00008EB880102EB410100EB0108641CF2E7F8
:1040D0000A98641C50F8048B0A9020780028CED0EF
:1040E000642808D0692806D075281ED05A460B9936
:1040F00090476D1C58E00A994FF00A0901C90A91CE
:10410000002802DA40422D2102E0390504D52B2196
:104110008DF82010012103E0F90704D02021F7E7F2
:104120008A4608AE0DE00021FAE70A994FF00A0925
:1041300001C90A91F7E74946FCF736FA303106F82B
:10414000011D0028F7D1ADEB060000F1200978072A
:1041500001D44FF00108C84502DDA8EB090000E0DA
:1041600000208046002706E008A85A46C05D0B994B
:1041700090476D1C7F1C5745F6DB04E030205A4603
:104180000B9990476D1CB8F10001A8F10108F5DC0E
:1041900005E016F8010B5A460B9990476D1CB9F1D2
:1041A0000001A9F10109F4DC641C65E7092801009C
:1041B0002DE9F04105460E461746B81B00F0FF08F2
:1041C00029463046FDF792FF002405E040210020FB
:1041D000FEF781F8601CC4B24445F7DB681CC1B22D
:1041E0003046FDF783FF002405E040210020FEF764
:1041F00072F8601CC4B24445F7DBBDE8F0810000F2
:1042000008B59023804A0021142001F033F80820DB
:1042100000231A467D4900907B4801F082F808206F
:10422000002302467A490090774801F07AF8082086
:104230000023102277490090734801F072F808209B
:1042400000231822744900906F4801F06AF8082092
:1042500000232022714900906B4801F062F8082089
:10426000002328226E490090674801F05AF8082080
:10427000002330226B490090634801F052F8082077
:1042800000233822684900905F4801F04AF808206E
:1042900000234022654900905B4801F042F8082065
:1042A0000023482262490090574801F03AF808205C
:1042B000002350225F490090534801F032F8082053
:1042C000002358225C4900904F4801F02AF808204A
:1042D00000236022594900904B4801F022F8082041
:1042E0000023682256490090474801F01AF8082038
:1042F0000023702253490090434801F012F808202F
:1043000000237822504900903F4801F00AF8082025
:10431000002380224D4900903B4801F002F808201C
:10432000002388224A490090374800F0FAFF3749B5
:104330000820FCF7BDFB4749086035490820FCF719
:10434000B7FB4549086033490820FCF7B1FB4349F6
:10435000086031490820FCF7ABFB414908602F4950
:104360000820FCF7A5FB3F4908602D490820FCF711
:104370009FFB3D4908602B490820FCF799FB3B490E
:10438000086029490820FCF793FB39490860274950
:104390000820FCF78DFB3749086025490820FCF709
:1043A00087FB3549086023490820FCF781FB334926
:1043B000086021490820FCF77BFB314908601F4950
:1043C0000820FCF775FB2F4908601D490820FCF701
:1043D0006FFB2D4908601B490820FCF769FB2B493E
:1043E000086019490820FCF763FB29490860174950
:1043F0000820FCF75DFB2749086015490820FCF7F9
:1044000057FB2549086008BDD42B002080020020FE
:10441000880200209002002098020020A0020020C4
:10442000A8020020B0020020B8020020C002002034
:10443000C8020020D0020020D8020020E0020020A4
:10444000E8020020F0020020F80200200003002013
:1044500008030020F8010020FC01002000020020D9
:1044600004020020080200200C02002004000020AA
:10447000E4010020E8010020EC010020F001002010
:10448000F401002010020020140200201802002075
:104490001C020020200200202402002008B5002376
:1044A000894A082189480068FCF740FB0023884AB4
:1044B000082188480068FCF739FB0023864A082158
:1044C00086480068FCF732FB0023854A08218548AE
:1044D0000068FCF72BFB0023834A0821834800680F
:1044E000FCF724FB0023824A082182480068FCF77D
:1044F0001DFB0023804A082180480068FCF716FB5A
:1045000000237F4A08217F480068FCF70FFB002347
:104510007D4A08217D480068FCF708FB00237C4A9F
:1045200008217C480068FCF701FB00237A4A082137
:104530007A480068FCF7FAFA0023794A082179489A
:104540000068FCF7F3FA0023774A082177480068EF
:10455000FCF7ECFA0023764A082176480068FCF75D
:10456000E5FA0023744A082174480068FCF7DEFA73
:104570000023734A082173480068FCF7D7FA002328
:10458000714A082171480068FCF7D0FA0023704A8C
:10459000082170480068FCF7C9FA082000231A4671
:1045A0006D490090484800F0BCFE082003460022F8
:1045B00069490090464800F0B4FE0820102300220C
:1045C00065490090444800F0ACFE08201823002202
:1045D00061490090424800F0A4FE082020230022F8
:1045E0005D490090404800F09CFE082028230022EE
:1045F000594900903E4800F094FE082030230022E4
:10460000554900903C4800F08CFE082038230022D9
:10461000514900903A4800F084FE082040230022CF
:104620004D490090384800F07CFE082048230022C5
:1046300049490090364800F074FE082050230022BB
:1046400045490090344800F06CFE082058230022B1
:1046500041490090324800F064FE082060230022A7
:104660003D490090304800F05CFE0820682300229D
:10467000394900902E4800F054FE08207023002293
:10468000354900902C4800F04CFE08207823002289
:10469000314900902A4800F044FE0820802300227F
:1046A0002D490090284800F03CFE08208823002275
:1046B00029490090264800F034FE9023264A002124
:1046C000142000F0F7FD08BD80020020F801002052
:1046D00088020020FC01002090020020000200203F
:1046E0009802002004020020A002002008020020FE
:1046F000A80200200C020020B002002004000020CC
:10470000B8020020E4010020C0020020E8010020DF
:10471000C8020020EC010020D0020020F00100209F
:10472000D8020020F4010020E00200201002002046
:10473000E802002014020020F002002018020020ED
:10474000F80200201C0200200003002020020020AC
:104750000803002024020020442B0020F0B5074667
:104760000C461546002F4ED144B93DB900237B4A73
:1047700005217B480068FCF7D9F937E04CB9012DD9
:1047800007D10023754A052176480068FCF7CEF969
:104790002CE04CB9022D07D10023704A0521724844
:1047A0000068FCF7C3F921E0012C08D13DB90023D2
:1047B0006A4A05216D480068FCF7B8F916E0012C3B
:1047C00009D1012D07D10023644A052168480068FA
:1047D000FCF7ACF90AE0012C08D1022D06D1002328
:1047E0005E4A052163480068FCF7A0F95B4806793A
:1047F00000785A49087108460670C6784078C87033
:1048000008464670A8E0012F56D144B93DB90023AF
:10481000524A052158480068FCF788F937E04CB93E
:10482000012D07D100234D4A052154480068FCF7AB
:104830007DF92CE04CB9022D07D10023474A052110
:104840004F480068FCF772F921E0012C08D13DB90E
:104850000023424A05214B480068FCF767F916E03F
:10486000012C09D1012D07D100233C4A05214648DE
:104870000068FCF75BF90AE0012C08D1022D06D193
:104880000023364A052141480068FCF74FF93348B8
:10489000067900783149087108460670C678407874
:1048A000C87008464670002C56D100783849087008
:1048B0002A48407888704FE0022F4DD144B93DB965
:1048C0000023264A052133480068FCF72FF937E01A
:1048D0004CB9012D07D10023204A05212E4800683C
:1048E000FCF724F92CE04CB9022D07D100231B4A18
:1048F00005212A480068FCF719F921E0012C08D1AC
:104900003DB90023154A052125480068FCF70EF93A
:1049100016E0012C09D1012D07D100230F4A0521F2
:1049200020480068FCF702F90AE0012C08D1022DAA
:1049300006D10023094A05211B480068FCF7F6F858
:104940000648067900780549087108460670C67859
:104950004078C87008464670F0BD0000280200206C
:10496000F8010020FC0100200002002004020020C9
:10497000080200200C02002004000020E4010020B6
:10498000E8010020EC010020F0010020F4010020EB
:104990002E02002010020020140200201802002025
:1049A0001C02002020020020240200200249496944
:1049B0000143014A51617047000005500146044817
:1049C0000069084008B9002070470120FCE700009A
:1049D000000005500349086000BF0249096800292A
:1049E000FBD17047100000200448006820B1034844
:1049F0000068401E01490860704700001000002058
:104A0000F8B50446002C60D1FBA3002211461046E5
:104A100001F041FDF948002210210368104602F020
:104A200057FEF7A300221146022001F034FDF5489D
:104A3000002210210368022002F04AFEF2A30022A5
:104A40001146042001F027FDF048002210210368E0
:104A5000042002F03DFEE8A300224821104601F0A8
:104A60001AFDEB48002258210368104602F030FE80
:104A7000E8A300224821022001F00DFDE6480022B3
:104A800058210368022002F023FEDFA30022482100
:104A9000042001F000FDE1480022582103680420B1
:104AA00002F016FEDEA300221146062001F0F3FC00
:104AB000DCA300222C21062001F0EDFCDBA3002268
:104AC0006821062001F0E7FC2CE2012C66D1D8A376
:104AD00000221146104601F0DEFCD74800222021BA
:104AE0000368104602F0F4FDD4A300221146022010
:104AF00001F0D1FCD348002220210368022002F0FB
:104B0000E7FDD1A300221146042001F0C4FCD048E7
:104B1000002220210368042002F0DAFD0120CD49A3
:104B20000870CDA300224821104601F0B4FCCB4808
:104B3000002258210368104602F0CAFDB5A30022E6
:104B40004821022001F0A7FCC54800225821036833
:104B5000022002F0BDFDC3A300224821042001F081
:104B60009AFCC148002258210368042002F0B0FDDD
:104B70000020B8490870AAA300221146062001F0BF
:104B80008AFCA8A300222C21062001F084FCA7A304
:104B900000226821062001F07EFCC3E1022C60D1D6
:104BA000B2A300221146104601F075FCB048002265
:104BB00010210368104602F08BFDAEA300221146BF
:104BC000022001F068FCAC4800221021036802209A
:104BD00002F07EFDA9A300221146042001F05BFC37
:104BE000A748002210210368042002F071FDA5A34C
:104BF00000224821104601F04EFCA3480022582113
:104C00000368104602F064FDA0A3002248210220A0
:104C100001F041FC9E48002258210368022002F066
:104C200057FD9CA300224821042001F034FC9A483F
:104C3000002258210368042002F04AFD78A30022D4
:104C40001146062001F027FC76A300222C21062025
:104C500001F021FC75A300226821062001F01BFC55
:104C600060E1032C48D16FA300222C21062001F023
:104C700012FC6EA300226821062001F00CFC87A321
:104C800001221821002001F006FC01231A463821D8
:104C9000002002F01DFD83A301220021022001F06B
:104CA000FAFB022300221021184602F011FD7EA318
:104CB00001224021022001F0EEFB022300225021BC
:104CC000184602F005FD79A301220021042001F01D
:104CD000E2FB032300221821042002F0F9FC74A354
:104CE00001224021042001F0D6FB04230022582198
:104CF000184602F0EDFC15E1042C7CD16D4803F060
:104D0000BAF80546102005232A46002100900846DF
:104D1000FDF780FA684803F0AEF84CF250310D1AF6
:104D2000102005232A46022100900020FDF772FA88
:104D3000614803F0A0F84CF250310D1A5D4803F0C1
:104D40009AF8281A12D15C4803F095F84CF25031C9
:104D50000E1A584803F08FF8351A102006232A46F9
:104D6000194600900020FDF755FA12E0514803F073
:104D700082F80646504803F07EF84CF25031081A8B
:104D8000351A102006232A46194600900020FDF708
:104D900041FA0020FDF7DAFC40B90021454803F054
:104DA0006EF84CF25031444803F069F8102000903E
:104DB0004248008842F21071421805230421002065
:104DC000FDF728FA0120FCF7EBFE022804D13B484E
:104DD00000880A30394908800120FCF7E1FE0328E9
:104DE00004D1364800880A3834490880334800889E
:104DF000FDF708FD96E063E0503A0000F80100205E
:104E0000493A0000FC010020443A00000002002062
:104E100004020020623A0000080200200C02002078
:104E200053657400536869667400000052756E0023
:104E30004D5F533A0000000004000020485F533AE1
:104E400000000000E40100204C5F533A0000000025
:104E5000E8010020DE010020613A0000EC010020A2
:104E6000F0010020633A0000F4010020313A000014
:104E700010020020323A000014020020333A0000F1
:104E800018020020343A00001C020020353A0000CD
:104E900020020020363A0000240200206D69643AA6
:104EA000000000004C3A0000523A0000384C3A0032
:104EB00038523A0000040040000C00401203002069
:104EC000052C2FD10220FCF733FE28B916480078B4
:104ED000401C1549087008E00320FCF729FE20B9A2
:104EE00011480078401E104908700020FDF72EFC84
:104EF00018B90D480078FBF7E9FC0120FDF726FC06
:104F000008B9FBF7F7FC0220FDF720FC08B9FBF716
:104F100027FD102003230090034802780021084653
:104F2000FDF778F9F8BD00000200002010B501EB94
:104F30004102D30000F11002D25822F0010301EB2C
:104F40004102D40000F11002135110BD10B501EB65
:104F50004102D30000F11002D25842F0010301EBEC
:104F60004102D40000F11002135110BD30B5802A67
:104F70000DD001EB4103DC0000F110031B599343FA
:104F800001EB4104E50000F1100463510CE001EB7A
:104F90004103DC0000F124031B59934301EB41045E
:104FA000E50000F12404635130BD10B504290CDA8A
:104FB00001EB41035C00C1F3400304EB830302FAFD
:104FC00003F38468234383600DE00B1FD9B201EB28
:104FD00041035C00C1F3400304EB830302FA03F3D3
:104FE000C4682343C36010BDF0B503460025002606
:104FF0000C46042979DA082A34D004DC012A07D0C7
:10500000042A70D119E0102A41D0202A6BD153E034
:1050100001EB41004700C1F3400007EB800702FAB3
:1050200007F01F6800EA070601EB4100C70003F123
:105030002400C05900F0800556E001EB4100470014
:10504000C1F3400007EB800702FA07F01F6800EA8F
:10505000070601EB4100C70003F11000C05900F042
:10506000020541E001EB41004700C1F3400007EBBE
:10507000800702FA07F01F6800EA070601EB41000B
:10508000C70003F11000C05900F004052CE001EB4B
:1050900041004700C1F3400007EB800702FA07F028
:1050A0001F6800EA070601EB4100C70003F110008A
:1050B000C05900F0080517E001EB41004700C1F3BB
:1050C000400007EB800702FA07F01F6800EA0706B6
:1050D00001EB4100C70003F11000C05900F01005BA
:1050E00002E002E0FFE700BF7AE0201FC4B2082A16
:1050F00034D004DC012A07D0042A6FD119E0102A29
:1051000041D0202A6AD153E004EB44004700C4F3A5
:10511000400007EB800702FA07F05F6800EA070625
:1051200001EB4100C70003F12400C05900F08005E5
:1051300055E004EB44004700C4F3400007EB800750
:1051400002FA07F05F6800EA070601EB4100C700BA
:1051500003F11000C05900F0020540E004EB4400E8
:105160004700C4F3400007EB800702FA07F05F68CE
:1051700000EA070601EB4100C70003F11000C05927
:1051800000F004052BE004EB44004700C4F34000AA
:1051900007EB800702FA07F05F6800EA070601EBF9
:1051A0004100C70003F11000C05900F0080516E0E7
:1051B00004EB44004700C4F3400007EB800702FA09
:1051C00007F05F6800EA070601EB4100C70003F142
:1051D0001000C05900F0100501E0FFE700BF00BF5C
:1051E00016B10DB10120F0BD0020FCE710B501EBB8
:1051F0004103DC0000F114031A5110BD014908609D
:1052000070470000143C014001460748006800EA6E
:10521000010205481438006800EA010312B10BB11D
:10522000012070470020FCE7143C014082B0CDE92A
:10523000000121F0004001909DED000B02B051EC07
:10524000100B704710B502468B1A094C2488634333
:1052500003F5AF6398B240F22263984201DD18462D
:1052600004E040F2CE43984200DA184610BD000038
:10527000040200202DE9F04380460E4617461D46E5
:10528000404600F079F88419012000FB0549A9EB9C
:105290000400B0F5804F03D34FF0FF30BDE8F0833A
:1052A000002303E02078F854641C5B1CAB42F9D364
:1052B0000120F3E72DE9F05F81460F4690461E4638
:1052C00000F038F9D32000F0BBF8484600F054F85D
:1052D000C519012000FB065AAAEB0500B0F5804F66
:1052E00003D34FF0FF30BDE8F09F484600F02BF8A5
:1052F000834600BF584600F0C5F80028FAD10024C4
:1053000009E000BF18F80410284600F071F80028E2
:10531000F8D16D1C641CB442F3D300F097F801205F
:10532000E1E7F0B5059C1719BDB21F19BEB207E041
:105330002F1BC75DA6EB040C01F80C70671EBCB2F6
:10534000002CF5D1F0BD01460B2903D8F82000EA66
:10535000C1007047172904D8081DF82202EAC000CE
:10536000F7E71B2905D8A1F10C00F82202EAC000DA
:10537000EFE74FF0FF30ECE70146042904D24FF08D
:10538000006000EB81307047052901D21448FAE72C
:105390000C2904D2481F134A02EB4040F3E71029BE
:1053A00006D2A1F10C004FF0016202EB8030EAE777
:1053B000112901D20C48E6E7182905D2A1F1110004
:1053C0000A4A02EB4040DEE71C2906D2A1F1180090
:1053D0004FF0026202EB8040D5E74FF0FF30D2E79A
:1053E0000000010800000208000011080000120877
:1053F00070B504460D460026701E00F031F80646D2
:10540000CEB90E48006820F440700C490860084688
:10541000006808600846006840F0010008602570D8
:105420004FF0FF3000F01CF806460448006820F0FA
:10543000010002490860304670BD0000103C024087
:1054400001490860704700000C3C024003480068B6
:1054500040F000400149086070470000103C0240E5
:1054600000B50346012200BF00F03AF802465B1E79
:10547000012A01D1002BF7D1012A00D108221046C0
:1054800000BD000030B504460025681EFFF7E8FFA8
:1054900005460DBB1148006820F0F8000F49086070
:1054A0000846006844F0020108430C4908600846B9
:1054B000006840F4803008604FF0FF30FFF7D0FF05
:1054C00005460648006820F00200044908600846C6
:1054D000006820F0F8000860284630BD103C02400B
:1054E00000201349096801F48031B1F5803F01D1F2
:1054F00001201CE00E49096801F0100109B10520E6
:1055000015E00B49096801F4807109B102200EE031
:105510000749096801F0EF0109B1072007E00449D4
:10552000096801F0020109B1062000E0002070477F
:105530000C3C02400548006800F0004028B10448D7
:1055400002490C390860034808607047103C02406B
:1055500023016745AB89EFCD70B504460D46E1B236
:10556000094A0A4B1B7852F8230003F002F800BFE7
:105570000549064A127851F82200072103F07EF807
:105580000028F5D0204670BD201000202A100020F1
:10559000F0B503461C6A5D6A00200DE001268640D6
:1055A00016403EB187000F26BE40B443860001FA84
:1055B00006F63443461CB0B20828EFD3082011E0A9
:1055C0000126864016405EB1A0F10806B7000F26FE
:1055D000BE40B543A0F10806B60001FA06F6354311
:1055E000461CB0B21028EBD31C625D62F0BD0246CF
:1055F0001069084008B1012070470020FCE702460E
:105600001069084008B1012070470020FCE72DE92F
:10561000F04104460D4616461F463B463246294693
:10562000204600F002F8BDE8F081F0B504460D46D2
:1056300016462168E268002019E0012787401F40D4
:105640009FB14FEA400C032707FA0CF7B943470014
:1056500005FA07F739434FEA400C032707FA0CF71E
:10566000BA43470006FA07F73A43471CB8B2102876
:10567000E3D32160E260F0BD2DE9F04705460E4618
:1056800017461C46DDE908894B463A46314628460E
:10569000FFF7CBFF4B4642462146284600F002F872
:1056A000BDE8F087F0B50C461546012C03D14668DD
:1056B0001E43466002E046689E43466082680021C1
:1056C0000DE001268E401E403EB14F000326BE4035
:1056D000B2434E0005FA06F632434E1CB1B2102911
:1056E000EFD38260F0BD0AB1816100E08162704752
:1056F000012904D1026842F48062026003E002687A
:1057000022F48062026070472DE9F05F04460E4685
:105710009346022000F048FF07462E48B7FBF0F8FA
:10572000B8F1320F01D34FF03208D4F804A02AF0B8
:105730003F0A4AEA080AC4F804A02748864218D853
:105740002448B7FBF0F000F10109B9F1320F02D3A0
:105750003220206201E0C4F820907000B7FBF0F521
:10576000042D00D20425E069C5F30B010843E06174
:105770002EE01A4886422BD84FF4967008FB00F0B2
:105780004FF47A71B0FBF1F0401C2062BBF1000FC6
:1057900008D106EB4600B7FBF0F5E06920F4804045
:1057A000E06109E006EBC60000EB0610B7FBF0F580
:1057B000E06940F48040E061C5F30B0008B945F0B2
:1057C0000105E06940F40040E061E0692843E061E0
:1057D000BDE8F09F40420F00A0860100801A06003D
:1057E0007CB504460D4640F6054000F06FFF0220F0
:1057F000009001231A46014601901648FFF73CFF2E
:105800000120022103460246CDE900101148FFF7AE
:1058100033FF022204210F48FFF7BAFE01220421C0
:105820000C48FFF7B5FE41F2160000F04FFF0022D2
:1058300021460948FFF768FF2B460022114606481B
:1058400000F041F8044800F00CF801210248FFF78D
:105850004FFF7CBD0014024000580040CAB20261F4
:105860007047016841F001010160704710B540F2D6
:105870000152914202D1426982690AE000EB911221
:10588000126801F01F040123A3409A4300EB911317
:105890001A6010BD10B5024602EB9110006801F0CD
:1058A0001F040123A340184008B1012010BD0020AF
:1058B000FCE712F1020F02D121F0010101E041F0F9
:1058C00001010161704730B50C460021016821F0EB
:1058D000020121430160C3F3090342EA0305856025
:1058E00030BD000070B504460E46154600BF40F2BC
:1058F00001612748FFF7CEFF0028F8D1244800F0C7
:1059000049F800BF4FF4A0612148FFF7C3FF00280A
:10591000F8D06FF0010221461D48FFF7CAFF00BF13
:1059200040F201511A48FFF7B5FF0028F8D040F2C5
:1059300001511748FFF79AFF00BF40F20751144882
:10594000FFF7A8FF0028F8D031461148FFF786FF7F
:1059500000BF40F202510E48FFF79CFF0028F8D02C
:1059600029460B48FFF77AFF00BF40F20251084872
:10597000FFF790FF0028F8D0054800F010F800BFAE
:105980000348006800F400700028F9D170BD0000E1
:1059900000580040016841F480710160704701685F
:1059A00041F4007101607047034951F82010034A27
:1059B00052F82020D16270476C0100206001002065
:1059C00008B501F0C7FFFBF7D7FB0A21634802F0D7
:1059D00023FC41F28831624802F01EFCBDE06148C0
:1059E00000780028FAD000205E490870FBF708FE16
:1059F0003C225E215C4800F09BFA5C490870084636
:105A000001785948FAF750FFFCF7AAF90020FCF793
:105A10009DFEE8B9FAF76EFFFBF788FBFCF76EF91D
:105A2000FCF7D0FA1020052300905148028800218D
:105A30000846FCF7EFFB1020052300904B48027846
:105A400002210020FCF7E6FB48480078FCF7E6FC62
:105A500000204749088001F09FF8464908704348F4
:105A60000078462803DD0220FCF770FE70B94FF481
:105A7000AF60414908809FED410A414880ED000A2E
:105A80009FED3E0A3F4880ED000A19E02F2139487A
:105A90000078FFF7D7FB384908803B4890ED000AB3
:105AA000B8EE400A364880ED000A374890ED000A0B
:105AB000B8EE400A334880ED000A012033490870EF
:105AC0002D480088FCF79EFE0120FCF73FFEE8BB56
:105AD0001020062300902648028802210020FCF7AF
