:020000040800F2
:1000000038040020C5010008650200085D020008F0
:10001000610200080D0200085503000800000000FE
:100020000000000000000000000000009302000833
:10003000110200080000000091020008950200086B
:10004000DF010008DF010008DF010008DF01000810
:10005000DF010008DF010008DF010008DF01000800
:10006000DF010008DF01000815020008DF010008B9
:10007000DF010008DF010008DF010008DF010008E0
:10008000DF010008DF010008DF010008DF010008D0
:10009000DF010008DF010008DF010008DF010008C0
:1000A000DF010008DF010008DF010008DF010008B0
:1000B000DF010008DF010008DF010008DF010008A0
:1000C000DF010008DF010008DF010008DF01000890
:1000D000DF010008DF010008DF010008DF01000880
:1000E00013020008DF010008DF010008DF0100083B
:1000F000DF010008DF010008DF010008DF01000860
:10010000DF010008DF010008DF010008DF0100084F
:10011000DF010008DF010008DF010008DF0100083F
:10012000DF010008DF010008DF010008DF0100082F
:10013000DF010008DF010008DF010008DF0100081F
:10014000DF010008DF010008DF010008DF0100080F
:10015000DF010008DF010008DF010008DF010008FF
:10016000DF010008DF010008DF010008DF010008EF
:10017000DF010008DF010008DF01000800000000C7
:10018000DF010008DF010008DF010008DF010008CF
:10019000DF010008DF010008DF01000800000000A7
:1001A000DF010008DF010008DF010008DFF810D0E0
:1001B00000F01AF80048004719050008AFF3008066
:1001C000380400200648804706480047FEE7FEE75F
:1001D000FEE7FEE7FEE7FEE7FEE7FEE7FEE7FEE7F7
:1001E0009D020008AD010008064C074D06E0E068DE
:1001F00040F0010394E8070098471034AC42F6D36E
:10020000FFF7D8FFF40C0008140D000800BFFEE74C
:100210007047704710B5102000F0CAF8A8B101204F
:1002200000F06EF9102000F0BDF81021074800F032
:1002300000F928B9064800F038FC0649086004E0D7
:10024000034800F032FC0449086010BD000C024075
:10025000000400400C0000201000002000BFFEE75A
:1002600000BFFEE77047000010B5002807DA0A0754
:10027000140E054A00F00F031B1FD45403E00A07B5
:10028000130E024A135410BD18ED00E000E400E024
:100290007047704710B500F079F810BD08B52948CF
:1002A000006840F47000274908602748006840F063
:1002B00001002549086024480830006840F08000AB
:1002C0002149083108600020009002E00098401C9D
:1002D00000904CF2503100988842F7D31A48083009
:1002E000006840F090001849083108600020009034
:1002F00002E00098401C00904CF250310098884277
:10030000F7D3002010490831086000BF0E480830BC
:10031000006800200028F9D10B4800680B4908400C
:10032000094908600A48091D0860081F006820F490
:100330008020091F0860002003490C31086000F08C
:100340001FFA08BD88ED00E000380240FFFFF6FE0E
:100350001030002400BFFEE702E008C8121F08C1E9
:10036000002AFAD170477047002001E001C1121F36
:10037000002AFBD1704700000349086000BF024912
:1003800009680029FBD1704700000020044800687C
:1003900020B103480068401E014908607047000012
:1003A000000000200149086070470000143C014033
:1003B00001460748006800EA010205481438006851
:1003C00000EA010312B10BB1012070470020FCE7E5
:1003D000143C0140F0B503461C6A5D6A00200DE044
:1003E0000126864016403EB187000F26BE40B4432A
:1003F000860001FA06F63443461CB0B20828EFD353
:10040000082011E00126864016405EB1A0F10806E2
:10041000B7000F26BE40B543A0F10806B60001FAAA
:1004200006F63543461CB0B21028EBD31C625D6261
:10043000F0BD02461069084008B101207047002055
:10044000FCE7F0B504460D4616462168E268002038
:1004500019E0012787401F409FB14FEA400C032756
:1004600007FA0CF7B943470005FA07F739434FEA93
:10047000400C032707FA0CF7BA43470006FA07F7C0
:100480003A43471CB8B21028E3D32160E260F0BDC4
:100490002DE9F04705460E4617461C46DDE908895A
:1004A0004B463A4631462846FFF7CBFF4B4642467D
:1004B0002146284600F002F8BDE8F087F0B50C466A
:1004C0001546012C03D146681E43466002E046688B
:1004D0009E434660826800210DE001268E401E404A
:1004E0003EB14F000326BE40B2434E0005FA06F669
:1004F00032434E1CB1B21029EFD38260F0BD000030
:10050000034951F82010034A52F82020D162704765
:1005100024000020180000201CB500F035F94FF42D
:10052000406000F079F80820022100231A46CDE946
:1005300000100D48FFF7ACFF082202210A48FFF720
:1005400049FF40F2AF4044F61F6163230322CDE927
:100550000010064941F2030000F00AF803E04FF4EE
:10056000FA60FFF709FFFAE700000240000C0040C4
:100570002DE9F04387B007460C4615461E46DDE9D7
:100580000E98384600F048F80020ADF814002046D8
:1005900000F090FAADF800600020ADF80200ADF870
:1005A0000400CDF80890ADF806008DF80C006946FF
:1005B000204600F047FB0020ADF814000120ADF804
:1005C00010000020ADF81600ADF81200ADF81800CC
:1005D000ADF81A0004AA2946204600F003F9424665
:1005E0002946204600F021FA60222946204600F0E4
:1005F000EFF900222946204600F02AFA0121204680
:1006000000F06CFB204600F0E7F8204600F014FBF9
:1006100007B0BDE8F0830000074A02EB9011D1F863
:10062000001800F01F0301229A401143024B03EB14
:100630009012C2F80018704700300240074A02EBDF
:100640009011D1F8001800F01F0301229A40914345
:10065000024B03EB9012C2F80018704700300240C2
:10066000074A02EB9011D1F8001800F01F03012295
:100670009A401143024B03EB9012C2F800187047E6
:1006800000300240002000213A4A126842F48032D1
:10069000384B1A6000BF401C364A126802F4003121
:1006A00019B94FF6FF729042F5D1324A126802F43E
:1006B00000320AB900BFFEE72E4A4032126842F00B
:1006C00080522C4B40331A602B4A126842F440424D
:1006D000294B1A60274A08321268264B08331A60E1
:1006E0001A46126842F400421A601A46126842F42E
:1006F000A0521A60214A1B1F1A601A1F126842F08A
:1007000080721B1F1A6000BF1A4A126802F0007242
:10071000002AF9D0184A126842F48032164B1A6047
:1007200000BF154A526802F48032002AF9D0124AFA
:10073000126842F40032104B1A6000BF0E4A526831
:1007400002F40032002AF9D00A4A0832126822F074
:100750000302084B08331A601A46126842F002027C
:100760001A6000BF034A0832126802F00802002A29
:10077000F8D070470038024000700040196440090A
:1007800010B5FFF77FFF10BD10B5124800684FF499
:100790007A71B0FBF1F4601EB0F1807F01D30120CB
:1007A0000FE0601E4FF0E02148610F214FF0FF3055
:1007B000FFF75AFD00204FF0E02188610720086113
:1007C000002008B100BFFEE70021481EFFF74CFDE6
:1007D00010BD000014000020016841F0800101609C
:1007E0007047000010B531B101293FD002297DD0FA
:1007F00003297CD1BFE0036A23F00103036283690C
:1008000023F003038361036A148823430362036AAA
:1008100023F002030362036A9488234303626A4B52
:10082000984202D0694B98421FD1036A23F0040317
:100830000362036A548823430362036A23F00803B4
:100840000362036AD48823430362436823F48073FA
:1008500043604368148923434360436823F400736F
:1008600043604368548923434360ABE0036A23F049
:1008700010030362836923F440738361036A14885D
:1008800043EA04130362036A23F020030362036A4A
:10089000948843EA041303624B4B984202D04B4BBB
:1008A000984226D1036A23F040030362036A548806
:1008B00043EA04130362036A23F080030362036ABA
:1008C000D48843EA04130362436823F480634360DB
:1008D0004368148943EA84034360436823F4006354
:1008E00043604368548943EA840301E002E068E01E
:1008F000436067E0036A23F480730362C36923F0F3
:100900000303C361036A148843EA04230362036A8E
:1009100023F400730362036A948843EA04230362A6
:10092000294B984202D0294B984223D1036A23F4E1
:1009300080630362036A548843EA04230362036A00
:1009400023F400630362036AD48843EA0423036246
:10095000436823F4805343604368148943EA0413D3
:100960004360436823F4005343604368548943EA77
:100970000413436026E0036A23F480530362C369CF
:1009800023F44073C361036A148843EA04330362A7
:10099000036A23F400530362036A948843EA04332E
:1009A0000362094B984202D0084B984208D1436831
:1009B00023F4804343604368148943EA841343600B
:1009C00000E000BF00BF10BD000001400004014076
:1009D00031B101290CD0022913D0032922D118E00A
:1009E000836923F0700383618369134383611AE091
:1009F000836923F4E0438361836943EA02238361CB
:100A000011E0C36923F07003C361C3691343C36179
:100A100009E0C36923F4E043C361C36943EA0223E5
:100A2000C36100E000BF00BF704731B1012906D0AB
:100A3000022906D0032908D105E0426306E082635B
:100A400004E0C26302E0026400E000BF00BF704740
:100A500031B101290CD0022913D0032922D118E089
:100A6000836923F0080383618369134383611AE078
:100A7000836923F400638361836943EA022383610A
:100A800011E0C36923F00803C361C3691343C36161
:100A900009E0C36923F40063C361C36943EA022325
:100AA000C36100E000BF00BF704701460020486AF4
:100AB0007047000010B504465C49601A8C426FD044
:100AC00019DC5B49A4EB01008C424ED009DCB4F187
:100AD000804F2ED057482044A0B3B0F5806F72D11C
:100AE0003AE0B0F5806F49D0B0F5006F4FD0B0F567
:100AF000406FF4D17BE0B0F5923F5BD009DCB0F5FC
:100B0000806F73D0B0F5644F0AD0B0F5684F5AD1FA
:100B100047E0B0F5943F57D0B0F5963F53D15CE035
:100B20004FF41060FFF79CFD4FF41060FFF786FD57
:100B300079E04FF40060FFF793FD4FF40060FFF79A
:100B40007DFD70E0FFE740F60100FFF789FD40F60C
:100B50000100FFF773FD66E040F60200FFF780FD3D
:100B600040F60200FFF76AFD5DE040F60300FFF784
:100B700077FD40F60300FFF761FD54E040F6040006
:100B8000FFF76EFD40F60400FFF758FD4BE040F61E
:100B90000500FFF765FD40F60500FFF74FFD42E059
:100BA0002EE040F60110FFF75BFD40F60110FFF765
:100BB00045FD38E04FF41160FFF752FD4FF411602E
:100BC000FFF73CFD2FE02DE040F61110FFF748FD48
:100BD00040F61110FFF732FD25E040F61210FFF746
:100BE0003FFD40F61210FFF729FD1CE011E040F632
:100BF0000600FFF735FD40F60600FFF71FFD12E087
:100C000040F60700FFF72CFD40F60700FFF716FD42
:100C100009E040F60800FFF723FD40F60800FFF763
:100C20000DFD00E000BF00BF10BD0000001C004033
:100C3000000C004000FCFFBF016841F001010160B1
:100C4000704700000A8882621D4A90420ED0B0F1BF
:100C5000804F0BD01B4A904208D01B4A904205D0CF
:100C60001A4A904202D01A4A90420BD1026822F0EE
:100C70007002026002684B881A43026002688B8827
:100C80001A4302608A68C262124A90420AD0124A2B
:100C9000904207D0026822F4407202600268CB885A
:100CA0001A430260064A904202D0094A904201D19A
:100CB0000A7B0263426942F0010242617047000010
:100CC000000001400004004000080040000C00400B
:100CD000000401400010004000140040012904D12C
:100CE000426C42F40042426403E0426C22F400424F
:100CF00042647047140D0008000000203800000016
:100D0000580300084C0D00083800002000040000C3
:100D10006803000800000000000000000000000060
:100D2000000000000000000000C2EB0B000C0240BD
:100D3000000C0240000C0240040000000100000012
:0C0D400002000000030C030C030C000078
:04000005080001AD41
:00000001FF
